:1000000036C045C044C043C042C041C040C03FC0EC
:100010003EC03DC03CC03BC03AC039C038C0B8C784
:1000200036C0B6C034C033C032C031C030C02FC0BB
:100030002EC02DC02CC02BC02AC029C028C027C06C
:100040000008100000080000000800000000008008
:100050000008000000080000000800000000008008
:1000600000083FE2FFEBFFFF0290030300001124B2
:100070001FBECFEFD2E0DEBFCDBF12E0A0E0B1E007
:1000800001C01D92AA30B107E1F791D335CAB8CFAC
:10009000AF92BF92CF92DF92EF92FF920F931F9396
:1000A0007B01A0901E01B0901F01C0902001D09054
:1000B000210100E010E0EEE0EE0CFF1C001F111F1C
:1000C000EA95D1F77EE0D694C794B794A7947A9531
:1000D000D1F795013F7040E050E062E0220F331FFE
:1000E000441F551F6A95D1F7E22AF32A042B152BDA
:1000F00090E0A0E0B0E08F709070A070B07046E12A
:10010000880F991FAA1FBB1F4A95D1F7E82AF92A21
:100110000A2B1B2BAB2CBC2CCD2CDD248FE0A82272
:100120008A2D90E0A0E0B0E02AE0880F991FAA1F76
:10013000BB1F2A95D1F7E82AF92A0A2B1B2BE0923C
:100140001E01F0921F010093200110932101809164
:10015000230180648093230181E0809322011F9119
:100160000F91FF90EF90DF90CF90BF90AF900895E8
:10017000982F873158F4643148F484E1989FC00186
:1001800011240A96860F911DA1D9089580E0089543
:100190001F920F920FB60F9211247F928F929F920F
:1001A000AF92BF92CF92DF92EF92FF920F931F9385
:1001B0002F933F934F935F936F937F938F939F936F
:1001C000AF93BF93CF93DF93EF93FF9383E686BD07
:1001D0008091030190910401892B49F080910301E2
:1001E0009091040101979093040180930301809101
:1001F000000190910101019690930101809300010B
:1002000004970CF4CEC0AA24BB2464E1762E8501A9
:10021000055A1E4FF80180818823A1F0F501EE0FE9
:10022000FF1FDF01A558BE4F2D913C911197E55D51
:10023000FE4F80819181820F931F11969C938E9324
:10024000F8015DC0E501CA5FDE4F8881843108F0A6
:100250009CC068818A2D8CDF982F88818F5F88836E
:10026000992309F486C0993C08F04DC0F8019083A9
:1002700068818A2D7DDF98819F5F98836501CC0C12
:10028000DD1CF601E558FE4FE080F180F801208189
:1002900090E0A0E0B0E0BA2FA92F982F882700E0C7
:1002A00010E08E199F09A00BB10B30E040E050E048
:1002B000BC01CD01CED8F601E55DFE4F3183208330
:1002C00080819181181619062CF480819181019604
:1002D00091838083F501EE0FFF1FDF01A558BE4F0C
:1002E0002D913C911197E55DFE4F80819181820FA8
:1002F000931F11969C938E93F501E55AFE4F8081D2
:100300008150808337C09D3D18F4995C988332C03A
:100310009D3D69F468818A2D2BDF982E8824F50194
:10032000EE0FFF1FE558FE4F918280821CC09E3D5C
:1003300059F4F501EE0FFF1FE55DFE4F11821082AB
:1003400068818A2D15DF0DC09F3D89F4F501EE0F00
:10035000FF1FE55DFE4F1182108280918400909115
:100360008500F801808388818F5F888303C0903E79
:1003700009F07882F501EE0FFF1FE558FE4F8081EE
:100380009181F501E055FE4F90830894A11CB11CAA
:10039000F8E1AF16B10409F03ACF109201011092C2
:1003A000000180917A018A3F28F480917A018F5F61
:1003B00080937A01FF91EF91DF91CF91BF91AF913F
:1003C0009F918F917F916F915F914F913F912F916D
:1003D0001F910F91FF90EF90DF90CF90BF90AF9063
:1003E0009F908F907F900F900FBE0F901F90189549
:1003F0008F929F92AF92BF92CF92DF92EF92FF9235
:100400000F931F93CF93DF93C82E613019F0C6ED81
:10041000D1E00AC0E82FF0E0EC58FE4F8081813037
:1004200009F41EC1CAEED1E0CE0103964FD8B82E12
:10043000CE0102964BD8982F8B2D8751823008F031
:1004400083C0E92EFF2400E010E08FE090E0A0E000
:10045000B0E0E822F9220A231B23BAE0EE0CFF1CCD
:10046000001F111FBA95D1F72496DD24A2E0AA2E11
:10047000F0E28F2EFEE49F2ECE0128D8282F30E008
:100480002115310509F4ECC040E050E0E2E0220F14
:10049000331F441F551FEA95D1F72E293F29402BC2
:1004A000512B8091AC019091AD01A0E0B0E07EE0D5
:1004B000880F991FAA1FBB1F7A95D1F7282B392BBC
:1004C0004A2B5B2B8091050190E0A0E0B0E08F709B
:1004D0009070A070B07066E1880F991FAA1FBB1FB3
:1004E0006A95D1F7282B392B4A2B5B2B20931E01C1
:1004F00030931F01409320015093210197E1B916D9
:1005000039F4A1E0CA1611F089E108C087E106C0FC
:10051000B1E0CB1611F08AE101C088E1809323019C
:10052000CE010196D3D780932401A0922201C40169
:100530000197F1F78EE191E029D4D394229688E0D7
:10054000D81609F099CF8CC091E0C91609F42A9603
:10055000CE010396BBD7E82ECE010296B7D7F82E70
:10056000CE01B4D7082F10E0CE010196AFD7382FB7
:1005700020E0B901600F711F6115710509F470C0A9
:100580002F2D30E040E050E02F7030704070507000
:10059000AAE0220F331F441F551FAA95D1F780915F
:1005A000050190E0A0E0B0E08F709070A070B07096
:1005B000F6E1880F991FAA1FBB1FFA95D1F7282BC8
:1005C000392B4A2B5B2B8091AC019091AD01A0E0BF
:1005D000B0E0EEE0880F991FAA1FBB1FEA95D1F784
:1005E000282B392B4A2B5B2BCB01A0E0B0E072E02B
:1005F000880F991FAA1FBB1F7A95D1F7282B392B7B
:100600004A2B5B2B20931E0130931F014093200146
:1006100050932101E0922301CE01049657D7809395
:100620002401CE01059652D780932501CE0106966E
:100630004DD780932601CE01079648D78093270196
:10064000CE01089643D780932801CE0109963ED764
:100650008093290187E0809322018EE191E096D377
:10066000DF91CF911F910F91FF90EF90DF90CF908E
:10067000BF90AF909F908F900895EF92FF920F934D
:100680001F93CF93DF93182F90E00A9620912401B7
:1006900044E1249F90011124820F931FEC012196C5
:1006A000609125011BD7CE016091260117D7123129
:1006B000C8F4CE0101968C010F5F1F4F6091270196
:1006C0000DD778010894E11CF11CC8016091280144
:1006D00005D7C7016091290101D7C7010196609133
:1006E0002A01FCD6DF91CF911F910F91FF90EF90DF
:1006F0000895CF92DF92EF92FF920F931F93DF93B3
:10070000CF93CDB7DEB7C850CDBF9B01E82EFF24F5
:1007100000E010E09AE0EE0CFF1C001F111F9A95FC
:10072000D1F740E050E082E0220F331F441F551FF5
:100730008A95D1F72E293F29402B512B29833A83C3
:100740004B835C838CEF9FE3A0E0B0E08D839E83BE
:10075000AF83B88780E06E010894C11CD11CB6013C
:1007600083D381E0B60180D382E0B6017DD383E0FC
:10077000B6017AD384E0B60177D38CEF93E0A0E0A2
:10078000B0E0E82AF92A0A2B1B2BE982FA820B83B4
:100790001C8385E0B60168D32896CDBFCF91DF9149
:1007A0001F910F91FF90EF90DF90CF900895AF923F
:1007B000BF92CF92DF92EF92FF920F931F93CF934E
:1007C000DF9380E190E09093AD018093AC0181E0F4
:1007D0008093050180E090E026E1FC01EA5FFE4F96
:1007E0002083FC01E55AFE4F1082FC01E055FE4FCC
:1007F0001082FC01EE0FFF1FE558FE4F11821082A0
:1008000001968831910549F73A9A3998419A80E0E2
:1008100090E05CD68A3BF1F481E090E057D68A3CC8
:10082000C9F482E090E052D6082F10E01093AD0199
:100830000093AC0183E090E049D6382F20E0200FF0
:10084000311F3093AD012093AC0184E090E03ED69F
:1008500080930501D6D26091AC017091AD01809179
:10086000050147DF8FEF8093090285E085BD83E6B0
:1008700086BD80916E00816080936E006AD3399846
:10088000419A789416E178EEC72E73E0D72E64E093
:10089000B62E53E0A52E61C0319931C0809103017D
:1008A00090910401892BB1F480917A0160E0893C38
:1008B00008F061E080E09CDD80E090E0FC01EA5F10
:1008C000FE4F1082FC01E55AFE4F108201968831DE
:1008D0009105A1F7429A8EEF91E0F8D590E09C0146
:1008E0002C9DC0012D9D900D3C9D900D1124909349
:1008F00004018093030181E08093730101C0429859
:100900008091030190910401892B39F58091730145
:10091000882319F180917A0160E0893C08F061E058
:1009200081E066DD1092730180E090E0FC01EA5FF7
:10093000FE4F1083FC01E55AFE4F1082FC01E0558A
:10094000FE4F1082FC01EE0FFF1FE558FE4F118293
:10095000108201968831910549F78EE191E0D4D15A
:100960008093AB018F3309F497CF009123016091FD
:10097000AC017091AD01809105018ADB063209F46A
:1009800093C0073298F40C3009F44CC00D3028F4B1
:100990000A3009F10B3009F725C00E3009F469C09F
:1009A0000E3008F459C00F30C1F672C00A3209F493
:1009B000B8C00B3238F4083209F495C0093208F097
:1009C000A1C081C0053309F406C1063309F4F6C09D
:1009D0000B3219F6C1C01092240110922501A09289
:1009E00022011CC080E090E071D58093240181E059
:1009F00090E06CD58093250182E090E067D58093EC
:100A0000260183E090E062D58093270184E090E0A6
:100A10005DD58093280186E0809322018EE191E0EC
:100A2000B5D19BCF809124018A3B09F096CF80916C
:100A300025018A3C09F091CF82E090E06091260187
:100A40004DD583E090E06091270148D584E090E0A7
:100A50006091280143D581CFD0912501C0E08091DC
:100A600024019E01280F311DC90130D58093260134
:100A70000CC0F0902501EE24809124019701280FED
:100A8000311DC9016091260129D5B0922201C6CF3E
:100A90002CE088E190E00FB6F894A8958093600070
:100AA0000FBE20936000FFCF80912401883148F071
:100AB00000E00093240180E0E0DD0F5F0831C9F71A
:100AC0004CCF80E00EC080912401883148F000E0D6
:100AD0000093240186E0D1DD0F5F0831C9F73DCFD7
:100AE00086E0CBDD3ACF80912401883148F000E0E8
:100AF000009324018CE0C1DD0F5F0831C9F72DCFD1
:100B00008CE0EFCF80912401883148F000E0009321
:100B1000240182E1B2DD0F5F0831C9F71ECF82E107
:100B2000E0CFE0912401E83178F080E090E0FC0132
:100B3000EA5FFE4F1082FC01E55AFE4F10820196DB
:100B400088319105A1F709CFF0E0DF01AA5FBE4F20
:100B50001C92E55AFE4F49C0E0912401E831D0F0E3
:100B600080E090E0FC01EA5FFE4F1083FC01E55A53
:100B7000FE4F1082FC01E055FE4F1082FC01EE0F8B
:100B8000FF1FE558FE4F11821082019688319105B2
:100B900049F7E3CEF0E0DF01AA5FBE4F1C93DF010F
:100BA000A55ABE4F1C92DF01A055BE4F1C92EE0FFE
:100BB000FF1FE558FE4F11821082CFCEE091240135
:100BC0008E2F8150863008F0C8CEF0E0ED58FE4FF1
:100BD00081E08083C2CEE09124018E2F8150863047
:100BE00008F0BBCEF0E0ED58FE4F1082B6CEFF927B
:100BF0000F931F93182F062FF42E599885E095D147
:100C0000812F93D1802F91D18F2D8FD1599A1F9100
:100C10000F91FF9008950F931F938C01FC01828127
:100C2000938125E0969587952A95E1F77ED180936B
:100C30000201F8019281892F880F880F880F807E2A
:100C400088609370892B71D1F80181816ED1F80190
:100C500080816BD11F910F910895EF92FF920F93B6
:100C60001F93CF93DF937C018FEF5FD1182F8FEF0E
:100C70005CD1082FC12FD0E083FF1FC08FEF55D16B
:100C80008093020145E0CC0FDD1F4A95E1F7F701A3
:100C9000D383C28381838FEF48D180930201902F49
:100CA0009370F7012281922B0695069506950C719B
:100CB000902B9283808381E01AC08FEF36D180938E
:100CC0000201F7011382128233E0CC0FDD1F3A9547
:100CD000E1F7D183C0838FEF28D180930201029581
:100CE00006950770F7018081802B808380E0DF917B
:100CF000CF911F910F91FF90EF900895599815D1C2
:100D00008FEF13D1599A0895CF92DF92FF920F93EC
:100D10001F93CF93DF93EC0180EBF0DFF82E90E090
:100D200060E4C62ED12CC822D92286FF02C080E9F9
:100D300006C0F7FC03C05FE3F52E1FC084E9599895
:100D4000F4D0CE018ADF8FEFF0D0082F0F700C8324
:100D500010E007C08FEFE9D0FE01E10FF11D8583A0
:100D60001F5F1017B8F3599ACD2819F08CE261E093
:100D700002C08CE262E040E03ADF8F2DDF91CF913C
:100D80001F910F91FF90DF90CF9008950F931F93C5
:100D9000CF93DF93EC0180EAB1DF80EAAFDF82FD21
:100DA000FCCF599880E4C1D0CE0135DF0C810F70A3
:100DB000802FBBD010E006C0FE01E10FF11D858140
:100DC000B4D01F5F1017C0F3599A85E08A95F1F7E8
:100DD000599881E8AAD0599A81E0DF91CF911F916B
:100DE0000F9108950F931F93182F062F599882E0A3
:100DF0009CD0812F9AD0802F98D0599A1F910F9113
:100E00000895CF93DF9388D0599880EC8ED0599A6B
:100E100080E991E00197F1F7599882E086D080E06F
:100E200084D0C0E4D0E0FE0184917FD02196F0E030
:100E3000CD36DF07C1F7599A80E664E4D3DF80E757
:100E400060E4D0DF8FE060E0CDDFDF91CF910895E7
:100E50001F93182F599883E068D0812F66D08FEFA9
:100E600064D0599A1F910895EF92FF920F931F93A8
:100E7000CF93DF93182F7B01863010F080E045C0C0
:100E80008FE060EE40E8B3DEC0E8D0E08EE0E0DF67
:100E90008C27807ED9F7112311F400E203C01230B1
:100EA00081F404E2599882E040D0802F3ED0C701FF
:100EB0000496B1DE85E0982F9A95F1F7599A8A95B4
:100EC000F1F7133010F400E002C0135000E159981C
:100ED00082E02BD0812F880F880F802B26D0C7016E
:100EE0009ADE85E0982F9A95F1F7599A8A95F1F74D
:100EF000112311F480E603C0123019F480E760E496
:100F000071DF8FE060E06EDF81E0DF91CF911F91B4
:100F10000F91FF90EF900895599A519A5C985B98C1
:100F20005A98549A539A52980895282F5C9880E0C2
:100F300090E0880F27FF02C05B9A01C05B985C9A23
:100F40004A9981605C989F5F983011F0220FF1CF31
:100F500008958F9380E085B988B98BB18E758BB970
:100F60008EB1887F8EB980E0809308028FEF8093E6
:100F7000090281E08093810081E080936F00BCD002
:100F80008FEF8093850080E0809384008F91089597
:100F90008F939F93EF93FF93AF93BF932F923F92C3
:100FA0004F925F926F927F928F929F92AF92BF9279
:100FB000CF92DF92EF92EFB6E0918400E151EC30F6
:100FC00008F0EBE0FF27EA51F84F09940000000019
:100FD0000000000000000000000000000000000011
:100FE000000080910802803009F045C0A0EDB1E01A
:100FF0002D903D904D905D906D907D908D909D9049
:10100000AD90BD90CD90DD90ED91FD918D919D9134
:10101000E4B9B7B88AB85DB800009DB94AB8000015
:101020008AB977B800007D9037B80000F7B964B886
:1010300000008D9024B89DB8A4B80000CAB8DDB8EF
:101040004D905D9074B887B84AB85DB84D905D908A
:101050006D907D9095E09A95F1F70000000086E094
:101060008093080244B857B86AB87DB897E09A955B
:10107000F1F700000000E82F982FFF27EE0FEA5C41
:10108000FD4E2590349030928500209284009395F7
:10109000F92FFE3009F4992790930802E82FEE0FFC
:1010A000EE0FFF27E053FE4F219031904190519079
:1010B00024B837B84AB85DB8973031F49BE19A95B7
:1010C000F1F700008395D7CF992309F415D0EFBE2F
:1010D000EF90DF90CF90BF90AF909F908F907F90D8
:1010E0006F905F904F903F902F90BF91AF91FF9185
:1010F000EF919F918F9118950F921F922F923F928F
:101100004F925F926F927F928F929F92AF92BF9217
:10111000CF92DF92EF92FF920F931F932F933F9303
:101120008F939F93CF93DF93EF93FF934F934FB79B
:1011300023E0C22FCA95C295C695DD27C055DE4F64
:1011400038E0809109029991899F8827090E181E1D
:10115000E12DFF27EE0FFF1FEE5AFD4E0590149074
:1011600006942794069437940694479406945794CB
:1011700006946794069477940694879406949794BB
:101180001694A7941694B7941694C7941694D7946B
:101190001694E7941694F7943A9509F0D2CFC22F9B
:1011A000CA95DD27C053DE4F28823C8248865C8684
:1011B000688A7C8A888E9C8EA8A2BCA2C8A6DCA65F
:1011C000E8AAFCAA2A9509F0B4CFDD27CC27C053A2
:1011D000DE4F2EE089818D7F846089838A81982FFC
:1011E000879587703DB1387F832B8B83917A3AB195
:1011F0003E75932B9A8324962A9561F7EFBE4F9103
:10120000FF91EF91DF91CF919F918F913F912F911E
:101210001F910F91FF90EF90DF90CF90BF90AF9014
:101220009F908F907F906F905F904F903F902F9006
:101230001F900F90089560EA60EA60EA60EA60EA51
:1012400060EA60EA77FF77FE77FC77F877F077E07F
:1012500077C0000001000200030004000500060042
:10126000070009000A000B000C000D000F00100021
:101270001100130014001600170019001A001C00BA
:101280001D001F00210023002400260028002A0042
:101290002C002E00300032003400370039003B00B3
:1012A0003E0040004300450048004A004D00500009
:1012B0005300560059005C005F0062006600690040
:1012C0006D007000740077007B007F008300870052
:1012D0008B009000940099009D00A200A700AC0034
:1012E000B100B600BB00C100C600CC00D200D800DF
:1012F000DE00E400EB00F100F800FF0006010D0144
:1013000014011C0124012B0134013C0144014D0155
:1013100056015F01680172017C01860190019A010A
:10132000A501B001BB01C701D301DF01EB01F80149
:10133000050212021F022D023C024A0259026802F3
:10134000780288029802A902BA02CC02DE02F002F8
:10135000030316032A033E03530368037E03940327
:10136000AB03C203DA03F2030B0425043F045A045F
:1013700076049204AE04CC04EA0409052905490563
:101380006A058C05AF05D205F7051C0642066906FD
:101390009106BA06E4060F073B0768079607C507DC
:1013A000F507270859088D08C208F80830096909A7
:1013B000A309DE091C0A5A0A9A0ADB0A1E0B630BF0
:1013C000A90BF10B3B0C860CD40C230D730DC60D31
:1013D0001B0E720ECB0E260F830FE20F4410A810C7
:1013E0000E117711E2115012C0123313A9132214F7
:1013F0009D141C159D152216A9163417C2175418D2
:10140000E91882191E1ABE1A611B091CB41C641D3E
:10141000181ED01E8C1F4D201321DD21AC228023ED
:10142000592437251B260427F227E628E029E02A3D
:10143000E52BF12C042E1D2F3D3063319132C53345
:10144000013545369037E3383E3AA13B0D3D823EAB
:10145000FF3F97FB092E05260ED057FD04D014D070
:101460000AD0001C38F450954095309521953F4F97
:101470004F4F5F4F0895F6F7909580957095619561
:101480007F4F8F4F9F4F0895A1E21A2EAA1BBB1BBF
:10149000FD010DC0AA1FBB1FEE1FFF1FA217B30740
:1014A000E407F50720F0A21BB30BE40BF50B661F56
:1014B000771F881F991F1A9469F76095709580951A
:1014C00090959B01AC01BD01CF010895F999FECF24
:1014D00092BD81BDF89A992780B50895262FF99974
:1014E000FECF1FBA92BD81BD20BD0FB6F894FA9A07
:0C14F000F99A0FBE01960895F894FFCF02
:00000001FF
