:1000000022C031C030C02FC02EC02DC02CC02BC08C
:100010002AC029C028C027C026C025C024C066C762
:1000200022C045C220C01FC01EC01DC01CC01BC0B6
:100030001AC019C018C017C016C015C014C013C00C
:1000400002900303000011241FBECFEFD2E0DEBFF9
:10005000CDBF12E0A0E0B1E001C01D92AA30B1070F
:10006000E1F76BD301CACCCFCF92EF92FF920F93FF
:10007000742FF901262F30E040E050E021703070FD
:1000800040705070AAE1220F331F441F551FAA95DC
:10009000D1F790E0A0E0B0E083709070A070B070F5
:1000A0006BE1880F991FAA1FBB1F6A95D1F7282BF8
:1000B000392B4A2B5B2BCF01A0E0B0E0EEE0880F9C
:1000C000991FAA1FBB1FEA95D1F7282B392B4A2B62
:1000D0005B2B872F90E0A0E0B0E08F709070A07055
:1000E000B07066E1880F991FAA1FBB1F6A95D1F7F0
:1000F000282B392B4A2B5B2BC701A0E0B0E0F2E0A4
:10010000880F991FAA1FBB1FFA95D1F7282B392BEF
:100110004A2B5B2B602F70E080E090E06F70707076
:1001200080709070EAE0660F771F881F991FEA952C
:10013000D1F7262B372B482B592B8C2D90E0A0E0A4
:10014000B0E081709070A070B070880F991FAA1FE6
:10015000BB1F282B392B4A2B5B2BB901CA010F91EE
:10016000FF90EF90CF900895CF92DF92EF92FF92A1
:100170000F931F93DF93CF93CDB7DEB7C850CDBF9A
:10018000C82EDD24EE24FF241AE0CC0CDD1CEE1C6E
:10019000FF1C1A95D1F780E090E0B2E0660F771F60
:1001A000881F991FBA95D1F76C297D298E299F291F
:1001B00069837A838B839C838CEF9FE3A0E0B0E01C
:1001C0008D839E83AF83B88780E08E010F5F1F4FC2
:1001D000B801F4D581E0B801F1D582E0B801EED5DF
:1001E00083E0B801EBD584E0B801E8D5D701C601BA
:1001F0008C6F936089839A83AB83BC8385E0B8015D
:10020000DDD5C85FCDBFCF91DF911F910F91FF90DA
:10021000EF90DF90CF900895CF92EF92FF920F93DF
:100220001F93482F9B01E0901D01F0901E0100914B
:100230001F0110912001C801B70156E196958795DD
:10024000779567955A95D1F7962F9F708EE0169502
:100250000795F794E7948A95D1F76FEF7FE0E62250
:10026000F72280E060E0092FCC24FEDE60931D01C0
:1002700070931E0180931F019093200180912201B1
:1002800080648093220181E0809321011F910F916E
:10029000FF90EF90CF900895873158F4643158F46F
:1002A00094E1899FC00111240A96860F911DC6D83A
:1002B000089580E0089580E008950F931F93CF93F1
:1002C000DF9380912401803128F590E00A963091E7
:1002D000230124E1329F90011124820F931FEC012E
:1002E000219660912501B2D88E010F5F1F4FCE017C
:1002F00060912601ABD8E8012196C80160912701E1
:10030000A5D8CE0160912801A1D8CE0101966091B7
:1003100029019CD8DF91CF911F910F9108959F9251
:10032000AF92BF92CF92DF92EF92FF920F931F9303
:10033000CF93DF93182F613059F4E82FF0E0ED5898
:10034000FE4F8081813009F4A6C0CAEED1E002C020
:10035000C6EDD1E0CE01039671D8A82ECE0102964B
:100360006DD8B82E8A2D8751823008F043C024966C
:10037000DD2462E0962ECE0161D8E82EFF24E11440
:10038000F10409F488C02091AB013091AC0180E008
:1003900060E0409104010B2DCC2466DE60931D01CA
:1003A00070931E0180931F01909320018A2D873145
:1003B00021F4113039F089E105C0113011F488E1E0
:1003C00001C08AE180932201CE01019637D8809343
:1003D0002301909221018FE19EE40197F1F700C083
:1003E00000008DE191E01CD4D39422969D2D98308D
:1003F00011F651C0113009F42A96CE0103961ED889
:10040000182FCE0102961AD8082FCE0117D8E82E41
:10041000FF24CE01019612D8382F20E0E20EF31E01
:10042000E114F104C1F12091AB013091AC0180E005
:1004300060E040910401CC2417DE60931D017093AD
:100440001E0180931F019093200110932201CE0181
:100450000496F4D780932301CE010596EFD78093BD
:100460002401CE010696EAD780932501CE01079696
:10047000E5D780932601CE010896E0D78093270127
:10048000CE010996DBD78093280187E08093210174
:100490008DE191E0C5D3DF91CF911F910F91FF9036
:1004A000EF90DF90CF90BF90AF909F9008951F92F4
:1004B0000F920FB60F9211248F929F92AF92BF921C
:1004C000CF92DF92EF92FF920F931F932F933F9360
:1004D0004F935F936F937F938F939F93AF93BF934C
:1004E000CF93DF93EF93FF9383E686BD8091020164
:1004F00090910301009749F08091020190910301CE
:1005000001979093030180930201809100019091E3
:1005100001010196909301018093000184309105BF
:100520000CF4E5C080916E008E7F80936E0078940D
:10053000C0E0D0E0E4E19E2E76E1872E6AE5E62E6B
:1005400061E0F62EEC0EFD1ED7018C918823A1F000
:10055000CE01880F991FFC01E658FE4F20813181A2
:10056000865D9E4FDC018D919C911197820F931FA8
:1005700091838083F7015FC08E010B5F1E4FD8010E
:100580008C91843108F0A4C06C918C2F85DED80149
:100590009C919F5F9C93882311F48C928EC0893C20
:1005A00008F04DC0F7018083D8016C918C2F74DE68
:1005B000D8019C919F5F9C938E01000F111FF80141
:1005C000E658FE4FC080D180F701208190E0A0E086
:1005D000B0E06627782F892F9A2FEE24FF246C191C
:1005E0007D098E099F0930E040E050E0EAD6F8012D
:1005F000E65DFE4F318320838081918118161906B4
:100600002CF480819181019691838083CE01880FA3
:10061000991FFC01E658FE4F20813181865D9E4F77
:10062000DC018D919C911197820F931F91838083A0
:10063000FE01E65AFE4F8081815080833EC08D3D91
:1006400018F4895CF801F9CF8D3D91F4D8016C91D3
:100650008C2F22DEB82EAA24FE01EE0FFF1FE658D3
:10066000FE4FB182A082D8018C918F5F8C9325C000
:100670008E3D61F4FE01EE0FFF1FE65DFE4F11821D
:100680001082F80160818C2F07DE0DC08F3D89F448
:10069000FE01EE0FFF1FE65DFE4F1182108280917A
:1006A000840090918500D7018C93F80180818F5F41
:1006B000C4CF803E11F0D8019C92FE01EE0FFF1FC7
:1006C000E658FE4F80819181FE01E055FE4F9083F8
:1006D0002196C831D10509F031CFF89480916E0090
:1006E000816080936E001092010110920001809150
:1006F00079018A3F28F4809179018F5F8093790195
:10070000FF91EF91DF91CF91BF91AF919F918F9129
:100710007F916F915F914F913F912F911F910F9119
:10072000FF90EF90DF90CF90BF90AF909F908F9011
:100730000F900FBE0F901F9018950F92CDB7DEB798
:1007400080E190E09093AC018093AB0181E08093D5
:10075000040180E090E026E1FC01EB5FFE4F208386
:10076000FC01E65AFE4F1082FC01E055FE4F10825C
:10077000FC01EE0FFF1FE658FE4F1182108201961A
:100780008831910549F73A9A3998419A80E090E08A
:1007900055D68A3BF1F481E090E050D68A3CC9F40A
:1007A00082E090E04BD6E82EFF24F092AC01E0927C
:1007B000AB0183E090E042D6382F20E0E20EF31E3A
:1007C000F092AC01E092AB0184E090E037D68093E8
:1007D0000401CAD26091AB017091AC018091040117
:1007E000C3DC8FEF8093090285E085BD83E686BD7B
:1007F00080916E00816080936E0059D33998419A40
:100800007894BB24B39436E1D32E28EEE22E23E075
:10081000F22E94E0C92E83E0982E06E0A02E67C049
:10082000319933C080910201909103010097D1F476
:100830008091790161E0893C08F460E080E06FDD3F
:1008400080917901893C70F080E090E0FC01EB5FE1
:10085000FE4F1082FC01E65AFE4F1082019688314D
:100860009105A1F7429A8EEF91E0E8D590E08E9D38
:1008700090018F9D300D9E9D300D1124309303010A
:1008800020930201B092720101C04298809102014E
:1008900090910301009759F580917201882339F1F5
:1008A0008091790161E0893C08F460E081E037DD06
:1008B0001092720180917901893CC8F080E090E04B
:1008C000FC01EB5FFE4FD082FC01E65AFE4F108226
:1008D000FC01E055FE4F1082FC01EE0FFF1FE658B1
:1008E000FE4F1182108201968831910549F78DE102
:1008F00091E0E8D18093AA018F3309F491CF9091D0
:1009000022016091AB017091AC0180910401998347
:1009100083DC99819F3009F482C0903180F49C304F
:1009200009F447C09D3028F49A30E9F09B30F9F67D
:1009300021C09D3009F457C09E30C9F661C0953280
:1009400009F48FC0963230F4903109F474C09432B7
:1009500071F674C0953309F4E5C0963309F4D6C036
:10096000963229F69FC01092230110922401909292
:1009700021011BC080E090E061D58093230181E0DC
:1009800090E05CD58093240182E090E057D580937D
:10099000250183E090E052D58093260184E090E029
:1009A0004DD580932701A09221018DE191E038D1AE
:1009B0009ECF809123018A3B09F099CF8091240139
:1009C0008A3C09F094CF82E090E0609125013ED509
:1009D00083E090E06091260139D584E090E0609159
:1009E000270134D584CF1091240100E080912301A8
:1009F0003801680E711CC30121D5809325010CC0FC
:100A0000509024014424809123019201280F311D2C
:100A1000C901609125011AD5C0922101C6CF2CE0F1
:100A200088E190E00FB6F894A895809360000FBE1F
:100A300020936000FFCF1092790159CF809123015C
:100A4000893150F080E080932301898336DC8981ED
:100A50008F5F8831C1F74BCF8150809323012DDC0C
:100A600046CF80912301893188F02091240180E0D4
:100A700090E0FC01EB5FFE4F2083FC01E65AFE4F45
:100A80001082019688319105A1F731CF815090E015
:100A900020912401FC01EB5FFE4F2083865A9E4F7C
:100AA000FC014AC0809123018931D0F080E090E0C0
:100AB000FC01EB5FFE4FD082FC01E65AFE4F108234
:100AC000FC01E055FE4F1082FC01EE0FFF1FE658BF
:100AD000FE4F1182108201968831910549F707CFA8
:100AE000815090E0FC01EB5FFE4FD082FC01E65AA2
:100AF000FE4F1082FC01E055FE4F1082FC01EE0F0C
:100B0000FF1FE658FE4F11821082F1CEE0912301C3
:100B10008E2F8150863008F0EACEF0E0EE58FE4F7E
:100B2000B082E5CEE09123018E2F8150863008F00F
:100B3000DECEF0E0EE58FE4F1082D9CE1F93182F74
:100B4000599883E0A1D1812F9FD18FEF9DD1599AE0
:100B50001F9108951F93DF93CF930F92CDB7DEB708
:100B6000182F599882E069838FD1812F8DD16981A7
:100B7000862F8AD1599A0F90CF91DF911F910895B6
:100B8000599882D18FEF80D1599A08950F931F936E
:100B9000CF93DF93EC018FEF77D1082F8FEF74D1D4
:100BA000182F83FF1BC0202F30E085E0220F331F5A
:100BB0008A95E1F73B832A838FEF66D18983812F62
:100BC00083709A81892B1695169516951C71812B29
:100BD0008A838FEF59D1888381E001C080E0DF9163
:100BE000CF911F910F910895CF93DF93EC018A81EC
:100BF0009B8125E0969587952A95E1F745D18A81D5
:100C0000982F990F990F990F907E98608370892B78
:100C10003BD1898139D1888137D1DF91CF91089536
:100C2000FF920F931F93CF93DF93EC0180EAA8DF2D
:100C300082FF06C084FF06C086FDF8CF14E003C023
:100C400010E001C012E05998812F80641DD1CE01BF
:100C5000CBDF0C810F70802F17D12596FF2403C0A6
:100C6000899112D1F394F016D8F3599A000000003C
:100C70005998112309F411E0812F806805D1599A00
:100C8000812FDF91CF911F910F91FF9008951F93B6
:100C9000DF93CF9300D0CDB7DEB7182F599885E0FA
:100CA0004A836983F1D0812FEFD06981862FECD000
:100CB0004A81842FE9D0599ACE5FCDBFCF91DF9181
:100CC0001F910895CF92DF92EF92FF920F931F939F
:100CD000CF93DF93EC014E993DC080EB51DF282F7D
:100CE00030E040E4E42EF12CE222F32286FD04C041
:100CF00087FF30C084E901C080E95998C5D0CE0192
:100D000045DF8FEFC1D03FE0D32ED822DC828E01A9
:100D10000B5F1F4FCC2406C08FEFB6D0F801819334
:100D20008F01C394CD14C0F38D2D05C0FE01E80FD3
:100D3000F11D15828F5F8830C8F3599AE114F104D0
:100D400019F08CE261E002C08CE262E040E09FDFDB
:100D500080E401C08FE3DF91CF911F910F91FF904D
:100D6000EF90DF90CF900895CF93DF9384D0569883
:100D70005E9A599880EC88D0599A88EE93E0019752
:100D8000F1F7599882E080D088E27ED0C0E0D0E0D0
:100D9000FE01E05CFF4F849177D02196C530D105EC
:100DA000B9F7599A80E664E4D5DE80E760E4D2DEE4
:100DB0008FE060E0CFDEDF91CF910895FF920F9337
:100DC0001F93CF93DF93F82EEB01863008F04CC0D1
:100DD0008FE060EE40E85BDF00E810E08EE0AEDE22
:100DE000282F332727FD3095207E307020173107BC
:100DF000A9F7FF2029F08F2D823081F404E201C091
:100E000000E2599882E040D0802F3ED0CE01049677
:100E1000EBDE00000000599A000000008F2D8330A7
:100E200020F08DEFF80E00E101C000E0599882E05B
:100E30002BD08F2D880F880F802B26D0CE01D4DEAB
:100E400000000000599A00000000FF2011F480E625
:100E500004C08F2D823019F480E760E47BDE8FE0E0
:100E600060E078DE81E001C080E0DF91CF911F91EA
:100E70000F91FF900895599A519A5C985B985A98EF
:100E8000549A539A52980895282F5C9898E080E0DD
:100E9000880F27FF02C05B9A01C05B985C9A4A9951
:100EA00081605C98915011F0220FF2CF08958F93DA
:100EB00080E085B988B98BB18E758BB98EB1887F8A
:100EC0008EB980E0809308028FEF8093090281E061
:100ED0008093810081E080936F00BCD08FEF80937E
:100EE000850080E0809384008F9108958F939F9375
:100EF000EF93FF93AF93BF932F923F924F925F92E6
:100F00006F927F928F929F92AF92BF92CF92DF9219
:100F1000EF92EFB6E0918400E151EC3008F0EBE0A5
:100F2000FF27EC56F84F0994000000000000000075
:100F300000000000000000000000000000008091A0
:100F40000802803009F045C0A0EDB1E02D903D9041
:100F50004D905D906D907D908D909D90AD90BD90E9
:100F6000CD90DD90ED91FD918D919D91E4B9B7B853
:100F70008AB85DB800009DB94AB800008AB977B850
:100F800000007D9037B80000F7B964B800008D907C
:100F900024B89DB8A4B80000CAB8DDB84D905D90E3
:100FA00074B887B84AB85DB84D905D906D907D90EB
:100FB00095E09A95F1F70000000086E08093080222
:100FC00044B857B86AB87DB897E09A95F1F7000031
:100FD0000000E82F982FFF27EE0FEA55FE4E2590D0
:100FE000349030928500209284009395F92FFE3042
:100FF00009F4992790930802E82FEE0FEE0FFF27D0
:10100000E053FE4F219031904190519024B837B871
:101010004AB85DB8973031F49BE19A95F1F700003A
:101020008395D7CF992309F415D0EFBEEF90DF90C9
:10103000CF90BF90AF909F908F907F906F905F9078
:101040004F903F902F90BF91AF91FF91EF919F9163
:101050008F9118950F921F922F923F924F925F920D
:101060006F927F928F929F92AF92BF92CF92DF92B8
:10107000EF92FF920F931F932F933F938F939F9322
:10108000CF93DF93EF93FF934F934FB723E0C22F9C
:10109000CA95C295C695DD27C055DE4F38E08091D0
:1010A00009029991899F8827090E181EE12DFF27B3
:1010B000EE0FFF1FEE53FE4E05901490383039F4BA
:1010C000222329F000941094E02DEF610E2E069457
:1010D000279406943794069447940694579406945C
:1010E000679406947794069487940694979416943C
:1010F000A7941694B7941694C7941694D7941694FC
:10110000E7941694F7943A9509F0C9CFC22FCA957F
:10111000DD27C053DE4F28823C8248865C86688A81
:101120007C8A888E9C8EA8A2BCA2C8A6DCA6E8AA4F
:10113000FCAA2A9509F0ABCFDD27CC27C053DE4FA0
:101140002EE089818D7F846089838A81982F87959D
:1011500087703DB1387F832B8E7F8B83917A3AB134
:101160003E75932B9A8324962A9559F74FBF4F913A
:10117000FF91EF91DF91CF919F918F913F912F91AF
:101180001F910F91FF90EF90DF90CF90BF90AF90A5
:101190009F908F907F906F905F904F903F902F9097
:1011A0001F900F90089560EA60EA60EA60EA60EAE2
:1011B00060EA60EA77FF77FE77FC77F877F077E010
:1011C00077C00000010002000300040005000600D3
:1011D000070009000A000B000C000D000F001000B2
:1011E0001100130014001600170019001A001C004B
:1011F0001D001F00210023002400260028002A00D3
:101200002C002E00300032003400370039003B0043
:101210003E0040004300450048004A004D00500099
:101220005300560059005C005F00620066006900D0
:101230006D007000740077007B007F0083008700E2
:101240008B009000940099009D00A200A700AC00C4
:10125000B100B600BB00C100C600CC00D200D8006F
:10126000DE00E400EB00F100F800FF0006010D01D4
:1012700014011C0124012B0134013C0144014D01E6
:1012800056015F01680172017C01860190019A019B
:10129000A501B001BB01C701D301DF01EB01F801DA
:1012A000050212021F022D023C024A025902680284
:1012B000780288029802A902BA02CC02DE02F00289
:1012C000030316032A033E03530368037E039403B8
:1012D000AB03C203DA03F2030B0425043F045A04F0
:1012E00076049204AE04CC04EA04090529054905F4
:1012F0006A058C05AF05D205F7051C06420669068E
:101300009106BA06E4060F073B0768079607C5076C
:10131000F507270859088D08C208F8083009690937
:10132000A309DE091C0A5A0A9A0ADB0A1E0B630B80
:10133000A90BF10B3B0C860CD40C230D730DC60DC1
:101340001B0E720ECB0E260F830FE20F4410A81057
:101350000E117711E2115012C0123313A913221487
:101360009D141C159D152216A9163417C217541862
:10137000E91882191E1ABE1A611B091CB41C641DCF
:10138000181ED01E8C1F4D201321DD21AC2280237E
:10139000592437251B260427F227E628E029E02ACE
:1013A000E52BF12C042E1D2F3D3063319132C533D6
:1013B000013545369037E3383E3AA13B0D3D823E3C
:1013C000FF3F97FB092E05260ED057FD04D014D001
:1013D0000AD0001C38F450954095309521953F4F28
:1013E0004F4F5F4F0895F6F79095809570956195F2
:1013F0007F4F8F4F9F4F0895A1E21A2EAA1BBB1B50
:10140000FD010DC0AA1FBB1FEE1FFF1FA217B307D0
:10141000E407F50720F0A21BB30BE40BF50B661FE6
:10142000771F881F991F1A9469F7609570958095AA
:1014300090959B01AC01BD01CF010895F999FECFB4
:1014400092BD81BDF89A992780B50895262FF99904
:10145000FECF1FBA92BD81BD20BD0FB6F894FA9A97
:0C146000F99A0FBE01960895F894FFCF92
:00000001FF
