:100000004FC069C068C067C066C065C064C063C0D7
:1000100062C061C060C05FC05EC05DC05CC03BC804
:100020005AC07DC258C057C056C055C054C053C0F6
:1000300052C051C050C04FC04EC04DC04CC04BC04C
:100040002BC531C54FC568C574C582C58DC506C5EC
:1000500005C504C58CC58BC58AC500C5FFC4FEC4D3
:10006000FDC4FCC4FBC4FAC4F9C4F8C4F7C4F6C4A4
:10007000F5C4F4C4A5C5B4C5CFC501C6EFC4EEC46C
:10008000EDC4ECC4EBC4EAC4E9C4E8C4E7C4E6C404
:10009000F6C5E4C4E3C42EC621C6029003030000E3
:1000A00011241FBECFEFD2E0DEBFCDBF11E0A0E034
:1000B000B1E0E6E5F6E102C005900D92A030B1078F
:1000C000D9F712E0A0E0B1E001C01D92AA31B1075A
:1000D000E1F7E6D3BECA94CFCF92EF92FF920F938F
:1000E000742FF901262F30E040E050E0217030708D
:1000F00040705070AAE1220F331F441F551FAA956C
:10010000D1F790E0A0E0B0E083709070A070B07084
:100110006BE1880F991FAA1FBB1F6A95D1F7282B87
:10012000392B4A2B5B2BCF01A0E0B0E0EEE0880F2B
:10013000991FAA1FBB1FEA95D1F7282B392B4A2BF1
:100140005B2B872F90E0A0E0B0E08F709070A070E4
:10015000B07066E1880F991FAA1FBB1F6A95D1F77F
:10016000282B392B4A2B5B2BC701A0E0B0E0F2E033
:10017000880F991FAA1FBB1FFA95D1F7282B392B7F
:100180004A2B5B2B602F70E080E090E06F70707006
:1001900080709070EAE0660F771F881F991FEA95BC
:1001A000D1F7262B372B482B592B8C2D90E0A0E034
:1001B000B0E081709070A070B070880F991FAA1F76
:1001C000BB1F282B392B4A2B5B2BB901CA010F917E
:1001D000FF90EF90CF900895CF92DF92EF92FF9231
:1001E0000F931F93DF93CF93CDB7DEB7C850CDBF2A
:1001F000C82EDD24EE24FF241AE0CC0CDD1CEE1CFE
:10020000FF1C1A95D1F780E090E0B2E0660F771FEF
:10021000881F991FBA95D1F76C297D298E299F29AE
:1002200069837A838B839C838CEF9FE3A0E0B0E0AB
:100230008D839E83AF83B88780E08E010F5F1F4F51
:10024000B80191D681E0B8018ED682E0B8018BD694
:1002500083E0B80188D684E0B80185D6D701C6010D
:100260008C6F936089839A83AB83BC8385E0B801EC
:100270007AD6C85FCDBFCF91DF911F910F91FF90CC
:10028000EF90DF90CF900895CF92EF92FF920F936F
:100290001F93482F9B01E0902701F09028010091C7
:1002A000290110912A01C801B70156E19695879559
:1002B000779567955A95D1F7962F9F708EE0169592
:1002C0000795F794E7948A95D1F76FEF7FE0E622E0
:1002D000F72280E060E0092FCC24FEDE6093270146
:1002E000709328018093290190932A0180912C0119
:1002F000806480932C0181E080932B011F910F91EA
:10030000FF90EF90CF900895873158F4643158F4FE
:1003100094E1899FC00111240A96860F911D83D90B
:10032000089580E0089580E008950F931F93CF9380
:10033000DF9380912E01803128F590E00A9630916C
:100340002D0124E1329F90011124820F931FEC01B3
:10035000219660912F016FD98E010F5F1F4FCE0143
:100360006091300168D9E8012196C801609131019E
:1003700062D9CE01609132015ED9CE0101966091C1
:10038000330159D9DF91CF911F910F9108959F9219
:10039000AF92BF92CF92DF92EF92FF920F931F9393
:1003A000CF93DF93182F613059F4E82FF0E0ED5729
:1003B000FE4F8081813009F4A6C0CAEED1E002C0B0
:1003C000C6EDD1E0CE0103962ED9A82ECE0102961D
:1003D0002AD9B82E8A2D8751823008F043C024963E
:1003E000DD2462E0962ECE011ED9E82EFF24E11412
:1003F000F10409F488C02091BB013091BC0180E078
:1004000060E040910B010B2DCC2466DE6093270148
:10041000709328018093290190932A018A2D8731B6
:1004200021F4113039F089E105C0113011F488E16F
:1004300001C08AE180932C01CE010196F4D880930B
:100440002D0190922B018FE19EE40197F1F700C0FE
:10045000000087E291E0CCD4D39422969D2D983071
:1004600011F651C0113009F42A96CE010396DBD85B
:10047000182FCE010296D7D8082FCE01D4D8E82E57
:10048000FF24CE010196CFD8382F20E0E20EF31ED4
:10049000E114F104C1F12091BB013091BC0180E075
:1004A00060E040910B01CC2417DE6093270170932C
:1004B00028018093290190932A0110932C01CE01E9
:1004C0000496B1D880932D01CE010596ACD88093C7
:1004D0002E01CE010696A7D880932F01CE01079654
:1004E000A2D880933001CE0108969DD88093310127
:1004F000CE01099698D88093320187E080932B0132
:1005000087E291E075D4DF91CF911F910F91FF9019
:10051000EF90DF90CF90BF90AF909F9008951F9283
:100520000F920FB60F9211246F927F928F929F922B
:10053000AF92BF92DF92EF92FF920F931F932F9390
:100540003F934F935F936F937F938F939F93AF935B
:10055000BF93CF93DF93EF93FF9386EF86BD809198
:100560000C01882309F011C18091090190910A01C1
:10057000009749F08091090190910A0101979093A9
:100580000A01809309018091010190910201019675
:100590009093020180930101843091050CF4E2C034
:1005A00080916E008E7F80936E007894C0E0D0E0E2
:1005B00074E1D72E68E6E62E61E0F62EEC0EFD1E05
:1005C000D7018C918823A1F0CE01880F991FFC01DF
:1005D000E657FE4F20813181885C9E4FDC018D9172
:1005E0009C911197820F931F91838083F7015EC0C6
:1005F0008E01015F1E4FD8018C91843108F0A3C099
:100600006C918C2F81DED8019C919F5F9C938823F5
:1006100009F48DC0893C08F04DC0F7018083D801F2
:100620006C918C2F71DED8019C919F5F9C938E0101
:10063000000F111FF801E657FE4F80809180F701EF
:10064000208190E0A0E0B0E06627782F892F9A2FD4
:10065000AA24BB24681979098A099B0930E040E083
:1006600050E090D7F801E85CFE4F31832083808111
:100670009181181619062CF480819181019691833D
:100680008083CE01880F991FFC01E657FE4F208121
:100690003181885C9E4FDC018D919C911197820F76
:1006A000931F91838083FE01E859FE4F8081815022
:1006B00080833EC08D3D18F4895CF801F9CF8D3DF3
:1006C00091F4D8016C918C2F1FDE782E6624FE01E8
:1006D000EE0FFF1FE657FE4F71826082D8018C91AA
:1006E0008F5F8C9325C08E3D61F4FE01EE0FFF1FDE
:1006F000E85CFE4F11821082F80160818C2F04DECD
:100700000DC08F3D89F4FE01EE0FFF1FE85CFE4F28
:10071000118210828091840090918500D7018C9382
:10072000F80180818F5FC4CF803E11F0D801DC9248
:10073000FE01EE0FFF1FE657FE4F80819181FE0103
:10074000E054FE4F90832196C831D10509F032CF95
:10075000F89480916E00816080936E001092020187
:1007600010920101809189018A3F28F480918901CA
:100770008F5F80938901809181018111589A8091C6
:100780008201882371F0409A0CC0909181019817E2
:1007900009F458989091820180910C01981709F4FE
:1007A000409880910C018F5F80930C01FF91EF9135
:1007B000DF91CF91BF91AF919F918F917F916F9179
:1007C0005F914F913F912F911F910F91FF90EF906B
:1007D000DF90BF90AF909F908F907F906F900F9021
:1007E0000FBE0F901F901895EF92FF920F931F93DB
:1007F000CF93DF931091000120E030E01123D1F579
:10080000A901440F551FFA01EB5FFE4F80819181D2
:10081000D901AD5FBE4FE901C35FDE4F181619065F
:100820003CF5808191810197918380830C91E880D0
:10083000FC90DA01AC5CBE4F4D915C9111978081C8
:1008400091816D917C911197EE2DF0E0EF19F109F6
:10085000481B590BE49FC001E59F900DF49F900D3C
:1008600011247DD6060FF901EF57FE4F008302C019
:1008700088818C932F5F3F4F2230310509F0BECF26
:10088000112321F011501093000103C084E08093E4
:100890000001DF91CF911F910F91FF90EF9008958C
:1008A0000F92CDB7DEB780E190E09093BC018093CA
:1008B000BB0181E080930B0180E090E026E1FC0128
:1008C000E15FFE4F2083FC01E859FE4F1082FC01DE
:1008D000E054FE4F1082FC01EE0FFF1FE657FE4F63
:1008E0001182108201968831910549F73A9A399818
:1008F000419A80E090E097D68A3BF1F481E090E065
:1009000092D68A3CC9F482E090E08DD6C82EDD24D0
:10091000D092BC01C092BB0183E090E084D6382F16
:1009200020E02C0D3D1D3093BC012093BB0184E0E1
:1009300090E079D680930B018FEF91E074D6D82E9A
:10094000E8D26091BB017091BC0180910B0144DC45
:100950008FEF8093190283E085BD86EF86BD80917D
:100960006E00816080936E0077D33998419A7894B5
:1009700085E02D2D289F200111240894411C511C35
:10098000BB24B39446E1D42E38EE832E33E0932E6D
:1009900023E0A22E94E0C92E86E0782E5FC0319924
:1009A0002FC08091090190910A010097B1F48091C4
:1009B000890161E0893C08F460E080E0E8DC80E0E7
:1009C00090E0FC01E15FFE4F1082FC01E859FE4F10
:1009D0001082019688319105A1F7429A8EEF91E03D
:1009E00022D690E0889D9001899D300D989D300D14
:1009F000112430930A0120930901B092800101C0B3
:100A000042988091090190910A01009739F58091EF
:100A10008001882319F18091890161E0893C08F403
:100A200060E081E0B4DC1092800180E090E0FC01A5
:100A3000E15FFE4FD082FC01E859FE4F1082FC01BD
:100A4000E054FE4F1082FC01EE0FFF1FE657FE4FF1
:100A50001182108201968831910549F787E291E071
:100A600019D28093BA018F3309F499CF20912C01C8
:100A70006091BB017091BC0180910B01298304DC62
:100A80002981822F90E00A978D32910538F7805E98
:100A90009F4F8F939F93089510922D0110922E01D6
:100AA000A0922B011BC080E090E0BDD580932D016A
:100AB00081E090E0B8D580932E0182E090E0B3D53C
:100AC00080932F0183E090E0AED58093300184E0E5
:100AD00090E0A9D58093310170922B0187E291E0DB
:100AE00087D1BCCF80912D018A3B09F0B7CF80918F
:100AF0002E018A3C09F0B2CF82E090E060912F0194
:100B00009AD583E090E06091300195D584E090E043
:100B10006091310190D5A2CFF0902E01EE2480910A
:100B20002D01F701E80FF11DCF017DD580932F0135
:100B30000CC010912E0100E080912D019801280F2A
:100B4000311DC90160912F0176D5C0922B01C6CF0E
:100B50002CE088E190E00FB6F894A89580936000AF
:100B60000FBE20936000FFCF1092890177CF809154
:100B70002D018150823008F071CF243149F02531A8
:100B800049F0E82FF0E0EF57FE4F2081209503C099
:100B90002FEF01C020E090E0FC01EF57FE4F3081C5
:100BA000FC01ED5FFE4F3083FC01E35FFE4F2083CD
:100BB000880F991FFC01EC5CFE4F5182408286C079
:100BC00080912D01883150F080E080932D01898340
:100BD000ACDB89818F5F8831C1F740CFA6DB3ECF88
:100BE00080912D01883178F080E090E0FC01E15F98
:100BF000FE4F1082FC01E859FE4F108201968831A9
:100C00009105A1F72BCF90E0FC01E15FFE4F108230
:100C100088599E4FFC0178C080912D018831D0F019
:100C200080E090E0FC01E15FFE4FD082FC01E859DA
:100C3000FE4F1082FC01E054FE4F1082FC01EE0FCB
:100C4000FF1FE657FE4F11821082019688319105F1
:100C500049F704CF90E0FC01E15FFE4FD082FC0138
:100C6000E859FE4F1082FC01E054FE4F1082FC0157
:100C7000EE0FFF1FE657FE4F11821082EFCE273294
:100C800011F4E3E001C0E0E080912D018150823059
:100C900008F0E4CE90E0DC01AF57BE4F2C91DC01B0
:100CA000AD5FBE4F2C93F0E0E95DFE4F2781DC0184
:100CB000A35FBE4F2C93208530E02F5F3F4F880FFE
:100CC000991FFC01EC5CFE4F318320832081318130
:100CD0008B5F9E4FFC0131832083C0CEE0912D01BC
:100CE0008E2F8150863008F0B9CEF0E0EE57FE4FDF
:100CF000B082B4CEE0912D018E2F8150863008F065
:100D0000ADCEF0E0EE57FE4F1082A8CE1F93182F05
:100D1000599883E08ED1812F8CD18FEF8AD1599A47
:100D20001F9108951F93DF93CF930F92CDB7DEB736
:100D3000182F599882E069837CD1812F7AD16981FB
:100D4000862F77D1599A0F90CF91DF911F910895F7
:100D500059986FD18FEF6DD1599A08950F931F93C2
:100D6000CF93DF93EC018FEF64D1082F8FEF61D128
:100D7000182F83FF1BC0202F30E085E0220F331F88
:100D80008A95E1F73B832A838FEF53D18983812FA3
:100D900083709A81892B1695169516951C71812B57
:100DA0008A838FEF46D1888381E001C080E0DF91A4
:100DB000CF911F910F910895CF93DF93EC018A811A
:100DC0009B8125E0969587952A95E1F732D18A8116
:100DD000982F990F990F990F907E98608370892BA7
:100DE00028D1898126D1888124D1DF91CF9108959E
:100DF000FF920F931F93CF93DF93EC0180EAA8DF5C
:100E000082FF06C084FF06C086FDF8CF14E003C051
:100E100010E001C012E05998812F80640AD1CE0100
:100E2000CBDF0C810F70802F04D12596FF2403C0E7
:100E30008991FFD0F394F016D8F3599A000000007E
:100E40005998112309F411E0812F8068F2D0599A42
:100E5000812FDF91CF911F910F91FF9008951F93E4
:100E6000DF93CF9300D0CDB7DEB7182F599885E028
:100E70004A836983DED0812FDCD06981862FD9D067
:100E80004A81842FD6D0599ACE5FCDBFCF91DF91C2
:100E90001F910895EF92FF920F931F93CF93DF93CB
:100EA000EC014E992EC080EB53DF282F30E08901F2
:100EB0000074107086FD04C087FF23C084E901C060
:100EC00080E95998B6D0CE0149DF8FEFB2D03FE02C
:100ED000E32EE822EC822596FF2404C08FEFA9D0F0
:100EE0008993F394FE14D0F3599A0115110519F062
:100EF0008CE261E002C08CE262E040E0B0DF80E4BE
:100F000001C08FE3DF91CF911F910F91FF90EF9080
:100F10000895CF93DF9384D056985E9A599880ECC9
:100F200088D0599A88EE93E00197F1F7599882E0BA
:100F300080D088E27ED0C0E0D0E0FE01E656FF4FD0
:100F4000849177D02196C530D105B9F7599A80E6BA
:100F500064E4E8DE80E760E4E5DE8FE060E0E2DEA6
:100F6000DF91CF910895FF920F931F93CF93DF935B
:100F7000F82EEB01863008F04CC08FE060EE40E8C0
:100F80006EDF00E810E08EE0C1DE282F332727FD5A
:100F90003095207E307020173107A9F7FF2029F007
:100FA0008F2D823081F404E201C000E2599882E082
:100FB00040D0802F3ED0CE010496FEDE000000001F
:100FC000599A000000008F2D833020F08DEFF80E2D
:100FD00000E101C000E0599882E02BD08F2D880FEE
:100FE000880F802B26D0CE01E7DE00000000599A42
:100FF00000000000FF2011F480E604C08F2D823035
:1010000019F480E760E48EDE8FE060E08BDE81E043
:1010100001C080E0DF91CF911F910F91FF90089563
:10102000599A519A5C985B985A98549A539A529844
:101030000895282F5C9898E080E0880F27FF02C071
:101040005B9A01C05B985C9A4A9981605C98915068
:1010500011F0220FF2CF08958F9380E085B988B9FF
:101060008BB18E758BB98EB1887F8EB980E08093FD
:1010700018028FEF8093190281E08093810081E054
:1010800080936F00BCD08FEF8093850080E08093C9
:1010900084008F9108958F939F93EF93FF93AF9365
:1010A000BF932F923F924F925F926F927F928F9257
:1010B0009F92AF92BF92CF92DF92EF92EFB6E09104
:1010C0008400E151EC3008F0EBE0FF27E759F74FDF
:1010D0000994000000000000000000000000000073
:1010E000000000000000000080911802803009F02C
:1010F00045C0A0EEB1E02D903D904D905D906D907B
:101100007D908D909D90AD90BD90CD90DD90ED91B6
:10111000FD918D919D91E4B9B7B88AB85DB8000092
:101120009DB94AB800008AB977B800007D9037B8F9
:101130000000F7B964B800008D9024B89DB8A4B839
:101140000000CAB8DDB84D905D9074B887B84AB851
:101150005DB84D905D906D907D9095E09A95F1F71A
:101160000000000086E08093180244B857B86AB8BF
:101170007DB897E09A95F1F700000000E82F982FCE
:10118000FF27EE0FEE5BFC4E2590349030928500E9
:10119000209284009395F92FFE3009F499279093BB
:1011A0001802E82FEE0FEE0FFF27E052FE4F2190BE
:1011B00031904190519024B837B84AB85DB8973013
:1011C00031F49BE19A95F1F700008395D7CF9923ED
:1011D00009F415D0EFBEEF90DF90CF90BF90AF90A5
:1011E0009F908F907F906F905F904F903F902F9047
:1011F000BF91AF91FF91EF919F918F9118950F92B1
:101200001F922F923F924F925F926F927F928F9296
:101210009F92AF92BF92CF92DF92EF92FF920F9385
:101220001F932F933F938F939F93CF93DF93EF93CE
:10123000FF934F934FB723E0C22FCA95C295C6952F
:10124000DD27C054DE4F38E0809119029991899FC3
:101250008827090E181EE12DFF27EE0FFF1FE25A07
:10126000FC4E0590149006942794069437940694A7
:10127000479406945794069467940694779406943A
:101280008794069497941694A7941694B7941694FA
:10129000C7941694D7941694E7941694F7943A95B5
:1012A00009F0D2CFC22FCA95DD27C052DE4F288267
:1012B0003C8248865C86688A7C8A888E9C8EA8A23E
:1012C000BCA2C8A6DCA6E8AAFCAA2A9509F0B4CF5D
:1012D000DD27CC27C052DE4F2EE089818D7F8560CF
:1012E00089838A81982F879587703DB1387F832BBA
:1012F0008E7F8B83917A3AB13E753160932B9A83BE
:1013000024962A9551F770DA4FBF4F91FF91EF91D4
:10131000DF91CF919F918F913F912F911F910F91CD
:10132000FF90EF90DF90CF90BF90AF909F908F9005
:101330007F906F905F904F903F902F901F900F90F5
:10134000089560EA60EA60EA60EA60EA60EA60EAFA
:1013500077FF77FE77FC77F877F077E077C00000CB
:101360000100020003000400050006000700090058
:101370000A000B000C000D000F00100011001300FC
:1013800014001600170019001A001C001D001F0091
:10139000210023002400260028002A002C002E0013
:1013A000300032003400370039003B003E0040007E
:1013B0004300450048004A004D00500053005600CD
:1013C00059005C005F006200660069006D007000FB
:1013D000740077007B007F00830087008B00900003
:1013E000940099009D00A200A700AC00B100B600D7
:1013F000BB00C100C600CC00D200D800DE00E40073
:10140000EB00F100F800FF0006010D0114011C01C2
:1014100024012B0134013C0144014D0156015F01BF
:10142000680172017C01860190019A01A501B00159
:10143000BB01C701D301DF01EB01F8010502120274
:101440001F022D023C024A025902680278028802F9
:101450009802A902BA02CC02DE02F00203031603CC
:101460002A033E03530368037E039403AB03C203C2
:10147000DA03F2030B0425043F045A0476049204B1
:10148000AE04CC04EA040905290549056A058C0562
:10149000AF05D205F7051C06420669069106BA0695
:1014A000E4060F073B0768079607C507F5072708F7
:1014B00059088D08C208F80830096909A309DE092E
:1014C0001C0A5A0A9A0ADB0A1E0B630BA90BF10BC2
:1014D0003B0C860CD40C230D730DC60D1B0E720E27
:1014E000CB0E260F830FE20F4410A8100E117711B8
:1014F000E2115012C0123313A91322149D141C15AB
:101500009D152216A9163417C2175418E918821906
:101510001E1ABE1A611B091CB41C641D181ED01EA5
:101520008C1F4D201321DD21AC2280235924372527
:101530001B260427F227E628E029E02AE52BF12CD8
:10154000042E1D2F3D3063319132C53301354536B0
:101550009037E3383E3AA13B0D3D823EFF3F97FB7B
:10156000092E07260AD077FD04D027D006D0002008
:101570001AF4709561957F4F0895F6F790958195CF
:101580009F4F089597FB092E05260ED057FD04D0D6
:1015900028D00AD0001C38F45095409530952195FC
:1015A0003F4F4F4F5F4F0895F6F790958095709598
:1015B00061957F4F8F4F9F4F0895AA1BBB1B51E131
:1015C00007C0AA1FBB1FA617B70710F0A61BB70BB3
:1015D000881F991F5A95A9F780959095BC01CD0158
:1015E0000895A1E21A2EAA1BBB1BFD010DC0AA1F64
:1015F000BB1FEE1FFF1FA217B307E407F50720F07C
:10160000A21BB30BE40BF50B661F771F881F991FF6
:101610001A9469F760957095809590959B01AC013F
:10162000BD01CF010895F999FECF92BD81BDF89A11
:10163000992780B50895262FF999FECF1FBA92BD3C
:1016400081BD20BD0FB6F894FA9AF99A0FBE0196A3
:061650000895F894FFCF9D
:00000001FF
