:1000000036C045C044C043C042C041C040C03FC0EC
:100010003EC03DC03CC03BC03AC039C038C069C7D3
:1000200036C0B6C034C033C032C031C030C02FC0BB
:100030002EC02DC02CC02BC02AC029C028C027C06C
:100040000008100000080000000800000000008008
:100050000008000000080000000800000000008008
:1000600000083FE2FFEBFFFF0290030300001124B2
:100070001FBECFEFD2E0DEBFCDBF12E0A0E0B1E007
:1000800001C01D92AA30B107E1F78AD3E6C9B8CF03
:10009000AF92BF92CF92DF92EF92FF920F931F9396
:1000A0007B01A0901D01B0901E01C0901F01D09057
:1000B000200100E010E0EEE0EE0CFF1C001F111F1D
:1000C000EA95D1F77EE0D694C794B794A7947A9531
:1000D000D1F795013F7040E050E062E0220F331FFE
:1000E000441F551F6A95D1F7E22AF32A042B152BDA
:1000F00090E0A0E0B0E08F709070A070B07046E12A
:10010000880F991FAA1FBB1F4A95D1F7E82AF92A21
:100110000A2B1B2BAB2CBC2CCD2CDD248FE0A82272
:100120008A2D90E0A0E0B0E02AE0880F991FAA1F76
:10013000BB1F2A95D1F7E82AF92A0A2B1B2BE0923C
:100140001D01F0921E0100931F0110932001809168
:10015000220180648093220181E0809321011F911C
:100160000F91FF90EF90DF90CF90BF90AF900895E8
:10017000982F873158F4643148F484E1989FC00186
:1001800011240A96860F911D52D9089580E0089592
:100190001F920F920FB60F9211247F928F929F920F
:1001A000AF92BF92CF92DF92EF92FF920F931F9385
:1001B0002F933F934F935F936F937F938F939F936F
:1001C000AF93BF93CF93DF93EF93FF9383E686BD07
:1001D0008091020190910301892B49F080910201E5
:1001E0009091030101979093030180930201809104
:1001F000000190910101019690930101809300010B
:1002000004970CF4CEC0AA24BB2464E1762E8501A9
:10021000065A1E4FF80180818823A1F0F501EE0FE8
:10022000FF1FDF01A658BE4F2D913C911197E65D4F
:10023000FE4F80819181820F931F11969C938E9324
:10024000F8015DC0E501CB5FDE4F8881843108F0A5
:100250009CC068818A2D8CDF982F88818F5F88836E
:10026000992309F486C0993C08F04DC0F8019083A9
:1002700068818A2D7DDF98819F5F98836501CC0C12
:10028000DD1CF601E658FE4FE080F180F801208188
:1002900090E0A0E0B0E0BA2FA92F982F882700E0C7
:1002A00010E08E199F09A00BB10B30E040E050E048
:1002B000BC01CD017FD8F601E65DFE4F318320837E
:1002C00080819181181619062CF480819181019604
:1002D00091838083F501EE0FFF1FDF01A658BE4F0B
:1002E0002D913C911197E65DFE4F80819181820FA7
:1002F000931F11969C938E93F501E65AFE4F8081D1
:100300008150808337C09D3D18F4995C988332C03A
:100310009D3D69F468818A2D2BDF982E8824F50194
:10032000EE0FFF1FE658FE4F918280821CC09E3D5B
:1003300059F4F501EE0FFF1FE65DFE4F11821082AA
:1003400068818A2D15DF0DC09F3D89F4F501EE0F00
:10035000FF1FE65DFE4F1182108280918400909114
:100360008500F801808388818F5F888303C0903E79
:1003700009F07882F501EE0FFF1FE658FE4F8081ED
:100380009181F501E055FE4F90830894A11CB11CAA
:10039000F8E1AF16B10409F03ACF109201011092C2
:1003A0000001809179018A3F28F4809179018F5F63
:1003B00080937901FF91EF91DF91CF91BF91AF9140
:1003C0009F918F917F916F915F914F913F912F916D
:1003D0001F910F91FF90EF90DF90CF90BF90AF9063
:1003E0009F908F907F900F900FBE0F901F90189549
:1003F0008F929F92AF92BF92CF92DF92EF92FF9235
:100400000F931F93CF93DF93C82E613019F0C6ED81
:10041000D1E00AC0E82FF0E0ED58FE4F8081813036
:1004200009F41EC1CAEED1E0CE01039600D8B82E61
:10043000CE010296FCD7982F8B2D8751823008F081
:1004400083C0E92EFF2400E010E08FE090E0A0E000
:10045000B0E0E822F9220A231B23BAE0EE0CFF1CCD
:10046000001F111FBA95D1F72496DD24A2E0AA2E11
:10047000F0E28F2EFEE49F2ECE01D9D7282F30E058
:100480002115310509F4ECC040E050E0E2E0220F14
:10049000331F441F551FEA95D1F72E293F29402BC2
:1004A000512B8091AB019091AC01A0E0B0E07EE0D7
:1004B000880F991FAA1FBB1F7A95D1F7282B392BBC
:1004C0004A2B5B2B8091040190E0A0E0B0E08F709C
:1004D0009070A070B07066E1880F991FAA1FBB1FB3
:1004E0006A95D1F7282B392B4A2B5B2B20931D01C2
:1004F00030931E0140931F015093200197E1B916DC
:1005000039F4A1E0CA1611F089E108C087E106C0FC
:10051000B1E0CB1611F08AE101C088E1809322019D
:10052000CE01019684D780932301A0922101C401BA
:100530000197F1F78DE191E0C8D3D394229688E03A
:10054000D81609F099CF8CC091E0C91609F42A9603
:10055000CE0103966CD7E82ECE01029668D7F82E0E
:10056000CE0165D7082F10E0CE01019660D7382F55
:1005700020E0B901600F711F6115710509F470C0A9
:100580002F2D30E040E050E02F7030704070507000
:10059000AAE0220F331F441F551FAA95D1F780915F
:1005A000040190E0A0E0B0E08F709070A070B07097
:1005B000F6E1880F991FAA1FBB1FFA95D1F7282BC8
:1005C000392B4A2B5B2B8091AB019091AC01A0E0C1
:1005D000B0E0EEE0880F991FAA1FBB1FEA95D1F784
:1005E000282B392B4A2B5B2BCB01A0E0B0E072E02B
:1005F000880F991FAA1FBB1F7A95D1F7282B392B7B
:100600004A2B5B2B20931D0130931E0140931F0149
:1006100050932001E0922201CE01049608D78093E6
:100620002301CE01059603D780932401CE010696BF
:10063000FED680932501CE010796F9D68093260138
:10064000CE010896F4D680932701CE010996EFD605
:100650008093280187E0809321018DE191E035D3DB
:10066000DF91CF911F910F91FF90EF90DF90CF908E
:10067000BF90AF909F908F900895EF92FF920F934D
:100680001F9380912401803140F590E00A962091DB
:10069000230144E1249F90011124820F931F8C01B8
:1006A0000F5F1F4F60912501CAD678010894E11CA5
:1006B000F11CC80160912601C2D687010F5F1F4F50
:1006C000C70160912701BBD6C80160912801B7D648
:1006D000C801019660912901B2D61F910F91FF9038
:1006E000EF900895CF92DF92EF92FF920F931F93B6
:1006F000DF93CF93CDB7DEB7C850CDBF9B01E82EB7
:10070000FF2400E010E09AE0EE0CFF1C001F111F18
:100710009A95D1F740E050E082E0220F331F441F4A
:10072000551F8A95D1F72E293F29402B512B29831C
:100730003A834B835C838CEF9FE3A0E0B0E08D8332
:100740009E83AF83B88780E06E010894C11CD11CE2
:10075000B6013BD381E0B60138D382E0B60135D390
:1007600083E0B60132D384E0B6012FD38CEF93E05F
:10077000A0E0B0E0E82AF92A0A2B1B2BE982FA82D2
:100780000B831C8385E0B60120D32896CDBFCF9183
:10079000DF911F910F91FF90EF90DF90CF90089520
:1007A0009F92AF92BF92CF92DF92EF92FF920F9300
:1007B0001F93CF93DF9380E190E09093AC018093FF
:1007C000AB0181E08093040180E090E026E1FC0130
:1007D000EB5FFE4F2083FC01E65AFE4F1082FC01C6
:1007E000E055FE4F1082FC01EE0FFF1FE658FE4F52
:1007F0001182108201968831910549F73A9A399809
:10080000419A80E090E013D68A3BF1F481E090E0D9
:100810000ED68A3CC9F482E090E009D6082F10E099
:100820001093AC010093AB0183E090E000D6382F29
:1008300020E0200F311F3093AC012093AB0184E006
:1008400090E0F5D5809304018BD26091AB0170915B
:10085000AC018091040146DF8FEF8093090285E0AF
:1008600085BD83E686BD80916E00816080936E00B9
:1008700021D33998419A789416E1E8EECE2EE3E040
:10088000DE2E74E0B72E63E0A62E56E0952E61C0F2
:10089000319931C08091020190910301892BB1F40B
:1008A0008091790160E0893C08F061E080E0A0DDA2
:1008B00080E090E0FC01EB5FFE4F1082FC01E65A05
:1008C000FE4F1082019688319105A1F7429A8EEF72
:1008D00091E0ADD590E09C012C9DC0012D9D900D27
:1008E0003C9D900D1124909303018093020181E0BF
:1008F0008093720101C0429880910201909103019E
:10090000892B39F580917201882319F18091790141
:1009100060E0893C08F061E081E06ADD10927201DC
:1009200080E090E0FC01EB5FFE4F1083FC01E65A93
:10093000FE4F1082FC01E055FE4F1082FC01EE0FCD
:10094000FF1FE658FE4F11821082019688319105F3
:1009500049F78DE191E078D18093AA018F3309F4B2
:1009600097CF009122016091AB017091AC01809111
:1009700004018EDB0F3009F47FC0003180F40C30AD
:1009800009F444C00D3028F40A30D1F00B3009F7D7
:100990001EC00D3009F454C00E30D9F65EC00632C8
:1009A00009F49FC0073230F4043209F471C00532F3
:1009B00081F67CC0053309F4D3C0063351F6C3C0B9
:1009C0001092230110922401A09221011BC080E00B
:1009D00090E02DD58093230181E090E028D580938D
:1009E000240182E090E023D58093250183E090E00C
:1009F0001ED58093260184E090E019D580932701CD
:100A0000909221018DE191E060D1A3CF80912301EB
:100A10008A3B09F09ECF809124018A3C09F099CF4E
:100A200082E090E0609125010AD583E090E060913A
:100A3000260105D584E090E06091270100D589CF9B
:100A4000D0912401C0E0809123019E01280F311D27
:100A5000C901EDD4809325010CC0F0902401EE244F
:100A6000809123019701280F311DC9016091250153
:100A7000E6D4B0922101C6CF2CE088E190E00FB619
:100A8000F894A895809360000FBE20936000FFCF7C
:100A900080912301883140F000E000932301EDDDD7
:100AA0000F5F0831D1F755CFE8DD53CFE091230137
:100AB000E83178F080E090E0FC01EB5FFE4F1082BF
:100AC000FC01E65AFE4F1082019688319105A1F78C
:100AD00040CFF0E0DF01AB5FBE4F1C92E65AFE4F05
:100AE00049C0E0912301E831D0F080E090E0FC01C2
:100AF000EB5FFE4F1083FC01E65AFE4F1082FC01B3
:100B0000E055FE4F1082FC01EE0FFF1FE658FE4F2E
:100B10001182108201968831910549F71ACFF0E0D1
:100B2000DF01AB5FBE4F1C93DF01A65ABE4F1C9284
:100B3000DF01A055BE4F1C92EE0FFF1FE658FE4F7F
:100B40001182108206CFE09123018E2F81508630D2
:100B500008F0FFCEF0E0EE58FE4F81E08083F9CE42
:100B6000E09123018E2F8150863008F0F2CEF0E024
:100B7000EE58FE4F1082EDCEFF920F931F93182F69
:100B8000062FF42E599885E081D1812F7FD1802FB7
:100B90007DD18F2D7BD1599A1F910F91FF90089590
:100BA0000F931F938C01FC018281938125E0969520
:100BB00087952A95E1F76AD1F8019281892F880FEC
:100BC000880F880F807E88609370892B5FD1F80131
:100BD00081815CD1F801808159D11F910F910895D5
:100BE0000F931F93CF93DF93EC018FEF4FD1082F1B
:100BF0008FEF4CD1182F83FD02C080E01AC0802FE8
:100C000090E035E0880F991F3A95E1F79B838A833E
:100C10008FEF3CD18983812F83709A81892B169520
:100C2000169516951C71812B8A838FEF2FD188839F
:100C300081E0DF91CF911F910F910895599826D1AE
:100C40008FEF24D1599A0895EF92FF920F931F933B
:100C5000CF93DF93EC014E9930C080EBEFDF282F6C
:100C600090E040E4E42EF12CE822F92286FF02C055
:100C700080E903C027FF21C084E9599807D1CE013C
:100C8000AFDF8FEF03D1082F0F700C8310E007C088
:100C90008FEFFCD0FE01E10FF11D85831F5F101760
:100CA000B8F3599AEF2819F08CE261E002C08CE2A7
:100CB00062E040E061DF80E401C08FE3DF91CF912B
:100CC0001F910F91FF90EF900895FF920F931F9344
:100CD000CF93DF93EC0180EAB1DF82FD02C0FF24F5
:100CE00009C084FD03C062E0F62E04C086FDF3CF88
:100CF00054E0F52E59988F2D8064C8D0CE0150DF76
:100D00000C810F70802FC2D010E006C0FE01E10FF1
:100D1000F11D8581BBD01F5F1017C0F3599A0000E9
:100D200000005998FF2011F4FF24F3948F2D806860
:100D3000ADD0599A8F2DDF91CF911F910F91FF90D8
:100D400008950F931F93182F062F599882E09ED075
:100D5000812F9CD0802F9AD0599A1F910F9108957E
:100D6000CF93DF938AD056985E9A599880EC8ED0B4
:100D7000599A88EE93E00197F1F7599882E086D06E
:100D800080E084D0C0E4D0E0FE0184917FD0219641
:100D9000F0E0CD36DF07C1F7599A80E664E4D1DF91
:100DA00080E760E4CEDF8FE060E0CBDFDF91CF91C2
:100DB00008951F93182F599883E068D0812F66D02B
:100DC0008FEF64D0599A1F910895EF92FF920F937D
:100DD0001F93CF93DF93182F7B01863010F080E0B4
:100DE00045C08FE060EE40E8C7DEC0E8D0E08EE0AE
:100DF000E0DF8C27807ED9F7112311F400E203C0D5
:100E0000123081F404E2599882E040D0802F3ED025
:100E1000C7010496C5DE85E0982F9A95F1F7599A97
:100E20008A95F1F7133010F400E002C0135000E18E
:100E3000599882E02BD0812F880F880F802B26D0E5
:100E4000C701AEDE85E0982F9A95F1F7599A8A95F9
:100E5000F1F7112311F480E603C0123019F480E792
:100E600060E46FDF8FE060E06CDF81E0DF91CF91C5
:100E70001F910F91FF90EF900895599A519A5C98A5
:100E80005B985A98549A539A52980895282F5C98D0
:100E900080E090E0880F27FF02C05B9A01C05B985A
:100EA0005C9A4A9981605C989F5F983011F0220F9C
:100EB000F1CF08958F9380E085B988B98BB18E7595
:100EC0008BB98EB1887F8EB980E0809308028FEF56
:100ED0008093090281E08093810081E080936F001C
:100EE000BCD08FEF8093850080E0809384008F9149
:100EF00008958F939F93EF93FF93AF93BF932F9298
:100F00003F924F925F926F927F928F929F92AF9299
:100F1000BF92CF92DF92EF92EFB6E0918400E15161
:100F2000EC3008F0EBE0FF27E956F84F0994000099
:100F300000000000000000000000000000000000B1
:100F40000000000080910802803009F045C0A0ED4B
:100F5000B1E02D903D904D905D906D907D908D9085
:100F60009D90AD90BD90CD90DD90ED91FD918D91D6
:100F70009D91E4B9B7B88AB85DB800009DB94AB888
:100F800000008AB977B800007D9037B80000F7B943
:100F900064B800008D9024B89DB8A4B80000CAB809
:100FA000DDB84D905D9074B887B84AB85DB84D9083
:100FB0005D906D907D9095E09A95F1F700000000AE
:100FC00086E08093080244B857B86AB87DB897E0C5
:100FD0009A95F1F700000000E82F982FFF27EE0FF9
:100FE000E856FE4E25903490309285002092840081
:100FF0009395F92FFE3009F4992790930802E82F72
:10100000EE0FEE0FFF27E053FE4F219031904190FD
:10101000519024B837B84AB85DB8973031F49BE1A5
:101020009A95F1F700008395D7CF992309F415D04D
:10103000EFBEEF90DF90CF90BF90AF909F908F90DA
:101040007F906F905F904F903F902F90BF91AF91A6
:10105000FF91EF919F918F9118950F921F922F9270
:101060003F924F925F926F927F928F929F92AF9238
:10107000BF92CF92DF92EF92FF920F931F932F9325
:101080003F938F939F93CF93DF93EF93FF934F9370
:101090004FB723E0C22FCA95C295C695DD27C0552C
:1010A000DE4F38E0809109029991899F8827090EC7
:1010B000181EE12DFF27EE0FFF1FEC54FE4E05908A
:1010C00014900694279406943794069447940694B3
:1010D000579406946794069477940694879406949C
:1010E00097941694A7941694B7941694C79416944C
:1010F000D7941694E7941694F7943A9509F0D2CFC2
:10110000C22FCA95DD27C053DE4F28823C82488615
:101110005C86688A7C8A888E9C8EA8A2BCA2C8A69F
:10112000DCA6E8AAFCAA2A9509F0B4CFDD27CC27D3
:10113000C053DE4F2EE089818D7F846089838A8150
:10114000982F879587703DB1387F832B8B83917A59
:101150003AB13E75932B9A8324962A9561F7EFBE98
:101160004F91FF91EF91DF91CF919F918F913F919F
:101170002F911F910F91FF90EF90DF90CF90BF9034
:10118000AF909F908F907F906F905F904F903F9027
:101190002F901F900F90089560EA60EA60EA60EA7D
:1011A00060EA60EA60EA77FF77FE77FC77F877F02D
:1011B00077E077C000000100020003000400050092
:1011C0000600070009000A000B000C000D000F00CC
:1011D00010001100130014001600170019001A0067
:1011E0001C001D001F0021002300240026002800F1
:1011F0002A002C002E003000320034003700390065
:101200003B003E0040004300450048004A004D00BE
:1012100050005300560059005C005F0062006600F9
:1012200069006D007000740077007B007F00830010
:1012300087008B009000940099009D00A200A700F9
:10124000AC00B100B600BB00C100C600CC00D200AB
:10125000D800DE00E400EB00F100F800FF0006011A
:101260000D0114011C0124012B0134013C01440136
:101270004D0156015F01680172017C0186019001F8
:101280009A01A501B001BB01C701D301DF01EB0148
:10129000F801050212021F022D023C024A02590205
:1012A0006802780288029802A902BA02CC02DE0221
:1012B000F002030316032A033E03530368037E036D
:1012C0009403AB03C203DA03F2030B0425043F04C7
:1012D0005A0476049204AE04CC04EA0409052905F4
:1012E00049056A058C05AF05D205F7051C064206BF
:1012F00069069106BA06E4060F073B0768079607DA
:10130000C507F507270859088D08C208F8083009ED
:101310006909A309DE091C0A5A0A9A0ADB0A1E0B8C
:10132000630BA90BF10B3B0C860CD40C230D730D36
:10133000C60D1B0E720ECB0E260F830FE20F44104C
:10134000A8100E117711E2115012C0123313A91315
:1013500022149D141C159D152216A9163417C217A8
:101360005418E91882191E1ABE1A611B091CB41CF4
:10137000641D181ED01E8C1F4D201321DD21AC22B0
:101380008023592437251B260427F227E628E02945
:10139000E02AE52BF12C042E1D2F3D3063319132D4
:1013A000C533013545369037E3383E3AA13B0D3D14
:1013B000823EFF3F97FB092E05260ED057FD04D035
:1013C00014D00AD0001C38F45095409530952195E2
:1013D0003F4F4F4F5F4F0895F6F79095809570956A
:1013E00061957F4F8F4F9F4F0895A1E21A2EAA1B40
:1013F000BB1BFD010DC0AA1FBB1FEE1FFF1FA217C5
:10140000B307E407F50720F0A21BB30BE40BF50BC1
:10141000661F771F881F991F1A9469F7609570954A
:10142000809590959B01AC01BD01CF010895F9997C
:10143000FECF92BD81BDF89A992780B50895262FD9
:10144000F999FECF1FBA92BD81BD20BD0FB6F894A9
:0E145000FA9AF99A0FBE01960895F894FFCF0C
:00000001FF
