:1000000036C045C044C043C042C041C040C03FC0EC
:100010003EC03DC03CC03BC03AC039C038C037C00C
:1000200036C035C034C033C032C031C030C02FC03C
:100030002EC02DC02CC02BC02AC029C028C027C06C
:100040000008100000080000000800000000008008
:100050000008000000080000000800000000008008
:1000600000083FE2FFEBFFFF0290030300001124B2
:100070001FBECFEFD2E0DEBFCDBF11E0A0E0B1E008
:1000800001C01D92AD30B107E1F7DAD058C3B8CF47
:10009000AF92BF92CF92DF92EF92FF920F931F9396
:1000A0007B01A0900001B0900101C0900201D090AE
:1000B000030100E010E0EEE0EE0CFF1C001F111F3A
:1000C000EA95D1F77EE0D694C794B794A7947A9531
:1000D000D1F795013F7040E050E062E0220F331FFE
:1000E000441F551F6A95D1F7E22AF32A042B152BDA
:1000F00090E0A0E0B0E08F709070A070B07046E12A
:10010000880F991FAA1FBB1F4A95D1F7E82AF92A21
:100110000A2B1B2BAB2CBC2CCD2CDD248FE0A82272
:100120008A2D90E0A0E0B0E02AE0880F991FAA1F76
:10013000BB1F2A95D1F7E82AF92A0A2B1B2BE0923C
:100140000001F092010100930201109303018091DC
:10015000050180648093050181E0809304011F9173
:100160000F91FF90EF90DF90CF90BF90AF900895E8
:1001700020EA3FE004C0F9013197F1F701970097B9
:10018000D1F70895CF92DF92EF92FF920F931F93D2
:10019000DF93CF93CDB7DEB7C850CDBF9B01E82E1C
:1001A000FF2400E010E0AAE0EE0CFF1C001F111F6E
:1001B000AA95D1F740E050E0F2E0220F331F441F30
:1001C000551FFA95D1F72E293F29402B512B298312
:1001D0003A834B835C838CEF9FE3A0E0B0E08D8398
:1001E0009E83AF83B88780E06E010894C11CD11C48
:1001F000B6011AD281E0B60117D282E0B60114D25C
:1002000083E0B60111D284E0B6010ED28CEF93E008
:10021000A0E0B0E0E82AF92A0A2B1B2BE982FA8237
:100220000B831C8385E0B601FFD12896CDBFCF910B
:10023000DF911F910F91FF90EF90DF90CF90089585
:10024000CF92DF92EF92FF920F931F93CF93DF93A2
:1002500080E090E05ED28A3B89F481E090E059D260
:100260008A3C61F42CE088E190E00FB6F894A89500
:10027000809360000FBE20936000FFCF80E090E08D
:100280006AEB4FD29CD18FE06FEF70E07BDF789408
:1002900084E090ECAFEFB3E0809300019093010114
:1002A000A0930201B09303018EE4809305011092A4
:1002B0000601109207018AEB8093080184E0809385
:1002C000040180E091E030D104E012E0C12EB6E0FC
:1002D000DB2E80E091E0E7D08F33D9F31091050158
:1002E0008FE06FEF70E0D4DE1C3081F11D3028F418
:1002F0001A3059F01B3069F70DC01E3009F44DC09B
:100300001E30F0F11F3029F75AC010920601C0923A
:10031000040151C080E090E0FCD18093060181E0AF
:1003200090E0F7D18093070182E090E0F2D18093D2
:10033000080183E090E0EDD18093090184E090E032
:10034000E8D180930A01D092040135C08091060162
:100350008A3B09F0BECF809107018A3C09F0B9CFF2
:1003600082E090E060910801DCD183E090E0609150
:100370000901D7D184E090E060910A01D2D1A9CFE0
:10038000D0910701C0E0809106019E01280F311D28
:10039000C901BFD1809308010CC0F0900701EE2481
:1003A000809106019701280F311DC9016091080154
:1003B000B8D10093040180E091E0B6D08ACF2CE060
:1003C00088E190E00FB6F894A895809360000FBE86
:1003D00020936000FFCFFF920F931F93182F062FDB
:1003E000F42E599885E081D1812F7FD1802F7DD146
:1003F0008F2D7BD1599A1F910F91FF9008950F93E4
:100400001F938C01FC018281938125E0969587954D
:100410002A95E1F76AD1F8019281892F880F880F18
:10042000880F807E88609370892B5FD1F80181816D
:100430005CD1F801808159D11F910F9108950F93DC
:100440001F93CF93DF93EC018FEF4FD1082F8FEFE6
:100450004CD1182F83FD02C080E01AC0802F90E09D
:1004600035E0880F991F3A95E1F79B838A838FEFD8
:100470003CD18983812F83709A81892B169516959B
:1004800016951C71812B8A838FEF2FD1888381E091
:10049000DF91CF911F910F910895599826D18FEF39
:1004A00024D1599A0895EF92FF920F931F93CF93FF
:1004B000DF93EC014E9930C080EBEFDF282F90E006
:1004C00040E4E42EF12CE822F92286FF02C080E904
:1004D00003C027FF21C084E9599807D1CE01AFDFBF
:1004E0008FEF03D1082F0F700C8310E007C08FEF40
:1004F000FCD0FE01E10FF11D85831F5F1017B8F3DB
:10050000599AEF2819F08CE261E002C08CE262E0B7
:1005100040E061DF80E401C08FE3DF91CF911F9164
:100520000F91FF90EF900895FF920F931F93CF9339
:10053000DF93EC0180EAB1DF82FD02C0FF2409C035
:1005400084FD03C062E0F62E04C086FDF3CF54E0C4
:10055000F52E59988F2D8064C8D0CE0150DF0C81C4
:100560000F70802FC2D010E006C0FE01E10FF11D18
:100570008581BBD01F5F1017C0F3599A000000009F
:100580005998FF2011F4FF24F3948F2D8068ADD08B
:10059000599A8F2DDF91CF911F910F91FF90089560
:1005A0000F931F93182F062F599882E09ED0812F0A
:1005B0009CD0802F9AD0599A1F910F910895CF9374
:1005C000DF938AD056985E9A599880EC8ED0599ACB
:1005D00088EE93E00197F1F7599882E086D080E0A9
:1005E00084D0C0E4D0E0FE0184917FD02196F0E079
:1005F000CD36DF07C1F7599A80E664E4D1DF80E7A2
:1006000060E4CEDF8FE060E0CBDFDF91CF91089533
:100610001F93182F599883E068D0812F66D08FEFF1
:1006200064D0599A1F910895EF92FF920F931F93F0
:10063000CF93DF93182F7B01863010F080E045C008
:100640008FE060EE40E8C7DEC0E8D0E08EE0E0DF9B
:100650008C27807ED9F7112311F400E203C01230F9
:1006600081F404E2599882E040D0802F3ED0C70147
:100670000496C5DE85E0982F9A95F1F7599A8A95E8
:10068000F1F7133010F400E002C0135000E1599864
:1006900082E02BD0812F880F880F802B26D0C701B6
:1006A000AEDE85E0982F9A95F1F7599A8A95F1F781
:1006B000112311F480E603C0123019F480E760E4DE
:1006C0006FDF8FE060E06CDF81E0DF91CF911F9101
:1006D0000F91FF90EF900895599A519A5C985B980A
:1006E0005A98549A539A52980895282F5C9880E00B
:1006F00090E0880F27FF02C05B9A01C05B985C9A6C
:100700004A9981605C989F5F983011F0220FF1CF79
:100710000895F999FECF92BD81BDF89A992780B5C9
:100720000895262FF999FECF1FBA92BD81BD20BD35
:100730000FB6F894FA9AF99A0FBE01960895F894B4
:02074000FFCFE9
:00000001FF
