:100000006AC084C083C082C081C080C07FC07EC0FF
:100010007DC07CC07BC07AC079C078C077C02FC853
:1000200075C014C373C072C071C070C06FC06EC0A1
:100030006DC06CC06BC06AC069C068C067C066C074
:1000400019C51EC53DC556C562C56FC5FAC4F9C4FC
:10005000F8C4F7C47CC575C582C5F3C4F2C4F1C445
:10006000F0C4EFC4EEC4EDC482C58CC5D9C59DC52E
:10007000A8C5B3C5C5C5D6C5F2C526C62DC60000E0
:100080000900010012000C000400070008000A002B
:10009000020013000D0005000F0010000B0003000C
:1000A00014000E00060015000008100000080000F3
:1000B00000080000000000800008000000080000A8
:1000C000000800000000008000083FE2FFEBFFFF97
:1000D00002900303000011241FBECFEFD2E0DEBF69
:1000E000CDBF11E0A0E0B1E0E8E5F6E102C0059087
:1000F0000D92A030B107D9F712E0A0E0B1E001C045
:100100001D92AA30B107E1F72BD4A4CA79CFAF92E0
:10011000BF92CF92DF92EF92FF920F931F937B01DA
:10012000A0901D01B0901E01C0901F01D090200131
:1001300000E010E0EEE0EE0CFF1C001F111FEA953E
:10014000D1F77EE0D694C794B794A7947A95D1F767
:1001500095013F7040E050E062E0220F331F441FE2
:10016000551F6A95D1F7E22AF32A042B152B90E04C
:10017000A0E0B0E08F709070A070B07046E1880F82
:10018000991FAA1FBB1F4A95D1F7E82AF92A0A2B03
:100190001B2BAB2CBC2CCD2CDD248FE0A8228A2D70
:1001A00090E0A0E0B0E02AE0880F991FAA1FBB1FD3
:1001B0002A95D1F7E82AF92A0A2B1B2BE0921D0178
:1001C000F0921E0100931F011093200180912201E3
:1001D00080648093220181E0809321011F910F911F
:1001E000FF90EF90DF90CF90BF90AF900895EF9287
:1001F000FF920F931F93CF93DF93C82FD0E0FE01A0
:10020000EE0FFF1FED58FE4F80819181EE24F42EFA
:10021000052F162FA0E0B0E0E81AF90A0A0B1B0B15
:10022000442737FD4095542FC801B701ACD9A90127
:100230001216130614F44F5F5F4FFE01EE0FFF1FFF
:10024000ED58FE4F80819181840F951F91838083AB
:10025000CA01DF91CF911F910F91FF90EF90089508
:10026000AF92BF92CF92DF92EF92FF920F931F93C4
:10027000782FF62ED42EC22EB02EAE2C883008F059
:100280006EC0873061F410E0812F6F2D4D2D2C2D25
:100290000B2DEA2CE5DF1F5F1730B1F760C0282F68
:1002A00030E0220F331FF901E258FF4F85919491FE
:1002B000A82FF901E457FF4F85919491582FF90128
:1002C000E656FF4F85919491482F81E0E81691F40E
:1002D000EA2FF0E0E055FE4F8081F81AE52FF0E0BC
:1002E000E055FE4F8081D81AE42FF0E0E055FE4F34
:1002F0008081C81AB0E0FD01E055FE4FF082252F45
:1003000030E0F901E055FE4FD08250E0FA01E055AF
:10031000FE4FC0829F2D80E0AA0FBB1FAD58BE4F7D
:1003200011969C938E939D2D80E0220F331F2D58A4
:100330003E4FF901918380839C2D80E0440F551F2F
:100340004D585E4FFA0191838083772341F4B09238
:10035000C1019B2D80E090939601809395011F91A0
:100360000F91FF90EF90DF90CF90BF90AF900895E6
:100370005F926F927F928F929F92AF92BF92CF9235
:10038000DF92EF92FF920F931F93CF93DF93A82EEC
:10039000962E742E622E502EBE2C87E08A1508F4FD
:1003A00095C0A81661F410E0812F692D472D262DE8
:1003B000052DEB2CDDDF1F5F1730B1F787C02A2D2D
:1003C00030E0220F331FF901E258FF4F85919491DD
:1003D000F901E457FF4FE590F4908E2CF901E656B1
:1003E000FF4FC590D490082F10E0FB2CFA94F80131
:1003F000E65AFE4FF082462F50E060E070E02B2D71
:1004000030E0F5DE9C01F801EE0FFF1FDF01A65D75
:10041000BE4F11963C932E93ED58FE4F80819181F3
:1004200000551E4FF8019083C82DD0E0FE01E65A1A
:10043000FE4FF082472D50E060E070E08E2D2B2DB6
:1004400030E0D5DEFE01EE0FFF1FDF01A65DBE4FDF
:1004500011969C938E93ED58FE4F80819181C055EB
:10046000DE4F9883CC2DD0E0FE01E65AFE4FF0829D
:10047000462D50E060E070E08C2D2B2D30E0B7DE93
:10048000FE01EE0FFF1FDF01A65DBE4F11969C938C
:100490008E93ED58FE4F80819181C055DE4F988339
:1004A000AA20A1F4F0926B01452D50E060E070E0CD
:1004B00081E12B2D30E09BDE90934D0180934C0128
:1004C00080919501909196019093C101DF91CF9118
:1004D0001F910F91FF90EF90DF90CF90BF90AF9062
:1004E0009F908F907F906F905F9008958F929F92D2
:1004F000AF92BF92CF92DF92EF92FF920F931F9332
:10050000CF93DF93882EE90168015701662331F408
:10051000F7014083F801408348837CC0E42EFF2428
:10052000062F10E08FEF90E0801B910B9C012E9D19
:10053000C0012F9D900D3E9D900D112460E071E053
:100540000FD8962E882D6BE2FFD7E92FF0E0E09FC1
:100550009001E19F300DF09F300D112486ED99E25E
:10056000821B930B6AE270E0FBD76E9DC0016F9D0A
:10057000900D7E9D900D112460E071E0F1D7362F33
:10058000BA97E09FC001E19F900DF09F900D11245C
:100590008A52964D6AE270E0E3D76E9DC0016F9D6E
:1005A000900D7E9D900D112460E071E0D9D7262F2B
:1005B000882D6BE2C9D78230C1F0833028F48823BC
:1005C00051F0813039F50BC08430C9F0843098F097
:1005D000853001F51AC04883F601208303C03883B3
:1005E000F6014083F501908215C09882F6014083A0
:1005F000F50120830FC09882F601308303C0288361
:10060000F6019082F501408305C04883F60190828F
:10061000F5013083DF91CF911F910F91FF90EF9003
:10062000DF90CF90BF90AF909F908F900895982FBC
:10063000873150F4643140F484E1989FC001112463
:100640000A96860F911DF0C780E008951F920F92C1
:100650000FB60F921124BF92CF92DF92EF92FF92CA
:100660000F931F932F933F934F935F936F937F93BA
:100670008F939F93AF93BF93CF93DF93EF93FF93AA
:1006800083E686BD8091020190910301892B49F098
:10069000809102019091030101979093030180934F
:1006A0000201809100019091010101969093010156
:1006B0008093000104970CF49DC000E010E0F4E189
:1006C000BF2EEAE5EE2EE1E0FE2EE00EF11EF70170
:1006D0008081882399F0F801EE0FFF1FDF01AD58EC
:1006E000BE4F2D913C911197E65DFE4F8081918127
:1006F000820F931F11969C938E932BC0E801CB5FC2
:10070000DE4F8881843108F06BC06881802F8FDFD5
:10071000982F88818F5F8883992309F455C0993C6D
:10072000E8F4F70190836881802F81DF98819F5FD3
:100730009883F7012081482F50E060E070E0802F1F
:1007400030E055DDF801EE0FFF1FE65DFE4F9183AF
:100750008083F70180818150808337C09D3D18F4EC
:10076000995C988332C09D3D69F46881802F5FDF7A
:10077000D82ECC24F801EE0FFF1FED58FE4FD1828A
:10078000C0821CC09E3D59F4F801EE0FFF1FE65DCC
:10079000FE4F118210826881802F49DF0DC09F3D7E
:1007A00089F4F801EE0FFF1FE65DFE4F1182108203
:1007B0008091840090918500F701808388818F5F0C
:1007C000888303C0903E09F0B882F801EE0FFF1F46
:1007D000ED58FE4F80819181F801E055FE4F9083E6
:1007E0000F5F1F4F0831110509F06BCF1092010107
:1007F00010920001809172018A3F28F48091720169
:100800008F5F80937201FF91EF91DF91CF91BF9144
:10081000AF919F918F917F916F915F914F913F9198
:100820002F911F910F91FF90EF90DF90CF90BF908D
:100830000F900FBE0F901F901895EF92FF920F939D
:100840001F9380912401803140F590E00A96209119
:10085000230144E1249F90011124820F931F8C01F6
:100860000F5F1F4F60912501E7D678010894E11CC6
:10087000F11CC80160912601DFD687010F5F1F4F71
:10088000C70160912701D8D6C80160912801D4D64C
:10089000C801019660912901CFD61F910F91FF9059
:1008A000EF900895CF92DF92EF92FF920F931F93F4
:1008B000DF93CF93CDB7DEB7C850CDBF9B01E82EF5
:1008C000FF2400E010E0BAE0EE0CFF1C001F111F37
:1008D000BA95D1F740E050E0A2E0220F331F441F49
:1008E000551FAA95D1F72E293F29402B512B29833B
:1008F0003A834B835C838CEF9FE3A0E0B0E08D8371
:100900009E83AF83B88780E06E010894C11CD11C20
:10091000B60121D381E0B6011ED382E0B6011BD31C
:1009200083E0B60118D384E0B60115D38CEF93E0D1
:10093000A0E0B0E0E82AF92A0A2B1B2BE982FA8210
:100940000B831C8385E0B60106D32896CDBFCF91DB
:10095000DF911F910F91FF90EF90DF90CF9008955E
:100960002F923F924F925F926F927F928F929F92BF
:10097000AF92BF92CF92DF92EF92FF920F931F93AD
:10098000DF93CF93CDB7DEB7C350CDBF80E096E104
:1009900015C0E82FF0E0DF01AB5FBE4F9C93DF0195
:1009A000A65ABE4F1C92DF01A055BE4F1C92EE0FFF
:1009B000FF1FED58FE4F118210828F5F883148F380
:1009C000898380E090E030D689838A3BB9F481E066
:1009D00090E02AD689838A3C89F482E090E024D68C
:1009E000A82EBB2483E090E01FD6382F20E0A20E73
:1009F000B31E84E090E018D6C82E05C0CC24C39462
:100A000020E1A22EB12C72D28C2DB5014BDF8FEFDD
:100A10008093090285E085BD83E686BD80916E00E6
:100A2000816080936E000CD3789492E0492E512C13
:100A30004C0E5D1E83E0282E312C2C0E3D1E01C075
:100A40008983109222018DE191E0C4D18F33D9F3D3
:100A5000809122018983D09023018C2DB50157DB31
:100A6000898190E0FC013A97EF31F10550F7E05EA3
:100A7000FF4F0994109223011092240183E01AC0C1
:100A800080E090E0D1D58093230181E090E0CCD547
:100A90008093240182E090E0C7D58093250183E014
:100AA00090E0C2D58093260184E090E0BDD580938C
:100AB000270186E0809321018DE191E0CCD1C1CF67
:100AC000809123018A3B09F0BCCF809124018A3CAC
:100AD00009F0B7CF82E090E060912501ADD583E0C9
:100AE00090E060912601A8D584E090E06091270114
:100AF000A3D5A7CF9090240188248091230194014D
:100B0000280F311DC90190D5809325010CC070902C
:100B100024016624809123019301280F311DC9010E
:100B20006091250189D584E0C5CF2CE088E190E073
:100B30000FB6F894A895809360000FBE20936000D4
:100B4000FFCF87E060E040E020E000E005C087E004
:100B50006FEF4FEF2FEF0FEFEE2482DBADCF87E08B
:100B60006FEF4FEF2FEF0FEFEE24E394F6CF8D2DC5
:100B700060912401409125012091260100912701D7
:100B8000EE243CC080912401609125014091260112
:100B90009E012F5F3F4F82017101A8DC8D2D69817D
:100BA0004A812B8100912701D7CF81E060912401F8
:100BB000409125012091260100E0EE2451DB82E0E6
:100BC00017C083E060912401409125012091260106
:100BD00000E0EE2445DB84E00BC085E06091240159
:100BE000409125012091260100E0EE2439DB86E0CA
:100BF00060912701409128012091290131DB21CF0B
:100C000080912301883160F0198206C0809323010E
:100C100014DE89818F5F898389818831B8F311CF90
:100C20000CDE0FCFE0912301E83178F080E00AC0BC
:100C3000E82FF0E0DF01AB5FBE4F1C92E65AFE4F9B
:100C400010828F5F8831A0F3FBCEE983F0E0DF01F3
:100C5000AB5FBE4F1C92E65AFE4F1082F2CEE0917F
:100C60002301E831D8F080E016C0E82FF0E0DF0182
:100C7000AB5FBE4F36E13C93DF01A65ABE4F1C92DC
:100C8000DF01A055BE4F1C92EE0FFF1FED58FE4F27
:100C9000118210828F5F883140F3D2CEE983F0E079
:100CA000DF01AB5FBE4F86E18C93DF01A65ABE4FDA
:100CB0001C92DF01A055BE4F1C92EE0FFF1FED5896
:100CC000FE4F11821082BDCE8D2D60912401409186
:100CD00025012091260110C08091240160912501F9
:100CE000409126019E012F5F3F4F82017101FEDB83
:100CF0008D2D69814A812B8100912701E090280187
:100D000037DB9FCEFF920F931F93182F062FF42EE1
:100D1000599885E081D1812F7FD1802F7DD18F2D72
:100D20007BD1599A1F910F91FF9008950F931F93B4
:100D30008C01FC018281938125E0969587952A9507
:100D4000E1F76AD1F8019281892F880F880F880F07
:100D5000807E88609370892B5FD1F80181815CD19E
:100D6000F801808159D11F910F9108950F931F931E
:100D7000CF93DF93EC018FEF4FD1082F8FEF4CD142
:100D8000182F83FD02C080E01AC0802F90E035E06C
:100D9000880F991F3A95E1F79B838A838FEF3CD1A7
:100DA0008983812F83709A81892B169516951695C4
:100DB0001C71812B8A838FEF2FD1888381E0DF9193
:100DC000CF911F910F910895599826D18FEF24D17B
:100DD000599A0895EF92FF920F931F93CF93DF9349
:100DE000EC014E9930C080EBEFDF282F90E040E41B
:100DF000E42EF12CE822F92286FF02C080E903C02C
:100E000027FF21C084E9599807D1CE01AFDF8FEFCA
:100E100003D1082F0F700C8310E007C08FEFFCD0B8
:100E2000FE01E10FF11D85831F5F1017B8F3599A7A
:100E3000EF2819F08CE261E002C08CE262E040E051
:100E400061DF80E401C08FE3DF91CF911F910F91AB
:100E5000FF90EF900895FF920F931F93CF93DF932E
:100E6000EC0180EAB1DF82FD02C0FF2409C084FDED
:100E700003C062E0F62E04C086FDF3CF54E0F52EE9
:100E800059988F2D8064C8D0CE0150DF0C810F702F
:100E9000802FC2D010E006C0FE01E10FF11D858158
:100EA000BBD01F5F1017C0F3599A0000000059987B
:100EB000FF2011F4FF24F3948F2D8068ADD0599A50
:100EC0008F2DDF91CF911F910F91FF9008950F9378
:100ED0001F93182F062F599882E09ED0812F9CD007
:100EE000802F9AD0599A1F910F910895CF93DF9335
:100EF0008AD056985E9A599880EC8ED0599A88EE8E
:100F000093E00197F1F7599882E086D080E084D091
:100F1000C8EAD0E0FE0184917FD02196F0E0C53D83
:100F2000DF07C1F7599A80E664E4D1DF80E760E427
:100F3000CEDF8FE060E0CBDFDF91CF9108951F938C
:100F4000182F599883E068D0812F66D08FEF64D036
:100F5000599A1F910895EF92FF920F931F93CF9389
:100F6000DF93182F7B01863010F080E045C08FE0C2
:100F700060EE40E8C7DEC0E8D0E08EE0E0DF8C271E
:100F8000807ED9F7112311F400E203C0123081F4FE
:100F900004E2599882E040D0802F3ED0C7010496E9
:100FA000C5DE85E0982F9A95F1F7599A8A95F1F761
:100FB000133010F400E002C0135000E1599882E0B1
:100FC0002BD0812F880F880F802B26D0C701AEDE53
:100FD00085E0982F9A95F1F7599A8A95F1F71123A0
:100FE00011F480E603C0123019F480E760E46FDF8B
:100FF0008FE060E06CDF81E0DF91CF911F910F9176
:10100000FF90EF900895599A519A5C985B985A987E
:10101000549A539A52980895282F5C9880E090E053
:10102000880F27FF02C05B9A01C05B985C9A4A99BF
:1010300081605C989F5F983011F0220FF1CF089586
:101040008F9380E085B988B98BB18E758BB98EB1DD
:10105000887F8EB980E0809308028FEF8093090229
:1010600081E08093810081E080936F00BCD08FEF9E
:101070008093850080E0809384008F9108958F9302
:101080009F93EF93FF93AF93BF932F923F924F9213
:101090005F926F927F928F929F92AF92BF92CF9208
:1010A000DF92EF92EFB6E0918400E151EC3008F06E
:1010B000EBE0FF27E35AF74F09940000000000001F
:1010C0000000000000000000000000000000000020
:1010D00080910802803009F045C0A0EDB1E02D906C
:1010E0003D904D905D906D907D908D909D90AD90D8
:1010F000BD90CD90DD90ED91FD918D919D91E4B9E4
:10110000B7B88AB85DB800009DB94AB800008AB97E
:1011100077B800007D9037B80000F7B964B80000D8
:101120008D9024B89DB8A4B80000CAB8DDB84D9021
:101130005D9074B887B84AB85DB84D905D906D9079
:101140007D9095E09A95F1F70000000086E080938D
:10115000080244B857B86AB87DB897E09A95F1F795
:1011600000000000E82F982FFF27EE0FE45DFC4EF3
:101170002590349030928500209284009395F92F29
:10118000FE3009F4992790930802E82FEE0FEE0F36
:10119000FF27E053FE4F219031904190519024B8A9
:1011A00037B84AB85DB8973031F49BE19A95F1F7BA
:1011B00000008395D7CF992309F415D0EFBEEF90A7
:1011C000DF90CF90BF90AF909F908F907F906F9067
:1011D0005F904F903F902F90BF91AF91FF91EF9113
:1011E0009F918F9118950F921F922F923F924F923D
:1011F0005F926F927F928F929F92AF92BF92CF92A7
:10120000DF92EF92FF920F931F932F933F938F9351
:101210009F93CF93DF93EF93FF934F934FB723E0C9
:10122000C22FCA95C295C695DD27C055DE4F38E05E
:10123000809109029991899F8827090E181EE12D36
:10124000FF27EE0FFF1FE85BFC4E059014900694FD
:1012500027940694379406944794069457940694DA
:1012600067940694779406948794069497941694BA
:10127000A7941694B7941694C7941694D79416947A
:10128000E7941694F7943A9509F0D2CFC22FCA95F5
:10129000DD27C053DE4F28823C8248865C86688A00
:1012A0007C8A888E9C8EA8A2BCA2C8A6DCA6E8AACE
:1012B000FCAA2A9509F0B4CFDD27CC27C053DE4F16
:1012C0002EE08A818F7785FD80688F7D84FD806226
:1012D0008F7A982F879587703DB1387F832B8E7FCB
:1012E0008B83917A3AB13E75932B9A8324962A95F3
:1012F00041F7EFBE4F91FF91EF91DF91CF919F9119
:101300008F913F912F911F910F91FF90EF90DF9060
:10131000CF90BF90AF909F908F907F906F905F9095
:101320004F903F902F901F900F90089560EA60EAD1
:1013300060EA60EA60EA60EA60EA77FF77FE77FCDD
:1013400077F877F077E077C0000001000200030033
:10135000040005000600070009000A000B000C004D
:101360000D000F00100011001300140016001700EC
:1013700019001A001C001D001F002100230024007A
:10138000260028002A002C002E00300032003400F5
:10139000370039003B003E00400043004500480054
:1013A0004A004D0050005300560059005C005F0099
:1013B0006200660069006D007000740077007B00B9
:1013C0007F00830087008B009000940099009D00AF
:1013D000A200A700AC00B100B600BB00C100C6006F
:1013E000CC00D200D800DE00E400EB00F100F800F1
:1013F000FF0006010D0114011C0124012B01340121
:101400003C0144014D0156015F01680172017C01FC
:10141000860190019A01A501B001BB01C701D3016A
:10142000DF01EB01F801050212021F022D023C024E
:101430004A0259026802780288029802A902BA0296
:10144000CC02DE02F002030316032A033E03530319
:1014500068037E039403AB03C203DA03F2030B04B5
:1014600025043F045A0476049204AE04CC04EA0432
:101470000905290549056A058C05AF05D205F7055B
:101480001C06420669069106BA06E4060F073B07EA
:1014900068079607C507F507270859088D08C20889
:1014A000F80830096909A309DE091C0A5A0A9A0AD0
:1014B000DB0A1E0B630BA90BF10B3B0C860CD40C47
:1014C000230D730DC60D1B0E720ECB0E260F830F50
:1014D000E20F4410A8100E117711E2115012C01241
:1014E0003313A91322149D141C159D152216A91639
:1014F0003417C2175418E91882191E1ABE1A611B34
:10150000091CB41C641D181ED01E8C1F4D201321F5
:10151000DD21AC228023592437251B260427F227FE
:10152000E628E029E02AE52BF12C042E1D2F3D3082
:1015300063319132C533013545369037E3383E3A51
:10154000A13B0D3D823EFF3F991B79E004C0991FEE
:10155000961708F0961B881F7A95C9F7809508950D
:1015600097FB092E07260AD077FD04D027D006D096
:1015700000201AF4709561957F4F0895F6F79095C5
:1015800081959F4F089597FB092E05260ED057FD94
:1015900004D028D00AD0001C38F4509540953095DE
:1015A00021953F4F4F4F5F4F0895F6F790958095E7
:1015B000709561957F4F8F4F9F4F0895AA1BBB1B5E
:1015C00051E107C0AA1FBB1FA617B70710F0A61B43
:1015D000B70B881F991F5A95A9F780959095BC0164
:1015E000CD010895A1E21A2EAA1BBB1BFD010DC05F
:1015F000AA1FBB1FEE1FFF1FA217B307E407F507C3
:1016000020F0A21BB30BE40BF50B661F771F881F9E
:10161000991F1A9469F760957095809590959B0134
:10162000AC01BD01CF010895F999FECF92BD81BDF6
:10163000F89A992780B50895262FF999FECF1FBAF9
:1016400092BD81BD20BD0FB6F894FA9AF99A0FBEEB
:0816500001960895F894FFCF04
:00000001FF
