:100000006AC084C083C082C081C080C07FC07EC0FF
:100010007DC07CC07BC07AC079C078C077C0C6C8BC
:1000200075C08AC173C072C071C070C06FC06EC02D
:100030006DC06CC06BC06AC069C068C067C066C074
:100040007AC57FC59EC5B7C5C5C5D4C5DFC559C569
:1000500058C557C5E6C5DFC5ECC553C552C551C522
:1000600050C54FC54EC54DC5ECC5F6C541C605C604
:1000700010C61BC62DC63EC679C6AFC6B6C60000A2
:100080000900010012000C000400070008000A002B
:10009000020013000D0005000F0010000B0003000C
:1000A00014000E00060015000008100000080000F3
:1000B00000080000000000800008000000080000A8
:1000C000000800000000008000083FE2FFEBFFFF97
:1000D00002900303000011241FBECFEFD2E0DEBF69
:1000E000CDBF11E0A0E0B1E0E6E8F7E102C0059085
:1000F0000D92A030B107D9F712E0A0E0B1E001C045
:100100001D92AA31B107E1F782D43BCB79CFCF92D0
:10011000DF92EF92FF920F931F93DF93CF93CDB7B0
:10012000DEB7C850CDBFC82EDD24EE24FF243AE050
:10013000CC0CDD1CEE1CFF1C3A95D1F780E090E062
:1001400022E0660F771F881F991F2A95D1F76C2927
:100150007D298E299F2969837A838B839C838CEFE9
:100160009FE3A0E0B0E08D839E83AF83B88780E0FB
:100170008E010F5F1F4FB80179D781E0B80176D7A4
:1001800082E0B80173D783E0B80170D784E0B8018A
:100190006DD7D701C6018C6F936089839A83AB8337
:1001A000BC8385E0B80162D7C85FCDBFCF91DF9136
:1001B0001F910F91FF90EF90DF90CF900895AF9235
:1001C000BF92CF92DF92EF92FF920F931F93A09076
:1001D0001D01B0901E01C0901F01D09020019B0115
:1001E00040E050E0BEE0220F331F441F551FBA9578
:1001F000D1F786017501AEE016950795F794E7945F
:10020000AA95D1F76FEF7FE0E622F72200E010E039
:10021000F2E0EE0CFF1C001F111FFA95D1F72E29FA
:100220003F29402B512B90E0A0E0B0E08F70907000
:10023000A070B070E6E1880F991FAA1FBB1FEA9556
:10024000D1F7282B392B4A2B5B2BD601C50176E140
:10025000B695A795979587957A95D1F78F70A82E23
:10026000BB24CC24DD246AE0AA0CBB1CCC1CDD1C06
:100270006A95D1F72A293B294C295D2920931D0134
:1002800030931E0140931F01509320018091220161
:1002900080648093220181E0809321011F910F915E
:1002A000FF90EF90DF90CF90BF90AF90089587318F
:1002B00050F4643150F494E1899FC00111240A96EE
:1002C000860F911D48CA80E0089580E00895EF925E
:1002D000FF920F931F93CF93DF93C82FD0E0FE01BF
:1002E000EE0FFF1FEC58FE4FE080F180962F852F18
:1002F000742F662700E010E06E197F09800B910BC8
:10030000442737FD4095542FD5D91216130614F4FF
:100310002F5F3F4FCC0FDD1FCC58DE4F8881998176
:10032000820F931F99838883C901DF91CF911F9119
:100330000F91FF90EF9008951F920F920FB60F92BA
:1003400011246F927F928F929F92AF92BF92CF9221
:10035000DF92EF92FF920F931F932F933F934F9350
:100360005F936F937F938F939F93AF93BF93CF933D
:10037000DF93EF93FF9383E686BD80910201909116
:100380000301009749F080910201909103010197C8
:1003900090930301809302018091000190910101EB
:1003A00001969093010180930001843091050CF433
:1003B000D4C0B4EACB2EB1E0DB2EC0E0D0E0A4E1A3
:1003C000BA2EFFEF6F2EFFE77F2EEAE5EE2EE1E07B
:1003D000FE2EEC0EFD1EF7018081882311F1FE0137
:1003E000EE0FFF1FDF01A65DBE4F8D919C9111970F
:1003F0002FE78F3F920761F0EC58FE4F208131814B
:100400008D919C911197820F931F9183808337C0A8
:10041000F701908180917201981709F087C01082CE
:1004200085C08E010B5F1E4FF8018081843108F07A
:1004300088C060818C2F3BDFF80190819F5F9083A3
:10044000882309F472C0893CF8F4F7018083F8012D
:1004500060818C2F2CDFF80190819F5F9083F701E2
:100460002081482F50E060E070E08C2F30E02FDFDB
:10047000FE01EE0FFF1FE65DFE4F91838083F701C3
:1004800080818150808352C08D3D18F4895CF801D1
:10049000F9CF8D3D71F4F80160818C2F08DF982E23
:1004A0008824FE01EE0FFF1FEC58FE4F91828082E0
:1004B00037C08E3D61F4FE01EE0FFF1FE65DFE4F7B
:1004C00011821082F80160818C2FF1DE0DC08F3D0A
:1004D00071F4FE01EE0FFF1FE65DFE4F11821082E8
:1004E0008091840090918500F701808319C0803E3F
:1004F000E9F0813EC9F4F80160818C2FD8DEF60165
:100500009081980FFE01E65AFE4F90838081F6019C
:100510008083FE01EE0FFF1FE65DFE4F7182608259
:10052000F80180818F5FAECFF801B082FE01EE0F3F
:10053000FF1FEC58FE4F80819181FE01E054FE4F79
:10054000908321960894C11CD11CC831D10509F0B3
:100550003CCF1092010110920001809173018A3FFB
:1005600028F4809173018F5F80937301FF91EF9165
:10057000DF91CF91BF91AF919F918F917F916F91BB
:100580005F914F913F912F911F910F91FF90EF90AD
:10059000DF90CF90BF90AF909F908F907F906F90A3
:1005A0000F900FBE0F901F901895AF92BF92CF92F1
:1005B000DF92EF92FF920F931F93DF93CF930F92EF
:1005C000CDB7DEB7D62EF42E122FC02EBE2C88301B
:1005D00008F072C0873071F490E0892F6D2D4F2D97
:1005E000212F0C2DEB2C9983E0DF99819F5F9730B1
:1005F000A1F762C0A82FB0E0AA0FBB1FFD01E2580F
:10060000FF4F25913491422FFD01E457FF4F259173
:100610003491922FA656BF4FFD01259134913E2D66
:10062000313091F4A42FB0E0A054BE4F3C91D31AC6
:10063000A92FB0E0A054BE4F3C91F31AA22FB0E016
:10064000A054BE4F3C91131B642F70E0FB01E0549B
:10065000FE4FD082A92FB0E0FD01E054FE4FF082A2
:10066000A22EBB24950120543E4FF90110835D2D2D
:1006700040E0FB01EE0FFF1FEC58FE4F518340831B
:100680005F2D40E0AA0FBB1FAC58BE4F11965C9384
:100690004E93512F40E0F501EE0FFF1FEC58FE4F37
:1006A00051834083882341F4C092D1019C2D80E086
:1006B00090939701809396010F90CF91DF911F91B6
:1006C0000F91FF90EF90DF90CF90BF90AF90089583
:1006D0002F923F924F925F926F927F929F92AF9232
:1006E000BF92CF92DF92EF92FF920F931F93DF930F
:1006F000CF930F92CDB7DEB7C82ED62EB42EA22E32
:10070000F02E1E2D883008F09AC0873071F490E0EA
:10071000892F6D2D4B2D2A2D0F2DE12E9983D8DF9A
:1007200099819F5F9730A1F78AC0282F30E0220F70
:10073000331FF901E258FF4F85919491F901E45775
:10074000FF4F6590749026563F4FF90145905490A5
:10075000282E3324012F0150F101E65AFE4F008369
:10076000462F50E060E070E0212F30E0B0DD9C01CA
:10077000C101880F991FFC01E65DFE4F3183208384
:100780008C589E4FFC0180819181F101E054FE4F15
:100790009083262C3324F101E65AFE4F00834B2D23
:1007A00050E060E070E0862D212F30E090DD9C016C
:1007B000C101880F991FFC01E65DFE4F3183208344
:1007C0008C589E4FFC0180819181F101E054FE4FD5
:1007D0009083642C7724F301E65AFE4F00834A2D60
:1007E00050E060E070E0842D212F30E070DD9C014E
:1007F000C301880F991FFC01E65DFE4F3183208302
:100800008C589E4FFC0180819181F301E054FE4F92
:100810009083CC20A1F400936B014F2D50E060E059
:1008200070E081E1212F30E052DD90934D01809303
:100830004C0180919601909197019093D1010F9076
:10084000CF91DF911F910F91FF90EF90DF90CF90AC
:10085000BF90AF909F907F906F905F904F903F9030
:100860002F9008954F925F926F927F928F929F92F6
:10087000AF92BF92CF92DF92EF92FF920F931F93AE
:10088000CF93DF93D82EF801E701662329F448833C
:100890004083D9014C9378C0442E5524862E992448
:1008A0006FEF70E068197909649DC001659D900D36
:1008B000749D900D112400E011E0B801E8D6F62EE9
:1008C000C62E8D2D6BE2D7D6E82E692E7724689C34
:1008D000B001699C700D789C700D112486ED99E231
:1008E000861B970BAAE2AA2EB12CB501D0D6649D27
:1008F000C001659D900D749D900D1124B801C7D65F
:10090000D62EB3016A527040689DC001699D900D5A
:10091000789D900D11248A52964DB501B8D6649DEC
:10092000C001659D900D749D900D1124B801AFD646
:10093000862FBE2DB330D9F0B43028F4B13069F031
:10094000B23031F40FC09E2D9430A9F09530C1F033
:10095000D9014C938083C88217C0D901DC924083AF
:10096000F88212C0D901FC92408368830DC0D9017E
:10097000FC92D08203C0D9016C93F082488304C0FA
:10098000D9014C93F082D882DF91CF911F910F91C2
:10099000FF90EF90DF90CF90BF90AF909F908F909F
:1009A0007F906F905F904F9008950F931F93CF9318
:1009B000DF9380912401803128F590E00A963091F0
:1009C000230124E1329F90011124820F931FEC0137
:1009D000219660912501C7D68E010F5F1F4FCE0172
:1009E00060912601C0D6E8012196C80160912701D7
:1009F000BAD6CE0160912801B6D6CE01019660919B
:100A00002901B1D6DF91CF911F910F9108952F92B7
:100A10003F924F925F926F927F928F929F92AF928E
:100A2000BF92CF92DF92EF92FF920F931F93DF93CB
:100A3000CF93CDB7DEB7C750CDBF20E036E116C0AB
:100A4000822F90E0FC01EB5FFE4F3083FC01E65A01
:100A5000FE4F1082FC01E054FE4F1082FC01EE0FAD
:100A6000FF1FEC58FE4F118210822F5F283140F398
:100A7000298380E090E06FD689838A3BB9F481E0D6
:100A800090E069D689838A3C89F482E090E063D65D
:100A9000C82EDD2483E090E05ED6382F20E0C20E21
:100AA000D31E84E090E057D6A82E05C040E1C42EA6
:100AB000D12CAA24A394B0D28A2DB60128DB8FEFC3
:100AC0008093190285E085BD83E686BD80916E0026
:100AD000816080936E004BD3789432E0832E912C0A
:100AE0008C0E9D1E23E0622E712C6C0E7D1E2E013D
:100AF0000894411C511C9FEF292E9FE7392E01C0FD
:100B00002983109222018DE191E047D28F33D9F3EE
:100B1000809122018983B09023018A2DB6014FDB99
:100B2000898190E00A978F31910558F7805E9F4F39
:100B30008F939F930895109223011092240183E0D4
:100B40001AC080E090E007D68093230181E090E016
:100B500002D68093240182E090E0FDD580932501A8
:100B600083E090E0F8D58093260184E090E0F3D50F
:100B70008093270186E0809321018DE191E0BBD134
:100B8000C0CF809123018A3B09F0BBCF8091240123
:100B90008A3C09F0B6CF82E090E060912501E3D570
:100BA00083E090E060912601DED584E090E06091E2
:100BB0002701D9D5A6CF209124012D831C828091B5
:100BC00023012C813D81280F311DC901C4D580939B
:100BD00025010EC0309124013F831E8280912301A4
:100BE0002E813F81280F311DC90160912501BBD5A0
:100BF00084E0C1CF2CE088E190E00FB6F894A8958E
:100C0000809360000FBE20936000FFCF809123018E
:100C10008093720176CF87E060E040E020E000E062
:100C200005C087E06FEF4FEF2FEF0FEFEE24BDDC35
:100C3000A4CF87E06FEF4FEF2FEF0FEFEE24E39499
:100C4000F6CF8B2D60912401409125012091260142
:100C500000912701EE243AC0809124016091250182
:100C600040912601920184017301FCDD8B2D698185
:100C70004A812B8100912701D9CF81E06091240125
:100C8000409125012091260100E0EE248EDC82E0D7
:100C900017C083E060912401409125012091260135
:100CA00000E0EE2482DC84E00BC085E0609124014A
:100CB000409125012091260100E0EE2476DC86E0BB
:100CC0006091270140912801209129016EDC19CF04
:100CD00080912301883160F0198206C0809323013E
:100CE00064DE89818F5F898389818831B8F309CF78
:100CF0005CDE07CF809123018831F8F019823091B2
:100D0000290120E017C0822F90E0FC01EB5FFE4F2D
:100D10001082FC01E65AFE4F30834081FC01EC5505
:100D2000FE4F4083FC01EE0FFF1FE65DFE4F318258
:100D300020822F5F283138F3E3CE898390E0FC01D5
:100D4000EB5FFE4F108220912901FC01E65AFE4F15
:100D500020832081FC01EC55FE4F2083FC01EE0F27
:100D6000FF1FE65DFE4F31822082CBCE80912301B2
:100D70008831E0F020E017C0822F90E0FC01EB5FAB
:100D8000FE4F36E13083FC01E65AFE4F1082FC0133
:100D9000E054FE4F1082FC01EE0FFF1FEC58FE4F97
:100DA000118210822F5F283138F3AACE898390E018
:100DB000FC01EB5FFE4F26E12083FC01E65AFE4F6B
:100DC0001082FC01E054FE4F1082FC01EE0FFF1F69
:100DD000EC58FE4F1182108294CE8B2D609124012D
:100DE00040912501209126010EC08091240160913F
:100DF00025014091260192018401730133DD8B2D81
:100E000069814A812B8100912701E090280160DCF3
:100E100078CE1F93182F599883E096D1812F94D1C3
:100E20008FEF92D1599A1F9108951F93DF93CF931B
:100E30000F92CDB7DEB7182F599882E0698384D11D
:100E4000812F82D16981862F7FD1599A0F90CF91BE
:100E5000DF911F910895599877D18FEF75D1599AE5
:100E600008950F931F93CF93DF93EC018FEF6CD115
:100E7000082F8FEF69D1182F83FF1BC0202F30E080
:100E800085E0220F331F8A95E1F73B832A838FEF9A
:100E90005BD18983812F83709A81892B1695169552
:100EA00016951C71812B8A838FEF4ED1888381E048
:100EB00001C080E0DF91CF911F910F910895CF93F2
:100EC000DF93EC018A819B8125E0969587952A9591
:100ED000E1F73AD18A81982F990F990F990F907E57
:100EE00098608370892B30D189812ED188812CD153
:100EF000DF91CF910895FF920F931F93CF93DF93CC
:100F0000EC0180EAA8DF82FF06C084FF06C086FDF0
:100F1000F8CF14E003C010E001C012E05998812F0F
:100F2000806412D1CE01CBDF0C810F70802F0CD1E9
:100F30002596FF2403C0899107D1F394F016D8F3C6
:100F4000599A000000005998112309F411E0812FEB
:100F50008068FAD0599A812FDF91CF911F910F911C
:100F6000FF9008951F93DF93CF9300D0CDB7DEB7E6
:100F7000182F599885E04A836983E6D0812FE4D001
:100F80006981862FE1D04A81842FDED0599ACE5FC5
:100F9000CDBFCF91DF911F910895EF92FF920F93F4
:100FA0001F93CF93DF93EC014E992EC080EB53DF5C
:100FB000282F30E089010074107086FD04C087FF7F
:100FC00023C084E901C080E95998BED0CE0149DF31
:100FD0008FEFBAD03FE0E32EE822EC822596FF2483
:100FE00004C08FEFB1D08993F394FE14D0F3599AD3
:100FF0000115110519F08CE261E002C08CE262E09B
:1010000040E0B0DF80E401C08FE3DF91CF911F911A
:101010000F91FF90EF900895CF93DF938CD0569867
:101020005E9A599880EC90D0599A88EE93E0019797
:10103000F1F7599882E088D080E086D0C0E0D0E017
:10104000FE01E855FF4F84917FD02196CD32D10526
:10105000B9F7599A80E664E4E8DE80E760E4E5DE0B
:101060008FE060E0E2DEDF91CF910895FF920F9371
:101070001F93CF93DF93F82EEB01863008F054C016
:101080008FE060EE40E86EDF00E810E08EE0C1DE49
:10109000282F332727FD3095207E30702017310709
:1010A000A9F7FF2029F08F2D8230A1F404E201C0BE
:1010B00000E2599882E048D0802F46D0CE010496B5
:1010C000FEDE85E08A95F1F70000599A85E08A9561
:1010D000F1F700008F2D833020F08DEFF80E00E146
:1010E00001C000E0599882E02FD08F2D880F880F23
:1010F000802B2AD0CE01E3DE85E08A95F1F700004F
:10110000599A85E08A95F1F70000FF2011F480E6F6
:1011100004C08F2D823019F480E760E486DE8FE012
:1011200060E083DE81E001C080E0DF91CF911F911C
:101130000F91FF900895599A519A5C985B985A982C
:10114000549A539A52980895282F5C9898E080E01A
:10115000880F27FF02C05B9A01C05B985C9A4A998E
:1011600081605C98915011F0220FF2CF08958F9317
:1011700080E085B988B98BB18E758BB98EB1887FC7
:101180008EB980E0809318028FEF8093190281E07E
:101190008093810081E080936F00BCD08FEF8093BB
:1011A000850080E0809384008F9108958F939F93B2
:1011B000EF93FF93AF93BF932F923F924F925F9223
:1011C0006F927F928F929F92AF92BF92CF92DF9257
:1011D000EF92EFB6E0918400E151EC3008F0EBE0E3
:1011E000FF27EC50F74F09940000000000000000BA
:1011F00000000000000000000000000000008091DE
:101200001802803009F045C0A0EEB1E02D903D906D
:101210004D905D906D907D908D909D90AD90BD9026
:10122000CD90DD90ED91FD918D919D91E4B9B7B890
:101230008AB85DB800009DB94AB800008AB977B88D
:1012400000007D9037B80000F7B964B800008D90B9
:1012500024B89DB8A4B80000CAB8DDB84D905D9020
:1012600074B887B84AB85DB84D905D906D907D9028
:1012700095E09A95F1F70000000086E0809318024F
:1012800044B857B86AB87DB897E09A95F1F700006E
:101290000000E82F982FFF27EE0FE65AFB4E25900F
:1012A000349030928500209284009395F92FFE307F
:1012B00009F4992790931802E82FEE0FEE0FFF27FD
:1012C000E052FE4F219031904190519024B837B8B0
:1012D0004AB85DB8973031F49BE19A95F1F7000078
:1012E0008395D7CF992309F415D0EFBEEF90DF9007
:1012F000CF90BF90AF909F908F907F906F905F90B6
:101300004F903F902F90BF91AF91FF91EF919F91A0
:101310008F9118950F921F922F923F924F925F924A
:101320006F927F928F929F92AF92BF92CF92DF92F5
:10133000EF92FF920F931F932F933F938F939F935F
:10134000CF93DF93EF93FF934F934FB723E0C22FD9
:10135000CA95C295C695DD27C054DE4F38E080910E
:1013600019029991899F8827090E181EE12DFF27E0
:10137000EE0FFF1FEA58FB4E059014900694279439
:101380000694379406944794069457940694679469
:101390000694779406948794069497941694A79449
:1013A0001694B7941694C7941694D7941694E79409
:1013B0001694F7943A9509F0D2CFC22FCA95DD273B
:1013C000C052DE4F28823C8248865C86688A7C8ACE
:1013D000888E9C8EA8A2BCA2C8A6DCA6E8AAFCAAFD
:1013E0002A9509F0B4CFDD27CC27C052DE4F2EE07E
:1013F0008A818F7785FD80688F7D84FD80628F7AFA
:10140000982F879587703DB1387F832B8E7F8B8394
:10141000917A3AB13E75932B9A8324962A9541F797
:10142000EFBE4F91FF91EF91DF91CF919F918F91FF
:101430003F912F911F910F91FF90EF90DF90CF90F0
:10144000BF90AF909F908F907F906F905F904F90E4
:101450003F902F901F900F90089560EA60EA60EA35
:1014600060EA60EA60EA60EA77FF77FE77FC77F887
:1014700077F077E077C0000001000200030004006D
:1014800005000600070009000A000B000C000D0013
:101490000F001000110013001400160017001900AF
:1014A0001A001C001D001F0021002300240026003C
:1014B00028002A002C002E003000320034003700B3
:1014C00039003B003E0040004300450048004A0010
:1014D0004D0050005300560059005C005F00620050
:1014E000660069006D007000740077007B007F006B
:1014F000830087008B009000940099009D00A2005B
:10150000A700AC00B100B600BB00C100C600CC0013
:10151000D200D800DE00E400EB00F100F800FF008C
:1015200006010D0114011C0124012B0134013C01B1
:1015300044014D0156015F01680172017C01860181
:1015400090019A01A501B001BB01C701D301DF01E0
:10155000EB01F801050212021F022D023C024A02B1
:1015600059026802780288029802A902BA02CC02E3
:10157000DE02F002030316032A033E03530368034B
:101580007E039403AB03C203DA03F2030B042504C6
:101590003F045A0476049204AE04CC04EA0409051C
:1015A000290549056A058C05AF05D205F7051C0616
:1015B000420669069106BA06E4060F073B0768076C
:1015C0009607C507F507270859088D08C208F808C7
:1015D00030096909A309DE091C0A5A0A9A0ADB0ABA
:1015E0001E0B630BA90BF10B3B0C860CD40C230DCB
:1015F000730DC60D1B0E720ECB0E260F830FE20F5E
:101600004410A8100E117711E2115012C0123313BA
:10161000A91322149D141C159D152216A916341702
:10162000C2175418E91882191E1ABE1A611B091C28
:10163000B41C641D181ED01E8C1F4D201321DD21EB
:10164000AC228023592437251B260427F227E628BD
:10165000E029E02AE52BF12C042E1D2F3D306331CB
:101660009132C533013545369037E3383E3AA13BD8
:101670000D3D823EFF3F991B79E004C0991F9617EC
:1016800008F0961B881F7A95C9F78095089597FBF7
:10169000092E07260AD077FD04D027D006D00020D7
:1016A0001AF4709561957F4F0895F6F7909581959E
:1016B0009F4F089597FB092E05260ED057FD04D0A5
:1016C00028D00AD0001C38F45095409530952195CB
:1016D0003F4F4F4F5F4F0895F6F790958095709567
:1016E00061957F4F8F4F9F4F0895AA1BBB1B51E100
:1016F00007C0AA1FBB1FA617B70710F0A61BB70B82
:10170000881F991F5A95A9F780959095BC01CD0126
:101710000895A1E21A2EAA1BBB1BFD010DC0AA1F32
:10172000BB1FEE1FFF1FA217B307E407F50720F04A
:10173000A21BB30BE40BF50B661F771F881F991FC5
:101740001A9469F760957095809590959B01AC010E
:10175000BD01CF010895F999FECF92BD81BDF89AE0
:10176000992780B50895262FF999FECF1FBA92BD0B
:1017700081BD20BD0FB6F894FA9AF99A0FBE019672
:061780000895F894FFCF6C
:00000001FF
