:1000000064C07EC07DC07CC07BC07AC079C078C02F
:1000100077C076C075C074C01CC172C071C070C09A
:100020006FC06EC06DC06CC06BC06AC069C068C074
:1000300067C066C065C064C063C062C061C060C0A4
:10004000D8C0D9C0DAC0DBC0DCC0DDC0DEC0DFC0D4
:10005000E0C0E1C0EAC0EBC0ECC0EDC0EEC0EFC054
:10006000F0C0F1C0F2C0F3C082C398C3A3C3BEC343
:10007000C9C3EBC3F6C305C470C4B9C4D8C4F1C4C2
:10008000FFC410C549C448C447C446C417C520C5E9
:1000900028C53DC549C578C596C5BBC50008100033
:1000A00000080000000800000000008000080000B8
:1000B00000080000000800000000008000083FE287
:1000C000FFEBFFFF02900303000011241FBECFEFE0
:1000D000D2E0DEBFCDBF11E0A0E0B1E0EEE4F0E1A0
:1000E00002C005900D92A030B107D9F711E0A0E051
:1000F000B1E001C01D92AE33B107E1F7B2D2A5C79E
:100100007FCFAF92BF92CF92DF92EF92FF920F9389
:100110001F937B01A0902601B0902701C090280179
:10012000D090290100E010E0EEE0EE0CFF1C001F73
:10013000111FEA95D1F77EE0D694C794B794A7949F
:100140007A95D1F795013F7040E050E062E0220FD0
:10015000331F441F551F6A95D1F7E22AF32A042B57
:10016000152B90E0A0E0B0E08F709070A070B070A0
:1001700046E1880F991FAA1FBB1F4A95D1F7E82AAD
:10018000F92A0A2B1B2BAB2CBC2CCD2CDD248FE0A9
:10019000A8228A2D90E0A0E0B0E02AE0880F991F05
:1001A000AA1FBB1F2A95D1F7E82AF92A0A2B1B2B75
:1001B000E0922601F0922701009328011093290173
:1001C00080912B01806480932B0181E080932A0130
:1001D0001F910F91FF90EF90DF90CF90BF90AF9065
:1001E0000895E82FF0E0EA30F105B0F4E05EFF4F4B
:1001F0000994449A0895439A0895429A0895419A19
:100200000895409A08952C9A08952B9A08952A9A51
:100210000895299A0895289A0895E82FF0E0EA3081
:10022000F105B0F4E65DFF4F0994449808954398B2
:1002300008954298089541980895409808952C98FB
:1002400008952B9808952A98089529980895289834
:1002500008951F920F920FB60F921124FF920F93E1
:100260001F932F933F934F935F936F937F938F933E
:100270009F93AF93BF93CF93DF93EF93FF934091FF
:100280000201442309F497C080910101882309F0F9
:100290008EC0413021F4389A409883E05AC04230F1
:1002A00009F45EC0433408F050C0842F90E09C01F4
:1002B0002170307040FF46C04098E0913D01F0E071
:1002C000039760E170E084D670E0EE0FFF1FEE0F41
:1002D000FF1FE60FF71FE55FFE4F808187FF04C019
:1002E00081E08093010102C010920101A0913D01C3
:1002F000B0E0E0913D01F0E0EE0FFF1FEE0FFF1FB9
:10030000E60FF71FE55FFE4F8081880FAA0FBB1F26
:10031000AA0FBB1FA60FB71FA55FBE4F8C9380917E
:1003200001018130F1F5E0913D01F0E0EE0FFF1F9A
:10033000EE0FFF1FE60FF71FE55FFE4F8081816024
:1003400080832FC0232B41F40BC0433429F4409801
:1003500082E08093010125C0443421F4409A38980A
:10036000409A1FC0473470F430991BC080913D0102
:100370008F5F80933D0180913D01843079F410922C
:100380003D010CC080910001833040F410920201C5
:10039000109201018F5F8093000103C08FEF809363
:1003A0000201809102018F5F809302010FC0815092
:1003B000809301010BC090913D0180911B01981722
:1003C00029F081E0809302011092010180910401E3
:1003D000882351F484EF91E090938500809384000A
:1003E00081E08093040108C084EF91E09093850040
:1003F0008093840010920401809103018F5F8093A9
:1004000003018150883228F4F0900401C0E0D0E06C
:1004100018C01092030120E030E0F901EE0FFF1F39
:10042000ED5CFE4F80819181892B29F08081918143
:100430000197918380832F5F3F4F2530310569F706
:10044000E3CF8E01045E1E4FF8018081882389F07E
:10045000F8018081803438F48C2FC3DEF80180816C
:100460008F5F808308C0F1E0FF1619F48C2FB9DE8E
:1004700002C08C2FD2DE2196CA30D10511F7FF9130
:10048000EF91DF91CF91BF91AF919F918F917F912C
:100490006F915F914F913F912F911F910F91FF901D
:1004A0000F900FBE0F901F901895DF93CF93CDB78D
:1004B000DEB7CA50CDBF9B0140E050E07EE0220F86
:1004C000331F441F551F7A95D1F790E0A0E0B0E0AC
:1004D0008F709070A070B07066E1880F991FAA1F8E
:1004E000BB1F6A95D1F7282B392B4A2B5B2B246035
:1004F000209326013093270140932801509329012E
:1005000020E030E0AE014F5F5F4F91E0F901E45E23
:10051000FE4F8081FA01E20FF31F10828111908358
:100520002F5F3F4F2A30310589F78AE480932B01F2
:100530009A81990F8B81880F880F980F8981980F66
:100540008C81880F880F880F980F8D818295807F0E
:10055000980F90932C019F81990F8885880F880FA1
:10056000980F8E81980F8985880F880F880F980FB4
:100570008A858295807F980F90932D01E6E0F1E0C7
:10058000AEE2B1E081918D9381E0EB30F807D1F7D5
:1005900088E080932A0186E291E037D42A96CDBF85
:1005A000CF91DF910895CF92DF92EF92FF920F9358
:1005B0001F93DF93CF93CDB7DEB7C850CDBF9B015C
:1005C000E82EFF2400E010E0FAE0EE0CFF1C001F14
:1005D000111FFA95D1F740E050E0E2E0220F331FFF
:1005E000441F551FEA95D1F72E293F29402B512B47
:1005F00029833A834B835C838CEF9FE3A0E0B0E0D8
:100600008D839E83AF83B88780E06E010894C11C00
:10061000D11CB60168D481E0B60165D482E0B60190
:1006200062D483E0B6015FD484E0B6015CD48CEF81
:1006300093E0A0E0B0E0E82AF92A0A2B1B2BE9821C
:10064000FA820B831C8385E0B6014DD42896CDBF7A
:10065000CF91DF911F910F91FF90EF90DF90CF909E
:1006600008952F923F924F925F926F927F928F9256
:100670009F92AF92BF92CF92DF92EF92FF920F9331
:100680001F93DF93CF93CDB7DEB7CA51CDBF109282
:100690003D0110921B013C9A3B9A3A9A399A389A3A
:1006A000249A239A229A219A209A80E090E0B7D443
:1006B0008A3BB1F481E090E0B2D48A3C89F482E0D4
:1006C00090E0ADD4482E552483E090E0A8D4382F94
:1006D00020E0420E531E84E090E0A1D4E82E05C035
:1006E000EE24E394A0E14A2E512C85E0FE013196E0
:1006F000DF01282F1D922A95E9F7FE013696DF01CA
:100700001D928A95E9F7BCD38E2DB2014CDF82E0B1
:1007100080938100109285001092840088EE93E00F
:10072000909389008093880080916F00826080930D
:100730006F007894F6E02F2E312C2C0E3D1EFE011A
:100740003B96FA8FE98FE8C0850105501040D30130
:10075000FC90FF2009F4CEC0F6018081E82FF0E084
:10076000E830F10508F09AC0EC5CFF4F0994F801FD
:10077000E45EFE4F8081882369F01082000F111F14
:100780000D5C1E4FE4E1F0E0D8011196FC93EE936E
:10079000E1E001C0E2E0D601EC93ACC0000F111F14
:1007A0000D5C1E4FD8018D919C91892B09F0A2C040
:1007B00022E071C031E0F31619F083E0F81629F455
:1007C000F501E45EFE4F108205C0F501E45EFE4FC8
:1007D00091E09083000F111F0D5C1E4FE5E0F0E0EB
:1007E000D8011196FC93EE93E3E0D5CF000F111FD3
:1007F0000D5C1E4FD8018D919C91892B09F07AC018
:1008000024E049C0F801E45EFE4F31E03083000F80
:10081000111F82E08F1558F4C5010F9600D490E0A7
:100820000D5C1E4FD80111969C938E930CC0C50190
:100830000596F5D3B4E68B9FC00111240D5C1E4FC5
:10084000F80191838083E5E0A6CF000F111F0D5CB6
:100850001E4FD8018D919C91892B09F04BC026E049
:100860001AC0F801E45EFE4F1082000F111F0D5CEC
:100870001E4FE4E1F0E0D8011196FC93EE93E7E01F
:100880008ACF000F111F0D5C1E4FD8018D919C91D6
:10089000892B81F528E0F60120832CC0D4011C921D
:1008A000C5014996BCD3882359F4B2E0FB1621F464
:1008B00024E6F40120830FC034E0F31661F408C08D
:1008C000F1E0FF1611F4E4E604C0F3E0FF1619F4BA
:1008D000E2E3D401EC93045E1E4FD8011C92F501B3
:1008E000E45EFE4F1082F3011082D6011C928E2D21
:1008F000B201DBDD0894611C711C0894C11CD11C81
:100900000894A11CB11C0894811C911CE98DFA8DDE
:100910006E167F0609F018CF86E291E034D28F334D
:1009200069F431016E010894C11CD11C86E0882E47
:1009300081E0982E05E0A02EB12C06CF10912B015E
:100940008E2DB201DEDB812F90E0FC013A97E2317F
:10095000F10510F7E45CFF4F099420E030E0F90165
:10096000E45EFE4F8081EBE0F0E0EC0FFD1FE20F54
:10097000F31F1082882311F081E080832F5F3F4FA7
:100980002A30310561F79C85990F8D85880F880F76
:10099000980F8B85980F8E85880F880F880F980F7A
:1009A0008F858295807F980F90932C019989990F5C
:1009B0008A89880F880F980F8889980F8B89880FEC
:1009C000880F880F980F8C898295807F980F90935D
:1009D0002D01E6E0F1E0AEE2B1E081918D9391E08E
:1009E000EB30F907D1F7A8E0A0932A011CC080E002
:1009F00090E015D380932C0181E090E010D3809398
:100A00002D0182E090E00BD380932E0183E090E0F3
:100A100006D380932F0184E090E001D380933001CE
:100A2000B6E0B0932A0186E291E0EFD175CF8091D4
:100A30002C018A3B09F070CF80912D018A3C09F08E
:100A40006BCF82E090E060912E01F1D283E090E0E4
:100A500060912F01ECD284E090E060913001E7D208
:100A60005BCFE0912D01EE8B1D8A80912C012D89A9
:100A70003E89280F311DC901D2D280932E010EC0AC
:100A800030912D01388F1F8A80912C01AF89B88D4C
:100A9000A80FB11DCD0160912E01C9D284E08093D1
:100AA0002A01C1CF2CE088E190E00FB6F894A89518
:100AB000809360000FBE20936000FFCFE0912C0177
:100AC000EB3008F5F0E0E55EFE4FB1E0B0831BC00F
:100AD000E0912C01EB30B8F4F0E0E55EFE4F1082BF
:100AE00012C0E0912C01EB3070F4AE2FB0E0119702
:100AF000FD01E45EFE4F808190E0882309F491E0DF
:100B0000A45EBE4F9C938E2DB201CFDC05CF109119
:100B10002C011150163008F0FFCE812F90E04E9638
:100B20007ED2882369F00EC010912C01115016302E
:100B300008F0F2CE812F90E04E9671D2882311F00A
:100B400091E001C092E0A12FB0E021E030E02C0F55
:100B50003D1F2A0F3B1FF9018081882351F0F101CD
:100B6000EA0FFB1F8081891721F4E6E0D901EC939D
:100B7000D3CEE1E0F0E0EC0FFD1FEA0FFB1F108287
:100B8000A20DB31D9C93C8CE80912C01815086305C
:100B900008F0C2CE082F10E0E1E0F0E0EC0FFD1FFE
:100BA000E00FF11F80818823F9F41082C8014E966E
:100BB00036D2882321F4020D131D83E021C0020DDB
:100BC000131D84E023C080912C018150863008F0F1
:100BD000A3CE082F10E0E1E0F0E0EC0FFD1FE00FE6
:100BE000F11F8081882319F026E0208395CE1082A2
:100BF000C8014E9614D2882331F4020D131D84E0EF
:100C0000D8018C9389CE020D131D83E0F8018083F7
:100C100083CEE0911B01EF5FE43009F4E0E08091C6
:100C20003D01E81709F478CEACE2B1E020E030E015
:100C30004E2F50E0440F551F440F551F8D91FA0160
:100C4000E20FF31FE55FFE4F80832F5F3F4F24309D
:100C50003105A1F780911B01833011F480E003C0BE
:100C600080911B018F5F80931B0156CEFF920F93E3
:100C70001F93182F062FF42E599885E095D1812FB8
:100C800093D1802F91D18F2D8FD1599A1F910F9190
:100C9000FF9008950F931F938C01FC018281938133
:100CA00025E0969587952A95E1F77ED180930501F9
:100CB000F8019281892F880F880F880F807E8860C5
:100CC0009370892B71D1F80181816ED1F8018081F7
:100CD0006BD11F910F910895EF92FF920F931F9385
:100CE000CF93DF937C018FEF5FD1182F8FEF5CD113
:100CF000082FC12FD0E083FF1FC08FEF55D1809305
:100D0000050145E0CC0FDD1F4A95E1F7F701D383DC
:100D1000C28381838FEF48D180930501902F937018
:100D2000F7012281922B0695069506950C71902B62
:100D30009283808381E01AC08FEF36D180930501C2
:100D4000F7011382128233E0CC0FDD1F3A95E1F7F1
:100D5000D183C0838FEF28D180930501029506953A
:100D60000770F7018081802B808380E0DF91CF9135
:100D70001F910F91FF90EF900895599815D18FEF23
:100D800013D1599A0895CF92DF92FF920F931F9338
:100D9000CF93DF93EC0180EBF0DFF82E90E060E47E
:100DA000C62ED12CC822D92286FF02C080E906C0F7
:100DB000F7FC03C05FE3F52E1FC084E95998F4D017
:100DC000CE018ADF8FEFF0D0082F0F700C8310E078
:100DD00007C08FEFE9D0FE01E10FF11D85831F5F92
:100DE0001017B8F3599ACD2819F08CE261E002C0CF
:100DF0008CE262E040E03ADF8F2DDF91CF911F91CE
:100E00000F91FF90DF90CF9008950F931F93CF9392
:100E1000DF93EC0180EAB1DF80EAAFDF82FDFCCF37
:100E2000599880E4C1D0CE0135DF0C810F70802F3E
:100E3000BBD010E006C0FE01E10FF11D8581B4D0EA
:100E40001F5F1017C0F3599A85E08A95F1F75998FA
:100E500081E8AAD0599A81E0DF91CF911F910F913B
:100E600008950F931F93182F062F599882E09CD056
:100E7000812F9AD0802F98D0599A1F910F91089561
:100E8000CF93DF9388D0599880EC8ED0599A80E91F
:100E900091E00197F1F7599882E086D080E084D004
:100EA000CCE9D0E0FE0184917FD02196F0E0C93CEE
:100EB000DF07C1F7599A80E664E4D3DF80E760E496
:100EC000D0DF8FE060E0CDDFDF91CF9108951F93F9
:100ED000182F599883E068D0812F66D08FEF64D0A7
:100EE000599A1F910895EF92FF920F931F93CF93FA
:100EF000DF93182F7B01863010F080E045C08FE033
:100F000060EE40E8B3DEC0E8D0E08EE0E0DF8C27A2
:100F1000807ED9F7112311F400E203C0123081F46E
:100F200004E2599882E040D0802F3ED0C701049659
:100F3000B1DE85E0982F9A95F1F7599A8A95F1F7E5
:100F4000133010F400E002C0135000E1599882E021
:100F50002BD0812F880F880F802B26D0C7019ADED7
:100F600085E0982F9A95F1F7599A8A95F1F7112310
:100F700011F480E603C0123019F480E760E471DFF9
:100F80008FE060E06EDF81E0DF91CF911F910F91E4
:100F9000FF90EF900895599A519A5C985B985A98EF
:100FA000549A539A52980895282F5C9880E090E0C4
:100FB000880F27FF02C05B9A01C05B985C9A4A9930
:100FC00081605C989F5F983011F0220FF1CF0895F7
:100FD00097FB092E07260AD077FD04D00CD006D047
:100FE00000201AF4709561957F4F0895F6F790955B
:100FF00081959F4F0895AA1BBB1B51E107C0AA1FF3
:10100000BB1FA617B70710F0A61BB70B881F991FA9
:101010005A95A9F780959095BC01CD010895F9994D
:10102000FECF92BD81BDF89A992780B50895262FED
:10103000F999FECF1FBA92BD81BD20BD0FB6F894BD
:0E104000FA9AF99A0FBE01960895F894FFCF20
:00000001FF
