:1000000064C07EC07DC07CC07BC07AC079C078C02F
:1000100077C076C075C074C01CC172C071C070C09A
:100020006FC06EC06DC06CC06BC06AC069C068C074
:1000300067C066C065C064C063C062C061C060C0A4
:10004000D8C0D9C0DAC0DBC0DCC0DDC0DEC0DFC0D4
:10005000E0C0E1C0EAC0EBC0ECC0EDC0EEC0EFC054
:10006000F0C0F1C0F2C0F3C040C34BC353C365C37B
:100070006CC383C389C391C3FBC344C463C47CC43E
:100080008AC49BC4C6C3C5C3C4C3C3C3A2C4ABC4D0
:10009000B3C4C4C4D0C4F8C412C530C5000810002D
:1000A00000080000000800000000008000080000B8
:1000B00000080000000800000000008000083FE287
:1000C000FFEBFFFF02900303000011241FBECFEFE0
:1000D000D2E0DEBFCDBF11E0A0E0B1E0E6E2FFE09C
:1000E00002C005900D92A030B107D9F711E0A0E051
:1000F000B1E001C01D92A934B107E1F78AD211C75E
:100100007FCFAF92BF92CF92DF92EF92FF920F9389
:100110001F937B01A0902B01B0902C01C0902D016A
:10012000D0902E0100E010E0EEE0EE0CFF1C001F6E
:10013000111FEA95D1F77EE0D694C794B794A7949F
:100140007A95D1F795013F7040E050E062E0220FD0
:10015000331F441F551F6A95D1F7E22AF32A042B57
:10016000152B90E0A0E0B0E08F709070A070B070A0
:1001700046E1880F991FAA1FBB1F4A95D1F7E82AAD
:10018000F92A0A2B1B2BAB2CBC2CCD2CDD248FE0A9
:10019000A8228A2D90E0A0E0B0E02AE0880F991F05
:1001A000AA1FBB1F2A95D1F7E82AF92A0A2B1B2B75
:1001B000E0922B01F0922C0100932D0110932E015F
:1001C0008091300180648093300181E080932F0121
:1001D0001F910F91FF90EF90DF90CF90BF90AF9065
:1001E0000895E82FF0E0EA30F105B0F4E05EFF4F4B
:1001F0000994449A0895439A0895429A0895419A19
:100200000895409A08952C9A08952B9A08952A9A51
:100210000895299A0895289A0895E82FF0E0EA3081
:10022000F105B0F4E65DFF4F0994449808954398B2
:1002300008954298089541980895409808952C98FB
:1002400008952B9808952A98089529980895289834
:1002500008951F920F920FB60F9211240F931F93C0
:100260002F933F934F935F936F937F938F939F93BE
:10027000AF93BF93CF93DF93EF93FF93409102012E
:10028000442309F47EC080910101882309F075C0E0
:10029000413021F4389A409883E043C0423009F459
:1002A00047C04334D0F5242F30E0C90181709070ED
:1002B00040FF30C0409880914701C82FD0E0C9016D
:1002C000039760E170E0F0D570E0FE01EE0FFF1FD4
:1002D000EE0FFF1FE60FF71FE55FFE4FE081E7FF20
:1002E00004C081E08093010102C0109201019E2FA1
:1002F000990FFE01EE0FFF1FEE0FFF1FE60FF71F16
:10030000E55FFE4F908380910101813081F591601E
:1003100090832DC0892B41F40BC0433429F44098BD
:1003200082E08093010123C0443421F4409A38983C
:10033000409A1DC0473460F4309919C0809147013C
:100340008F5F80934701843079F4109247010CC08D
:1003500080910001833040F410920201109201015B
:100360008F5F8093000103C08FEF80930201809123
:1003700002018F5F809302010FC0815080930101C1
:100380000BC09091470180911B01981729F081E0E3
:10039000809302011092010180910401882351F49D
:1003A00084EF91E0909385008093840081E08093B6
:1003B000040108C084EF91E090938500809384004D
:1003C00010920401809103018F5F8093030181509B
:1003D000883230F400910401C1E2D1E010E011C094
:1003E00010920301E8E3F1E080819181009719F018
:1003F000019791838083329681E0E234F807A1F778
:10040000E9CF8881882369F0803430F4812FE9DED8
:1004100088818F5F888307C0013019F4812FE1DE66
:1004200002C0812FFADE1F5F21961A3051F7FF912B
:10043000EF91DF91CF91BF91AF919F918F917F917C
:100440006F915F914F913F912F911F910F910F905D
:100450000FBE0F901F901895DF93CF93CDB7DEB7E7
:10046000CA50CDBF9B0140E050E07EE0220F331F19
:10047000441F551F7A95D1F790E0A0E0B0E08F704F
:100480009070A070B07066E1880F991FAA1FBB1F03
:100490006A95D1F7282B392B4A2B5B2B24602093AC
:1004A0002B0130932C0140932D0150932E0120E01D
:1004B00030E0AE014F5F5F4F91E0DA01A20FB31F52
:1004C0001C92F901EF5DFE4F8081803408F09C930F
:1004D0002F5F3F4F2A30310581F78AE48093300146
:1004E0009A81990F8B81880F880F980F8981980FB7
:1004F0008C81880F880F880F980F8D818295807F5F
:10050000980F909331019F8196958885880F880F69
:10051000980F8E81980F8985880F880F880F980F04
:100520008A858295807F980F90933201E6E0F1E012
:10053000A3E3B1E081918D9381E0EB30F807D1F72F
:1005400088E080932F018BE291E0CBD32A96CDBF38
:10055000CF91DF910895CF92DF92EF92FF920F93A8
:100560001F93DF93CF93CDB7DEB7C850CDBF9B01AC
:10057000E82EFF2400E010E0FAE0EE0CFF1C001F64
:10058000111FFA95D1F740E050E0E2E0220F331F4F
:10059000441F551FEA95D1F72E293F29402B512B97
:1005A00029833A834B835C838CEF9FE3A0E0B0E028
:1005B0008D839E83AF83B88780E06E010894C11C51
:1005C000D11CB601FCD381E0B601F9D382E0B601BB
:1005D000F6D383E0B601F3D384E0B601F0D38CEF19
:1005E00093E0A0E0B0E0E82AF92A0A2B1B2BE9826D
:1005F000FA820B831C8385E0B601E1D32896CDBF38
:10060000CF91DF911F910F91FF90EF90DF90CF90EE
:1006100008952F923F924F925F926F927F928F92A6
:100620009F92AF92BF92CF92DF92EF92FF920F9381
:100630001F93DF93CF93CDB7DEB7CF50CDBF1092CE
:10064000470110921B013C9A3B9A3A9A399A389A80
:10065000249A239A229A219A209A80E090E04BD4FF
:100660008A3BB1F481E090E046D48A3C89F482E090
:1006700090E041D4282E332483E090E03CD4382FFE
:1006800020E0220E331E84E090E035D48B8705C035
:1006900021E02B8750E1252E312C5ED38B85B101D3
:1006A0005ADF82E0809381001092850010928400CE
:1006B00088EE93E0909389008093880080916F008A
:1006C000826080936F007894A4C0F301108111239D
:1006D00009F486C0F7018081E82FF0E0E830F105E9
:1006E00008F062C0EC5CFF4F0994F501808188231B
:1006F00071F0108224E130E0F6013183208321E0A3
:1007000019C0F60180819181892B09F069C0F70138
:10071000008366C0113011F0133019F4F501158211
:1007200003C021E0F501258325E030E0F6013183A7
:10073000208323E0F701208353C0F601808191815B
:10074000892B09F04DC024E0F5CF21E0F50120838D
:10075000133038F0C4010A97CED3F601808311829A
:100760000AC0C4014497C7D3F4E68F9FC001112487
:10077000F6019183808325E0DDCFF60180819181B0
:10078000892B71F526E0D6CFF501108224E130E007
:10079000F6013183208327E0CDCFF601808191815E
:1007A000892BF1F428E0C6CFC401A5D3882329F40E
:1007B000113039F0133039F404C0113021F0133006
:1007C00011F080E001C084E6F2018083F50110821F
:1007D0001582F3011082F70110828B85B1013CDE96
:1007E0000894611C711C0894E11CF11C22E030E0AB
:1007F000C20ED31E0894A11CB11C0894411C511CAC
:100800000894811C911C31E2631631E0730609F0F3
:100810005CCF8BE291E023D2809348018F33C9F4FF
:100820004CE1642E41E0742E32E4E32E31E0F32EED
:1008300028E3C22E21E0D22E91E2A92E91E0B92E1A
:1008400086E0482E81E0582E0EE1802E912C02E0A9
:100850003CCF109130018B85B10153DC812F90E0AA
:10086000FC013A97E231F105A0F6E45CFF4F0994F0
:1008700020E030E0A1E0B0E0AC0FBD1FA20FB31F3D
:100880001C92F901EF5DFE4F8081803410F081E011
:100890008C932F5F3F4F2A30310561F79A81990F72
:1008A0008B81880F880F980F8981980F8C81880F12
:1008B000880F880F980F8D818295807F980F909375
:1008C00031019F8196958885880F880F980F8E81BA
:1008D000980F8985880F880F880F980F8A858295D1
:1008E000807F980F90933201E6E0F1E0A3E3B1E05E
:1008F00081918D9391E0EB30F907D1F7E8E0E09337
:100900002F011CC080E090E0F6D28093310181E09D
:1009100090E0F1D28093320182E090E0ECD28093BB
:10092000330183E090E0E7D28093340184E090E0EB
:10093000E2D280933501F6E0F0932F018BE291E053
:10094000D0D167CF809131018A3B09F062CF80918D
:1009500032018A3C09F05DCF82E090E06091330182
:10096000D2D283E090E060913401CDD284E090E077
:1009700060913501C8D24DCF209132012D871C8660
:1009800080913101EC85FD85E80FF11DCF01B3D2D7
:10099000809333010EC0F0913201FF871E86809153
:1009A00031012E853F85280F311DC901609133012A
:1009B000AAD284E080932F01C1CF2CE088E190E09F
:1009C0000FB6F894A895809360000FBE2093600046
:1009D000FFCFE0913101EB30E8F4F0E0E05EFE4F54
:1009E00031E0308317C0E0913101EB3098F4F0E052
:1009F000E05EFE4F10820EC0809131018B3050F4CA
:100A0000E82FF0E0E05EFE4F90E08081882309F45B
:100A100091E090838B85B1011FDDFBCE10913101F8
:100A20001150163008F0F5CE812F90E04E9663D22B
:100A3000882369F00EC0109131011150163008F072
:100A4000E8CE812F90E04E9656D2882311F091E0A7
:100A500001C092E0A12FB0E09D012E5B3E4FF90155
:100A60008081882349F0FD01E45EFE4F8081891773
:100A700019F486E0F90140C0FD01EE5BFE4F1082E3
:100A8000A45EBE4F9C93C5CE8091310181508630CB
:100A900008F0BFCE082F10E0F801EE5BFE4F80811A
:100AA000882319F096E09083B4CE1082C8014E9648
:100AB00022D2F801E45EFE4F8823D9F41CC0809155
:100AC00031018150863008F0A4CE082F10E0F801E3
:100AD000EE5BFE4F8081882319F026E0208399CEBB
:100AE0001082C8014E9607D2F801E45EFE4F8823BB
:100AF00011F484E001C083E080838BCE30911B0130
:100B0000232F2F5F243011F490E001C0922F8091A9
:100B10004701981709F47DCEA1E3B1E0E92FF0E099
:100B2000EE0FFF1FEE0FFF1FE55FFE4F8D918193CC
:100B300081E0A533B807D1F7333009F420E02093E2
:100B40001B0167CEFF920F931F93182F062FF42ED1
:100B5000599885E095D1812F93D1802F91D18F2DF8
:100B60008FD1599A1F910F91FF9008950F931F9362
:100B70008C01FC018281938125E0969587952A95C9
:100B8000E1F77ED180930501F8019281892F880FCA
:100B9000880F880F807E88609370892B71D1F8014F
:100BA00081816ED1F80180816BD11F910F910895E1
:100BB000EF92FF920F931F93CF93DF937C018FEF00
:100BC0005FD1182F8FEF5CD1082FC12FD0E083FFAA
:100BD0001FC08FEF55D18093050145E0CC0FDD1F7D
:100BE0004A95E1F7F701D383C28381838FEF48D120
:100BF00080930501902F9370F7012281922B069527
:100C0000069506950C71902B9283808381E01AC023
:100C10008FEF36D180930501F7011382128233E002
:100C2000CC0FDD1F3A95E1F7D183C0838FEF28D138
:100C300080930501029506950770F7018081802B4E
:100C4000808380E0DF91CF911F910F91FF90EF9013
:100C50000895599815D18FEF13D1599A0895CF92CD
:100C6000DF92FF920F931F93CF93DF93EC0180EB02
:100C7000F0DFF82E90E060E4C62ED12CC822D922F5
:100C800086FF02C080E906C0F7FC03C05FE3F52ED3
:100C90001FC084E95998F4D0CE018ADF8FEFF0D0DD
:100CA000082F0F700C8310E007C08FEFE9D0FE0112
:100CB000E10FF11D85831F5F1017B8F3599ACD28F6
:100CC00019F08CE261E002C08CE262E040E03ADFC1
:100CD0008F2DDF91CF911F910F91FF90DF90CF90DB
:100CE00008950F931F93CF93DF93EC0180EAB1DF58
:100CF00080EAAFDF82FDFCCF599880E4C1D0CE01FD
:100D000035DF0C810F70802FBBD010E006C0FE01D4
:100D1000E10FF11D8581B4D01F5F1017C0F3599A00
:100D200085E08A95F1F7599881E8AAD0599A81E02F
:100D3000DF91CF911F910F9108950F931F93182F5B
:100D4000062F599882E09CD0812F9AD0802F98D07E
:100D5000599A1F910F910895CF93DF9388D0599896
:100D600080EC8ED0599A80E991E00197F1F759987B
:100D700082E086D080E084D0CCE9D0E0FE0184918E
:100D80007FD02196F0E0C93CDF07C1F7599A80E691
:100D900064E4D3DF80E760E4D0DF8FE060E0CDDFA4
:100DA000DF91CF9108951F93182F599883E068D051
:100DB000812F66D08FEF64D0599A1F910895EF92DA
:100DC000FF920F931F93CF93DF93182F7B018630F1
:100DD00010F080E045C08FE060EE40E8B3DEC0E890
:100DE000D0E08EE0E0DF8C27807ED9F7112311F46C
:100DF00000E203C0123081F404E2599882E040D04E
:100E0000802F3ED0C7010496B1DE85E0982F9A95D9
:100E1000F1F7599A8A95F1F7133010F400E002C007
:100E2000135000E1599882E02BD0812F880F880F52
:100E3000802B26D0C7019ADE85E0982F9A95F1F78E
:100E4000599A8A95F1F7112311F480E603C0123004
:100E500019F480E760E471DF8FE060E06EDF81E02D
:100E6000DF91CF911F910F91FF90EF900895599AC4
:100E7000519A5C985B985A98549A539A529808954C
:100E8000282F5C9880E090E0880F27FF02C05B9AD3
:100E900001C05B985C9A4A9981605C989F5F98302A
:100EA00011F0220FF1CF089597FB092E07260AD0E3
:100EB00077FD04D00CD006D000201AF4709561950F
:100EC0007F4F0895F6F7909581959F4F0895AA1B3F
:100ED000BB1B51E107C0AA1FBB1FA617B70710F025
:100EE000A61BB70B881F991F5A95A9F78095909557
:100EF000BC01CD010895F999FECF92BD81BDF89A4C
:100F0000992780B50895262FF999FECF1FBA92BD73
:100F100081BD20BD0FB6F894FA9AF99A0FBE0196DA
:060F20000895F894FFCFD4
:00000001FF
