:1000000064C07EC07DC07CC07BC07AC079C078C02F
:1000100077C076C075C074C01CC172C071C070C09A
:100020006FC06EC06DC06CC06BC06AC069C068C074
:1000300067C066C065C064C063C062C061C060C0A4
:10004000D8C0D9C0DAC0DBC0DCC0DDC0DEC0DFC0D4
:10005000E0C0E1C0EAC0EBC0ECC0EDC0EEC0EFC054
:10006000F0C0F1C0F2C0F3C09FC3B5C3C0C3DBC3CF
:10007000E6C308C413C422C481C4CAC4E9C402C507
:1000800010C521C566C465C464C463C428C531C530
:1000900039C54EC55AC589C5A7C5CCC500081000CD
:1000A00000080000000800000000008000080000B8
:1000B00000080000000800000000008000083FE287
:1000C000FFEBFFFF02900303000011241FBECFEFE0
:1000D000D2E0DEBFCDBF11E0A0E0B1E0EAE3F0E1A5
:1000E00002C005900D92A030B107D9F711E0A0E051
:1000F000B1E001C01D92AE33B107E1F7BAD29BC7A0
:100100007FCFAF92BF92CF92DF92EF92FF920F9389
:100110001F937B01A0902501B0902601C09027017C
:10012000D090280100E010E0EEE0EE0CFF1C001F74
:10013000111FEA95D1F77EE0D694C794B794A7949F
:100140007A95D1F795013F7040E050E062E0220FD0
:10015000331F441F551F6A95D1F7E22AF32A042B57
:10016000152B90E0A0E0B0E08F709070A070B070A0
:1001700046E1880F991FAA1FBB1F4A95D1F7E82AAD
:10018000F92A0A2B1B2BAB2CBC2CCD2CDD248FE0A9
:10019000A8228A2D90E0A0E0B0E02AE0880F991F05
:1001A000AA1FBB1F2A95D1F7E82AF92A0A2B1B2B75
:1001B000E0922501F0922601009327011093280177
:1001C00080912A01806480932A0181E08093290133
:1001D0001F910F91FF90EF90DF90CF90BF90AF9065
:1001E0000895E82FF0E0EA30F105B0F4E05EFF4F4B
:1001F0000994449A0895439A0895429A0895419A19
:100200000895409A08952C9A08952B9A08952A9A51
:100210000895299A0895289A0895E82FF0E0EA3081
:10022000F105B0F4E65DFF4F0994449808954398B2
:1002300008954298089541980895409808952C98FB
:1002400008952B9808952A98089529980895289834
:1002500008951F920F920FB60F921124FF920F93E1
:100260001F932F933F934F935F936F937F938F933E
:100270009F93AF93BF93CF93DF93EF93FF934091FF
:100280000201442309F497C080910101882309F0F9
:100290008EC0413021F4389A409883E05AC04230F1
:1002A00009F45EC0433408F050C0842F90E09C01F4
:1002B0002170307040FF46C04098E0913C01F0E072
:1002C000039760E170E07AD670E0EE0FFF1FEE0F4B
:1002D000FF1FE60FF71FE65FFE4F808187FF04C018
:1002E00081E08093010102C010920101A0913C01C4
:1002F000B0E0E0913C01F0E0EE0FFF1FEE0FFF1FBA
:10030000E60FF71FE65FFE4F8081880FAA0FBB1F25
:10031000AA0FBB1FA60FB71FA65FBE4F8C9380917D
:1003200001018130F1F5E0913C01F0E0EE0FFF1F9B
:10033000EE0FFF1FE60FF71FE65FFE4F8081816023
:1003400080832FC0232B41F40BC0433429F4409801
:1003500082E08093010125C0443421F4409A38980A
:10036000409A1FC0473470F430991BC080913C0103
:100370008F5F80933C0180913C01843079F410922E
:100380003C010CC080910001833040F410920201C6
:10039000109201018F5F8093000103C08FEF809363
:1003A0000201809102018F5F809302010FC0815092
:1003B000809301010BC090913C0180911A01981724
:1003C00029F081E0809302011092010180910401E3
:1003D000882351F484EF91E090938500809384000A
:1003E00081E08093040108C084EF91E09093850040
:1003F0008093840010920401809103018F5F8093A9
:1004000003018150883228F4F0900401C0E0D0E06C
:1004100018C01092030120E030E0F901EE0FFF1F39
:10042000EE5CFE4F80819181892B29F08081918142
:100430000197918380832F5F3F4F2530310569F706
:10044000E3CF8E01055E1E4FF8018081882389F07D
:10045000F8018081803438F48C2FC3DEF80180816C
:100460008F5F808308C0F1E0FF1619F48C2FB9DE8E
:1004700002C08C2FD2DE2196CA30D10511F7FF9130
:10048000EF91DF91CF91BF91AF919F918F917F912C
:100490006F915F914F913F912F911F910F91FF901D
:1004A0000F900FBE0F901F901895DF93CF93CDB78D
:1004B000DEB7CA50CDBF4E9904C081E080933D01A4
:1004C00075C010923D019B0140E050E07EE0220F9C
:1004D000331F441F551F7A95D1F790E0A0E0B0E09C
:1004E0008F709070A070B07066E1880F991FAA1F7E
:1004F000BB1F6A95D1F7282B392B4A2B5B2B246025
:100500002093250130932601409327015093280121
:1005100020E030E0AE014F5F5F4F91E0F901E55E12
:10052000FE4F8081FA01E20FF31F10828111908348
:100530002F5F3F4F2A30310589F78AE480932A01E3
:100540009A81990F8B81880F880F980F8981980F56
:100550008C81880F880F880F980F8D818295807FFE
:10056000980F90932B019F81990F8885880F880F92
:10057000980F8E81980F8985880F880F880F980FA4
:100580008A858295807F980F90932C01E5E0F1E0B9
:10059000ADE2B1E081918D9381E0EA30F807D1F7C7
:1005A00088E08093290185E291E01AD42A96CDBF94
:1005B000CF91DF910895CF92DF92EF92FF920F9348
:1005C0001F93DF93CF93CDB7DEB7C850CDBF9B014C
:1005D000E82EFF2400E010E0FAE0EE0CFF1C001F04
:1005E000111FFA95D1F740E050E0E2E0220F331FEF
:1005F000441F551FEA95D1F72E293F29402B512B37
:1006000029833A834B835C838CEF9FE3A0E0B0E0C7
:100610008D839E83AF83B88780E06E010894C11CF0
:10062000D11CB6015DD481E0B6015AD482E0B60196
:1006300057D483E0B60154D484E0B60151D48CEF92
:1006400093E0A0E0B0E0E82AF92A0A2B1B2BE9820C
:10065000FA820B831C8385E0B60142D42896CDBF75
:10066000CF91DF911F910F91FF90EF90DF90CF908E
:1006700008952F923F924F925F926F927F928F9246
:100680009F92AF92BF92CF92DF92EF92FF920F9321
:100690001F93DF93CF93CDB7DEB7CA51CDBF109272
:1006A0003C0110921A0110923D013C9A3B9A3A9AF1
:1006B000399A389A249A239A229A219A209A80E089
:1006C00090E0A3D48A3BB1F481E090E09ED48A3CD0
:1006D00089F482E090E099D4482E552483E090E09C
:1006E00094D4382F20E0420E531E84E090E08DD445
:1006F000E82E05C0EE24E394B0E14B2E512C85E0AA
:10070000FE013196DF01282F1D922A95E9F7FE019F
:100710003696DF011D928A95E9F7ADD38E2DB20191
:100720004ADF82E08093810010928500109284005D
:1007300088EE93E0909389008093880080916F0009
:10074000826080936F007894A6E02A2E312C2C0EC4
:100750003D1EFE013B96FA8FE98FFBC080913D0163
:10076000882319F08E2DB201A0DE31016E010894AC
:10077000C11CD11CF5E08F2EF1E09F2EE5E0AE2EDE
:10078000B12C850105501040D301FC90FF2009F4E5
:10079000CEC0F6018081E82FF0E0E830F10508F0E6
:1007A0009AC0EC5CFF4F0994F801E55EFE4F808132
:1007B000882369F01082000F111F0E5C1E4FE4E1C8
:1007C000F0E0D8011196FC93EE93E1E001C0E2E085
:1007D000D601EC93ACC0000F111F0E5C1E4FD80168
:1007E0008D919C91892B09F0A2C022E071C031E06B
:1007F000F31619F083E0F81629F4F501E55EFE4FD3
:10080000108205C0F501E55EFE4F91E09083000F78
:10081000111F0E5C1E4FE5E0F0E0D8011196FC932D
:10082000EE93E3E0D5CF000F111F0E5C1E4FD801F1
:100830008D919C91892B09F07AC024E049C0F80180
:10084000E55EFE4F31E03083000F111F82E08F150F
:1008500058F4C5010F96D9D390E00E5C1E4FD80115
:1008600011969C938E930CC0C5010596CED3B4E629
:100870008B9FC00111240E5C1E4FF8019183808371
:10088000E5E0A6CF000F111F0E5C1E4FD8018D9121
:100890009C91892B09F04BC026E01AC0F801E55E57
:1008A000FE4F1082000F111F0E5C1E4FE4E1F0E0BE
:1008B000D8011196FC93EE93E7E08ACF000F111F49
:1008C0000E5C1E4FD8018D919C91892B81F528E0FB
:1008D000F60120832CC0D4011C92C501499695D302
:1008E000882359F4B2E0FB1621F424E6F4012083B6
:1008F0000FC034E0F31661F408C0F1E0FF1611F404
:10090000E4E604C0F3E0FF1619F4E2E3D401EC934B
:10091000055E1E4FD8011C92F501E55EFE4F108268
:10092000F3011082D6011C928E2DB201BEDD089417
:10093000611C711C0894C11CD11C0894A11CB11C21
:100940000894811C911CE98DFA8D6E167F0609F0C2
:1009500018CF85E291E003D28F3309F4FFCE1091D6
:100960002A018E2DB201CDDB812F90E0FC013A9758
:10097000E231F10570F7E45CFF4F099420E030E0CC
:10098000F901E55EFE4F8081EBE0F0E0EC0FFD1F2A
:10099000E20FF31F1082882311F081E080832F5F24
:1009A0003F4F2A30310561F79C85990F8D85880F5F
:1009B000880F980F8B85980F8E85880F880F880F6A
:1009C000980F8F858295807F980F90932B0199893E
:1009D000990F8A89880F880F980F8889980F8B89BB
:1009E000880F880F880F980F8C898295807F980FC9
:1009F00090932C01E5E0F1E0ADE2B1E081918D93BF
:100A000091E0EA30F907D1F7A8E0A09329011CC0D2
:100A100080E090E0FAD280932B0181E090E0F5D263
:100A200080932C0182E090E0F0D280932D0183E04E
:100A300090E0EBD280932E0184E090E0E6D28093A8
:100A40002F01B6E0B093290185E291E0C9D181CFB1
:100A500080912B018A3B09F07CCF80912C018A3C4C
:100A600009F077CF82E090E060912D01D6D283E04B
:100A700090E060912E01D1D284E090E060912F014E
:100A8000CCD267CFE0912C01EE8B1D8A80912B0197
:100A90002D893E89280F311DC901B7D280932D01C0
:100AA0000EC030912C01388F1F8A80912B01AF89A5
:100AB000B88DA80FB11DCD0160912D01AED284E09B
:100AC00080932901C1CF2CE088E190E00FB6F89423
:100AD000A895809360000FBE20936000FFCFE09147
:100AE0002B01EB3008F5F0E0E65EFE4FB1E0B0839D
:100AF0001BC0E0912B01EB30B8F4F0E0E65EFE4F56
:100B0000108212C0E0912B01EB3070F4AE2FB0E0F8
:100B10001197FD01E55EFE4F808190E0882309F486
:100B200091E0A55EBE4F9C938E2DB201BEDC11CF2D
:100B300010912B011150163008F00BCF812F90E04F
:100B40004E9663D2882369F00EC010912B0111508C
:100B5000163008F0FECE812F90E04E9656D28823B4
:100B600011F091E001C092E0A12FB0E021E030E06F
:100B70002C0F3D1F2A0F3B1FF9018081882351F064
:100B8000F101EA0FFB1F8081891721F4E6E0D9010A
:100B9000EC93DFCEE1E0F0E0EC0FFD1FEA0FFB1F6E
:100BA0001082A20DB31D9C93D4CE80912B01815055
:100BB000863008F0CECE082F10E0E1E0F0E0EC0F38
:100BC000FD1FE00FF11F80818823F9F41082C80116
:100BD0004E961BD2882321F4020D131D83E021C001
:100BE000020D131D84E023C080912B0181508630BB
:100BF00008F0AFCE082F10E0E1E0F0E0EC0FFD1FB1
:100C0000E00FF11F8081882319F026E02083A1CE18
:100C10001082C8014E96F9D1882331F4020D131DBC
:100C200084E0D8018C9395CE020D131D83E0F8016A
:100C300080838FCEE0911A01EF5FE43009F4E0E0A9
:100C400080913C01E81709F484CEABE2B1E020E0EA
:100C500030E04E2F50E0440F551F440F551F8D912B
:100C6000FA01E20FF31FE65FFE4F80832F5F3F4FD5
:100C700024303105A1F780911A01833011F480E00E
:100C800003C080911A018F5F80931A0162CEFF9298
:100C90000F931F93182F062FF42E599885E088D1B3
:100CA000812F86D1802F84D18F2D82D1599A1F9187
:100CB0000F91FF9008950F931F938C01FC01828187
:100CC000938125E0969587952A95E1F771D1F801F2
:100CD0009281892F880F880F880F807E886093709B
:100CE000892B66D1F801818163D1F801808160D1BF
:100CF0001F910F9108950F931F93CF93DF93EC01F2
:100D00008FEF56D1082F8FEF53D1182F83FD02C0DC
:100D100080E01AC0802F90E035E0880F991F3A9547
:100D2000E1F79B838A838FEF43D18983812F83707F
:100D30009A81892B1695169516951C71812B8A839D
:100D40008FEF36D1888381E0DF91CF911F910F9192
:100D5000089559982DD18FEF2BD1599A0895EF927C
:100D6000FF920F931F93CF93DF93EC014E9930C006
:100D700080EBEFDF282F90E040E4E42EF12CE82216
:100D8000F92286FF02C080E903C027FF21C084E961
:100D900059980ED1CE01AFDF8FEF0AD1082F0F7017
:100DA0000C8310E007C08FEF03D1FE01E10FF11DAE
:100DB00085831F5F1017B8F3599AEF2819F08CE25A
:100DC00061E002C08CE262E040E061DF80E401C0EB
:100DD0008FE3DF91CF911F910F91FF90EF900895D6
:100DE000FF920F931F93CF93DF93EC0180EAB1DF63
:100DF00082FD02C0FF2409C084FD03C062E0F62E1C
:100E000004C086FDF3CF54E0F52E59988F2D8064F1
:100E1000CFD0CE0150DF0C810F70802FC9D010E0F1
:100E200006C0FE01E10FF11D8581C2D01F5F1017C2
:100E3000C0F3599A000000005998FF2011F4FF24D4
:100E4000F3948F2D8068B4D0599A8F2DDF91CF9174
:100E50001F910F91FF9008950F931F93182F062F46
:100E6000599882E0A5D0812FA3D0802FA1D0599A84
:100E70001F910F910895CF93DF938AD056985E9A71
:100E8000599880EC95D0599A88EE93E00197F1F744
:100E9000599882E08DD080E08BD0CCE9D0E0FE0183
:100EA000849186D02196F0E0C93CDF07C1F7599ABA
:100EB00080E664E4D1DF80E760E4CEDF8FE060E0CD
:100EC000CBDFDF91CF9108951F93182F599883E0BE
:100ED0006FD0812F6DD08FEF6BD0599A1F910895ED
:100EE000EF92FF920F931F93CF93DF93182F7B0105
:100EF000863010F080E045C08FE060EE40E8C7DE4D
:100F0000C0E8D0E08EE0E0DF8C27807ED9F71123A7
:100F100011F400E203C0123081F404E2599882E037
:100F200047D0802F45D0C7010496C5DE85E0982FB5
:100F30009A95F1F7599A8A95F1F7133010F400E079
:100F400002C0135000E1599882E032D0812F880FFF
:100F5000880F802B2DD0C701AEDE85E0982F9A95A3
:100F6000F1F7599A8A95F1F7112311F480E603C03D
:100F7000123019F480E760E46FDF8FE060E06CDF2F
:100F800081E0DF91CF911F910F91FF90EF90089535
:100F9000599A519A5C985B985A98549A539A5298D5
:100FA00085B7806885BF80E58CBD81E08DBD0895E3
:100FB0008EBD0DB407FEFDCF8EB5089597FB092EAB
:100FC00007260AD077FD04D00CD006D000201AF4F2
:100FD000709561957F4F0895F6F7909581959F4F95
:100FE0000895AA1BBB1B51E107C0AA1FBB1FA61770
:100FF000B70710F0A61BB70B881F991F5A95A9F7C2
:1010000080959095BC01CD010895F999FECF92BDD0
:1010100081BDF89A992780B50895262FF999FECFBA
:101020001FBA92BD81BD20BD0FB6F894FA9AF99A05
:0A1030000FBE01960895F894FFCF5B
:00000001FF
