:1000000027C036C035C034C033C032C0D8C230C0BB
:100010002FC02EC02DC0C7C02BC02AC029C028C0E9
:1000200027C00008100000080000000800000000C1
:100030000080000800000008000000080000000028
:10004000008000083FE2FFEBFFFF02900303000087
:1000500011241FBECFE5D2E0DEBFCDBF11E0A0E688
:10006000B0E001C01D92A533B107E1F703D6B0CAD5
:10007000C7CFAF92BF92CF92DF92EF92FF920F93D2
:100080001F937B01A090BC00B090BD00C090BE004B
:10009000D090BF0000E010E0EEE0EE0CFF1C001F6F
:1000A000111FEA95D1F77EE0D694C794B794A79430
:1000B0007A95D1F79501307040E050E062E0220F70
:1000C000331F441F551F6A95D1F7E22AF32A042BE8
:1000D000152B90E0A0E0B0E08F709070A070B07031
:1000E00046E1880F991FAA1FBB1F4A95D1F7E82A3E
:1000F000F92A0A2B1B2BAB2CBC2CCD2CDD248FE03A
:10010000A8228A2D90E0A0E0B0E02AE0880F991F95
:10011000AA1FBB1F2A95D1F7E82AF92A0A2B1B2B05
:10012000E092BC00F092BD000093BE001093BF00AF
:100130008091C10080648093C10081E08093C00001
:100140001F910F91FF90EF90DF90CF90BF90AF90F5
:100150000895382F28E0E091CA00F091CB009081FB
:100160008091DD00809589238083E0911A01F091D0
:100170001B019091650037FF04C08081892B80832B
:1001800004C08081909598239083E091CA00F091FB
:10019000CB0080819091DD00892B8083215011F06C
:1001A000330FD9CF08951F920F920FB60F921124DB
:1001B0000F931F932F933F934F935F936F937F936F
:1001C0008F939F93AF93BF93EF93FF9381EB82BF86
:1001D00080911C0190911D018A5E934048F48091AA
:1001E0001C0190911D01019690931D0180931C01AB
:1001F00020E030E0F901EE0FFF1FE359FF4F80814F
:100200009181892B29F0808191810197918380834D
:100210002F5F3F4F2630310569F7809160008F5F77
:1002200080936000823008F49AC010926000809140
:10023000DB009091DC00181619060CF064C0809168
:10024000DB009091DC0001979093DC008093DB0051
:1002500000E020C0FD01E558FF4F10814081609112
:10026000B8007091B9002091DB003091DC00E09182
:10027000B800F091B900A252BF4F8C9190E0621B80
:10028000730B841B910955D9BF0165D9812F860F46
:1002900060DF0F5FA02FB0E08091790090E063E015
:1002A00070E047D9A817B907ACF2E091CA00F09105
:1002B000CB0090818091DD0080958923808380919F
:1002C000DB009091DC00892B09F049C081E090E0CF
:1002D0009093B9008093B8008091790090E063E03A
:1002E00070E027D9AC0120E008C0FD01E252FF4FC9
:1002F0008081A558BF4F8C932F5FA22FB0E0A41729
:10030000B5079CF32CC08091B8009091B9001816E5
:1003100019062CF58091B8009091B900019790933F
:10032000B9008093B80010E005C0E558FF4F808108
:1003300010DF1F5FE12FF0E08091790090E063E033
:1003400070E0F7D8E817F90784F3E091CA00F0915C
:10035000CB0090818091DD0080958923808330914E
:100360002E0186B329B390E087709070F3E0880F78
:10037000991FFA95E1F72770282B232780916400B5
:100380008223809580936400909163009223982744
:10039000909363008223892390912E019827909354
:1003A0002E0120911E0190912E018923822B809392
:1003B0001E0190912E0180916C00892341F480915F
:1003C000CC009091CD009093620080936100809169
:1003D00061009091620001979093620080936100A8
:1003E000892B91F48091BA009091BB0090936200A8
:1003F000809361002091C90090912E0180916C0042
:100400008923822B8093C900FF91EF91BF91AF9117
:100410009F918F917F916F915F914F913F912F911C
:100420001F910F910F900FBE0F901F90189526B33C
:1004300049B360E030E027703070B3E0220F331F23
:10044000BA95E1F750E047705070242B352B90E0BF
:1004500028233923232B09F061E0862F0895F8948F
:1004600090911E01892390911E01982790931E015F
:1004700078940895F8949091C90089239091C900C7
:1004800098279093C90078940895F89490912E013C
:10049000F89420911E0190958923822390911E014A
:1004A000982790931E0178940895982FF89480913E
:1004B000C90098238091C90089278093C900789446
:1004C000F89480911E01892390911E0198279093A2
:1004D0001E017894089580E090E0FC01EA59FF4FF6
:1004E0001082FC01EB5DFE4F108201968630910573
:1004F000A1F740E050E039C08C91F901EA59FF4F73
:1005000090812F5F3F4F891720F495E024E030E081
:1005100018C0622F271780F3F8CFA92FB0E0F90198
:10052000EA59FF4F8081FD01EA59FF4F8083F901AD
:10053000EB5DFE4F8081AB5DBE4F8C93915021509F
:100540003040691750F3A62FB0E0FA01E153FF4F96
:100550008081FD01EA59FF4F8083AB5DBE4F7C93E4
:100560004F5F5F4F4630510539F0742F20E030E087
:10057000DA01A153BF4FCDCF20E030E0D9012F5F8A
:100580003F4FF901EA59FF4F8081AA59BF4F9C9113
:10059000891B8C932530310589F780916A009091F1
:1005A0006900209168003091670040916600809555
:1005B000891B821B831B841B80936B0008951F92F1
:1005C0000F920FB60F9211242F934F935F936F9357
:1005D0007F938F939F93AF93BF93EF93FF938091FC
:1005E000B700882359F540E050E061E070E0DA019F
:1005F000AB5DBE4FEC91F0E0E153FF4F808188236B
:10060000C1F08C91833050F42BB3FB0102C0EE0F8C
:10061000FF1F8A95E2F72E2B2BBB0BC028B390E06F
:100620000397FB0102C0EE0FFF1F8A95E2F72E2B06
:1006300028BB4F5F5F4F46305105C9F6FF91EF91E0
:10064000BF91AF919F918F917F916F915F914F91EA
:100650002F910F900FBE0F901F9018953F924F92C1
:100660005F926F927F928F929F92AF92BF92CF9242
:10067000DF92EF92FF920F93CF93DF9382E08EBDD4
:100680001DBC1CBC88EE93E09BBD8ABD619A85E0D1
:1006900083BF81EB82BF89B7816089BFC0E0D0E0B2
:1006A0004DEFC42E4FEFD42E31E0A32EB12C28E312
:1006B000422E512C9BE3692E712C80E1382E882428
:1006C00083949C2E7E01EE0CFF1CC701845D9E4F1F
:1006D00069D7082FFE01EB52FF4F8083C701835D6E
:1006E0009E4F60D7282FFE01E15DFE4F8083FE0103
:1006F000E153FF4F10820C3060F40A3008F068C0FC
:10070000013008F4EFC0053050F0053009F0EAC0C0
:1007100049C0802F8451823008F0E4C059C00230B3
:1007200011F588E391E03ED790E06AE070E001D7F0
:100730009093CD008093CC0089E391E033D790E093
:100740006AE070E0F6D69093BB008093BA002091E7
:100750006C00C5010C2E02C0880F991F0A94E2F7A5
:10076000282B20936C0082E0891570F08BB39501E3
:100770000C2E02C0220F331F0A94E2F72095822329
:100780008BBB8AB328238AC088B395010C2C02C086
:10079000220F331F0A94E2F72095822388BB87B388
:1007A00028239FC082E08C1708F49CC08BB395016E
:1007B0000C2E02C0220F331F0A94E2F720958223E9
:1007C0008BBB8AB328232ABBC7B933B886B88AC083
:1007D0000431F9F482E0891570F07092CB006092D8
:1007E000CA00C5010C2E02C0880F991F0A94E2F7B7
:1007F0008093DD0032C05092CB004092CA00C50108
:100800000C2C02C0880F991F0A94E2F78093DD0038
:1008100021C00531F9F482E0891570F070921B0156
:1008200060921A01C5010C2E02C0880F991F0A940C
:10083000E2F78093650011C050921B0140921A01AB
:10084000C5010C2C02C0880F991F0A94E2F780930F
:10085000650026C082E0891518F1222359F02BB3D8
:10086000C5010C2E02C0880F991F0A94E2F7282BAD
:100870002BBB0BC02BB3C5010C2E02C0880F991FD8
:100880000A94E2F7809582238BBB2AB3C5010C2E14
:1008900002C0880F991F0A94E2F7282B2ABB22C0B6
:1008A000222361F028B3C5010C2C02C0880F991FC8
:1008B0000A94E2F78095822388BB0AC028B3C50159
:1008C0000C2C02C0880F991F0A94E2F7282B28BB32
:1008D00027B3C5010C2C02C0880F991F0A94E2F7B8
:1008E000282B27BB21960894C11CD11CC630D105EA
:1008F00009F0E7CEDF91CF910F91FF90EF90DF905D
:10090000CF90BF90AF909F908F907F906F905F90AF
:100910004F903F9008958F929F92AF92BF92CF9247
:10092000DF92EF92FF920F931F93CF93DF93C62E28
:10093000E42E20911C0130911D01E82FF0E0CF0141
:1009400068E270E0F6D5EC012A96295E334010F09B
:10095000EC016E96E15EFE4F8081882309F41FC191
:10096000CE0103961FD6B82ECE0102961BD6982F25
:100970008B2D8751823008F083C0E92EFF2400E0E0
:1009800010E08FE090E0A0E0B0E0E822F9220A2336
:100990001B23BAE0EE0CFF1C001F111FBA95D1F704
:1009A0002496DD24A2E0AA2EF0E18F2EF7E29F2EFE
:1009B000CE01F8D5282F30E02115310509F4EFC01C
:1009C00040E050E0E2E0220F331F441F551FEA953C
:1009D000D1F72E293F29402B512B80912C0190914A
:1009E0002D01A0E0B0E07EE0880F991FAA1FBB1F79
:1009F0007A95D1F7282B392B4A2B5B2B80917A00E3
:100A000090E0A0E0B0E08F709070A070B07066E1F0
:100A1000880F991FAA1FBB1F6A95D1F7282B392B66
:100A20004A2B5B2B2093BC003093BD004093BE004B
:100A30005093BF0097E1B91639F4A1E0CA1611F03E
:100A400089E108C087E106C0B1E0CB1611F08AE168
:100A500001C088E18093C100CE010196A3D58093A7
:100A6000C200A092C000C4010197F1F78CEB90E0A6
:100A70006BD4D394229648E0D41609F099CF8FC056
:100A800081E0C81609F42A96CE0103968BD5D82E9C
:100A9000CE01029687D5F82ECE0184D5082F10E01E
:100AA000CE0101967FD5382F20E0B901600F711F6C
:100AB0006115710509F473C02F2D30E040E050E05E
:100AC0002F70307040705070AAE0220F331F441F07
:100AD000551FAA95D1F780917A0090E0A0E0B0E090
:100AE0008F709070A070B070F6E1880F991FAA1FE8
:100AF000BB1FFA95D1F7282B392B4A2B5B2B809102
:100B00002C0190912D01A0E0B0E0EEE0880F991F3C
:100B1000AA1FBB1FEA95D1F7282B392B4A2B5B2B39
:100B2000CB01A0E0B0E062E0880F991FAA1FBB1FB5
:100B30006A95D1F7282B392B4A2B5B2B2093BC00CD
:100B40003093BD004093BE005093BF00D092C100CF
:100B5000EE2021F4CE01049625D5E82EE092C200C5
:100B6000CE0105961FD58093C300CE0106961AD5F7
:100B70008093C400CE01079615D58093C500CE01A1
:100B8000089610D58093C600CE0109960BD58093A8
:100B9000C70087E08093C0008CEB90E0D5D3DF9155
:100BA000CF911F910F91FF90EF90DF90CF90BF906A
:100BB000AF909F908F900895CF92DF92EF92FF9227
:100BC0000F931F93DF93CF93CDB7DEB7C850CDBF40
:100BD0009B01E82EFF2400E010E09AE0EE0CFF1CE1
:100BE000001F111F9A95D1F740E050E082E0220FDC
:100BF000331F441F551F8A95D1F72E293F29402BBB
:100C0000512B29833A834B835C838CEF9FE3A0E0D5
:100C1000B0E08D839E83AF83B88780E06E01089437
:100C2000C11CD11CB60110D481E0B6010DD482E004
:100C3000B6010AD483E0B60107D484E0B60104D437
:100C40008CEF93E0A0E0B0E0E82AF92A0A2B1B2BF6
:100C5000E982FA820B831C8385E0B601F5D32896DE
:100C6000CDBFCF91DF911F910F91FF90EF90DF905B
:100C7000CF9008954F925F926F927F928F929F9242
:100C8000AF92BF92CF92DF92EF92FF920F931F939A
:100C9000CF93DF9380E190E090932D0180932C011E
:100CA00081E080937A0080E090E07CD48A3BF1F48C
:100CB00081E090E077D48A3CC9F482E090E072D47D
:100CC000082F10E010932D0100932C0183E090E099
:100CD00069D4382F20E0200F311F30932D0120934D
:100CE0002C0184E090E05ED480937A0078D3609108
:100CF0002C0170912D0180917A005EDF81E080935C
:100D00001F01809320018093210180932201809311
:100D1000230180932401A2DC789420912C0130914E
:100D20002D0140E050E07EE0220F331F441F551F8D
:100D30007A95D1F7246080917A0090E0A0E0B0E04D
:100D40008F709070A070B07066E1880F991FAA1F15
:100D5000BB1F6A95D1F7282B392B4A2B5B2B20938D
:100D6000BC003093BD004093BE005093BF0082E0B2
:100D70008093C10081E08093C0008CEB90E0E4D2CE
:100D800041E0642E712C34E0C32E22E0522E96E016
:100D9000492E10C1D02EF801EB52FF4FE081E33015
:100DA00009F440C0E43030F4E13071F0E23009F091
:100DB000F8C020C0E53009F4DFC0E53008F465C0B4
:100DC000E63009F0EEC080C0F89480911E019301D6
:100DD000002E02C0220F331F0A94E2F78223909163
:100DE0001E01982790931E017894882309F4D9C096
:100DF000802F0CC0E301002E02C0CC0FDD1F0A942F
:100E0000E2F78C2F42DB882319F0802F60E007C0C7
:100E10008C2F4BDB882309F4C4C0802F61E040E0B5
:100E20007ADDBFC0F801EE0FFF1FE359FF4F80814D
:100E30009181892B09F0B5C0E301002E02C0CC0FCF
:100E4000DD1F0A94E2F7F89490911E019C23809193
:100E50001E01892780931E017894992309F478C094
:100E6000802F60E040E057DDF701808190E064E68C
:100E700070E05FD3F801EE0FFF1FE359FF4F91833E
:100E800080838091CE008C2B74C0E301002E02C0C1
:100E9000CC0FDD1F0A94E2F7F89490911E019C2379
:100EA00080911E01892780931E017894992309F46B
:100EB00046C0F801EE0FFF1FE359FF4F808191817B
:100EC000892B59F5802F26C0E301002E02C0CC0FDC
:100ED000DD1F0A94E2F786B329B34C2F50E090E06F
:100EE0008770907073E0880F991F7A95E1F730E072
:100EF00027703070822B932B48235923452BF9F40C
:100F0000F801EE0FFF1FE359FF4F80819181892B7C
:100F100021F4802F60E040E0FEDCF701808190E06A
:100F200064E670E006D3F801EE0FFF1FE359FF4FB0
:100F3000918380838091CE008C2B8093CE00F8012A
:100F4000EE0FFF1FE359FF4F80819181892B49F5F7
:100F50008091CE0090E08C239D23181619060CF585
:100F60008D2D61E040E0D7DC9E0120958091CE0080
:100F700082238093CE0015C0E801CC0FDD1FC3593A
:100F8000DF4F88819981892B61F445B1802F60E022
:100F9000C2DCF701808190E064E670E0CAD29983F8
:100FA00088830F5F1F4F0894E11CF11C0630110568
:100FB00009F0F0CE8CEB90E086D180932B018F333B
:100FC00039F42FE2E22E21E0F22E00E010E0E2CE32
:100FD0000091C10060912C0170912D0180917A00E7
:100FE00048D80F3009F49CC0003180F40C3009F46B
:100FF00061C00D3028F40A30E9F00B30D9F63BC05F
:101000000D3009F471C00E30A9F67BC0033309F42A
:10101000ABC0043330F4003109F48CC0023351F614
:101020008EC0053309F4D8C0053308F4C1C00633B7
:1010300009F6DAC040E014C0F89480911E019301D3
:10104000042E02C0220F331F0A94E2F782239091EC
:101050001E01982790931E017894882339F44F5FDE
:10106000463050F3463011F440E0E6CF4093C200E2
:101070005092C0001BC080E090E094D28093C200E8
:1010800081E090E08FD28093C30082E090E08AD22A
:101090008093C40083E090E085D28093C50084E013
:1010A00090E080D28093C6004092C0008CEB90E02C
:1010B0004BD180CF8091C2008A3B09F07BCF8091D9
:1010C000C3008A3C09F076CF82E090E06091C400D2
:1010D00071D283E090E06091C5006CD284E090E032
:1010E0006091C60067D266CFB090C300AA248091F9
:1010F000C2009501280F311DC90154D28093C4004C
:101100000CC09090C30088248091C200F401E80FC5
:10111000F11DCF016091C4004DD2C092C000C6CF76
:101120002CE088E190E00FB6F894A89581BD0FBE41
:1011300021BDFFCF10921D0110921C013BCFE09109
:10114000C200E63008F036CFAE2FB0E0FD01EB5222
:10115000FF4F80818A50823008F02CCF8091C300ED
:10116000A153BF4F8C9326CF5091C200252F30E062
:10117000243131050CF01ECF40917900842F90E08E
:101180002817390714F0452F4F5F40937900C901A4
:1011900063E070E0CED1FC01E252FF4F8091C300CA
:1011A00080838091C40081838091C500828302CFB7
:1011B0008091C20090E065E070E0BBD10196909311
:1011C000DC008093DB008091DB009091DC00909349
:1011D000B9008093B800EECEE091C200F0E0E25E8C
:1011E000FE4F81E08083E6CEE091C200F0E0E25E57
:1011F000FE4F1082DFCEFF920F931F93182F062F02
:10120000F42EDF9885E081D1812F7FD1802F7DD191
:101210008F2D7BD1DF9A1F910F91FF9008950F932F
:101220001F938C01FC018281938125E0969587951F
:101230002A95E1F76AD1F8019281892F880F880FEA
:10124000880F807E88609370892B5FD1F80181813F
:101250005CD1F801808159D11F910F9108950F93AE
:101260001F93CF93DF93EC018FEF4FD1082F8FEFB8
:101270004CD1182F83FD02C080E01AC0802F90E06F
:1012800035E0880F991F3A95E1F79B838A838FEFAA
:101290003CD18983812F83709A81892B169516956D
:1012A00016951C71812B8A838FEF2FD1888381E063
:1012B000DF91CF911F910F910895DF9826D18FEF85
:1012C00024D1DF9A0895EF92FF920F931F93CF934B
:1012D000DF93EC01CB9930C080EBEFDF282F90E05B
:1012E00040E4E42EF12CE822F92286FF02C080E9D6
:1012F00003C027FF21C084E9DF9807D1CE01AFDF0B
:101300008FEF03D1082F0F700C8310E007C08FEF11
:10131000FCD0FE01E10FF11D85831F5F1017B8F3AC
:10132000DF9AEF2819F08CE261E002C08CE262E003
:1013300040E061DF80E401C08FE3DF91CF911F9136
:101340000F91FF90EF900895FF920F931F93CF930B
:10135000DF93EC0180EAB1DF82FD02C0FF2409C007
:1013600084FD03C062E0F62E04C086FDF3CF54E096
:10137000F52EDF988F2D8064C8D0CE0150DF0C8110
:101380000F70802FC2D010E006C0FE01E10FF11DEA
:101390008581BBD01F5F1017C0F3DF9A00000000EB
:1013A000DF98FF2011F4FF24F3948F2D8068ADD0D7
:1013B000DF9A8F2DDF91CF911F910F91FF900895AC
:1013C0000F931F93182F062FDF9882E09ED0812F56
:1013D0009CD0802F9AD0DF9A1F910F910895CF93C0
:1013E000DF938AD0D398DB9ADF9880EC8ED0DF9A97
:1013F00088EE93E00197F1F7DF9882E086D080E0F5
:1014000084D0C2E2D0E0FE0184917FD02196F0E04A
:10141000CF34DF07C1F7DF9A80E664E4D1DF80E7ED
:1014200060E4CEDF8FE060E0CBDFDF91CF91089505
:101430001F93182FDF9883E068D0812F66D08FEF3D
:1014400064D0DF9A1F910895EF92FF920F931F933C
:10145000CF93DF93182F7B01863010F080E045C0DA
:101460008FE060EE40E8C7DEC0E8D0E08EE0E0DF6D
:101470008C27807ED9F7112311F400E203C01230CB
:1014800081F404E2DF9882E040D0802F3ED0C70193
:101490000496C5DE82E0982F9A95F1F7DF9A8A9537
:1014A000F1F7133010F400E002C0135000E1DF98B0
:1014B00082E02BD0812F880F880F802B26D0C70188
:1014C000AEDE82E0982F9A95F1F7DF9A8A95F1F7D0
:1014D000112311F480E603C0123019F480E760E4B0
:1014E0006FDF8FE060E06CDF81E0DF91CF911F91D3
:1014F0000F91FF90EF900895DF9AD79ADC98DE98CD
:10150000DD98D49AD69AD5980895282FDC9880E053
:1015100090E0880F27FF02C0DE9A01C0DE98DC9AB7
:10152000CD998160DC989F5F983011F0220FF1CF48
:1015300008955527002480FF02C0060E571F660F2E
:10154000771F6115710521F096958795009799F79A
:10155000952F802D089597FB092E07260AD077FD39
:1015600004D00CD006D000201AF4709561957F4FFE
:101570000895F6F7909581959F4F0895AA1BBB1B80
:1015800051E107C0AA1FBB1FA617B70710F0A61B83
:10159000B70B881F991F5A95A9F780959095BC01A4
:1015A000CD010895E199FECF9FBB8EBBE09A9927AC
:1015B0008DB30895262FE199FECF1CBA9FBB8EBB39
:1015C0002DBB0FB6F894E29AE19A0FBE01960895EA
:0415D000F894FFCFBD
:00000001FF
