:1000000013C02DC02CC02BC02AC029C028C027C0B7
:1000100098C425C024C034C222C021C020C01FC043
:100020001EC002900303000011241FBECFE5D2E0E2
:10003000DEBFCDBF10E0A0E6B0E0E0EDF7E102C02A
:1000400005900D92A636B107D9F711E0A6E6B0E00B
:1000500001C01D92AF3CB107E1F787D6B7CBD0CF37
:10006000CF92EF92FF920F93742FF901262F30E079
:1000700040E050E02170307040705070AAE1220FD3
:10008000331F441F551FAA95D1F790E0A0E0B0E0C0
:1000900083709070A070B0706BE1880F991FAA1FD9
:1000A000BB1F6A95D1F7282B392B4A2B5B2BCF012D
:1000B000A0E0B0E0EEE0880F991FAA1FBB1FEA95F1
:1000C000D1F7282B392B4A2B5B2B872F90E0A0E010
:1000D000B0E08F709070A070B07066E1880F991FCB
:1000E000AA1FBB1F6A95D1F7282B392B4A2B5B2BF4
:1000F000C701A0E0B0E0F2E0880F991FAA1FBB1F64
:10010000FA95D1F7282B392B4A2B5B2B602F70E007
:1001100080E090E06F70707080709070EAE0660F21
:10012000771F881F991FEA95D1F7262B372B482B6D
:10013000592B8C2D90E0A0E0B0E081709070A07001
:10014000B070880F991FAA1FBB1F282B392B4A2B71
:100150005B2BB901CA010F91FF90EF90CF900895EA
:10016000A8E0B0E0E5EBF0E0CCCAC82EDD24EE2438
:10017000FF241AE0CC0CDD1CEE1CFF1C1A95D1F7F5
:1001800080E090E0B2E0660F771F881F991FBA9554
:10019000D1F76C297D298E299F2969837A838B83E6
:1001A0009C838CEF9FE3A0E0B0E08D839E83AF83C0
:1001B000B88780E08E010F5F1F4FB801A7D981E09B
:1001C000B801A4D982E0B801A1D983E0B8019ED9D1
:1001D00084E0B8019BD9D701C6018C6F93608983F5
:1001E0009A83AB83BC8385E0B80190D92896E8E078
:1001F000A4CACF92EF92FF920F931F93482F9B01B7
:10020000E0901C01F0901D0100911E0110911F0152
:10021000C801B70156E196958795779567955A95E8
:10022000D1F7962F9F708EE016950795F794E79477
:100230008A95D1F78FEFE822FF2480E060E0092F54
:10024000CC240EDF60931C0170931D0180931E016E
:1002500090931F018091210180648093210181E0AE
:10026000809320011F910F91FF90EF90CF90089500
:10027000A0E0B0E0EDE3F1E03ECA162FA42E282F57
:1002800030E0C90168E270E0ECD9EC012A964091B7
:10029000AF015091B00163E0493E560710F0EC0108
:1002A0006E962D543E4FF9018081882309F4BBC01E
:1002B000CE01039675DA782ECE01029671DAD82E29
:1002C000872D8751823008F04AC0AA24BB2472E0EF
:1002D000672E4501880C991CC40104968C0F9D1F44
:1002E0005FDAE82EFF24E114F10409F49CC02091A8
:1002F000C6013091C70180E060E0409199000D2D6A
:10030000CC24AEDE60931C0170931D0180931E010E
:1003100090931F01F72DF73131F4113011F487E17B
:1003200007C089E105C0113011F488E101C08AE1FC
:1003300080932101C40105968C0F9D1F31DA8093B3
:100340002201609220018CE191E020D80894A11C48
:10035000B11C68E0A616B10409F0BBCF64C011302F
:1003600009F42A96CE0103961BDA182FCE010296C5
:1003700017DA082FCE0114DAE82EFF24CE010196F9
:100380000FDA382F20E0E20EF31EE114F10409F435
:100390004AC02091C6013091C70180E060E04091E1
:1003A0009900CC245DDE60931C0170931D01809345
:1003B0001E0190931F0110932101AA2021F4CE0168
:1003C0000496EED9A82EA0922201CE010596E8D976
:1003D00080932301CE010696E3D980932401CE01B8
:1003E0000796DED980932501CE010896D9D980934E
:1003F0002601CE010996D4D9809327018091AF01BF
:100400009091B0018B35910520F08091B2018F5F02
:1004100002C08091B2018093280188E0809320017E
:100420008CE191E0B3D7CDB7DEB7EEE080C928E02C
:10043000E0913701F09138013081909170019095F1
:1004400093239083E091AD01F091AE0190916B0008
:1004500087FF04C03081392B308304C030819095F0
:1004600093239083E0913701F0913801908130918E
:100470007001932B9083215011F0880FD9CF0895EC
:1004800078941F920F920FB60F9211242F923F92E1
:100490004F925F926F927F928F929F92AF92BF9294
:1004A000CF92DF92EF92FF920F931F932F933F9380
:1004B0004F935F936F937F938F939F93AF93BF936C
:1004C000CF93DF93EF93FF9381EB82BF89B78E7F4A
:1004D00089BF8091AF019091B00123E08A3E9207DD
:1004E00048F48091AF019091B00101969093B001D2
:1004F0008093AF0180E090E0FC01EE0FFF1FE45716
:10050000FF4F208131812115310531F0208131816A
:10051000215030403183208301968630910561F768
:10052000809166008F5F80936600823008F456C128
:1005300080913601882309F0A0C0A4E1B1E0ECE687
:10054000F0E08FEF81931D9230E0E237F307D1F7AF
:100550000FE710E049E2E42E41E0F42EC0E0D0E0E5
:1005600044244A946C2EF801808191810097A9F16E
:10057000019791838083FE01ED58FF4F8080F70142
:10058000A080B180CC24DD24A0E0B0E0A6019501DC
:10059000281B390B4A0B5B0BCA01B901FE01E25F54
:1005A000FE4F208130E040E050E028193109410938
:1005B000510969D8A60195017FD8820EFE01E45C3D
:1005C000FE4F80828081843008F41082FE01E45C5A
:1005D000FE4F80818C3F08F04082ECE6F0E080E046
:1005E000DE01A45CBE4F0BC02C919191921730F0AC
:1005F000A4E1B1E0ECE6F0E095E00DC08F5F861578
:1006000098F3F6CF2581268315962C91159716968B
:100610002C931697915031971197891798F390E082
:10062000FE01E45CFE4F2081FC01E459FF4F208372
:100630008C5E9E4FFC01608221960E5F1F4F22E070
:1006400030E0E20EF31EC630D10509F08BCFE1E7B2
:10065000F0E090E080812291821B8183980F30E04E
:10066000EC36F307B9F7892F809590916C00891BC0
:100670008093720081E0809336011092660020E042
:100680000BC0E22FF0E0EE0FFF1FE85BFE4F808112
:100690009181009729F42F5F80919800281788F3A3
:1006A00080919800281708F074C0F89400E010E0DA
:1006B000EE2421E0222E312C5FC0033011F41F5FA5
:1006C00002C0002371F4E12FF0E0EE0FFF1FE85BA2
:1006D000FE4F80819181009719F00197918380836B
:1006E00000E00F5F8AE9482E80E0582E4C0E5D1E18
:1006F000F201F080812F90E0880F991FAFED6A2EF4
:10070000A0E07A2E680E791EF301A080B180CC247F
:10071000DD24F8E48F2EF1E09F2E880E991EF4015F
:1007200080819181A0E0B0E0A6019501281B390BE2
:100730004A0B5B0BCA01B901CF58DE4F288130E06C
:1007400040E050E02F193109410951099CD7A60119
:100750009501B2D78F2D820F6ADEF40180819181DD
:10076000009731F4F301318220828881F201808385
:10077000F1E0F093DE00E394CE2DD0E0809198007C
:1007800090E063E070E06DD7C817D9070CF495CFFF
:100790001AC08091DE00882309F11092DE00F894DF
:1007A00010E006C026563F4FF901808140DE1F5FF2
:1007B000212F30E08091980090E063E070E051D705
:1007C000281739077CF3E0913701F09138019081C7
:1007D0008091700180958923808378943091C8013D
:1007E00086B329B390E087709070E3E0880F991F7B
:1007F000EA95E1F72770282B232780916A0082234E
:10080000809580936A009091690092239827909335
:100810006900282329238091C80182278093C80179
:100820008091B1019091C8019223982B9093B101CE
:100830009091C80180918B00892341F48091390106
:1008400090913A01909368008093670080916700CF
:1008500090916800019790936800809367000097DB
:1008600091F480911A0190911B01909368008093FC
:100870006700909135012091C80180918B008223FF
:10088000892B8093350189B7816089BFFF91EF91F2
:10089000DF91CF91BF91AF919F918F917F916F9198
:1008A0005F914F913F912F911F910F91FF90EF908A
:1008B000DF90CF90BF90AF909F908F907F906F9080
:1008C0005F904F903F902F900F900FBE0F901F9012
:1008D000189526B349B330E02770307063E0220FDB
:1008E000331F6A95E1F750E047705070242B352B89
:1008F00090E02823392381E02115310509F480E0B7
:100900000895F8949091B10189239091B1019827AD
:100910009093B10178940895F894909135018923CA
:100920009091350198279093350178940895F89423
:100930009091C80190958923E4DF0895EDDFE1DF10
:1009400008951F920F920FB60F9211242F938F9339
:100950009F93AF93BF93EF93FF938091D60088232B
:1009600009F074C0809136018823B1F1809114019F
:10097000809379008091150180937A00809116010F
:1009800080937B008091170180937C0080911801F7
:1009900080937D008091190180937E0080916C008E
:1009A0008093070180916D008093080180916E0013
:1009B0008093090180916F0080930A0180917000FB
:1009C00080930B018091710080930C0180917200E3
:1009D00080930D01109236019091D60001C09F5F67
:1009E000E92FF0E0E95FFE4F8081882311F4973012
:1009F000B0F39093D60090E0880F991F880F991F4D
:100A0000809590959DBD8CBD8091D60017C0E82F34
:100A1000F0E0E758FF4FE081F0E0DF01A952BF4F5F
:100A20002C91222351F0EE0FFF1FE754FE4F01904F
:100A3000F081E02D9081922B90838F5F863038F388
:100A40009091D6009F5F9093D6003DC0E091D60074
:100A5000F0E0E858FF4FE081F0E0DF01A952BF4F1E
:100A60008C91882361F0EE0FFF1FE754FE4F019039
:100A7000F081E02D982F909580818923808390913B
:100A8000D6009F5F9093D600E92FF0E0EA5FFE4F1B
:100A90008081882311F49730C8F290E0880F991F65
:100AA000880F991F809590959DBD8CBD8091D60033
:100AB00008C0E82FF0E0E95FFE4F9081992329F408
:100AC0008F5F8730B0F3873021F08091D600873078
:100AD00011F41092D600FF91EF91BF91AF919F91C9
:100AE0008F912F910F900FBE0F901F901895A4E03B
:100AF000B0E0ECE7F5E0FBC58BE08EBD8AEF9FEF41
:100B00009DBD8CBD609A85E083BF81EB82BF89B7B4
:100B1000816089BF1092DD008FEF80930D01E2E4C8
:100B20002E2EE1E03E2E79ECC72E71E0D72E8DE51A
:100B300090E09C838B8307ED10E069EBA62E61E0CB
:100B4000B62EEE24FF2458E3852E912C4BE3442E41
:100B5000512C3701660C771CC301845D9E4FEA82DD
:100B60001FD6382FF10181931F01C301835D9E4F72
:100B7000398316D6F6018083F701E45CFE4F1082BC
:100B800039812A813C3060F43A3008F060C031305D
:100B900008F4D2C0353050F0353009F0CDC042C035
:100BA000832F8451823008F0C7C051C0323001F524
:100BB00088E391E02A83F4D590E06AE070E051D5B3
:100BC00090933A018093390189E391E0E9D590E06F
:100BD0006AE070E046D590931B0180931A018091E2
:100BE0008B00EB81FC819381892B80938B002A8180
:100BF000233060F49BB3EB81FC8183818095892352
:100C00008BBB9AB383818095892372C098B3EB81A3
:100C1000FC8180818095892388BB97B380818095F2
:100C2000892389C0233008F087C09BB3EB81FC8106
:100C30008381809589238BBB9AB383818095892397
:100C40008ABBE7B8F0E1F3B981E086B975C0343109
:100C5000A1F4233040F45092380140923701EB81E7
:100C6000FC81838107C09092380180923701EB812B
:100C7000FC8180818093700118C03531B1F423303C
:100C800050F45092AE014092AD01EB81FC81838122
:100C900080936B000CC09092AE018092AD01EB810D
:100CA000FC81808180936B0025C0233018F5F5010D
:100CB000518240823B3031F4EB81FC818381F80129
:100CC000808311C0F6019081EB81FC81838199239F
:100CD00021F09BB3982B9BBB04C09BB380958923C9
:100CE0008BBBF80110828AB3EB81FC819381892B45
:100CF0008ABB22C0F501918280823B3031F4EB81C6
:100D0000FC818081F801808311C0F6018081EB8134
:100D1000FC819081882329F028B3892F8095822334
:100D200002C088B3892B88BBF801108287B3EB819E
:100D3000FC819081892B87BB0894E11CF11C0894ED
:100D4000C11CD11C8B819C8101969C838B830F5F7E
:100D50001F4FE2E0F0E0AE0EBF1EF6E0EF16F1042A
:100D600009F0F7CE2496E2E1DEC480E190E09093B2
:100D7000C7018093C60181E08093990080E090E0F4
:100D80000FD58A3BF1F481E090E00AD58A3CC9F4A2
:100D900082E090E005D5C82FD0E0D093C701C09382
:100DA000C60183E090E0FCD4382F20E0C20FD31FAF
:100DB000D093C701C093C60184E090E0F1D4809342
:100DC00099007AD36091C6017091C7018091990012
:100DD000C7D911E01093B3011093B4011093B5017A
:100DE0001093B6011093B7011093B80180DE789488
:100DF0002091C6013091C70180E060E040919900E8
:100E000000E051E0E52EF12CCC242AD960931C019E
:100E100070931D0180931E0190931F0182E08093C7
:100E20002101109320018CE191E0B0D2CC24C39435
:100E300021E0822E912C94E0792ECFC0DD0CEC2E97
:100E4000F5018081843009F452C0853040F482304D
:100E5000A1F0833018F5813009F0B5C007C08530A6
:100E600009F498C0883008F0AEC050C08D2D49DD1F
:100E7000882309F4A8C08C2F05C08D2D58DD882348
:100E800019F08C2F60E007C08D2D58DD882309F400
:100E90009AC08C2F61E040E0EBD995C07E01EE0C4A
:100EA000FF1C8CE890E0E80EF91EF701808191812B
:100EB000009709F088C08D2D24DD882389F08C2FC0
:100EC00060E040E0D5D9F801808190E064E670E010
:100ED000C8D3F7019183808380913B018D2957C04E
:100EE00080913B018D2109F46EC08C2F48C08D2D5F
:100EF00008DD8823B1F1FE01EE0FFF1FE457FF4F1D
:100F0000808191810097D9F48C2F16C08D2DE1DC62
:100F100091E0811190E0F5018081873009F49C25F2
:100F20009923F9F0FE01EE0FFF1FE457FF4F808178
:100F30009181009721F48E2D60E040E099D9F8016D
:100F4000808190E064E670E08CD3FE01EE0FFF1F1D
:100F5000E457FF4F9183808380913B018D298093DB
:100F60003B01FE01EE0FFF1FE457FF4F808191818F
:100F7000009749F580913B018D2129F18E2D61E08B
:100F800040E076D99D2D909580913B0189238093F7
:100F90003B0119C07E01EE0CFF1C2CE830E0E20E94
:100FA000F31EF70180819181009769F445B18C2F80
:100FB00060E05ED9F801808190E064E670E051D392
:100FC000F7019183808321960894A11CB11C0F5FC7
:100FD0001F4FC630D10509F031CF8CE191E022D20C
:100FE0008093C5018F3359F442E4A42E41E0B42E1E
:100FF00009EC11E0C0E0D0E0DD24D39420CF1091C3
:101000002101009122016091C6017091C701809178
:101010009900EFD8173178F4143108F04DC01E3024
:1010200041F11F3018F41D30C1F616C01F3099F180
:10103000103199F63AC0133309F4DAC0143330F49E
:10104000173209F48EC0123341F68BC0153309F400
:1010500022C1163311F625C130902301222480913C
:1010600022019101280F311DC9019AD380932401D7
:101070000CC050902301442480912201E201C80F4A
:10108000D11DCE016091240193D3709220018CE197
:1010900091E07CD1A2CF2CE088E190E00FB6F894EB
:1010A000A89581BD0FBE21BDFFCF1092B001109257
:1010B000AF010093B20191CF0150063008F448C04F
:1010C00000E046C0802F90E0FC01EE5BFE4F2081E7
:1010D0002A502230E0F5143141F0153141F0FC0185
:1010E000E45CFE4F2081209503C02FEF01C020E07B
:1010F000F894FC01E45CFE4F3081DC01AD58BF4F39
:101100003C93DC01A25FBE4F2C93DC01A753BE4F82
:101110002C91880F991F222371F0DC01A75DBE4F2F
:101120002C9311961C92DC01A158BF4F2C93119661
:101130001C9211970BC0DC01A75DBE4F11969C92CB
:101140008E9281589F4FFC019182808278940F5F2C
:1011500080912201081708F040CF063008F4B2CF82
:101160003CCF173211F4E3E001C0E0E0402F4150E2
:10117000463080F140E02EC0242F30E0E901CE5B04
:10118000DE4F88818A50823008F027CFF894E90139
:10119000C45CDE4F8881E901CD58DF4F8883E901C7
:1011A000C25FDE4F8C918883808190E0880F991F09
:1011B000880F991F0196220F331FE901C75DDE4F8B
:1011C0009983888321583F4FE901998388837894D4
:1011D0004F5F06C0F0E0E45EFE4FDF0117963896E1
:1011E00080912201481708F0F8CE463028F2F5CE5B
:1011F000202F30E0243131050CF0EFCEF8948091AF
:10120000980090E02817390714F00F5F02C0009192
:10121000980000939800C90163E070E022D2FC01BD
:10122000E656FF4FEC01CF58DE4F48814083DC018A
:101230001196FD01E656FF4FAF58BE4F4C914083CB
:101240000296AC0146565F4FBC016F587E4FFB01C2
:101250008081FA0180838091230188838091240119
:101260008C9380912501EB0188838091260190E089
:10127000880F991F880F991F0196220F331FF901BC
:10128000E85BFE4F9183808321523F4FF9019183A8
:1012900080837894A2CEE02FF0E0EE54FE4FC0821F
:1012A0009CCEE02FF0E0EE54FE4F108296CE1F93BE
:1012B000182FDF9883E08ED1812F8CD18FEF8AD1C8
:1012C000DF9A1F910895A1E0B0E0E8E6F9E01EC2C0
:1012D000182FDF9882E069837DD1812F7BD16981CE
:1012E000862F78D1DF9A2196E3E02CC2DF9872D165
:1012F0008FEF70D1DF9A08950F931F93CF93DF93F1
:10130000EC018FEF67D1082F8FEF64D1182F83FF87
:101310001BC0202F30E085E0220F331F8A95E1F7B4
:101320003B832A838FEF56D18983812F83709A81E3
:10133000892B1695169516951C71812B8A838FEF34
:1013400049D1888381E001C080E0DF91CF911F9176
:101350000F910895CF93DF93EC018A819B8125E063
:10136000969587952A95E1F735D18A81982F990F1F
:10137000990F990F907E98608370892B2BD189816A
:1013800029D1888127D1DF91CF910895FF920F93C2
:101390001F93CF93DF93EC0180EAA8DF82FF06C0A2
:1013A00084FF06C086FDF8CF14E003C010E001C042
:1013B00012E0DF98812F80640DD1CE01CBDF0C814C
:1013C0000F70802F07D12596FF2403C0899102D189
:1013D000F394F016D8F3DF9A00000000DF98112391
:1013E00009F411E0812F8068F5D0DF9A812FCDB705
:1013F000DEB7E5E0A5C1A2E0B0E0E0E0FAE086C13A
:10140000182FDF9885E04A836983E4D0812FE2D0EA
:101410006981862FDFD04A81842FDCD0DF9A229623
:10142000E3E090C1A0E0B0E0E7E1FAE06AC1EC01DE
:10143000CB993DC080EB5ADF282F30E040E4E42E0A
:10144000F12CE222F32286FD04C087FF30C084E93C
:1014500001C080E9DF98BED0CE014EDF8FEFBAD059
:101460003FE0D32ED822DC828E010B5F1F4FCC24AD
:1014700006C08FEFAFD0F80181938F01C394CD14D4
:10148000C0F38D2D05C0FE01E80FF11D15828F5FA1
:101490008830C8F3DF9AE114F10419F08CE261E0BE
:1014A00002C08CE262E040E0A6DF80E401C08FE38E
:1014B000CDB7DEB7E8E041C1CF93DF9382D0D398B8
:1014C000DB9ADF9880EC86D0DF9A88EE93E0019774
:1014D000F1F7DF9882E07ED088E27CD0C0E0D0E0F7
:1014E000FE01EE5DFF4F849175D02196C530D10588
:1014F000B9F7DF9A80E664E4E6DE80E760E4E3DEE5
:101500008FE060E0E0DEDF91CF910895FF920F93CE
:101510001F93CF93DF93F82EEB01863008F04CC079
:101520008FE060EE40E867DF00E810E08EE0BFDEAD
:10153000282F332727FD3095207E30702017310764
:10154000A9F7FF2029F08F2D823081F404E201C039
:1015500000E2DF9882E03ED0802F3CD0CE0104969E
:10156000F9DE00000000DF9A000000008F2D8330BC
:1015700020F08DEFF80E00E101C000E0DF9882E07E
:1015800029D08F2D880F880F802B24D0CE01E2DE4A
:1015900000000000DF9A00000000FF2011F480E648
:1015A00004C08F2D823019F480E760E48CDE8FE078
:1015B00060E089DE81E001C080E0CDB7DEB7E5E024
:1015C000BFC0DF9AD79ADC98DE98DD98D49AD69A75
:1015D000D598089590E02BB32F7E322F206487FD9D
:1015E0002BBBDC9A88943BBBCD990894991F86FD50
:1015F0002BBBDC9A88943BBBCD990894991F85FD41
:101600002BBBDC9A88943BBBCD990894991F84FD31
:101610002BBBDC9A88943BBBCD990894991F83FD22
:101620002BBBDC9A88943BBBCD990894991F82FD13
:101630002BBBDC9A88943BBBCD990894991F81FD04
:101640002BBBDC9A88943BBBCD990894991F80FDF5
:101650002BBBDC9A88943BBBCD990894991F892FAA
:1016600008955527002480FF02C0060E571F660FFD
:10167000771F6115710521F096958795009799F769
:10168000952F802D0895FF27EE27BB27AA2760FFFF
:1016900004C0A20FB31FE41FF51F220F331F441F06
:1016A000551F969587957795679589F700977607E3
:1016B00071F7CF01BD01089597FB092E05260ED0C5
:1016C00057FD04D04BD00AD0001C38F450954095FB
:1016D000309521953F4F4F4F5F4F0895F6F7909506
:1016E0008095709561957F4F8F4F9F4F08952F92F2
:1016F0003F924F925F926F927F928F929F92AF92A2
:10170000BF92CF92DF92EF92FF920F931F93CF93EE
:10171000DF93CDB7DEB7CA1BDB0B0FB6F894DEBF85
:101720000FBECDBF09942A88398848885F846E84AB
:101730007D848C849B84AA84B984C884DF80EE80F5
:10174000FD800C811B81AA81B981CE0FD11D0FB6FE
:10175000F894DEBF0FBECDBFED010895A1E21A2EB1
:10176000AA1BBB1BFD010DC0AA1FBB1FEE1FFF1F45
:10177000A217B307E407F50720F0A21BB30BE40B95
:10178000F50B661F771F881F991F1A9469F76095DC
:101790007095809590959B01AC01BD01CF01089596
:1017A000E199FECF9FBB8EBBE09A99278DB3089538
:1017B000262FE199FECF1CBA9FBB8EBB2DBB0FB667
:1017C000F894E29AE19A0FBE01960895F894FFCF3B
:0617D000010204081020D4
:00000001FF
