:1000000027C036C035C034C033C032C098C430C0F9
:100010002FC02EC02DC07FC22BC02AC029C028C02F
:1000200027C00008100000080000000800000000C1
:100030000080000800000008000000080000000028
:10004000008000083FE2FFEBFFFF02900303000087
:1000500011241FBECFE5D2E0DEBFCDBF11E0A0E688
:10006000B0E001C01D92A338B107E1F72ED64CCB0A
:10007000C7CFCF92DF92EF92FF920F931F93DF9340
:10008000CF93CDB7DEB7C850CDBFC82EDD24EE2448
:10009000FF243AE0CC0CDD1CEE1CFF1C3A95D1F796
:1000A00080E090E022E0660F771F881F991F2A9555
:1000B000D1F76C297D298E299F2969837A838B83C7
:1000C0009C838CEF9FE3A0E0B0E08D839E83AF83A1
:1000D000B88780E08E010F5F1F4FB80105DA81E01D
:1000E000B80102DA82E0B801FFD983E0B801FCD997
:1000F00084E0B801F9D9D701C6018C6F9360898378
:100100009A83AB83BC8385E0B801EED9C85FCDBFCD
:10011000CF91DF911F910F91FF90EF90DF90CF90E3
:100120000895AF92BF92CF92DF92EF92FF920F931A
:100130001F93A090E300B090E400C090E500D09041
:10014000E6009B0140E050E0BEE0220F331F441F59
:10015000551FBA95D1F786017501AEE01695079542
:10016000F794E794AA95D1F79FEFE922FF2400E0E6
:1001700010E0F2E0EE0CFF1C001F111FFA95D1F702
:100180002E293F29402B512B90E0A0E0B0E08F704A
:100190009070A070B070E6E1880F991FAA1FBB1F76
:1001A000EA95D1F7282B392B4A2B5B2BD601C501B9
:1001B00076E1B695A795979587957A95D1F78F7043
:1001C000A82EBB24CC24DD246AE0AA0CBB1CCC1CCA
:1001D000DD1C6A95D1F72A293B294C295D292093FA
:1001E000E3003093E4004093E5005093E6008091F3
:1001F000E80080648093E80081E08093E7001F912D
:100200000F91FF90EF90DF90CF90BF90AF90089547
:10021000AF92BF92CF92DF92EF92FF920F931F9314
:10022000CF93DF93C62ED42EE0916901F0916A013D
:10023000282F30E0C90168E270E00BDAEC012A9661
:1002400043E0E93EF40710F0EC016E9623593E4F6F
:10025000D9018C91882309F42AC1CE0103963EDA94
:10026000B82ECE0102963ADA9B2D9751923008F0C3
:1002700082C0E82EFF2400E010E08FE090E0A0E0D4
:10028000B0E0E822F9220A231B239AE0EE0CFF1CBF
:10029000001F111F9A95D1F72496DD2482E0A82E25
:1002A000CE011CDAE82FF0E0309709F400C120916C
:1002B0007A0030E040E050E02F70307040705070B5
:1002C000B6E1220F331F441F551FBA95D1F7609135
:1002D0007A0170917B0180E090E0AEE0660F771FBD
:1002E000881F991FAA95D1F7262B372B482B592BFE
:1002F0002E293F29402B512BCF01A0E0B0E062E036
:10030000880F991FAA1FBB1F6A95D1F7282B392B7D
:100310004A2B5B2B2093E3003093E4004093E500ED
:100320005093E6009B2D973139F4AC2DA13011F498
:1003300087E108C089E106C0BC2DB13011F488E125
:1003400001C08AE18093E800CE010196C7D980936D
:10035000E900A092E700EFE0F7E23197F1F700C083
:10036000000083EE90E005D8D3942296FD2DF8305E
:1003700009F096CF9CC04C2D413009F42A96CE014D
:100380000396ACD9B82ECE010296A8D9C82ECE01BC
:10039000A5D9E82EFF24CE010196A0D9382F20E060
:1003A000E20EF31EE114F10409F481C020917A00F9
:1003B00030E040E050E02F70307040705070F6E157
:1003C000220F331F441F551FFA95D1F760917A0110
:1003D00070917B0180E090E0EEE0660F771F881F50
:1003E000991FEA95D1F7262B372B482B592B8C2DAB
:1003F00090E0A0E0B0E08F709070A070B0706AE004
:10040000880F991FAA1FBB1F6A95D1F7282B392B7C
:100410004A2B5B2B00E010E082E0EE0CFF1C001F7B
:10042000111F8A95D1F72E293F29402B512B20935C
:10043000E3003093E4004093E5005093E600B0926F
:10044000E800DD2021F4CE01049648D9D82ED092C0
:10045000E900CE01059642D98093EA00CE010696C6
:100460003DD98093EB00CE01079638D98093EC00FC
:10047000CE01089633D98093ED00CE0109962ED98E
:100480008093EE008091690190916A018B3591050E
:1004900020F080916C018F5F02C080916C0180938D
:1004A000EF0088E08093E70083EE90E062D7DF9171
:1004B000CF911F910F91FF90EF90DF90CF90BF9061
:1004C000AF90089528E0E091F100F091F2003081C2
:1004D00090912A01909593239083E0916701F09188
:1004E00068019091650087FF04C03081392B30830B
:1004F00004C03081909593239083E091F100F091B6
:10050000F200908130912A01932B9083215011F0B9
:10051000880FD9CF08951F920F920FB60F92112412
:100520004F925F927F928F929F92AF92BF92CF92A3
:10053000DF92EF92FF920F931F932F933F934F936E
:100540005F936F937F938F939F93AF93BF93CF935B
:10055000DF93EF93FF9381EB82BF809169019091CC
:100560006A0123E08A3E920748F4809169019091E4
:100570006A01019690936A018093690180E090E09E
:10058000FC01EE0FFF1FE359FF4F20813181211540
:10059000310531F020813181215030403183208379
:1005A00001968630910561F7809160008F5F80939E
:1005B0006000823008F49BC0109260004091790086
:1005C00080E090E014C0FC01EE0FFF1FEE5FFE4FD5
:1005D000208131810196121613064CF4FF2413E09A
:1005E000E12EB1E08B2E912C7724739454C08417A4
:1005F00050F3D3C08F2D6E2D3ED8992389F4E82F68
:10060000F0E0EE0FFF1FEE5FFE4F408151811416A8
:10061000150634F44081518141505040518340834C
:10062000890105581F4FD8014C915C91682F70E0EB
:10063000660F771FEB01C754DF4F88819981E2E095
:10064000AE2EE1E0BE2EA60EB71EF5014080518011
:10065000E881F9816BE2C62E61E0D62EC20ED31E70
:10066000D6016C9170E0651B710984199509F1D769
:10067000BF010DD8842F860F25DFF5018081918180
:10068000009731F499828882D6018C91F801808399
:100690007092B800F3942F2D30E08091790090E0B3
:1006A00063E070E0D6D7281739070CF4A3CF15C044
:1006B0001092B80000E006C025583F4FD9018C9138
:1006C00001DF0F5F202F30E08091790090E063E040
:1006D00070E0BFD7281739077CF3E091F100F09163
:1006E000F200908180912A01809589238083309146
:1006F0007C0186B329B390E08770907043E0880F47
:10070000991F4A95E1F72770282B232780916400D1
:1007100082238095809364009091630092239827B0
:10072000909363002823292380917C018227809362
:100730007C0180916B0190917C019223982B909386
:100740006B0190917C0180916C00892341F4809130
:10075000F3009091F4009093620080936100809187
:100760006100909162000197909362008093610014
:100770000097C9F48091E1009091E20090936200AB
:10078000809361009091F00020917C0180916C0039
:100790008223892B8093F00006C08091B8008130BD
:1007A00009F0A5CF85CFFF91EF91DF91CF91BF9158
:1007B000AF919F918F917F916F915F914F913F91F9
:1007C0002F911F910F91FF90EF90DF90CF90BF90EE
:1007D000AF909F908F907F905F904F900F900FBE43
:1007E0000F901F90189526B349B330E027703070F2
:1007F00053E0220F331F5A95E1F750E047705070D5
:10080000242B352B90E02823392381E02115310555
:1008100009F480E00895F89490916B0189239091F8
:100820006B01982790936B0178940895F8949091B8
:10083000F00089239091F00098279093F00078942D
:100840000895F89490917C0190958923E4DF0895B0
:10085000EDDFE1DF089580E090E0FC01EA59FF4F11
:100860001082FC01ED58FE4F1082019686309105F2
:10087000A1F780E090E03BC05081D901AA59BF4F59
:100880004C912F5F3F4F541718F425E030E018C00B
:10089000722F261788F3F9CFA90141505040FA0171
:1008A000EA59FF4FA081F901EA59FF4FA083FA01ED
:1008B000ED58FE4FA081F901ED58FE4FA0839A013B
:1008C000721750F3272F30E0FC01EA50FF4F4081B0
:1008D000F901EA59FF4F40832D583E4FF9016083DB
:1008E00001968630910519F480E090E007C0682FEA
:1008F00020E030E0FC01EA50FF4FCACFFC01019636
:10090000DC01AA59BF4F2C91EA59FF4F3081231BBC
:1009100020838530910591F780916A0040916900AC
:100920003091680020916700909166008095841B4B
:10093000831B821B891BE6E6F0E0858308951F92E6
:100940000F920FB60F9211242F933F934F935F9303
:100950006F938F939F93AF93BF93EF93FF93809188
:10096000B700882359F580E090E041E050E0DC01D9
:10097000AD58BE4FEC91F0E0EA50FF4F20812223AA
:10098000C9F02C91233050F46BB3FA0102C0EE0F82
:10099000FF1F2A95E2F76E2B6BBB0CC068B330E0EB
:1009A00023503040FA0102C0EE0FFF1F2A95E2F7F4
:1009B0006E2B68BB019686309105C9F6FF91EF91C9
:1009C000BF91AF919F918F916F915F914F913F91A7
:1009D0002F910F900FBE0F901F9018952F923F925E
:1009E0004F925F926F927F928F929F92AF92BF923F
:1009F000CF92DF92EF92FF920F931F93DF93CF93EB
:100A000000D0CDB7DEB782E08EBD1DBC1CBC88EE29
:100A100093E09BBD8ABD619A85E083BF81EB82BF75
:100A200089B7816089BF1CEFA12E10E0B12EBDE710
:100A30008B2EB1E09B2EADEFEA2EAFEFFA2E00E049
:100A400010E0F8E36F2E712CEBE34E2E512C70E189
:100A5000372E222423946801CC0CDD1CC601845D52
:100A60009E4F0A833BD6382FF50181935F01C60163
:100A7000835D9E4F398332D6F40181934F01F80193
:100A8000EA50FF4F108239812A813C3060F43A30BD
:100A900008F06EC0313008F4FAC0353050F035300F
:100AA00009F0F5C04FC0932F9451923008F0EFC079
:100AB0005FC0323029F588E391E02A830FD690E0B9
:100AC0006AE070E0C6D59093F4008093F30089E368
:100AD00091E004D690E06AE070E0BBD59093E2002C
:100AE0008093E10030916C0081E090E0002E02C024
:100AF000880F991F0A94E2F7382B30936C002A81F3
:100B0000233080F42BB381E090E0002E02C0880FE8
:100B1000991F0A94E2F7809528232BBB9AB3982358
:100B20009ABBB5C028B381E090E00E2C02C0880FBC
:100B3000991F0A94E2F78095282328BB97B398233E
:100B400097BBA5C0233008F0A2C02BB381E090E092
:100B5000002E02C0880F991F0A94E2F7809528237F
:100B60002BBB9AB398239ABB07B933B826B88FC06A
:100B70003431F1F4233068F45092F2004092F100E5
:100B800041E050E0002E02C0440F551F0A94E2F7E6
:100B90000CC07092F2006092F10041E050E00E2C27
:100BA00002C0440F551F0A94E2F740932A0122C065
:100BB000353101F5233078F4509268014092670195
:100BC00021E030E0002E02C0220F331F0A94E2F72A
:100BD0002093650011C0709268016092670121E066
:100BE00030E00E2C02C0220F331F0A94E2F720934C
:100BF000650028C0233030F5882361F02BB381E0F5
:100C000090E0002E02C0880F991F0A94E2F7282B6B
:100C10002BBB0CC02BB381E090E0002E02C0880FEC
:100C2000991F0A94E2F7809582238BBB2AB381E057
:100C300090E0002E02C0880F991F0A94E2F7282B3B
:100C40002ABB25C0882369F028B381E090E00E2CF0
:100C500002C0880F991F0A94E2F78095822388BB0F
:100C60000BC028B381E090E00E2C02C0880F991FC2
:100C70000A94E2F7282B28BB27B381E090E00E2CE2
:100C800002C0880F991F0A94E2F7282B27BB0F5F39
:100C90001F4F0894E11CF11C0630110509F0DBCE52
:100CA000CE5FCDBFCF91DF911F910F91FF90EF905D
:100CB000DF90CF90BF90AF909F908F907F906F907C
:100CC0005F904F903F902F9008952F923F924F92B8
:100CD0005F926F927F928F929F92AF92BF92CF92CC
:100CE000DF92EF92FF920F931F93DF93CF93CDB7D5
:100CF000DEB7C350CDBF80E190E090937B0180933D
:100D00007A0181E080937A0080E090E0E7D48A3B2A
:100D1000F1F481E090E0E2D48A3CC9F482E090E012
:100D2000DDD4082F10E010937B0100937A0183E05B
:100D300090E0D4D4382F20E0200F311F30937B0176
:100D400020937A0184E090E0C9D480937A00A2D302
:100D500060917A0170917B0180917A008AD901E0DB
:100D600000936D0100936E0100936F010093700179
:100D7000009371010093720131DE789480917A01C1
:100D800090917B01A0E0B0E07EE0880F991FAA1F40
:100D9000BB1F7A95D1F7846020917A0030E040E063
:100DA00050E02F7030704070507066E1220F331F9A
:100DB000441F551F6A95D1F7822B932BA42BB52B7B
:100DC0008093E3009093E400A093E500B093E600E5
:100DD00082E08093E8000093E70083EE90E0C9D2C0
:100DE00001E010E044E0742E32E0632E0BC1BA80C3
:100DF000F4018081843009F471C0853040F4823080
:100E0000C9F0833078F5813009F0ECC007C0853037
:100E100009F4CEC0883008F0E5C078C0C8010A8067
:100E200002C0880F991F0A94E2F7F5DC882309F4C1
:100E3000D9C00BC078010A8002C0EE0CFF1C0A94D6
:100E4000E2F78E2DFEDC882319F08A8160E007C06E
:100E50008E2DFEDC882309F4C5C08A8161E040E064
:100E6000D7D9C0C0EA80FB80EE0CFF1C2DE630E035
:100E7000E20EF31EF70180819181009709F0B2C064
:100E800058010A8002C0AA0CBB1C0A94E2F78A2D02
:100E9000C2DC882389F08A8160E040E0B9D9F6019C
:100EA000808190E064E670E0D4D3F7019183808381
:100EB0008091F5008A2979C08091F50090E08A211F
:100EC0009B21181619060CF08DC08A8161E040E064
:100ED0009FD9A0948091F5008A2167C078010A808B
:100EE00002C0EE0CFF1C0A94E2F78E2D94DC8823DE
:100EF00009F441C0EA81FB81EE0FFF1FE359FF4F68
:100F000080819181009721F58A811FC078010A8034
:100F100002C0EE0CFF1C0A94E2F78E2D64DC91E017
:100F2000811190E0F4018081873011F481E09827ED
:100F3000992309F1EA81FB81EE0FFF1FE359FF4F6F
:100F400080819181009721F48B2D60E040E060D991
:100F5000F601808190E064E670E07BD3EA81FB815A
:100F6000EE0FFF1FE359FF4F918380838091F500BF
:100F70008E298093F500EA81FB81EE0FFF1FE35974
:100F8000FF4F80819181009769F58091F50090E095
:100F90008E219F21181619062CF58B2D61E040E05B
:100FA00037D9E0948091F5008E218093F5001AC026
:100FB000EA80FB80EE0CFF1C2DE630E0E20EF31E13
:100FC000F70180819181009769F445B18A8160E0E1
:100FD0001FD9F601808190E064E670E03AD3F70112
:100FE000918380832A813B812F5F3F4F3B832A83FC
:100FF0000894811C911C0894C11CD11C2630310519
:1010000009F0F5CE83EE90E006D2809379018F331C
:1010100059F47CEF872E70E0972E6DE7C62E61E0C5
:10102000D62E1B821A82E3CE9091E80060917A015D
:1010300070917B0180917A00998373D899819F3058
:1010400009F495C0903180F49C3009F45AC09D3069
:1010500028F49A30D9F09B30A9F633C09D3009F4BA
:101060006AC09E3079F674C0933309F4A8C09433F3
:1010700030F4903109F485C0923321F68BC095335A
:1010800009F4F6C0963309F0BDCFFAC020E010C0D5
:10109000C801022E02C0880F991F0A94E2F7298323
:1010A000BADB2981882341F42F5F02C020E0F0CF12
:1010B000263070F32630D1F32093E9006092E700E8
:1010C0001CC080E090E00AD38093E90081E090E0CA
:1010D00005D38093EA0082E090E000D38093EB0098
:1010E00083E090E0FBD28093EC0084E090E0F6D2C5
:1010F0008093ED0036E03093E70083EE90E039D145
:1011000081CF8091E9008A3B09F07CCF8091EA0091
:101110008A3C09F077CF82E090E06091EB00E6D264
:1011200083E090E06091EC00E1D284E090E0609197
:10113000ED00DCD267CF3090EA0022248091E900F4
:10114000F101E80FF11DCF01C9D28093EB000CC073
:101150005090EA0044248091E9009201280F311D4B
:10116000C9016091EB00C2D27092E700C6CF2CE0BB
:1011700088E190E00FB6F894A89581BD0FBE21BD1F
:10118000FFCF10926A01109269018091E90080936B
:101190006C0138CF8091E900863008F033CF90E0C1
:1011A000FC01E450FF4F20812A50223008F02ACF62
:1011B0002091EA008A509F4FFC01208323CF509159
:1011C000E900252F30E0243131050CF01BCF409190
:1011D0007900842F90E02817390714F0452F4F5FCE
:1011E00040937900C90163E070E033D25BE2E52E01
:1011F00051E0F52EE80EF91EF7014081FC01E5589B
:10120000FF4F4083AC014F5F5F4FDA01A55DBE4FDA
:101210006C9145585F4FFA0160830296BC01655D91
:101220007E4FFB01408185589F4FFC014083809198
:10123000EA00F70180838091EB008C938091EC00B1
:10124000FB0180838091ED0090E065E070E001D2C9
:101250000196220F331FF901EE5FFE4F91838083C9
:101260008081918127543F4FF90191838083CACEB9
:10127000E091E900F0E0E459FE4F81E08083C2CEC6
:10128000E091E900F0E0E459FE4F1082BBCE1F93DD
:10129000182FDF9883E096D1812F94D18FEF92D1D0
:1012A000DF9A1F9108951F93DF93CF930F92CDB7CD
:1012B000DEB7182FDF9882E0698384D1812F82D135
:1012C0006981862F7FD1DF9A0F90CF91DF911F9197
:1012D0000895DF9877D18FEF75D1DF9A08950F9336
:1012E0001F93CF93DF93EC018FEF6CD1082F8FEF1B
:1012F00069D1182F83FF1BC0202F30E085E0220F1B
:10130000331F8A95E1F73B832A838FEF5BD1898373
:10131000812F83709A81892B1695169516951C71CD
:10132000812B8A838FEF4ED1888381E001C080E0DA
:10133000DF91CF911F910F910895CF93DF93EC012F
:101340008A819B8125E0969587952A95E1F73AD188
:101350008A81982F990F990F990F907E98608370CA
:10136000892B30D189812ED188812CD1DF91CF91E9
:101370000895FF920F931F93CF93DF93EC0180EAC0
:10138000A8DF82FF06C084FF06C086FDF8CF14E008
:1013900003C010E001C012E0DF98812F806412D1F9
:1013A000CE01CBDF0C810F70802F0CD12596FF244E
:1013B00003C0899107D1F394F016D8F3DF9A0000A7
:1013C0000000DF98112309F411E0812F8068FAD022
:1013D000DF9A812FDF91CF911F910F91FF90089598
:1013E0001F93DF93CF9300D0CDB7DEB7182FDF98D0
:1013F00085E04A836983E6D0812FE4D06981862F16
:10140000E1D04A81842FDED0DF9ACE5FCDBFCF916D
:10141000DF911F910895EF92FF920F931F93CF9347
:10142000DF93EC01CB992EC080EB53DF282F30E007
:1014300089010074107086FD04C087FF23C084E911
:1014400001C080E9DF98BED0CE0149DF8FEFBAD06E
:101450003FE0E32EE822EC822596FF2404C08FEFC4
:10146000B1D08993F394FE14D0F3DF9A01151105DE
:1014700019F08CE261E002C08CE262E040E0B0DF93
:1014800080E401C08FE3DF91CF911F910F91FF9016
:10149000EF900895CF93DF938CD0D398DB9ADF98A9
:1014A00080EC90D0DF9A88EE93E00197F1F7DF9817
:1014B00082E088D080E086D0C0E0D0E0FE01EE5D22
:1014C000FF4F84917FD02196CD32D105B9F7DF9AB5
:1014D00080E664E4E8DE80E760E4E5DE8FE060E07B
:1014E000E2DEDF91CF910895FF920F931F93CF9388
:1014F000DF93F82EEB01863008F054C08FE060EEE9
:1015000040E86EDF00E810E08EE0C1DE282F3327D0
:1015100027FD3095207E307020173107A9F7FF2076
:1015200029F08F2D8230A1F404E201C000E2DF989F
:1015300082E048D0802F46D0CE010496FEDE82E0C5
:101540008A95F1F700C0DF9A82E08A95F1F700C032
:101550008F2D833020F08DEFF80E00E101C000E008
:10156000DF9882E02FD08F2D880F880F802B2AD014
:10157000CE01E3DE82E08A95F1F700C0DF9A82E0D7
:101580008A95F1F700C0FF2011F480E604C08F2D8A
:10159000823019F480E760E486DE8FE060E083DE6D
:1015A00081E001C080E0DF91CF911F910F91FF900A
:1015B0000895DF9AD79ADC98DE98DD98D49AD69A67
:1015C000D598089590E02BB32F7E322F206487FDAD
:1015D0002BBBDC9A88943BBBCD990894991F86FD60
:1015E0002BBBDC9A88943BBBCD990894991F85FD51
:1015F0002BBBDC9A88943BBBCD990894991F84FD42
:101600002BBBDC9A88943BBBCD990894991F83FD32
:101610002BBBDC9A88943BBBCD990894991F82FD23
:101620002BBBDC9A88943BBBCD990894991F81FD14
:101630002BBBDC9A88943BBBCD990894991F80FD05
:101640002BBBDC9A88943BBBCD990894991F892FBA
:1016500008955527002480FF02C0060E571F660F0D
:10166000771F6115710521F096958795009799F779
:10167000952F802D0895991B79E004C0991F961726
:1016800008F0961B881F7A95C9F78095089597FBF7
:10169000092E07260AD077FD04D00CD006D00020F2
:1016A0001AF4709561957F4F0895F6F7909581959E
:1016B0009F4F0895AA1BBB1B51E107C0AA1FBB1F68
:1016C000A617B70710F0A61BB70B881F991F5A95CE
:1016D000A9F780959095BC01CD010895E199FECFC1
:1016E0009FBB8EBBE09A99278DB30895262FE19971
:1016F000FECF1CBA9FBB8EBB2DBB0FB6F894E29AEF
:0C170000E19A0FBE01960895F894FFCF07
:00000001FF
