:1000000013C02DC02CC02BC02AC029C028C027C0B7
:10001000CEC425C024C033C222C021C020C01FC00E
:100020001EC002900303000011241FBECFE5D2E0E2
:10003000DEBFCDBF10E0A0E6B0E0E6E0F7E102C031
:1000400005900D92A636B107D9F711E0A6E6B0E00B
:1000500001C01D92A23CB107E1F78ED652CBD0CFA2
:10006000CF92EF92FF920F93742FF901262F30E079
:1000700040E050E02170307040705070AAE1220FD3
:10008000331F441F551FAA95D1F790E0A0E0B0E0C0
:1000900083709070A070B0706BE1880F991FAA1FD9
:1000A000BB1F6A95D1F7282B392B4A2B5B2BCF012D
:1000B000A0E0B0E0EEE0880F991FAA1FBB1FEA95F1
:1000C000D1F7282B392B4A2B5B2B872F90E0A0E010
:1000D000B0E08F709070A070B07066E1880F991FCB
:1000E000AA1FBB1F6A95D1F7282B392B4A2B5B2BF4
:1000F000C701A0E0B0E0F2E0880F991FAA1FBB1F64
:10010000FA95D1F7282B392B4A2B5B2B602F70E007
:1001100080E090E06F70707080709070EAE0660F21
:10012000771F881F991FEA95D1F7262B372B482B6D
:10013000592B8C2D90E0A0E0B0E081709070A07001
:10014000B070880F991FAA1FBB1F282B392B4A2B71
:100150005B2BB901CA010F91FF90EF90CF900895EA
:10016000A8E0B0E0E5EBF0E075CAC82EDD24EE248F
:10017000FF241AE0CC0CDD1CEE1CFF1C1A95D1F7F5
:1001800080E090E0B2E0660F771F881F991FBA9554
:10019000D1F76C297D298E299F2969837A838B83E6
:1001A0009C838CEF9FE3A0E0B0E08D839E83AF83C0
:1001B000B88780E08E010F5F1F4FB80171D981E0D1
:1001C000B8016ED982E0B8016BD983E0B80168D973
:1001D00084E0B80165D9D701C6018C6F936089832B
:1001E0009A83AB83BC8385E0B8015AD92896E8E0AE
:1001F0004DCACF92EF92FF920F931F93482F9B010E
:10020000E0901001F0901101009112011091130182
:10021000C801B70156E196958795779567955A95E8
:10022000D1F7962F9F708EE016950795F794E79477
:100230008A95D1F78FEFE822FF2480E060E0092F54
:10024000CC240EDF60931001709311018093120192
:10025000909313018091150180648093150181E0D2
:10026000809314011F910F91FF90EF90CF9008950C
:10027000A0E0B0E0EDE3F1E0E7C9162FA42E282FAF
:1002800030E0C90168E270E0B6D9EC012A964091ED
:10029000A2015091A30163E0493E560710F0EC0122
:1002A0006E962A553E4FF9018081882309F4BBC020
:1002B000CE01039610DA782ECE0102960CDAD82EF3
:1002C000872D8751823008F04AC0AA24BB2472E0EF
:1002D000672E4501880C991CC40104968C0F9D1F44
:1002E000FAD9E82EFF24E114F10409F49CC020910E
:1002F000B9013091BA0180E060E0409194000D2D89
:10030000CC24AEDE60931001709311018093120132
:1003100090931301F72DF73131F4113011F487E187
:1003200007C089E105C0113011F488E101C08AE1FC
:1003300080931501C40105968C0F9D1FCCD9809325
:1003400016016092140180E191E0F8D70894A11C95
:10035000B11C68E0A616B10409F0BBCF64C011302F
:1003600009F42A96CE010396B6D9182FCE0102962B
:10037000B2D9082FCE01AFD9E82EFF24CE010196C5
:10038000AAD9382F20E0E20EF31EE114F10409F49B
:100390004AC02091B9013091BA0180E060E04091FB
:1003A0009400CC245DDE6093100170931101809362
:1003B00012019093130110931501AA2021F4CE018C
:1003C000049689D9A82EA0921601CE01059683D94C
:1003D00080931701CE0106967ED980931801CE0135
:1003E000079679D980931901CE01089674D9809324
:1003F0001A01CE0109966FD980931B018091A20149
:100400009091A3018B35910520F08091A5018F5F1C
:1004100002C08091A50180931C0188E080931401A3
:1004200080E191E08BD7CDB7DEB7EEE029C998E047
:10043000E0912A01F0912B013091630130952081E8
:1004400023232083E091A001F091A10130916C0061
:1004500087FF03C02081232B03C0309520812323F5
:100460002083E0912A01F0912B01208130916301DA
:10047000232B2083915011F0880FDACF08951F921B
:100480000F920FB60F9211244F925F926F927F924C
:100490008F929F92AF92BF92CF92DF92EF92FF9294
:1004A0000F931F932F933F934F935F936F937F937C
:1004B0008F939F93AF93BF93EF93FF93DF93CF936C
:1004C0000F92CDB7DEB781EB82BF8091A2019091F0
:1004D000A30123E08A3E920748F48091A201909103
:1004E000A30101969093A3018093A20180E090E084
:1004F000FC01EE0FFF1FE957FF4F208131812115CD
:10050000310531F020813181215030403183208309
:1005100001968630910561F7809167008F5F809327
:100520006700823008F4ADC01092670020E00CC074
:10053000E22FF0E0EE0FFF1FE55CFE4F808191811E
:10054000181619062CF02F5F80919300281780F35E
:1005500080919300281708F071C040E0FF24EE243A
:1005600021E0622E712CCC24C3945BC0442389F417
:10057000EF2DF0E0EE0FFF1FE55CFE4F80819181D3
:10058000181619062CF4808191810197918380833C
:10059000F3944F5F433009F440E089010B561F4F3D
:1005A000D801DC9084E6882E81E0982E820E931E7E
:1005B000F40160815C912F2D30E0220F331FAAEDF2
:1005C0004A2EA0E05A2E420E531ED2018D919C91CC
:1005D000FBE3AF2EF1E0BF2EA20EB31ED501ED91CD
:1005E000FC91D2012D913C9170E0651B71098E1B2D
:1005F0009F0B01D8B90111D88D2D860F498317DFC4
:10060000F501808191814981009741F4D2011196D1
:100610007C926E92F4018081D8018C93C092D900B3
:10062000E3942E2D30E08091930090E063E070E041
:10063000E2D7281739070CF499CF19C08091D90057
:100640008823F9F01092D90000E006C02B563F4FE6
:10065000F9018081ECDE0F5F202F30E08091930064
:1006600090E063E070E0C7D7281739077CF3E0918A
:100670002A01F0912B01909163019095808189234B
:1006800080833091BB0186B329B390E0877090706E
:10069000E3E0880F991FEA95E1F72770282B2327BD
:1006A00080916B008223809580936B0090916A000B
:1006B0009223982790936A00282329238091BB01D5
:1006C00082278093BB018091A4019091BB0192236A
:1006D000982B9093A4019091BB018091860089236F
:1006E00041F480912C0190912D01909369008093A9
:1006F000680080916800909169000197909369006B
:1007000080936800009791F480910E0190910F0101
:100710009093690080936800909129012091BB011A
:10072000809186008223892B809329010F90CF919D
:10073000DF91FF91EF91BF91AF919F918F917F9149
:100740006F915F914F913F912F911F910F91FF906A
:10075000EF90DF90CF90BF90AF909F908F907F9061
:100760006F905F904F900F900FBE0F901F90189555
:1007700026B349B330E02770307053E0220F331FA7
:100780005A95E1F750E047705070242B352B90E0DC
:100790002823392381E02115310509F480E00895EB
:1007A000F8949091A40189239091A40198279093A3
:1007B000A40178940895F894909129018923909147
:1007C000290198279093290178940895F89490919D
:1007D000BB0190958923E4DF0895EDDFE1DF089503
:1007E000A6E0B0E0E5EFF3E031C7EDE6F0E088E049
:1007F00091E0AF012FEFDA012D93AD01DC011D92E5
:10080000CD01B0E043375B07B1F7F090660020E020
:1008100030E0BB24BA9416E0A12EE22EFF2009F0AE
:100820004DC0B901660F771FAAE7CA2EA0E0DA2EE5
:10083000C60ED71ED6010D911C911197A9014C58D7
:100840005F4FC9018E5F9E4F101611069CF50D91EA
:100850001C9111970150104011961C930E93DA01D0
:100860001C91DC018C91DA010C91AB01435E5E4F6F
:10087000DA016D917C91D601CD90DC90DA018D90FA
:100880009C9090E06C197D09801B9109B4D6B4014D
:10089000C4D6160FD901A15DBE4F1C938C91843034
:1008A00008F41C92D901A15DBE4F8C918C3F30F0B1
:1008B000BC9204C0DC018C91DA018C930DE610E04F
:1008C00040E0C901815D9E4F0EC0DC016C91D801F2
:1008D0005D918D01561730F088E091E00DE610E053
:1008E00055E012C04F5F4E1580F3F6CFD801159634
:1008F0006C91159716966C93DC0115966C91159773
:1009000016966C9316975150015010400197451759
:1009100068F3042F10E0C901815D9E4FDC016C91EA
:10092000A80143595F4FDA016C93DC018C91D80127
:10093000A85FBE4F8F3F11F4AC9201C0EC922F5FC5
:100940003F4F2630310509F068CFFF2021F0FA949F
:10095000F092660003C084E080936600BE016E5F83
:100960007F4FCB019F013196D90111964C91119780
:100970002C91421BDC014D93CD01B0E0E237FB0727
:1009800089F73497CE01079620E0DB013D91BD0148
:100990003193230FA817B907C1F7822F8095909143
:1009A0006D00891B809373002696ECE06BC61F9246
:1009B0000F920FB60F9211242F933F934F935F9393
:1009C0006F937F938F939F93AF93BF93EF93FF9317
:1009D0008091D100882309F040C002DF9091D100BE
:1009E00001C09F5FE92FF0E0E359FF4F808188232A
:1009F00011F49730B0F39093D10090E0880F991FD5
:100A0000809590959DBD8CBDECEAF1E080E090E092
:100A1000DC01A15DBE4F2C91222359F0DC01AE52C6
:100A2000BF4F3C91332329F0A081B1812C91232B1E
:100A30002C93019632968630910551F78091D10022
:100A40008F5FE82FF0E0E359FF4F9081992311F475
:100A50008730B0F38093D1003DC0E091D100F0E049
:100A6000E95FFE4FE081F0E0DF01AE52BF4F8C91B5
:100A7000882361F0EE0FFF1FE455FE4F0190F081D7
:100A8000E02D982F90958081892380839091D100CB
:100A90009F5F9093D100E92FF0E0E459FF4F8081F0
:100AA000882311F49730C8F290E0880F991F809541
:100AB00090959DBD8CBD8091D10008C0E82FF0E0DD
:100AC000E359FF4F9081992329F48F5F8730B0F36A
:100AD000873021F08091D100873011F41092D1003D
:100AE000FF91EF91BF91AF919F918F917F916F9106
:100AF0005F914F913F912F910F900FBE0F901F90DC
:100B00001895A4E0B0E0E6E8F5E09AC58BE08EBD6C
:100B10008AEF9FEF9DBD8CBD609A85E083BF81EB1E
:100B200082BF89B7816089BF1092D800A5E32A2EC1
:100B3000A1E03A2EFCEBCF2EF1E0DF2E8DE590E028
:100B40009C838B8302ED10E0ECEAAE2EE1E0BE2E3A
:100B5000EE24FF2478E3872E912C6BE3462E512C54
:100B60003701660C771CC301845D9E4FEA82B3D5C2
:100B7000382FF10181931F01C301835D9E4F39839B
:100B8000AAD5F6018083F701E15DFE4F108239811D
:100B90002A813C3060F43A3008F060C0313008F40B
:100BA000D2C0353050F0353009F0CDC042C0832F6F
:100BB0008451823008F0C7C051C0323001F588E35B
:100BC00091E02A8388D590E06AE070E014D5909394
:100BD0002D0180932C0189E391E07DD590E06AE0BE
:100BE00070E009D590930F0180930E0180918600EB
:100BF000EB81FC819381892B809386002A812330AD
:100C000060F49BB3EB81FC818381809589238BBB4E
:100C10009AB383818095892372C098B3EB81FC815C
:100C200080818095892388BB97B3808180958923B3
:100C300089C0233008F087C09BB3EB81FC8183819E
:100C4000809589238BBB9AB38381809589238ABB46
:100C5000E7B8F0E1F3B981E086B975C03431A1F4A9
:100C6000233040F450922B0140922A01EB81FC8109
:100C7000838107C090922B0180922A01EB81FC8135
:100C800080818093630118C03531B1F4233050F472
:100C90005092A1014092A001EB81FC81838180935D
:100CA0006C000CC09092A1018092A001EB81FC81AC
:100CB000808180936C0025C0233018F5F5015182A6
:100CC00040823B3031F4EB81FC818381F8018083E9
:100CD00011C0F6019081EB81FC818381992321F081
:100CE0009BB3982B9BBB04C09BB3809589238BBB84
:100CF000F80110828AB3EB81FC819381892B8ABB36
:100D000022C0F501918280823B3031F4EB81FC817D
:100D10008081F801808311C0F6018081EB81FC8124
:100D20009081882329F028B3892F8095822302C0DF
:100D300088B3892B88BBF801108287B3EB81FC81D3
:100D40009081892B87BB0894E11CF11C0894C11C7D
:100D5000D11C8B819C8101969C838B830F5F1F4FDD
:100D6000E2E0F0E0AE0EBF1EF6E0EF16F10409F08F
:100D7000F7CE2496E2E180C480E190E09093BA013E
:100D80008093B90181E08093940080E090E0A3D447
:100D90008A3BF1F481E090E09ED48A3CC9F482E081
:100DA00090E099D4C82FD0E0D093BA01C093B90194
:100DB00083E090E090D4382F20E0C20FD31FD0936F
:100DC000BA01C093B90184E090E085D48093940087
:100DD0003DD36091B9017091BA0180919400C0D95E
:100DE00011E01093A6011093A7011093A80110938E
:100DF000A9011093AA011093AB0183DE789420918E
:100E0000B9013091BA0180E060E04091940000E0C7
:100E1000F1E0EF2EF12CCC2423D9609310017093D4
:100E20001101809312019093130182E080931501C8
:100E30001093140180E191E081D2CC24C394E1E0CD
:100E40006E2E712C74E0972ECFC0DD0CEC2EF501C8
:100E50008081843009F452C0853040F48230A1F0A2
:100E6000833018F5813009F0B5C007C0853009F42A
:100E700098C0883008F0AEC050C08D2D91DC88231A
:100E800009F4A8C08C2F05C08D2DA0DC882319F093
:100E90008C2F60E007C08D2DA0DC882309F49AC058
:100EA0008C2F61E040E0E4D995C07E01EE0CFF1C80
:100EB00087E890E0E80EF91EF701808191810097A4
:100EC00009F088C08D2D6CDC882389F08C2F60E0C0
:100ED00040E0CED9F801808190E064E670E08BD3E9
:100EE000F7019183808380912E018D2957C08091D5
:100EF0002E018D2109F46EC08C2F48C08D2D50DC41
:100F00008823B1F1FE01EE0FFF1FE957FF4F8081EB
:100F100091810097D9F48C2F16C08D2D29DC91E09A
:100F2000811190E0F5018081873009F49C25992397
:100F3000F9F0FE01EE0FFF1FE957FF4F808191810D
:100F4000009721F48E2D60E040E092D9F801808175
:100F500090E064E670E04FD3FE01EE0FFF1FE9570B
:100F6000FF4F9183808380912E018D2980932E01E4
:100F7000FE01EE0FFF1FE957FF4F8081918100971F
:100F800049F580912E018D2129F18E2D61E040E0FF
:100F90006FD99D2D909580912E01892380932E01EC
:100FA00019C07E01EE0CFF1C27E830E0E20EF31EB4
:100FB000F70180819181009769F445B18C2F60E041
:100FC00057D9F801808190E064E670E014D3F7010E
:100FD0009183808321960894A11CB11C0F5F1F4F41
:100FE000C630D10509F031CF80E191E0F3D1809393
:100FF000B8018F3359F485E3A82E81E0B82E0CEBAD
:1010000011E0C0E0D0E0DD24D39420CF00911501A1
:10101000109116016091B9017091BA01809194000C
:10102000E8D8073178F4043108F04DC00E3041F1B2
:101030000F3018F40D30C1F616C00F3099F10031A1
:1010400099F63AC0033309F4ABC0043330F40732E5
:1010500009F470C0023341F66DC0053309F4F3C0E2
:10106000063311F6F6C03090170122248091160144
:101070009101280F311DC9012ED3809318010CC096
:1010800050901701442480911601F201E80FF11DE0
:10109000CF016091180127D39092140180E191E073
:1010A0004DD1A2CF2CE088E190E00FB6F894A8953E
:1010B00081BD0FBE21BDFFCF1092A3011092A201EE
:1010C0001093A50191CF1150163008F08DCF212F2C
:1010D00030E0F901EB5CFE4F80818A50823008F0ED
:1010E00083CF043141F0053141F0F901E15DFE4F5C
:1010F0008081809503C08FEF01C080E0F901E15D40
:10110000FE4F9081F901EC58FF4F9083F901EE5F9B
:10111000FE4F8083F901E454FE4F8081220F331F7C
:10112000882311F090E032C0F901E35EFE4F718236
:10113000608231C0073211F493E001C090E0115099
:10114000163008F051CF212F30E0D901AB5CBE4FF3
:101150008C918A50823008F047CFD901A15DBE4FF3
:101160008C91D901AC58BF4F8C93E92FF0E0E05F30
:10117000FE4F8781D901AE5FBE4F8C93808590E092
:1011800065E070E038D20196220F331FF901E35E6B
:10119000FE4F918380838081918126583F4F4FC0BD
:1011A000212F30E0243131050CF01ECF80919300C7
:1011B00090E02817390714F01F5F02C010919300C8
:1011C00010939300C90163E070E015D2EC01CC5993
:1011D000DE4F4881FC01EB56FF4F4083AC014F5F6F
:1011E0005F4FDA01AC59BE4F6C914B565F4FFA011D
:1011F00060830296BC016C597E4FFB0140818B5687
:101200009F4FFC01408380911701888380911801D2
:101210008C9380911901FB01808380911A0190E0E9
:1012200065E070E0E8D10196220F331FF901E55C1B
:10123000FE4F918380838081918126523F4FF90137
:1012400091838083D1CEE12FF0E0EB55FE4FC08239
:10125000CBCEE12FF0E0EB55FE4F1082C5CE1F93B1
:10126000182FDF9883E080D1812F7ED18FEF7CD142
:10127000DF9A1F910895A1E0B0E0E0E4F9E0EFC14A
:10128000182FDF9882E069836FD1812F6DD169813A
:10129000862F6AD1DF9A2196E3E0FDC1DF9864D101
:1012A0008FEF62D1DF9A08950F931F93CF93DF934F
:1012B000EC018FEF59D1082F8FEF56D1182F83FFF4
:1012C0001BC0202F30E085E0220F331F8A95E1F705
:1012D0003B832A838FEF48D18983812F83709A8142
:1012E000892B1695169516951C71812B8A838FEF85
:1012F0003BD1888381E001C080E0DF91CF911F91D5
:101300000F910895CF93DF93EC018A819B8125E0B3
:10131000969587952A95E1F727D18A81982F990F7D
:10132000990F990F907E98608370892B1DD18981C8
:101330001BD1888119D1DF91CF910895FF920F932E
:101340001F93CF93DF93EC0180EAA8DF82FF06C0F2
:1013500084FF06C086FDF8CF14E003C010E001C092
:1013600012E0DF98812F8064FFD0CE01CBDF0C81AB
:101370000F70802FF9D02596FF2403C08991F4D0F7
:10138000F394F016D8F3DF9A00000000DF981123E1
:1013900009F411E0812F8068E7D0DF9A812FCDB763
:1013A000DEB7E5E076C1A2E0B0E0E8EDF9E057C1D4
:1013B000182FDF9885E04A836983D6D0812FD4D057
:1013C0006981862FD1D04A81842FCED0DF9A229690
:1013D000E3E061C1EF92FF920F931F93CF93DF93EE
:1013E000EC01CB992EC080EB59DF282F30E089012A
:1013F0000074107086FD04C087FF23C084E901C01B
:1014000080E9DF98B1D0CE014FDF8FEFADD03FE064
:10141000E32EE822EC822596FF2404C08FEFA4D0AF
:101420008993F394FE14D0F3DF9A0115110519F096
:101430008CE261E002C08CE262E040E0B4DF80E474
:1014400001C08FE3CDB7DEB7E6E022C1CF93DF93D3
:1014500082D0D398DB9ADF9880EC86D0DF9A88EE32
:1014600093E00197F1F7DF9882E07ED088E27CD0AC
:10147000C0E0D0E0FE01EE5DFF4F849175D0219673
:10148000C530D105B9F7DF9A80E664E4F4DE80E781
:1014900060E4F1DE8FE060E0EEDEDF91CF91089551
:1014A000FF920F931F93CF93DF93F82EEB018630BB
:1014B00008F04CC08FE060EE40E875DF00E810E017
:1014C0008EE0CDDE282F332727FD3095207E30702B
:1014D00020173107A9F7FF2029F08F2D823081F4E2
:1014E00004E201C000E2DF9882E03ED0802F3CD0D1
:1014F000CE01049607DF00000000DF9A0000000024
:101500008F2D833020F08DEFF80E00E101C000E058
:10151000DF9882E029D08F2D880F880F802B24D070
:10152000CE01F0DE00000000DF9A00000000FF2086
:1015300011F480E604C08F2D823019F480E760E456
:101540009ADE8FE060E097DE81E001C080E0CDB7F9
:10155000DEB7E5E09EC0DF9AD79ADC98DE98DD988A
:10156000D49AD69AD598089590E02BB32F7E322F37
:10157000206487FD2BBBDC9A88943BBBCD990894F3
:10158000991F86FD2BBBDC9A88943BBBCD990894B0
:10159000991F85FD2BBBDC9A88943BBBCD990894A1
:1015A000991F84FD2BBBDC9A88943BBBCD99089492
:1015B000991F83FD2BBBDC9A88943BBBCD99089483
:1015C000991F82FD2BBBDC9A88943BBBCD99089474
:1015D000991F81FD2BBBDC9A88943BBBCD99089465
:1015E000991F80FD2BBBDC9A88943BBBCD99089456
:1015F000991F892F08955527002480FF02C0060EE9
:10160000571F660F771F6115710521F09695879515
:10161000009799F7952F802D089597FB092E07269F
:101620000AD077FD04D043D006D000201AF470957C
:1016300061957F4F0895F6F7909581959F4F089596
:101640002F923F924F925F926F927F928F929F92D2
:10165000AF92BF92CF92DF92EF92FF920F931F93C0
:10166000CF93DF93CDB7DEB7CA1BDB0B0FB6F89471
:10167000DEBF0FBECDBF09942A88398848885F84B1
:101680006E847D848C849B84AA84B984C884DF8022
:10169000EE80FD800C811B81AA81B981CE0FD11D06
:1016A0000FB6F894DEBF0FBECDBFED010895AA1BA3
:1016B000BB1B51E107C0AA1FBB1FA617B70710F03D
:1016C000A61BB70B881F991F5A95A9F7809590956F
:1016D000BC01CD010895E199FECF9FBB8EBBE09A7E
:1016E00099278DB30895262FE199FECF1CBA9FBB91
:1016F0008EBB2DBB0FB6F894E29AE19A0FBE01960D
:061700000895F894FFCFEC
:061706000102040810209E
:00000001FF
