:1000000027C036C035C034C033C032C0CFC230C0C4
:100010002FC02EC02DC0C7C02BC02AC029C028C0E9
:1000200027C00008100000080000000800000000C1
:100030000080000800000008000000080000000028
:10004000008000083FE2FFEBFFFF02900303000087
:1000500011241FBECFE5D2E0DEBFCDBF11E0A0E688
:10006000B0E001C01D92AF32B107E1F7EFD573CA1E
:10007000C7CFAF92BF92CF92DF92EF92FF920F93D2
:100080001F937B01A090BD00B090BE00C090BF0048
:10009000D090C00000E010E0EEE0EE0CFF1C001F6E
:1000A000111FEA95D1F77EE0D694C794B794A79430
:1000B0007A95D1F79501307040E050E062E0220F70
:1000C000331F441F551F6A95D1F7E22AF32A042BE8
:1000D000152B90E0A0E0B0E08F709070A070B07031
:1000E00046E1880F991FAA1FBB1F4A95D1F7E82A3E
:1000F000F92A0A2B1B2BAB2CBC2CCD2CDD248FE03A
:10010000A8228A2D90E0A0E0B0E02AE0880F991F95
:10011000AA1FBB1F2A95D1F7E82AF92A0A2B1B2B05
:10012000E092BD00F092BE000093BF001093C000AB
:100130008091C20080648093C20081E08093C100FE
:100140001F910F91FF90EF90DF90CF90BF90AF90F5
:100150000895382F28E0E091CB00F091CC009081F9
:100160008091DE00809589238083E0911B01F091CE
:100170001C019091660037FF04C08081892B808329
:1001800004C08081909598239083E091CB00F091FA
:10019000CC0080819091DE00892B8083215011F06A
:1001A000330FD9CF08951F920F920FB60F921124DB
:1001B0000F931F932F933F934F935F936F937F936F
:1001C0008F939F93AF93BF93EF93FF9381EB82BF86
:1001D00080911D018A3F28F480911D018F5F8093DB
:1001E0001D0120E030E0F901EE0FFF1FE259FF4F43
:1001F00080819181892B29F0808191810197918360
:1002000080832F5F3F4F2630310569F78091600072
:100210008F5F80936000823008F498C01092600075
:100220008091DC009091DD00892B09F464C08091FD
:10023000DC009091DD0001979093DD008093DC005D
:1002400000E020C0FD01E458FF4F10814081609123
:10025000B9007091BA002091DC003091DD00E0918E
:10026000B900F091BA00A152BF4F8C9190E0621B8F
:10027000730B841B910933D9BF0143D9812F860F9A
:1002800068DF0F5FA02FB0E080917A0090E063E01C
:1002900070E025D9A817B907ACF2E091CB00F09136
:1002A000CC0090818091DE008095892380838091AD
:1002B000DC009091DD00892B09F048C081E090E0DE
:1002C0009093BA008093B90080917A0090E063E047
:1002D00070E005D9AC0120E008C0FD01E152FF4FFC
:1002E0008081A458BF4F8C932F5FA22FB0E0A4173A
:1002F000B5079CF32BC08091B9009091BA0002978A
:1003000028F18091B9009091BA0001979093BA00BA
:100310008093B90010E005C0E458FF4F808119DFD9
:100320001F5FE12FF0E080917A0090E063E070E0E1
:10033000D6D8E817F90784F3E091CB00F091CC0010
:1003400090818091DE0080958923808330912801FF
:1003500086B329B390E087709070F3E0880F991FFF
:10036000FA95E1F72770282B2327809164008223D8
:1003700080958093640090916300922398279093D6
:100380006300822389239091280198279093280164
:1003900020911E01909128018923822B80931E01B8
:1003A0009091280180916D00892341F48091CD00C6
:1003B0009091CE00909362008093610080916100E3
:1003C0009091620001979093620080936100892B65
:1003D00091F48091BB009091BC0090936200809357
:1003E00061002091CA009091280180916D008923BD
:1003F000822B8093CA00FF91EF91BF91AF919F91A3
:100400008F917F916F915F914F913F912F911F91AC
:100410000F910F900FBE0F901F90189526B349B300
:1004200060E030E027703070B3E0220F331FBA95E0
:10043000E1F750E047705070242B352B90E02823D3
:100440003923232B09F061E0862F0895F8949091C9
:100450001E01892390911E01982790931E01789484
:100460000895F8949091CA0089239091CA00982722
:100470009093CA0078940895F89490912801F89484
:1004800020911E0190958923822390911E01982727
:1004900090931E0178940895982FF8948091CA0043
:1004A00098238091CA0089278093CA007894F89491
:1004B00080911E01892390911E01982790931E011F
:1004C0007894089580E090E0FC01E959FF4F108294
:1004D000FC01E15EFE4F1082019686309105A1F786
:1004E00040E050E039C08C91F901E959FF4F90810B
:1004F0002F5F3F4F891720F495E024E030E018C0CB
:10050000622F271780F3F8CFA92FB0E0F901E9593E
:10051000FF4F8081FD01E959FF4F8083F901E15EC2
:10052000FE4F8081A15EBE4F8C9391502150304090
:10053000691750F3A62FB0E0FA01E053FF4F808116
:10054000FD01E959FF4F8083A15EBE4F7C934F5F51
:100550005F4F4630510539F0742F20E030E0DA016A
:10056000A053BF4FCDCF20E030E0D9012F5F3F4FE8
:10057000F901E959FF4F8081A959BF4F9C91891B0F
:100580008C932530310589F780916B0090916A003A
:100590002091690030916800409167008095891B27
:1005A000821B831B841B80936C0008951F920F9203
:1005B0000FB60F9211242F934F935F936F937F93F6
:1005C0008F939F93AF93BF93EF93FF938091B80066
:1005D000882359F540E050E061E070E0DA01A15E67
:1005E000BE4FEC91F0E0E053FF4F80818823C1F0D3
:1005F0008C91833050F42BB3FB0102C0EE0FFF1F30
:100600008A95E2F72E2B2BBB0BC028B390E0039703
:10061000FB0102C0EE0FFF1F8A95E2F72E2B28BBCD
:100620004F5F5F4F46305105C9F6FF91EF91BF9183
:10063000AF919F918F917F916F915F914F912F918A
:100640000F900FBE0F901F9018953F924F925F92A0
:100650006F927F928F929F92AF92BF92CF92DF92D2
:10066000EF92FF920F93CF93DF9382E08EBD1DBC7C
:100670001CBC88EE93E09BBD8ABD619A85E083BF78
:1006800081EB82BF89B7816089BFC0E0D0E04DEFC8
:10069000C42E4FEFD42E31E0A32EB12C28E3422EEE
:1006A000512C9BE3692E712C80E1382E8824839491
:1006B0009C2E7E01EE0CFF1CC701845D9E4F35D73A
:1006C000082FFE01EA52FF4F8083C701835D9E4FD2
:1006D0002CD7282FFE01E75DFE4F8083FE01E053FB
:1006E000FF4F10820C3060F40A3008F068C001300F
:1006F00008F4EFC0053050F0053009F0EAC049C0F9
:10070000802F8451823008F0E4C059C0023011F5C6
:1007100088E391E00AD790E06AE070E0E0D6909339
:10072000CE008093CD0089E391E0FFD690E06AE0AF
:1007300070E0D5D69093BC008093BB0020916D00F3
:10074000C5010C2E02C0880F991F0A94E2F7282BCE
:1007500020936D0082E0891570F08BB395010C2E0B
:1007600002C0220F331F0A94E2F7209582238BBB2D
:100770008AB328238AC088B395010C2C02C0220FAB
:10078000331F0A94E2F72095822388BB87B328237E
:100790009FC082E08C1708F49CC08BB395010C2E8F
:1007A00002C0220F331F0A94E2F7209582238BBBED
:1007B0008AB328232ABBC7B933B886B88AC00431A4
:1007C000F9F482E0891570F07092CC006092CB0051
:1007D000C5010C2E02C0880F991F0A94E2F780937E
:1007E000DE0032C05092CC004092CB00C5010C2CF0
:1007F00002C0880F991F0A94E2F78093DE0021C09F
:100800000531F9F482E0891570F070921C01609254
:100810001B01C5010C2E02C0880F991F0A94E2F734
:100820008093660011C050921C0140921B01C501CB
:100830000C2C02C0880F991F0A94E2F7809366007F
:1008400026C082E0891518F1222359F02BB3C50187
:100850000C2E02C0880F991F0A94E2F7282B2BBB9D
:100860000BC02BB3C5010C2E02C0880F991F0A9430
:10087000E2F7809582238BBB2AB3C5010C2E02C000
:10088000880F991F0A94E2F7282B2ABB22C0222343
:1008900061F028B3C5010C2C02C0880F991F0A947F
:1008A000E2F78095822388BB0AC028B3C5010C2CCF
:1008B00002C0880F991F0A94E2F7282B28BB27B3A0
:1008C000C5010C2C02C0880F991F0A94E2F7282B4F
:1008D00027BB21960894C11CD11CC630D10509F054
:1008E000E7CEDF91CF910F91FF90EF90DF90CF9007
:1008F000BF90AF909F908F907F906F905F904F9040
:100900003F9008958F929F92AF92BF92CF92DF92C5
:10091000EF92FF920F931F93CF93DF93C62EE42E97
:1009200020911D0190E068E270E0D9D5EC012A9693
:10093000293C10F0EC016E96CE010396F6D5B82E48
:10094000CE010296F2D5982F8B2D8751823008F078
:1009500083C0E92EFF2400E010E08FE090E0A0E0EB
:10096000B0E0E822F9220A231B23BAE0EE0CFF1CB8
:10097000001F111FBA95D1F72496DD24A2E0AA2EFC
:10098000F0E18F2EF7E29F2ECE01CFD5282F30E059
:100990002115310509F4EFC040E050E0E2E0220FFC
:1009A000331F441F551FEA95D1F72E293F29402BAD
:1009B000512B8091260190912701A0E0B0E07EE0CC
:1009C000880F991FAA1FBB1F7A95D1F7282B392BA7
:1009D0004A2B5B2B80917B0090E0A0E0B0E08F7011
:1009E0009070A070B07066E1880F991FAA1FBB1F9E
:1009F0006A95D1F7282B392B4A2B5B2B2093BD000E
:100A00003093BE004093BF005093C00097E1B916E9
:100A100039F4A1E0CA1611F089E108C087E106C0E7
:100A2000B1E0CB1611F08AE101C088E18093C200E9
:100A3000CE0101967AD58093C300A092C100C40173
:100A40000197F1F78DEB90E067D4D394229688E07C
:100A5000D81609F099CF8FC091E0C91609F42A96EB
:100A6000CE01039662D5D82ECE0102965ED5F82E21
:100A7000CE015BD5082F10E0CE01019656D5382F58
:100A800020E0B901600F711F6115710509F473C091
:100A90002F2D30E040E050E02F70307040705070EB
:100AA000AAE0220F331F441F551FAA95D1F780914A
:100AB0007B0090E0A0E0B0E08F709070A070B0700C
:100AC000F6E1880F991FAA1FBB1FFA95D1F7282BB3
:100AD000392B4A2B5B2B8091260190912701A0E0B6
:100AE000B0E0EEE0880F991FAA1FBB1FEA95D1F76F
:100AF000282B392B4A2B5B2BCB01A0E0B0E062E026
:100B0000880F991FAA1FBB1F6A95D1F7282B392B75
:100B10004A2B5B2B2093BD003093BE004093BF0057
:100B20005093C000D092C200EE2021F4CE01049672
:100B3000FCD4E82EE092C300CE010596F6D4809353
:100B4000C400CE010696F1D48093C500CE0107966D
:100B5000ECD48093C600CE010896E7D48093C700FA
:100B6000CE010996E2D48093C80087E08093C1004B
:100B70008DEB90E0D1D3DF91CF911F910F91FF903A
:100B8000EF90DF90CF90BF90AF909F908F9008959F
:100B9000CF92DF92EF92FF920F931F93DF93CF9349
:100BA000CDB7DEB7C850CDBF9B01E82EFF2400E0D3
:100BB00010E09AE0EE0CFF1C001F111F9A95D1F770
:100BC00040E050E082E0220F331F441F551F8A95FA
:100BD000D1F72E293F29402B512B29833A834B8370
:100BE0005C838CEF9FE3A0E0B0E08D839E83AF83B6
:100BF000B88780E06E010894C11CD11CB601FAD3FD
:100C000081E0B601F7D382E0B601F4D383E0B60108
:100C1000F1D384E0B601EED38CEF93E0A0E0B0E036
:100C2000E82AF92A0A2B1B2BE982FA820B831C8300
:100C300085E0B601DFD32896CDBFCF91DF911F911C
:100C40000F91FF90EF90DF90CF9008954F925F92B9
:100C50006F927F928F929F92AF92BF92CF92DF92CC
:100C6000EF92FF920F931F93CF93DF9380E190E079
:100C7000909327018093260181E080937B0080E0A0
:100C800090E053D48A3BF1F481E090E04ED48A3C6A
:100C9000C9F482E090E049D4082F10E010932701B6
:100CA0000093260183E090E040D4382F20E0200F0D
:100CB000311F309327012093260184E090E035D442
:100CC00080937B0064D3609126017091270180910D
:100CD0007B005EDFBADC78942091260130912701F9
:100CE00040E050E07EE0220F331F441F551F7A95ED
:100CF000D1F7246080917B0090E0A0E0B0E08F709D
:100D00009070A070B07066E1880F991FAA1FBB1F7A
:100D10006A95D1F7282B392B4A2B5B2B2093BD00EA
:100D20003093BE004093BF005093C00082E0809398
:100D3000C20081E08093C1008DEB90E0EDD241E0F4
:100D4000642E712C34E0C32E26E0522E92E0492E00
:100D500010C1D02EF801EA52FF4FE081E33009F4D0
:100D600040C0E43030F4E13071F0E23009F0F8C016
:100D700020C0E53009F4DFC0E53008F465C0E63096
:100D800009F0EEC080C0F89480911E019301002EFE
:100D900002C0220F331F0A94E2F7822390911E01B2
:100DA000982790931E017894882309F4D9C0802F46
:100DB0000CC0E301002E02C0CC0FDD1F0A94E2F745
:100DC0008C2F5ADB882319F0802F60E007C08C2F0E
:100DD00063DB882309F4C4C0802F61E040E092DD2A
:100DE000BFC0F801EE0FFF1FE259FF4F80819181D4
:100DF000892B09F0B5C0E301002E02C0CC0FDD1F26
:100E00000A94E2F7F89490911E019C2380911E01B0
:100E1000892780931E017894992309F478C0802F44
:100E200060E040E06FDDF701808190E064E670E013
:100E300056D3F801EE0FFF1FE259FF4F91838083D5
:100E40008091CF008C2B74C0E301002E02C0CC0F28
:100E5000DD1F0A94E2F7F89490911E019C23809183
:100E60001E01892780931E017894992309F446C0B6
:100E7000F801EE0FFF1FE259FF4F80819181892B0E
:100E800059F5802F26C0E301002E02C0CC0FDD1FD4
:100E90000A94E2F786B329B34C2F50E090E08770B4
:100EA000907073E0880F991F7A95E1F730E0277012
:100EB0003070822B932B48235923452BF9F4F801EA
:100EC000EE0FFF1FE259FF4F80819181892B21F4A2
:100ED000802F60E040E016DDF701808190E064E65D
:100EE00070E0FDD2F801EE0FFF1FE259FF4F918332
:100EF00080838091CF008C2B8093CF00F801EE0F80
:100F0000FF1FE259FF4F80819181892B49F5809124
:100F1000CF0090E08C239D23181619060CF58D2D1B
:100F200061E040E0EFDC9E0120958091CF008223BC
:100F30008093CF0015C0E801CC0FDD1FC259DF4FF1
:100F400088819981892B61F445B1802F60E0DADCDA
:100F5000F701808190E064E670E0C1D299838883D4
:100F60000F5F1F4F0894E11CF11C0630110509F0BA
:100F7000F0CE8DEB90E08ED1809325018F3339F444
:100F800029E2E22E21E0F22E00E010E0E2CE009114
:100F9000C200609126017091270180917B0069D881
:100FA0000E3009F488C00F3070F40B3009F43DC0E6
:100FB0000C3018F40A30E9F617C00C3009F454C0AC
:100FC0000D30B9F66BC0023309F491C0033330F42D
:100FD0000F3009F47FC0003161F686C0033309F495
:100FE0009BC0043331F6B5C040E014C0F894809142
:100FF0001E019301042E02C0220F331F0A94E2F750
:10100000822390911E01982790931E017894882343
:1010100039F44F5F463050F3463011F440E0E6CFEC
:101020004093C3004092C1001BC080E090E07DD29D
:101030008093C30081E090E078D28093C40082E086
:1010400090E073D28093C50083E090E06ED28093ED
:10105000C60084E090E069D28093C7005092C1003E
:101060008DEB90E059D185CF8091C3008A3B09F088
:1010700080CF8091C4008A3C09F07BCF82E090E071
:101080006091C5005AD283E090E06091C60055D2CD
:1010900084E090E06091C70050D26BCFB090C40064
:1010A000AA248091C3009501280F311DC9013DD2AA
:1010B0008093C5000CC09090C40088248091C30028
:1010C000F401E80FF11DCF016091C50036D2C09246
:1010D000C100C6CF2CE088E190E00FB6F894A89547
:1010E00081BD0FBE21BDFFCF10921D0142CFE09107
:1010F000C300E63008F03DCFAE2FB0E0FD01EA526C
:10110000FF4F80818A50823008F033CF8091C40035
:10111000A053BF4F8C932DCF8091C300853108F031
:1011200028CF90917A00981708F4982F90937A001E
:1011300090E063E070E0D3D1FC01E152FF4F809179
:10114000C40080838091C50081838091C600828322
:1011500010CF8091C30090E065E070E0C0D10196AF
:101160009093DD008093DC008091DC009091DD00A5
:101170009093BA008093B900FCCEFF920F931F9317
:10118000182F062FF42EDF9885E095D1812F93D16B
:10119000802F91D18F2D8FD1DF9A1F910F91FF90CA
:1011A00008950F931F938C01FC018281938125E0A8
:1011B000969587952A95E1F77ED180936500F80191
:1011C0009281892F880F880F880F807E88609370A6
:1011D000892B71D1F80181816ED1F80180816BD1A9
:1011E0001F910F910895EF92FF920F931F93CF934A
:1011F000DF937C018FEF5FD1182F8FEF5CD1082F29
:10120000C12FD0E083FF1FC08FEF55D180936500C1
:1012100045E0CC0FDD1F4A95E1F7F701D383C28388
:1012200081838FEF48D180936500902F9370F701F1
:101230002281922B0695069506950C71902B928330
:10124000808381E01AC08FEF36D180936500F7016B
:101250001382128233E0CC0FDD1F3A95E1F7D18380
:10126000C0838FEF28D180936500029506950770A3
:10127000F7018081802B808380E0DF91CF911F91E7
:101280000F91FF90EF900895DF9815D18FEF13D154
:10129000DF9A0895CF92DF92FF920F931F93CF931F
:1012A000DF93EC0180EBF0DFF82E90E060E4C62ED7
:1012B000D12CC822D92286FF02C080E906C0F7FCE3
:1012C00003C05FE3F52E1FC084E9DF98F4D0CE01A0
:1012D0008ADF8FEFF0D0082F0F700C8310E007C06B
:1012E0008FEFE9D0FE01E10FF11D85831F5F10171D
:1012F000B8F3DF9ACD2819F08CE261E002C08CE2ED
:1013000062E040E03ADF8F2DDF91CF911F910F9186
:10131000FF90DF90CF9008950F931F93CF93DF93AB
:10132000EC0180EAB1DF80EAAFDF82FDFCCFDF981D
:1013300080E4C1D0CE0135DF0C810F70802FBBD08F
:1013400010E006C0FE01E10FF11D8581B4D01F5FE2
:101350001017C0F3DF9A82E08A95F1F7DF9881E8F1
:10136000AAD0DF9A81E0DF91CF911F910F9108956C
:101370000F931F93182F062FDF9882E09CD0812FA8
:101380009AD0802F98D0DF9A1F910F910895CF9314
:10139000DF9388D0DF9880EC8ED0DF9A88EC90E0E5
:1013A0000197F1F7DF9882E086D080E084D0C2E236
:1013B000D0E0FE0184917FD02196F0E0CF34DF07AA
:1013C000C1F7DF9A80E664E4D3DF80E760E4D0DF32
:1013D0008FE060E0CDDFDF91CF9108951F93182F4C
:1013E000DF9883E068D0812F66D08FEF64D0DF9ADA
:1013F0001F910895EF92FF920F931F93CF93DF9366
:10140000182F7B01863010F080E045C08FE060EE41
:1014100040E8B3DEC0E8D0E08EE0E0DF8C27807EDD
:10142000D9F7112311F400E203C0123081F404E271
:10143000DF9882E040D0802F3ED0C7010496B1DE15
:1014400082E0982F9A95F1F7DF9A8A95F1F7133099
:1014500010F400E002C0135000E1DF9882E02BD0CE
:10146000812F880F880F802B26D0C7019ADE82E05B
:10147000982F9A95F1F7DF9A8A95F1F7112311F4D5
:1014800080E603C0123019F480E760E471DF8FE07A
:1014900060E06EDF81E0DF91CF911F910F91FF90AF
:1014A000EF900895DF9AD79ADC98DE98DD98D49A69
:1014B000D69AD5980895282FDC9880E090E0880F80
:1014C00027FF02C0DE9A01C0DE98DC9ACD998160C8
:1014D000DC989F5F983011F0220FF1CF08955527C7
:1014E000002480FF02C0060E571F660F771F61158C
:1014F000710521F096958795009799F7952F802D86
:101500000895AA1BBB1B51E107C0AA1FBB1FA6174A
:10151000B70710F0A61BB70B881F991F5A95A9F79C
:1015200080959095BC01CD010895E199FECF9FBBB8
:101530008EBBE09A99278DB30895262FE199FECFAF
:101540001CBA9FBB8EBB2DBB0FB6F894E29AE19AF2
:0A1550000FBE01960895F894FFCF36
:00000001FF
