:1000000027C036C035C034C033C032C0BFC230C0D4
:100010002FC02EC02DC0E2C02BC02AC029C028C0CE
:1000200027C00008100000080000000800000000C1
:100030000080000800000008000000080000000028
:10004000008000083FE2FFEBFFFF02900303000087
:1000500011241FBECFE5D2E0DEBFCDBF11E0A0E688
:10006000B0E001C01D92AF32B107E1F7C2D52BCA93
:10007000C7CFAF92BF92CF92DF92EF92FF920F93D2
:100080001F937B01A090BD00B090BE00C090BF0048
:10009000D090C00000E010E0EEE0EE0CFF1C001F6E
:1000A000111FEA95D1F77EE0D694C794B794A79430
:1000B0007A95D1F79501307040E050E062E0220F70
:1000C000331F441F551F6A95D1F7E22AF32A042BE8
:1000D000152B90E0A0E0B0E08F709070A070B07031
:1000E00046E1880F991FAA1FBB1F4A95D1F7E82A3E
:1000F000F92A0A2B1B2BAB2CBC2CCD2CDD248FE03A
:10010000A8228A2D90E0A0E0B0E02AE0880F991F95
:10011000AA1FBB1F2A95D1F7E82AF92A0A2B1B2B05
:10012000E092BD00F092BE000093BF001093C000AB
:100130008091C20080648093C20081E08093C100FE
:100140001F910F91FF90EF90DF90CF90BF90AF90F5
:100150000895682F38E041E050E0E091CB00F09145
:10016000CC002081CA010090DE0002C0880F991FD8
:100170000A94E2F7809582238083E0911B01F0913D
:100180001C018091660067FF0AC02081DA0102C06D
:10019000AA0FBB1F8A95E2F72A2B20830BC0208170
:1001A000DA0102C0AA0FBB1F8A95E2F7CD01809544
:1001B00082238083E091CB00F091CC002081CA01A2
:1001C0000090DE0002C0880F991F0A94E2F7282BE6
:1001D0002083315011F0660FC0CF08951F920F9207
:1001E0000FB60F9211241F932F933F934F935F935A
:1001F0006F937F938F939F93AF93BF93EF93FF93EF
:1002000081EB82BF80911D01883C18F48F5F809341
:100210001D01EEE6F0E080819181009719F00197D1
:1002200091838083329680E0EA37F807A1F78091C6
:1002300060008F5F80936000823008F49AC0109253
:1002400060008091DC009091DD00009709F462C0AD
:1002500001979093DD008093DC0010E01CC0FD014D
:10026000E458FF4F4081E091B900F091BA00A152EB
:10027000BF4F8C9190E02091DC003091DD00BF01F8
:10028000621B730B841B9109E2D8BF01F2D8842F43
:10029000860F5FDF1F5FA12FB0E080917A0090E0B2
:1002A00063E070E0D4D8A817B907CCF2E091CB0096
:1002B000F091CC00208141E050E0CA010090DE00C6
:1002C00002C0880F991F0A94E2F7809582238083E9
:1002D0008091DC009091DD00892B09F04AC0509399
:1002E000BA004093B90080917A0090E063E070E03A
:1002F000AED8AC0120E008C0FD01E152FF4F808183
:10030000A458BF4F8C932F5FA22FB0E0A417B5075E
:100310009CF32FC08091B9009091BA008230910572
:1003200040F101979093BA008093B90010E005C0A6
:10033000E458FF4F80810DDF1F5FE12FF0E08091D7
:100340007A0090E063E070E082D8E817F90784F360
:10035000E091CB00F091CC00208181E090E0009012
:10036000DE0002C0880F991F0A94E2F7809582236D
:1003700080833091280186B329B390E08770907014
:10038000F3E0880F991FFA95E1F72770282B2327B0
:100390008091640082238095809364009091630033
:1003A00092239827909363008223892390912801B8
:1003B00098279093280120911E019091280189236C
:1003C000822B80931E019091280180916D008923DA
:1003D00041F48091CD009091CE0090936200809383
:1003E000610080916100909162000197909362009A
:1003F00080936100892B91F48091BB009091BC00A7
:1004000090936200809361002091CA00909128012E
:1004100080916D008923822B8093CA00FF91EF9118
:10042000BF91AF919F918F917F916F915F914F910C
:100430003F912F911F910F900FBE0F901F90189515
:10044000F89490911E01892390911E019827909312
:100450001E0178940895F8949091CA008923909190
:10046000CA0098279093CA0078940895F8949091C0
:100470002801F89420911E01909589238223909160
:100480001E01982790931E0178940895982FF89450
:100490008091CA0098238091CA0089278093CA005E
:1004A0007894F89480911E01892390911E019827D9
:1004B00090931E01789408950F931F93CF93DF9329
:1004C00080E090E0FC01E959FF4F1082FC01E15E01
:1004D000FE4F1082019686309105A1F760ED70E025
:1004E00050E031C09191DB018C91891730F42BE6FB
:1004F00030E0C3E2D1E095E015C04F5F451790F3BF
:10050000F6CFE92FF0E08F0109591F4FD9018C91E7
:10051000D8018C93E15EFE4F8881808391502150F9
:1005200030402197491768F3E42FF0E0DF01A95923
:10053000BF4FEB018991BE018C93E15EFE4F50836A
:100540005F5F563021F0E7E6F0E040E0D7CFE7E626
:10055000F0E081819081891B819380E0EC36F8077F
:10056000C1F780916B00809590916A00891B9091F2
:100570006900891B90916800891B90916700891B15
:100580008083DF91CF911F910F9108951F920F9259
:100590000FB60F9211242F934F935F936F937F9316
:1005A0008F939F93AF93BF93EF93FF938091B80086
:1005B000882349F5AFE1B1E061E070E09C91492FFB
:1005C00050E0FA01E053FF4F80818823B9F0933067
:1005D00050F42BB3CB0102C0880F991F4A95E2F764
:1005E000282B2BBB0BC028B343505040CB0102C07B
:1005F000880F991F4A95E2F7282B28BB119681E0B6
:10060000A532B807D9F6FF91EF91BF91AF919F91B5
:100610008F917F916F915F914F912F910F900FBEAE
:100620000F901F9018953F924F925F926F927F921A
:100630008F929F92AF92BF92CF92DF92EF92FF92F2
:100640000F93CF93DF9382E08EBD1DBC1CBC88EE60
:1006500093E09BBD8ABD619A85E083BF81EB82BF39
:1006600089B7816089BFEE24FF242DEFC22E2FEFC2
:10067000D22E91E0892E912C88E3482E512C0BE349
:10068000602E712CB0E1AB2E33243394BE2CE701E5
:10069000CC0FDD1FCE01845D9E4FFFD6082FF701E2
:1006A000EA52FF4F8083CE01835D9E4FF6D6982F8E
:1006B000F701E75DFE4F8083F701E053FF4F1082A3
:1006C0000C3060F40A3008F068C0013008F4D3C080
:1006D000053050F0053009F0CEC049C0802F84515C
:1006E000823008F0C8C059C0023011F588E391E0AB
:1006F000D4D690E06AE070E0AAD69093CE008093C2
:10070000CD0089E391E0C9D690E06AE070E09FD621
:100710009093BC008093BB0020916D00C4010E2C0F
:1007200002C0880F991F0A94E2F7282B20936D00CE
:1007300082E08B1570F08BB394010E2C02C0220F57
:10074000331F0A94E2F7209582238BBB8AB32823B8
:100750006EC088B394010C2C02C0220F331F0A9480
:10076000E2F72095822388BB87B3282383C082E0E9
:100770008E1508F480C08BB394010E2C02C0220F9A
:10078000331F0A94E2F7209582238BBB8AB3282378
:100790002ABBE7B8A3B836B86EC0043189F482E04A
:1007A0008B1538F07092CC006092CB00B092DE00D6
:1007B0001DC05092CC004092CB00C092DE0013C00E
:1007C000053189F482E08B1538F070921C0160923B
:1007D0001B01B09266000AC050921C0140921B019E
:1007E000C092660026C082E08B1518F1992359F05B
:1007F0002BB3C4010E2C02C0880F991F0A94E2F794
:10080000282B2BBB0BC02BB3C4010E2C02C0880FAE
:10081000991F0A94E2F7809582238BBB2AB3C40107
:100820000E2C02C0880F991F0A94E2F7282B2ABBCE
:1008300022C0992361F028B3C4010C2C02C0880F98
:10084000991F0A94E2F78095822388BB0AC028B3D7
:10085000C4010C2C02C0880F991F0A94E2F7282BC0
:1008600028BB27B3C4010C2C02C0880F991F0A941F
:10087000E2F7282B27BB0894E11CF11C0894C11C4B
:10088000D11C86E0E816F10409F000CFDF91CF918A
:100890000F91FF90EF90DF90CF90BF90AF909F901F
:1008A0008F907F906F905F904F903F9008958F92C0
:1008B0009F92AF92BF92CF92DF92EF92FF920F93EF
:1008C0001F93CF93DF93C62EE22E90E068E270E094
:1008D000BED5EC012A96413011F4EC016E96CE01A2
:1008E0000396DBD5B82ECE010296D7D5982F8B2D47
:1008F0008751823008F083C0E92EFF2400E010E029
:100900008FE090E0A0E0B0E0E822F9220A231B2368
:10091000BAE0EE0CFF1C001F111FBA95D1F7249608
:10092000DD24A2E0AA2EF0E18F2EF7E29F2ECE0169
:10093000B4D5282F30E02115310509F4EFC040E08F
:1009400050E0E2E0220F331F441F551FEA95D1F714
:100950002E293F29402B512B809126019091270170
:10096000A0E0B0E07EE0880F991FAA1FBB1F7A9518
:10097000D1F7282B392B4A2B5B2B80917B0090E001
:10098000A0E0B0E08F709070A070B07066E1880F4A
:10099000991FAA1FBB1F6A95D1F7282B392B4A2B09
:1009A0005B2B2093BD003093BE004093BF0050935B
:1009B000C00097E1B91639F4A1E0CA1611F089E137
:1009C00008C087E106C0B1E0CB1611F08AE101C092
:1009D00088E18093C200CE0101965FD58093C30069
:1009E000A092C100C4010197F1F78DEB90E04CD4C7
:1009F000D394229688E0D81609F099CF8FC091E061
:100A0000C91609F42A96CE01039647D5D82ECE01F1
:100A1000029643D5F82ECE0140D5082F10E0CE0126
:100A200001963BD5382F20E0B901600F711F611589
:100A3000710509F473C02F2D30E040E050E02F70B5
:100A4000307040705070AAE0220F331F441F551FB2
:100A5000AA95D1F780917B0090E0A0E0B0E08F7084
:100A60009070A070B070F6E1880F991FAA1FBB1F8D
:100A7000FA95D1F7282B392B4A2B5B2B8091260135
:100A800090912701A0E0B0E0EEE0880F991FAA1F27
:100A9000BB1FEA95D1F7282B392B4A2B5B2BCB01B7
:100AA000A0E0B0E062E0880F991FAA1FBB1F6A9503
:100AB000D1F7282B392B4A2B5B2B2093BD00309389
:100AC000BE004093BF005093C000D092C200EE2001
:100AD00021F4CE010496E1D4E82EE092C300CE01C9
:100AE0000596DBD48093C400CE010696D6D48093BD
:100AF000C500CE010796D1D48093C600CE010896DA
:100B0000CCD48093C700CE010996C7D48093C80087
:100B100087E08093C1008DEB90E0B6D3DF91CF9159
:100B20001F910F91FF90EF90DF90CF90BF90AF900B
:100B30009F908F900895CF92DF92EF92FF920F9344
:100B40001F93DF93CF93CDB7DEB7C850CDBF9B01C6
:100B5000E82EFF2400E010E09AE0EE0CFF1C001FDE
:100B6000111F9A95D1F740E050E082E0220F331F29
:100B7000441F551F8A95D1F72E293F29402B512B11
:100B800029833A834B835C838CEF9FE3A0E0B0E042
:100B90008D839E83AF83B88780E06E010894C11C6B
:100BA000D11CB601DFD381E0B601DCD382E0B6010F
:100BB000D9D383E0B601D6D384E0B601D3D38CEF8A
:100BC00093E0A0E0B0E0E82AF92A0A2B1B2BE98287
:100BD000FA820B831C8385E0B601C4D32896CDBF6F
:100BE000CF91DF911F910F91FF90EF90DF90CF9009
:100BF00008952F923F924F925F926F927F928F92C1
:100C00009F92AF92BF92CF92DF92EF92FF920F939B
:100C10001F93CF93DF9380E190E09093270180931F
:100C2000260181E080937B0080E090E036D48A3B0F
:100C3000F1F481E090E031D48A3CC9F482E090E0A4
:100C40002CD4082F10E0109327010093260183E095
:100C500090E023D4382F20E0200F311F309327015C
:100C60002093260184E090E018D480937B0047D342
:100C7000609126017091270180917B005CDFD3DCBD
:100C80007894209126013091270140E050E0EEE079
:100C9000220F331F441F551FEA95D1F7246080911E
:100CA0007B0090E0A0E0B0E08F709070A070B0701A
:100CB00076E1880F991FAA1FBB1F7A95D1F7282BC1
:100CC000392B4A2B5B2B2093BD003093BE00409301
:100CD000BF005093C00082E08093C20081E0809307
:100CE000C1008DEB90E0D0D261E0462E512C54E053
:100CF000E52E46E0342E32E0232EF5C0FC2CF60122
:100D0000EA52FF4FE081E33009F448C0E43030F4A8
:100D1000E13059F0E23009F0D9C01CC0E43009F4E8
:100D20006EC0E53009F0D2C0B9C0F89480911E01C0
:100D300092010C2C02C0220F331F0A94E2F7822387
:100D400090911E01982790931E017894882309F4AE
:100D5000BDC00BC0E2010C2C02C0CC0FDD1F0A94F9
:100D6000E2F78C2F83DB882349F040E080911D015E
:100D7000853608F041E08F2D60E00DC08C2F86DBBA
:100D8000882309F4A3C040E080911D01853608F056
:100D900041E08F2D61E020E08ADD98C0F80180817C
:100DA0009181892B09F092C0E2010C2C02C0CC0F7A
:100DB000DD1F0A94E2F7F89490911E019C23809124
:100DC0001E01892780931E017894992309F44CC051
:100DD00040E080911D01853608F041E08F2D60E0F4
:100DE00020E065DDF501808190E064E670E02FD3BE
:100DF000F801918380838091CF008C2B4CC0E2015D
:100E00000C2C02C0CC0FDD1F0A94E2F7F8949091ED
:100E10001E019C2380911E01892780931E017894D6
:100E20009923E9F0F80180819181892B51F440E008
:100E300080911D01853608F041E08F2D60E020E0B3
:100E400036DDF501808190E064E670E000D3F801C2
:100E5000918380838091CF008C2B8093CF00F80109
:100E600080819181892B91F58091CF0090E08C2336
:100E70009D231816190654F540E080911D01853612
:100E800008F041E08F2D61E020E011DD9E0120950A
:100E90008091CF0082238093CF0018C0F801808119
:100EA0009181892B99F425B140E080911D0185360F
:100EB00008F041E08F2D60E0FADCF501808190E0E0
:100EC00064E670E0C4D2F801918380830894C11C69
:100ED000D11C0894A11CB11C0E5F1F4FF6E0CF1669
:100EE000D10409F00BCF8DEB90E08CD180932501DC
:100EF0008F3349F429E2A22E21E0B22E0EE610E053
:100F0000CC24DD24FBCE0091C200609126017091BB
:100F1000270180917B00ADD80E3009F488C00F30D6
:100F200070F40B3009F43DC00C3018F40A30D9F6D7
:100F300017C00C3009F454C00D30A9F66BC0023351
:100F400009F491C0033330F40F3009F47FC000314D
:100F500051F686C0033309F49BC0043321F6B5C0B3
:100F600040E014C0F89480911E019201042E02C04A
:100F7000220F331F0A94E2F7822390911E019827D3
:100F800090931E017894882339F44F5F463050F3D4
:100F9000463011F440E0E6CF4093C3002092C100F8
:100FA0001BC080E090E079D28093C30081E090E0A4
:100FB00074D28093C40082E090E06FD28093C50029
:100FC00083E090E06AD28093C60084E090E065D22E
:100FD0008093C7003092C1008DEB90E055D183CF54
:100FE0008091C3008A3B09F07ECF8091C4008A3C87
:100FF00009F079CF82E090E06091C50056D283E09D
:1010000090E06091C60051D284E090E06091C7000A
:101010004CD269CF9090C40088248091C300940181
:10102000280F311DC90139D28093C5000CC07090C2
:10103000C40066248091C300F301E80FF11DCF01C5
:101040006091C50032D2E092C100C6CF2CE088E1A9
:1010500090E00FB6F894A89581BD0FBE21BDFFCFDB
:1010600010921D0140CFE091C300E63008F03BCF65
:10107000AE2FB0E0FD01EA52FF4F80818A508230EE
:1010800008F031CFA053BF4F8091C4008C932BCF79
:101090008091C300853108F026CF90917A0098178F
:1010A00008F4982F90937A0090E063E070E0CFD13D
:1010B000FC01E152FF4F8091C40080838091C50004
:1010C00081838091C60082830ECF8091C30090E01F
:1010D00065E070E0BCD101969093DD008093DC0068
:1010E0009093BA008093B900FECEFF920F931F93A6
:1010F000182F062FF42EDF9885E095D1812F93D1FC
:10110000802F91D18F2D8FD1DF9A1F910F91FF905A
:1011100008950F931F938C01FC018281938125E038
:10112000969587952A95E1F77ED180936500F80121
:101130009281892F880F880F880F807E8860937036
:10114000892B71D1F80181816ED1F80180816BD139
:101150001F910F910895EF92FF920F931F93CF93DA
:10116000DF937C018FEF5FD1182F8FEF5CD1082FB9
:10117000C12FD0E083FF1FC08FEF55D18093650052
:1011800045E0CC0FDD1F4A95E1F7F701D383C28319
:1011900081838FEF48D180936500902F9370F70182
:1011A0002281922B0695069506950C71902B9283C1
:1011B000808381E01AC08FEF36D180936500F701FC
:1011C0001382128233E0CC0FDD1F3A95E1F7D18311
:1011D000C0838FEF28D18093650002950695077034
:1011E000F7018081802B808380E0DF91CF911F9178
:1011F0000F91FF90EF900895DF9815D18FEF13D1E5
:10120000DF9A0895CF92DF92FF920F931F93CF93AF
:10121000DF93EC0180EBF0DFF82E90E060E4C62E67
:10122000D12CC822D92286FF02C080E906C0F7FC73
:1012300003C05FE3F52E1FC084E9DF98F4D0CE0130
:101240008ADF8FEFF0D0082F0F700C8310E007C0FB
:101250008FEFE9D0FE01E10FF11D85831F5F1017AD
:10126000B8F3DF9ACD2819F08CE261E002C08CE27D
:1012700062E040E03ADF8F2DDF91CF911F910F9117
:10128000FF90DF90CF9008950F931F93CF93DF933C
:10129000EC0180EAB1DF80EAAFDF82FDFCCFDF98AE
:1012A00080E4C1D0CE0135DF0C810F70802FBBD020
:1012B00010E006C0FE01E10FF11D8581B4D01F5F73
:1012C0001017C0F3DF9A82E08A95F1F7DF9881E882
:1012D000AAD0DF9A81E0DF91CF911F910F910895FD
:1012E0000F931F93182F062FDF9882E09CD0812F39
:1012F0009AD0802F98D0DF9A1F910F910895CF93A5
:10130000DF9388D0DF9880EC8ED0DF9A88EC90E075
:101310000197F1F7DF9882E086D080E084D0C2E2C6
:10132000D0E0FE0184917FD02196F0E0CF34DF073A
:10133000C1F7DF9A80E664E4D3DF80E760E4D0DFC2
:101340008FE060E0CDDFDF91CF9108951F93182FDC
:10135000DF9883E068D0812F66D08FEF64D0DF9A6A
:101360001F910895EF92FF920F931F93CF93DF93F6
:10137000182F7B01863010F080E045C08FE060EED2
:1013800040E8B3DEC0E8D0E08EE0E0DF8C27807E6E
:10139000D9F7112311F400E203C0123081F404E202
:1013A000DF9882E040D0802F3ED0C7010496B1DEA6
:1013B00082E0982F9A95F1F7DF9A8A95F1F713302A
:1013C00010F400E002C0135000E1DF9882E02BD05F
:1013D000812F880F880F802B26D0C7019ADE82E0EC
:1013E000982F9A95F1F7DF9A8A95F1F7112311F466
:1013F00080E603C0123019F480E760E471DF8FE00B
:1014000060E06EDF81E0DF91CF911F910F91FF903F
:10141000EF900895DF9AD79ADC98DE98DD98D49AF9
:10142000D69AD5980895282FDC9880E090E0880F10
:1014300027FF02C0DE9A01C0DE98DC9ACD99816058
:10144000DC989F5F983011F0220FF1CF0895552757
:10145000002480FF02C0060E571F660F771F61151C
:10146000710521F096958795009799F7952F802D16
:101470000895AA1BBB1B51E107C0AA1FBB1FA617DB
:10148000B70710F0A61BB70B881F991F5A95A9F72D
:1014900080959095BC01CD010895E199FECF9FBB49
:1014A0008EBBE09A99278DB30895262FE199FECF40
:1014B0001CBA9FBB8EBB2DBB0FB6F894E29AE19A83
:0A14C0000FBE01960895F894FFCFC7
:00000001FF
