:100000000C9450110C94CB170C94F2170C941918F3
:100010000C94A9200C94D7200C9405210C94332126
:100020000C9476110C9476110C9476110C94761134
:100030000C9476110C94461C0C9476110C94761149
:100040000C94E6210C9476110C9476110C94761194
:100050000C94591D0C94C31C0C94AC1C0C9476117C
:100060000C9476110C9476110C9476110C947611F4
:10007000253032783A253032783A253032783A25B0
:100080003032783A253032783A253032780025649B
:100090002E25642E25642E256400206665686C6715
:1000A000657363686C6167656E0D0A00206665683C
:1000B0006C67657363686C6167656E0D0A00205A32
:1000C0006569743A20253032643A253032643A2525
:1000D0003032642E253032640D0A004E54505345A0
:1000E00052564552005554435A4F4E4500207C2DE0
:1000F0003E204E54502D536572766572205A6569C4
:100100007420616B7475616C6973696572656E3AB0
:10011000006F6E004E545000207C202020444E532F
:10012000202020203A2025730D0A00207C2020204A
:10013000476174657761793A2025730D0A00207C48
:100140002020204E65746D61736B3A2025730D0A73
:1001500000207C202020495020202020203A2025EB
:10016000730D0A00444E530047415445004D41531E
:100170004B00495000207C2D3E20544350202848FD
:100180007572726963616E2D656E67696E6529208F
:10019000696E697469616C6973696572740D0A00CE
:1001A000207C2D3E205544502028546F726E61648F
:1001B0006F2D656E67696E652920696E6974696166
:1001C0006C6973696572740D0A002D2B2D3E2041F8
:1001D000525020696E697469616C697369657274E3
:1001E0000D0A00204C696E6B2072656164790D0AFE
:1001F000002046756C6C6475706C65783A00454EED
:100200004332386A363020696E697469616C69738B
:100210006965727420282048572D4164643A20256E
:100220003032783A253032783A253032783A2530F3
:1002300032783A253032783A253032782029004D0C
:100240004143004D4143004D4350636F6E66696703
:10025000000D0A000A00256300436F6E666967207F
:100260006973742025642062797465732067726FE6
:1002700073732C202564206279746520776572641D
:10028000656E2062656E75747A742E204F66667393
:1002900065742025640D0A0D0A004F46460057522A
:1002A0004954455F50524F544543540020496E69AC
:1002B0007469616C6973696572740D0A0020457216
:1002C000726F720D0A0046696C6573797374656D9F
:1002D000004D4D432F5344005043494E5400455860
:1002E00054494E5400436F6E66696700434C4F4358
:1002F0004B005354444F55540055415254004F70D5
:10030000656E4D4350202E2E2E0D0A004854545039
:100310002F312E30203430330D0A436F6E74656EEA
:10032000742D547970653A20746578742F68746DF3
:100330006C0D0A4B6565702D416C6976653A2063DA
:100340006C6F73650D0A0D0A3C48544D4C3E0D0A06
:100350003C484541443E0D0A3C5449544C453E34CA
:1003600030332046696C65206E6F7420666F756E41
:1003700064213C2F5449544C453E0D0A3C2F4845BE
:1003800041443E0D0A3C424F44593E0D0A3430333D
:100390002046696C65206E6F7420666F756E6421EF
:1003A0003C2F424F44593E0D0A3C2F48544D4C3E81
:1003B0000D0A0D0A00687474706400485454502D7E
:1003C00053657276657220676573746172746574C3
:1003D0002061756620506F72742025642E0D0A000E
:1003E000696E6465782E68746D6C003C2F424F44D2
:1003F000593E3C2F48544D4C3E0D0A0D0A003C48D6
:10040000544D4C3E3C484541443E3C2F48454144B8
:100410003E3C424F44593E00485454502F312E30F8
:100420002032303020446F63756D656E7420666FC6
:100430006C6C6F77730D0A436F6E74656E742D5418
:100440007970653A20746578742F68746D6C0D0A44
:100450004B6565702D416C6976653A2074696D65F0
:100460006F75743D312C206D61783D350D0A436FF9
:100470006E6E656374696F6E3A20636C6F73650DA1
:100480000A0D0A00696E6465782E68746D6C003C14
:1004900048544D4C3E3C484541443E3C5449544CE4
:1004A000453E4F70656E4D4350202D2057656C635F
:1004B0006F6D65206F6E204D6963726F636F6E7430
:1004C000726F6C6C657220426F6172643C2F54498C
:1004D000544C453E3C2F484541443E3C6672616D5C
:1004E0006573657420726F77733D2236302C333517
:1004F0002C2A2C343022207363726F6C6C696E6707
:100500003D226E6F22206672616D65626F72646556
:10051000723D22322220626F726465723D22322265
:10052000206672616D6573706163696E673D22322A
:100530002220626F72646572636F6C6F723D22235A
:10054000303030303030223E3C6672616D65207351
:1005500072633D22686561646C696E652E68746DB6
:100560006C22206E616D653D224E61766967617413
:10057000696F6E3122207363726F6C6C696E673DB8
:10058000226E6F223E3C6672616D65207372633D20
:10059000226D61696E6D656E752E68746D6C2220BA
:1005A0006E616D653D224E617669676174696F6E3B
:1005B0003222207363726F6C6C696E673D226E6FBE
:1005C000223E3C6672616D65207372633D22696EE6
:1005D000666F2E68746D6C22206E616D653D226DB4
:1005E00061696E22207363726F6C6C696E673D2265
:1005F0006E6F223E3C6672616D65207372633D22B0
:1006000073746174732E63676922206E616D653D3A
:100610002275706461746522207363726F6C6C69FB
:100620006E673D226E6F223E3C6E6F6672616D6535
:10063000733E3C626F64793E3C703E496872204272
:10064000726F7773657220756E7465727374C3BC54
:10065000747A74206B65696E65204672616D65738E
:10066000213C2F703E3C2F626F64793E3C2F6E6FB1
:100670006672616D65733E3C2F6672616D65736570
:10068000743E3C2F48544D4C3E0D0A0D0A006865DF
:1006900061646C696E652E68746D6C003C48544DE5
:1006A0004C3E3C484541443E3C5449544C453E4FE9
:1006B00070656E4D43503C2F5449544C453E3C2F81
:1006C000484541443E3C424F4459206267636F6C49
:1006D0006F723D22233030363430302220746578FA
:1006E000743D2223464646414630223E3C68313E18
:1006F0004F70656E4D4350202D2057656C636F6DB4
:1007000065206F6E204D6963726F636F6E74726FD8
:100710006C6C657220426F6172643C2F68313E3CA4
:100720002F424F44593E3C2F48544D4C3E0D0A0D2C
:100730000A00696F2E68746D6C003C48544D4C3E45
:100740003C484541443E3C5449544C453E4F7065FD
:100750006E4D43503C2F5449544C453E3C6C696EA1
:100760006B2072656C3D227374796C657368656586
:10077000742220747970653D22746578742F6373D8
:10078000732220687265663D227374796C652E63EE
:100790007373223E3C2F484541443E3C424F4459EE
:1007A000206267636F6C6F723D22233232384232AF
:1007B000322220746578743D2223464646464646DA
:1007C000223E3C6120687265663D226D61696E6DF6
:1007D000656E752E68746D6C223E7A7572756563F0
:1007E0006B3C2F613E3C2F424F44593E3C2F4854B6
:1007F0004D4C3E0D0A0D0A006D61696E6D656E759A
:100800002E68746D6C003C48544D4C3E3C4845414C
:10081000443E3C5449544C453E4F70656E4D4350E8
:100820003C2F5449544C453E3C6C696E6B207265BC
:100830006C3D227374796C657368656574222074ED
:100840007970653D22746578742F63737322206814
:100850007265663D227374796C652E637373223EF4
:100860003C2F484541443E3C424F44592062676317
:100870006F6C6F723D222332323842323222207442
:100880006578743D2223464646464646223E3C61F4
:1008900020687265663D22696E666F2E68746D6CA5
:1008A000227461726765743D226D61696E223E49F2
:1008B0006E666F726D6174696F6E656E3C2F613E1E
:1008C000202F203C6120687265663D22696F2E688A
:1008D000746D6C223E494F2D506F7274733C2F61C2
:1008E0003E202F203C6120687265663D226E657453
:1008F000776F726B2E68746D6C223E4E65747A77DA
:1009000065726B3C2F613E202F203C612068726530
:10091000663D2273797374656D2E68746D6C223E2A
:1009200053797374656D3C2F613E3C2F424F44599F
:100930003E3C2F48544D4C3E0D0A0D0A006E657426
:10094000776F726B2E68746D6C003C48544D4C3E52
:100950003C484541443E3C5449544C453E4F7065EB
:100960006E4D43503C2F5449544C453E3C6C696E8F
:100970006B2072656C3D227374796C657368656574
:10098000742220747970653D22746578742F6373C6
:10099000732220687265663D227374796C652E63DC
:1009A0007373223E3C2F484541443E3C424F4459DC
:1009B000206267636F6C6F723D222332323842329D
:1009C000322220746578743D2223464646464646C8
:1009D000223E3C6120687265663D226D61696E6DE4
:1009E000656E752E68746D6C223E7A7572756563DE
:1009F0006B3C2F613E202F203C6120687265663D74
:100A0000226E6574776F726B2E6367692220746142
:100A1000726765743D226D61696E223E496E666F34
:100A2000733C2F613E202F203C6120687265663D3B
:100A3000226E6574776F726B2E6367693F636F6EAA
:100A400066696722207461726765743D226D616911
:100A50006E223E4B6F6E66696775726174696F6E68
:100A60003C2F613E3C2F424F44593E3C2F48544D51
:100A70004C3E0D0A0D0A0073797374656D2E68740F
:100A80006D6C003C48544D4C3E3C484541443E3C16
:100A90005449544C453E4F70656E4D43503C2F5465
:100AA00049544C453E3C6C696E6B2072656C3D222E
:100AB0007374796C657368656574222074797065E8
:100AC0003D22746578742F637373222068726566A3
:100AD0003D227374796C652E637373223E3C2F48FC
:100AE0004541443E3C424F4459206267636F6C6FFE
:100AF000723D2223323238423232222074657874B9
:100B00003D2223464646464646223E3C61206872C8
:100B100065663D226D61696E6D656E752E68746DDA
:100B20006C223E7A75727565636B3C2F613E202F97
:100B3000203C6120687265663D2272657365742E83
:100B400063676922207461726765743D226D616913
:100B50006E223E52657365743C2F613E202F203C0F
:100B60006120687265663D226E74702E636769222B
:100B7000207461726765743D226D61696E223E4E1C
:100B800054503C2F613E202F203C612068726566E6
:100B90003D2265656D656D2E636769222074617203
:100BA0006765743D226D61696E223E45456D656DD8
:100BB0003C2F613E202F203C6120687265663D22FB
:100BC00063726F6E2E636769222074617267657449
:100BD0003D226D61696E223E63726F6E3C2F613EF5
:100BE0003C2F424F44593E3C2F48544D4C3E0D0A39
:100BF0000D0A00696E666F2E68746D6C003C485477
:100C00004D4C3E3C424F44593E3C7072653E3C70F8
:100C10003E202057656C636F6D65206F6E0D0A2056
:100C20002020202020205F5F5F5F202020202020C8
:100C30002020202020205F5F5F5F5F5F5F5F5F5F3E
:100C40005F5F5F5F0D0A2020202020202F202020C2
:100C50002F20202020202020202020202F20202076
:100C600020202F205F5F2F2020202F0D0A20202002
:100C700020202F202F202F5F5F5F5F5F5F5F5F5F10
:100C80005F5F2F202F202F202F202F202F202F207D
:100C90002F0D0A202020202F202F202F2020202F32
:100CA000205F5F2F2020202F202F202F202F202F6C
:100CB000202F205F5F2F0D0A2020202F202F202F94
:100CC000202F202F205F5F2F202F202F202F202F3D
:100CD000202F202F5F2F202F0D0A20202F5F5F5FF6
:100CE0002F205F5F2F5F5F5F2F5F2F5F2F5F2F5F73
:100CF0002F5F2F5F5F5F2F5F2F20202020204F70FE
:100D0000656E204D6963726F436F6E74726F6C6CA9
:100D1000657250726F6A656B740D0A202020202066
:100D20002F5F2F0D0A20200D0A466F72206D6F7203
:100D30006520696E666F726D6174696F6E20766989
:100D400073697420746865203C6120687265663D33
:100D500022687474703A2F2F77696B692E6E656FF5
:100D60002D67756572696C6C617A2E6465222074DA
:100D700061726765743D225F626C616E6B223E4FEB
:100D800070656E4D43503C2F613E2070726F6A65F6
:100D90006374706167652E0D0A4D6963726F7765C4
:100DA00062736572766572206275696C64206F6E1D
:100DB000204156522D6C6962632076657273696FAB
:100DC0006E3A20312E362E342F32303038313130D9
:100DD000362077697468206176722D6763632034EA
:100DE0002E332E322C20446174653A204D617220DE
:100DF000313620323030322032313A35333A3435E0
:100E0000200D0A0D0A286329323030362D32303059
:100E100039202020536F6674776172653A204469E7
:100E2000726B2042726F73737769636B20287368EB
:100E30006172616E64616340736E6166752E646594
:100E4000290D0A3C2F7072653E3C2F703E3C2F42AC
:100E50004F44593E3C2F48544D4C3E0D0A0073748C
:100E6000796C652E63737300406368617273657497
:100E7000202249534F2D383835392D31220D0A2083
:100E80002020613A6C696E6B207B20746578742D2C
:100E90006465636F726174696F6E3A6E6F6E653B05
:100EA00020666F6E742D7765696768743A626F6C3F
:100EB000643B20636F6C6F723A2346464646464653
:100EC0003B207D0D0A202020613A766973697465A4
:100ED00064207B20746578742D6465636F7261741F
:100EE000696F6E3A6E6F6E653B20666F6E742D771C
:100EF00065696768743A626F6C643B20636F6C6FFE
:100F0000723A234646464646463B207D0D0A20203F
:100F100020613A686F766572207B20746578742D45
:100F20006465636F726174696F6E3A6E6F6E653B74
:100F300020666F6E742D7765696768743A626F6CAE
:100F4000643B206261636B67726F756E642D636FC3
:100F50006C6F723A233431363945313B207D0D0AAE
:100F6000202020613A616374697665207B20746576
:100F700078742D6465636F726174696F6E3A6E6F19
:100F80006E653B20666F6E742D7765696768743A8D
:100F9000626F6C643B206261636B67726F756E6435
:100FA0002D636F6C6F723A234646464646463B2099
:100FB0007D0D0A202020613A666F637573207B20C7
:100FC000746578742D6465636F726174696F6E3ACD
:100FD0006E6F6E653B20666F6E742D77656967680E
:100FE000743A626F6C643B206261636B67726F7509
:100FF0006E642D636F6C6F723A23444441304444F5
:101000003B207D0D0A00485454502F312E302032A1
:10101000303020446F63756D656E7420666F6C6C44
:101020006F77730D0A436F6E74656E742D4C656E29
:101030006774683A20256C640D0A436F6E74656EA0
:10104000742D547970653A2062696E0D0A436163AC
:1010500068652D436F6E74726F6C3A206D61782DE8
:101060006167653D333630300D0A436F6E6E6563E0
:1010700074696F6E3A20636C6F73650D0A0D0A0018
:101080000D0A436F6E74656E742D4C656E677468DF
:101090003A2025640D0A43616368652D436F6E74C1
:1010A000726F6C3A206D61782D6167653D33363023
:1010B000300D0A436F6E6E656374696F6E3A20631C
:1010C0006C6F73650D0A0D0A0062696E00746578B5
:1010D000742F68746D6C006A70656700706E6700CD
:1010E000485454502F312E302032303020446F631A
:1010F000756D656E7420666F6C6C6F77730D0A4347
:101100006F6E74656E742D547970653A20003E20C0
:10111000000D0A00466F6C67656E64652042656667
:1011200065686C652073696E6420766F7268616EA5
:1011300064656E3A0D0A0D0A0068656C70005665AC
:101140007262696E64756E67207769726420676584
:101150007363686C6F7373656E0D0A0071756974E3
:101160000057656C636F6D65206F6E2054696E79F2
:101170002D54656C6E657473657276657220302EC1
:1011800032210D0A556E642C206C6F7320676568E0
:101190007427732E2E2E21212120282268656C7041
:1011A000222068696C6674203A2D29290D0A3E2098
:1011B0000074656C6E65740054656C6E65742D53B7
:1011C00065727665722067657374617274657420E8
:1011D00061756620506F72742025642E0D0A0043DD
:1011E000524F4E5F454E5452595F253032640025B0
:1011F000643A206E696368742067656C6567740D76
:101200000A0025643A2025642025642025730D0AF0
:101210000063726F6E00696E20256C6420506163FC
:101220006B6574656E203B20447520626973742081
:101230006465722025642E2042657375636865724B
:101240002061756620536F636B65742025642E3CA6
:101250002F424F44593E3C2F48544D4C3E0D0A0DF1
:101260000A0020256C642E2530336C6420474279B7
:10127000746573200020256C642E2530336C642047
:101280004D4279746573200020256C64206B42798F
:10129000746573200020256C642042797465732086
:1012A000002C2045746865726E65743A00256C6484
:1012B0002073656B00256C64206D696E2000256CC1
:1012C00064207374642000256C6420746167652059
:1012D00000256C642074616720003C48544D4C3EEE
:1012E0003C484541443E3C6D6574612068747470AF
:1012F0002D65717569763D22726566726573682227
:1013000020636F6E74656E743D223630303B202250
:101310003E3C5449544C453E53747265616D696E50
:10132000673C2F5449544C453E3C2F484541443E70
:101330003C424F4459206267636F6C6F723D2223B9
:101340003232384232322220746578743D2223468C
:101350004646464646223E5A6569743A2025303252
:10136000643A253032643A253032642E25303264B6
:1013700020282025752F25752F2530347520292C00
:1013800020557074696D653A20005048535441549B
:1013900032207C203078253034580D0A00504853D4
:1013A00054415431207C203078253034580D0A00C7
:1013B0005265762E494420207C202020307825302C
:1013C00032580D0A002D2D2D2D2D2D2D2D2B2D2D8F
:1013D0002D2D2D2D2D2D0D0A005265672E2020203C
:1013E000207C20576572740D0A00454E4332384AFE
:1013F00036303A0D0A005443502D5458204572722D
:101400006F72733A202564205443502D5258204562
:1014100072726F72733A2025642028756E736F7232
:101420007465642025642C206F6C647365712025BD
:1014300064290D0A0D0A0045746865726E65743A78
:1014400020256C6420427974657320696E20256CB8
:1014500064205061636B6574656E0D0A007374617E
:1014600074732E63676900737461747300526573DB
:1014700065743C2F424F44593E3C2F48544D4C3EDE
:101480000D0A0D0A007265736574007265736574E8
:10149000007265736574003C666F726D20616374E1
:1014A000696F6E3D2272657365742E6367692220D1
:1014B0006D6574686F643D226765742220616363A3
:1014C0006570742D636861727365743D2249534F72
:1014D0002D383835392D31223E3C703E3C696E70D6
:1014E000757420747970653D227375626D6974221C
:1014F000206E616D653D2272657365742220766190
:101500006C75653D227265736574223E3C2F703E9A
:101510003C2F666F726D3E3C2F424F44593E3C2F2C
:1015200048544D4C3E0D0A0D0A0072657365742EC9
:1015300063676900726573657400646E73203C684C
:101540006F73746E616D653E0D0A004950207A75A7
:10155000202573203D2025730D0A00646E7300451D
:10156000696E7374656C6C756E67656E2075656207
:1015700065726E6F6D6D656E210D0A004554485F92
:10158000464C4458004554485F464C445800455426
:10159000485F464C4458004554485F464C44580008
:1015A0004D4143004D4143004D414300444E5300E3
:1015B000444E5300444E5300474154450047415464
:1015C000450047415445004D41534B004D41534B5D
:1015D000004D41534B0049500049500049500020F4
:1015E000203C74723E0D2020203C746420616C69A4
:1015F000676E3D227269676874223E486172647743
:101600006172652D4D41433C2F74643E2020203C87
:1016100074643E3C696E707574206E616D653D2228
:101620004D41432220747970653D2274657874229F
:101630002073697A653D223137222076616C7565A9
:101640003D22257322206D61786C656E6774683D5C
:10165000223137223E3C2F74643E20203C2F74728E
:101660003E0D20203C74723E0D2020203C74643ED0
:101670003C2F74643E3C74643E3C696E707574200B
:10168000747970653D227375626D6974222076618C
:101690006C75653D222045696E7374656C6C756E62
:1016A00067202655756D6C3B6265726E65686D6569
:1016B0006E20223E3C2F74643E20203C2F74723EEC
:1016C0000D203C2F7461626C653E0D3C2F666F727D
:1016D0006D3E004D4143003E3C2F74643E0D202082
:1016E0003C2F74723E0D00636865636B6564006F28
:1016F0006E0020203C74723E0D2020203C7464203B
:10170000616C69676E3D227269676874223E467536
:101710006C6C6475706C657820616B746976696552
:1017200072656E3C2F74643E2020203C74643E3C05
:10173000696E70757420747970653D2263686563A5
:101740006B626F7822206E616D653D224554485F63
:10175000464C4458222076616C75653D226F6E229E
:1017600020004554485F464C44580020203C747289
:101770003E0D2020203C746420616C69676E3D2220
:101780007269676874223E444E532D5365727665C4
:10179000723C2F74643E2020203C74643E3C696E91
:1017A000707574206E616D653D22444E5322207425
:1017B0007970653D2274657874222073697A653D7D
:1017C000223135222076616C75653D2225732220F9
:1017D0006D61786C656E6774683D223135223E3CE0
:1017E0002F74643E20203C2F74723E0D00444E53F3
:1017F0000020203C74723E0D2020203C7464206147
:101800006C69676E3D227269676874223E47617435
:10181000657761793C2F74643E2020203C74643EDF
:101820003C696E707574206E616D653D2247415450
:10183000452220747970653D227465787422207386
:10184000697A653D223135222076616C75653D22CD
:10185000257322206D61786C656E6774683D223156
:1018600035223E3C2F74643E20203C2F74723E0D86
:1018700000474154450020203C74723E0D2020203A
:101880003C746420616C69676E3D2272696768749C
:10189000223E4E65747A7765726B6D61736B653C41
:1018A0002F74643E2020203C74643E3C696E707549
:1018B00074206E616D653D224D41534B2220747939
:1018C00070653D2274657874222073697A653D22C3
:1018D0003135222076616C75653D22257322206D9D
:1018E00061786C656E6774683D223135223E3C2F0D
:1018F00074643E20203C2F74723E0D004D41534BCA
:101900000020203C74723E0D2020203C7464206135
:101910006C69676E3D227269676874223E49502D7A
:10192000416472657373653C2F74643E2020203CD3
:1019300074643E3C696E707574206E616D653D2205
:1019400049502220747970653D2274657874222094
:1019500073697A653D223135222076616C75653D6B
:1019600022257322206D61786C656E6774683D2254
:101970003135223E3C2F74643E20203C2F74723E51
:101980000D004950003C666F726D20616374696F91
:101990006E3D226E6574776F726B2E636769223EAF
:1019A0000D203C7461626C6520626F726465723DEB
:1019B0002230222063656C6C70616464696E673DDF
:1019C0002235222063656C6C73706163696E673DBC
:1019D0002230223E00636F6E666967003C2F707292
:1019E000653E0D0A007374617473006966636F6EFF
:1019F000666967003C7072653E0D0A000D0A485723
:101A00002D4164723A20253032783A253032783AC6
:101A1000253032783A253032783A253032783A25F6
:101A20003032780D0A0D0A00444E533A202020200F
:101A300020202025730D0A00476174657761793A8B
:101A400020202025730D0A004E65746D61736B3A7A
:101A500020202025730D0A0049503A202020202004
:101A600020202025730D0A006E6574776F726B2E2F
:101A7000636769006966636F6E6669670045696ED2
:101A80007374656C6C756E67656E207565626572E2
:101A90006E6F6D6D656E210D0A005554435A4F4EA1
:101AA00045005554435A4F4E45005554435A4F4EE6
:101AB00045004E5450534552564552004E545053D3
:101AC0004552564552004E545053455256455200C9
:101AD0004E5450004E5450004E5450004E5450003E
:101AE0003C74723E3C746420616C69676E3D227286
:101AF00069676874223E534E54502D536572766563
:101B0000723C2F74643E3C74643E3C696E70757424
:101B1000206E616D653D224E5450534552564552DC
:101B20002220747970653D2274657874222073696F
:101B30007A653D223235222076616C75653D22251D
:101B40007322206D61786C656E6774683D22323552
:101B5000223E3C2F74643E3C2F74723E3C74723EB5
:101B60003C746420616C69676E3D227269676874B9
:101B7000223E5A6569747A6F6E653C2F74643E3CF0
:101B800074643E3C696E707574206E616D653D22B3
:101B90005554435A4F4E452220747970653D227446
:101BA000657874222073697A653D2233222076613C
:101BB0006C75653D22257322206D61786C656E67BA
:101BC00074683D2233223E3C2F74643E3C2F747275
:101BD0003E3C74723E3C74643E3C2F74643E3C74E4
:101BE000643E3C696E70757420747970653D227333
:101BF00075626D6974222076616C75653D222045A1
:101C0000696E7374656C6C756E67202655756D6CA6
:101C10003B6265726E65686D656E20223E3C2F7476
:101C2000643E3C2F74723E3C2F7461626C653E3C96
:101C30002F666F726D3E0030005554435A4F4E452B
:101C4000005554435A4F4E450074696D652E6675B4
:101C50002D6265726C696E2E6465004E545053455A
:101C600052564552004E5450003E3C2F74643E3C48
:101C70002F74723E00636865636B6564006F6E006D
:101C80003C666F726D20616374696F6E3D226E7485
:101C9000702E636769223E0D3C7461626C65206240
:101CA0006F726465723D2230222063656C6C7061D6
:101CB0006464696E673D2235222063656C6C7370C5
:101CC0006163696E673D2230223E3C74723E3C7413
:101CD0006420616C69676E3D227269676874223E98
:101CE000534E545020616B746976696572656E3C21
:101CF0002F74643E3C74643E3C696E70757420744D
:101D00007970653D22636865636B626F7822206E2F
:101D1000616D653D224E5450222076616C75653DA3
:101D2000226F6E2220004E5450006E7470203C6E64
:101D300074707365727665723E0D0A004665686C54
:101D400065720D0A004E657565205A6569743A2002
:101D5000253032643A253032643A253032640D0A37
:101D6000005554435A4F4E45005554435A4F4E4523
:101D700000486F6C65205A65697420766F6E202567
:101D8000730D0A004665686C65720D0A006E74700A
:101D90002E636769006E7470004442656E747279D8
:101DA0003A2025642067656C6573656E0D0A0072C4
:101DB000656164004442656E7472793A202564203E
:101DC0000D0A00676574006D616B650061646400F5
:101DD00074656D700064656C0064656C0045696EC7
:101DE0007374656C6C756E67656E2075656265727F
:101DF0006E6F6D6D656E210D0A00434D44002564C4
:101E00002025642022257322004D4D0048480043C0
:101E10004D44003C666F726D20616374696F6E3D66
:101E20002263726F6E2E636769223E3C7461626C3E
:101E30006520626F726465723D2230222063656C9A
:101E40006C70616464696E673D2235222063656C45
:101E50006C73706163696E673D2230223E3C747220
:101E60003E3C746420616C69676E3D2272696768EC
:101E700074223E5374756E64653C2F74643E3C74EA
:101E8000643E3C696E707574206E616D653D2248DC
:101E9000482220747970653D22746578742220731D
:101EA000697A653D2233222076616C75653D22306A
:101EB000226D61786C656E6774683D2233223E3C0A
:101EC0002F74643E3C2F74723E3C74723E3C7464CA
:101ED00020616C69676E3D227269676874223E4DAD
:101EE000696E7574653C2F74643E3C74643E3C6955
:101EF0006E707574206E616D653D224D4D222074AB
:101F00007970653D2274657874222073697A653D25
:101F10002233222076616C75653D223022206D616E
:101F2000786C656E6774683D2233223E3C2F746482
:101F30003E3C2F74723E3C74723E3C746420616C73
:101F400069676E3D227269676874223E436F6D6DEA
:101F5000616E643C2F74643E3C74643E3C696E70F8
:101F60007574206E616D653D22434D442220747965
:101F700070653D2274657874222073697A653D220C
:101F8000333022206D61786C656E6774683D223352
:101F900030223E3C2F74643E3C2F74723E3C74727F
:101FA0003E3C74643E3C2F74643E3C74643E3C6929
:101FB0006E70757420747970653D227375626D69F9
:101FC00074222076616C75653D222045696E7472BD
:101FD0006167207369636865726E20223E3C2F74CE
:101FE000643E3C2F74723E3C2F7461626C653E3CD3
:101FF0002F666F726D3E0D006164646E6577003C04
:1020000074723E3C746420616C69676E3D226C653D
:102010006674223E3C6120687265663D2263726F81
:102020006E2E6367693F6164646E65772220737406
:10203000796C653D22746578742D6465636F726197
:1020400074696F6E3A6E6F6E6522207469746C6588
:102050003D22416464223E3C696E7075742074793F
:1020600070653D22627574746F6E222076616C75A6
:10207000653D22616464206E65772063726F6E2215
:1020800020636C6173733D22616374696F6E427487
:102090006E223E3C2F613E3C2F74643E3C2F747296
:1020A0003E3C2F7461626C653E0D003C74723E3C98
:1020B000746420616C69676E3D226C656674223EB3
:1020C00025733C2F74643E3C746420616C69676EB8
:1020D0003D226C656674223E3C6120687265663DF7
:1020E0002263726F6E2E6367693F64656C3D256481
:1020F00022207374796C653D22746578742D646553
:10210000636F726174696F6E3A6E6F6E65222074D0
:1021100069746C653D2244656C223E3C696E707545
:102120007420747970653D22627574746F6E22201C
:1021300076616C75653D2264656C2220636C617309
:10214000733D22616374696F6E42746E223E3C2F50
:10215000613E3C2F74643E3C2F74723E003C7461BF
:10216000626C6520626F726465723D22302220636A
:10217000656C6C70616464696E673D223522206312
:10218000656C6C73706163696E673D2230223E003E
:1021900063726F6E2E636769003C2F7072653E003C
:1021A0003C7072653E0065656D656D203C70726FB8
:1021B000746563743E7C3C756E70726F7465637495
:1021C0003E203C7072696E743E203C636C65616EAB
:1021D0003E0D0A00636C65616E007072696E74007A
:1021E000756E70726F7465637465740D0A00575272
:1021F0004954455F50524F54454354004F464600A2
:10220000756E70726F746563740057524954455F00
:1022100050524F54454354004F4E0070726F7465D6
:1022200063740065656D656D2E6367690065656D36
:10223000656D0000081000000800000008000000A4
:10224000080000000800000008000000080000FF6F
:10225000EBFFFF04B6E704B6D304B6C704B6C30267
:10226000900703AC8103AC8002900063616E5F72E3
:10227000656C61790043414E2D52656C61792D5337
:102280006572766572206765737461727465742017
:1022900061756620506F72742025642E0D0A00004F
:1022A00014BE88E10FB6F89480936000109260002D
:1022B0000FBE11241FBECFEFD0E1DEBFCDBF11E0B6
:1022C000A0E0B1E0EAEFF5ED02C005900D92A63C6A
:1022D000B107D9F71BE0A6ECB1E001C01D92AD3FFC
:1022E000B107E1F70E9469170C94FB6A0C94000097
:1022F000CF93DF93BC018230910510F462E070E06F
:10230000A091F30BB091F40BED01E0E0F0E040E0C0
:1023100050E021C0888199818617970769F48A81E6
:102320009B81309719F09383828304C09093F40BC0
:102330008093F30BFE0134C06817790738F4411518
:10234000510519F08417950708F4AC01FE018A8144
:102350009B819C01E9012097E9F641155105A9F1FE
:10236000CA01861B970B049708F4BA01E0E0F0E07D
:102370002AC08D919C91119784179507F9F46417E1
:10238000750781F412968D919C911397309719F0EF
:102390009383828304C09093F40B8093F30BFD012D
:1023A00032964CC0CA01861B970BFD01E80FF91F3E
:1023B0006193719302978D939C9340C0FD0182813C
:1023C00093819C01D9011097A1F68091F10B909116
:1023D000F20B892B41F48091350190913601909355
:1023E000F20B8093F10B4091370150913801411568
:1023F000510541F44DB75EB780913301909134019E
:10240000481B590B2091F10B3091F20BCA01821B32
:10241000930B8617970780F0AB014E5F5F4F8417D1
:10242000950750F0420F531F5093F20B4093F10B5E
:10243000F9016193719302C0E0E0F0E0CF01DF9118
:10244000CF910895CF93DF93009709F450C0EC012A
:1024500022971B821A82A091F30BB091F40B109774
:1024600009F140E050E0AC17BD0708F1BB83AA8337
:10247000FE0121913191E20FF31FAE17BF0779F4EE
:102480008D919C911197280F391F2E5F3F4F3983F3
:10249000288312968D919C9113979B838A83411573
:1024A000510571F4D093F40BC093F30B20C0129636
:1024B0008D919C911397AD01009711F0DC01D3CF62
:1024C000FA01D383C28321913191E20FF31FCE171A
:1024D000DF0769F488819981280F391F2E5F3F4FEC
:1024E000FA01318320838A819B8193838283DF91E8
:1024F000CF9108952F923F925F926F927F928F9229
:102500009F92AF92BF92CF92DF92EF92FF920F9382
:102510001F93CF93DF938C011B01EA0161157105B5
:1025200019F0FB0191838083209749F0CE01029737
:10253000839728F020E030E040E050E0F6C0F8015A
:10254000A1908F018A2D90E00E94F06A892BB9F743
:10255000FDE2AF1631F4F801A1908F015524539498
:1025600007C0FBE2AF1619F4F801A1908F015524C2
:10257000209719F0C031D105C1F4F0E3AF1679F41A
:10258000F8018081883711F0883549F4F801A1807D
:102590000E5F1F4FF2E05F2AC0E1D0E006C0209737
:1025A00021F480E3A816E9F427C0C830D10531F141
:1025B000C930D10524F4C230D10531F50CC0CA3080
:1025C000D10589F0C031D105F9F4C12CD12CE12C11
:1025D000B8E0FB2E28C0C12CD12CE12CA0E4FA2EAF
:1025E00022C0CAE0D0E0FCECCF2EFCECDF2EFCECED
:1025F000EF2EFCE0FF2E17C0C8E0D0E0C12CD12C9C
:10260000E12CE0E1FE2E0FC09E01442737FD4095EE
:10261000542F60E070E080E090E80E947C6AC9017D
:10262000DA016C017D0120E030E040E050E060E044
:102630003E01882477FC8094982C70EDB72EBA0C5C
:10264000E9E0EB1570F48A2D81548A3118F499EC85
:10265000B92E06C08A2D81568A3150F589EAB82EE6
:10266000BA0C8B2D90E08C179D0714F56F3FE1F0AD
:10267000C216D306E406F506B0F0CA01B901A401FA
:1026800093010E94366A9B01AC012B0D311D411D47
:10269000511D2130F0E03F07F0E04F07F0E85F0701
:1026A00010F461E001C06FEFF801A1908F01C5CF78
:1026B0002114310481F0662331F001501040F10102
:1026C0001183008308C051FE1AC002501040F1016E
:1026D0001183008314C067FF12C050FC05C02FEFA8
:1026E0003FEF4FEF5FE704C020E030E040E050E80C
:1026F00082E290E09093FC0B8093FB0B16C050FE9F
:1027000008C050954095309521953F4F4F4F5F4FF2
:102710000CC057FF0AC082E290E09093FC0B8093BC
:10272000FB0B2FEF3FEF4FEF5FE7B901CA01DF91DE
:10273000CF911F910F91FF90EF90DF90CF90BF90BE
:10274000AF909F908F907F906F905F903F902F9071
:102750000895FC0188279927E89421912032E9F314
:10276000293010F02E30C8F32B3241F02D3239F4DD
:10277000689404C00E949A14820F911D21912053E5
:102780002A30C0F31EF4909581959F4F08951F93B2
:10279000FC0199278827BC01E89411911032E9F3D4
:1027A000193010F01E30C8F31B3251F01D3249F4BD
:1027B000689406C00E948514610F711D811D911DD2
:1027C000119110531A30B0F33EF4909580957095A6
:1027D00061957F4F8F4F9F4F1F910895FB01DC0143
:1027E00002C005900D9241505040D8F70895FB016A
:1027F000DC018D91059080190110D9F3990B089592
:10280000FB01DC0105900D920020E1F70895FC0129
:1028100005900020E9F7809590958E0F9F1F0895F1
:10282000FB01DC0104C08D910190801921F441501D
:102830005040C8F7881B990B0895FB01DC0102C0CA
:1028400001900D9241505040D8F70895DC0101C02D
:102850006D9341505040E0F70895FC018191861737
:1028600021F08823D9F7992708953197CF0108954A
:10287000FB01DC018D91019080190110D9F3990BB6
:102880000895FB01DC014150504030F08D910190E2
:10289000801919F40020B9F7881B990B0895FB01E2
:1028A000DC014150504048F001900D920020C9F7E2
:1028B00001C01D9241505040E0F70895FC0181E0B5
:1028C00090E00190061609F4CF010020D1F701979E
:1028D0000895A0E0B0E0EFE6F4E10C94C36A7C0157
:1028E000EB018A01690109C0CE012196F601099523
:1028F000F70181937F010150104001151105A1F7E7
:10290000CDB7DEB7E8E00C94DF6A592F482F372F98
:10291000262F660F771F881F991F660F771F881F46
:10292000991F620F731F841F951F660F771F881FE3
:10293000991F08957AE0979F902D879F802D910D84
:1029400011240895A0E0B0E0E8EAF4E10C94C96A2B
:10295000FE01359661917191A091F70BB091F80B42
:1029600013968C911397886013968C938091F70B34
:102970009091F80BAF010E94EC14E091F70BF091ED
:10298000F80B2381277F23832096E2E00C94E56AED
:10299000AEE0B0E0EEECF4E10C94C76A0D891E895C
:1029A0008EE08C831A8309838FEF9FE79E838D834C
:1029B0009E01275E3F4FCE0101966F89788DA90158
:1029C0000E94EC142F813885020F131FF80110822A
:1029D0002E96E4E00C94E36AABE0B0E0E2EFF4E1C1
:1029E0000C94B96A3C012B015A01FC011782168232
:1029F000838181FD03C06FEF7FEFC6C19AE0892E0E
:102A00001E010894211C311CF3012381F20123FDD6
:102A1000859123FF81912F01882309F4B2C185326A
:102A200039F423FD859123FF81912F01853229F40B
:102A300090E0B3010E94DF16E7CF982FFF24EE2429
:102A40009924FFE1FF15D0F09B3269F09C3228F405
:102A5000903259F0933291F40EC09D3249F0903388
:102A600069F441E024C052E0F52A84E0F82A28C045
:102A700098E0F92A25C0E0E1FE2A22C0F7FC29C02F
:102A8000892F80538A3070F4F6FE05C0989C902CF4
:102A90001124980E15C0E89CE02C1124E80EF0E2F9
:102AA000FF2A0EC09E3229F4F6FC6BC140E4F42AE2
:102AB00007C09C3619F450E8F52A02C0983649F44C
:102AC000F20123FD959123FF91912F01992309F0A4
:102AD000B8CF892F8554833018F08052833038F472
:102AE00044E050E0A40EB51E5FE359830FC0933657
:102AF00031F0933779F0933509F056C020C0F501D5
:102B00008081898342E050E0A40EB51E610101E09E
:102B100010E012C0F501C080D180F6FC03C06FEF59
:102B20007FEF02C0692D70E042E050E0A40EB51EB8
:102B3000C6010E94D4168C015FE7F52214C0F5018E
:102B4000C080D180F6FC03C06FEF7FEF02C0692D1B
:102B500070E042E050E0A40EB51EC6010E94C91606
:102B60008C0150E8F52AF3FE07C01AC080E290E01D
:102B7000B3010E94DF16EA948E2D90E00817190722
:102B8000A8F30EC0F601F7FC8591F7FE81916F0165
:102B900090E0B3010E94DF16E110EA94015010406A
:102BA0000115110579F7EAC0943611F0993669F5E7
:102BB000F7FE08C0F501208131814281538184E014
:102BC00090E00AC0F501808191819C01442737FD86
:102BD0004095542F82E090E0A80EB91E9FE6F9229E
:102BE00057FF09C050954095309521953F4F4F4F65
:102BF0005F4FE0E8FE2ACA01B901A1012AE030E0F6
:102C00000E940B17D82ED21840C0953729F41F2DDB
:102C10001F7E2AE030E01DC01F2D197F9F3661F016
:102C2000903720F4983509F0ACC00FC0903739F0D8
:102C3000983709F0A6C004C028E030E00AC010614F
:102C400014FD146020E130E004C014FD166020E1A2
:102C500032E017FF08C0F5016081718182819381A4
:102C600044E050E008C0F50180819181BC0180E022
:102C700090E042E050E0A40EB51EA1010E940B17A7
:102C8000D82ED2188FE7F82EF122F6FE0BC05EEF99
:102C9000F522D91438F4F4FE07C0F2FC05C08FEE1B
:102CA000F82202C01D2D01C0192DF4FE0DC0FE0139
:102CB000ED0DF11D8081803319F499EEF92208C0E1
:102CC0001F5FF2FE05C003C08F2D867809F01F5FDD
:102CD0000F2DF3FC14C0F0FE0FC01E1510F09D2C3C
:102CE0000BC09D2C9E0C911A1E2D06C080E290E018
:102CF000B3010E94DF161F5F1E15C0F304C01E152E
:102D000010F4E11A01C0EE2404FF0FC080E390E04C
:102D1000B3010E94DF1602FF1DC001FD03C088E75A
:102D200090E00EC088E590E00BC0802F867891F08F
:102D300001FF02C08BE201C080E2F7FC8DE290E06F
:102D4000B3010E94DF1606C080E390E0B3010E9449
:102D5000DF169A94D914C0F3DA94F101ED0DF11D48
:102D6000808190E0B3010E94DF16DD20A9F706C044
:102D700080E290E0B3010E94DF16EA94EE20C1F7F2
:102D800043CEF30166817781CB012B96E2E10C946F
:102D9000D56AFC010590615070400110D8F780950C
:102DA00090958E0F9F1F0895FC0161507040019017
:102DB0000110D8F7809590958E0F9F1F08950F935F
:102DC0001F93CF93DF938C01EB018B8181FF1BC09D
:102DD00082FF0DC02E813F818C819D81281739078C
:102DE00064F4E881F9810193F983E88306C0E885FA
:102DF000F985802F0995892B31F48E819F81019669
:102E00009F838E8302C00FEF1FEFC801DF91CF9128
:102E10001F910F910895FA01AA27283051F120310E
:102E200081F1E8946F936E7F6E5F7F4F8F4F9F4F5E
:102E3000AF4FB1E03ED0B4E03CD0670F781F891FA0
:102E40009A1FA11D680F791F8A1F911DA11D6A0F6E
:102E5000711D811D911DA11D20D009F468943F9121
:102E60002AE0269F11243019305D3193DEF6CF0120
:102E70000895462F4770405D4193B3E00FD0C9F7E6
:102E8000F6CF462F4F70405D4A3318F0495D31FD53
:102E90004052419302D0A9F7EACFB4E0A6959795A6
:102EA000879577956795BA95C9F70097610571057C
:102EB00008959B01AC010A2E0694579547953795C6
:102EC0002795BA95C9F7620F731F841F951FA01D20
:102ED00008950E94FF3E0E94E44B0E94EF4B0E9427
:102EE000F73FFDCF109269000895DA01833010F0AA
:102EF0008EEF0895643010F08FEF089520916900EF
:102F0000482F50E0FA01EE0FFF1F83E090E00E2EF5
:102F100002C0880F991F0A94E2F78095822380935C
:102F2000690020916900862F90E00E2E02C0880F64
:102F3000991F0A94E2F7282B20936900E050F94F7B
:102F4000B183A0832DB381E090E002C0880F991F68
:102F50004A95E2F7282B2DBB80E00895382F833067
:102F600050F42DB381E090E002C0880F991F3A958C
:102F7000E2F7282B2DBB0895382F833058F42DB35A
:102F800081E090E002C0880F991F3A95E2F78095A2
:102F900082238DBB08951F920F920FB60F921124BA
:102FA0002F933F934F935F936F937F938F939F9351
:102FB000AF93BF93EF93FF93E0910007F091010768
:102FC0000995FF91EF91BF91AF919F918F917F9163
:102FD0006F915F914F913F912F910F900FBE0F9086
:102FE0001F9018951F920F920FB60F9211242F93D6
:102FF0003F934F935F936F937F938F939F93AF9381
:10300000BF93EF93FF93E0910207F09103070995B7
:10301000FF91EF91BF91AF919F918F917F916F91B0
:103020005F914F913F912F910F900FBE0F901F9086
:1030300018951F920F920FB60F9211242F933F9362
:103040004F935F936F937F938F939F93AF93BF93B0
:10305000EF93FF93E0910407F09105070995FF9125
:10306000EF91BF91AF919F918F917F916F915F9100
:103070004F913F912F910F900FBE0F901F90189579
:10308000FC01EE0FFF1FEE0FFF1FE80FF91FEA5FB5
:10309000F84F86E084830895A0E0B0E0E2E5F8E12F
:1030A0000C94C16A7B018C01609383077093840741
:1030B00080938507909386078CE697E090937E0730
:1030C00080937D07C801B70120E831E541E050E079
:1030D0000E947C6AD62EC72EB82EA92EC801B70131
:1030E00020E831E541E050E00E947C6AE9016D2D65
:1030F0007C2D8B2D9A2D2CE330E040E050E00E9497
:103100007C6A609377076D2D7C2D8B2D9A2D20E1A5
:103110003EE040E050E00E947C6A2CE330E040E07A
:1031200050E00E947C6A209378076D2D7C2D8B2DBA
:103130009A2D20E13EE040E050E00E947C6A20931E
:103140007907CE01049667E070E00E94556A80938B
:103150007A072CC080917D0790917E0783709070D4
:10316000892BB9F480917D0790917E0764E670E029
:103170000E94556A892B51F480917D0790917E07BA
:1031800060E971E00E94556A892B19F48EE691E09E
:1031900002C08DE691E0C81BD90B80917D0790910C
:1031A0007E07019690937E0780937D0780917D072F
:1031B00090917E0783709070892BB9F480917D0780
:1031C00090917E0764E670E00E94556A892B51F465
:1031D00080917D0790917E0760E971E00E94556AB9
:1031E000892B19F48EE691E002C08DE691E0C817B4
:1031F000D90708F0AFCF10927C073CC080917D07C3
:1032000090917E0783709070892B19F080E090E098
:103210001CC080917D0790917E0764E670E00E945B
:10322000556A892B19F081E090E00FC080917D07ED
:1032300090917E0720E030E060E971E00E94556ADD
:10324000892B11F421E030E0C90120917C07213065
:1032500011F4845E08C0273008F0215020FD02C020
:103260008FE101C08EE1C81BD10980917C078F5F7F
:1032700080937C0780917D0790917E07837090708A
:10328000892B19F080E090E01CC080917D0790911F
:103290007E0764E670E00E94556A892B19F081E090
:1032A00090E00FC080917D0790917E0720E030E094
:1032B00060E971E00E94556A892B11F421E030E049
:1032C000C90120917C07213011F4845E08C02730A9
:1032D00008F0215020FD02C08FE101C08EE190E096
:1032E000C817D90708F08ACF80917C078F5F809339
:1032F0007C079E012F5F20937B0780917C078330A2
:1033000010F430E008C080917C0730E08B3008F08A
:1033100031E081E0382780917B0720917A0790E0A7
:10332000821B910949976CF080917A07882321F4D8
:1033300080917907823028F080917C078A3031F4BF
:1033400064C080917C07833009F45FC0332309F4A3
:103350005CC0809179078F5F8093790780917907AE
:10336000883109F052C01092790780917A078F5FF7
:1033700080937A0780917A07873011F410927A0748
:1033800040917B0780917D0790917E0783709070BC
:10339000892B19F080E090E01CC080917D0790910E
:1033A0007E0764E670E00E94556A892B19F081E07F
:1033B00090E00FC080917D0790917E0720E030E083
:1033C00060E971E00E94556A892B11F421E030E038
:1033D000C90120917C07213011F4845E08C0273098
:1033E00008F0215020FD02C08FE101C08EE1481796
:1033F00039F410927B0780917C078F5F80937C0764
:1034000080917B078F5F80937B07CDB7DEB7EAE0C3
:103410000C94DD6A0F931F93CF93DF93809176070F
:103420008F5F8093760780917607843611F011E0E4
:103430005AC010927607809177078F5F8093770745
:1034400080917F0790918007A0918107B0918207BA
:103450000196A11DB11D80937F0790938007A093D3
:103460008107B09382078091830790918407A09190
:103470008507B09186070196A11DB11D8093830732
:1034800090938407A0938507B09386078091770770
:103490008C3311F012E027C01092770780917807E3
:1034A0008F5F80937807809178078C3311F013E059
:1034B0001AC010927807809179078F5F80937907FF
:1034C00060918307709184078091850790918607AA
:1034D0000E944C1880917907883111F014E003C0E4
:1034E0001092790715E0C0E0D0E001E0FE01EE0F98
:1034F000FF1FEE0FFF1FE85AF84F8081181790F05A
:10350000FE01EE0FFF1FEE0FFF1F123020F0EA5AF0
:10351000F84F038307C0EA5AF84F13820190F081F5
:10352000E02D09952196C830D10501F720E030E063
:10353000F901EE0FFF1FEE0FFF1FEA5AF84FDF01F0
:1035400013968381813041F41C920190F081E02D2B
:10355000099520E030E006C02F5F3F4F283031054D
:1035600039F7F7CFF901EE0FFF1FEE0FFF1FE20F44
:10357000F31FEA5FF84F8481181798F080819181DA
:10358000A281B3810097A105B10559F08081918195
:10359000A281B3810197A109B10980839183A2839C
:1035A000B3832F5F3F4F20313105E1F6DF91CF919B
:1035B0001F910F9108950F931F938C010E943A1C45
:1035C00080917607F80180838091770781838091CD
:1035D0007807828380917907838380917A07848337
:1035E00080917B07858380917C07868380917D070E
:1035F00090917E079087878380917F0790918007C5
:10360000A0918107B091820781879287A387B487B1
:103610008091830790918407A0918507B0918607D8
:1036200085879687A787B08B0E94401C80E090E03A
:103630001F910F910895EF92FF920F931F938C01AA
:103640000E943A1CF801EE0FFF1FEE0FFF1FE00F64
:10365000F11FEA5FF84FE080F180028113810E9440
:10366000401CC7011F910F91FF90EF900895BF92EA
:10367000CF92DF92EF92FF920F931F936C017B0129
:10368000B42E0E943A1C00E010E0F601EE0FFF1F7E
:10369000EE0FFF1FEC0DFD1DEA5FF84FE082F18297
:1036A00002831383B4820E94401C1F910F91FF90EC
:1036B000EF90DF90CF90BF900895CF93DF930E945B
:1036C0003A1CC0E0D0E0FE01EE0FFF1FEE0FFF1F1F
:1036D000EC0FFD1FEA5FF84F8481863039F41082C9
:1036E0001182128213820E94401C08C02196C031B0
:1036F000D10549F70E94401CCFEFDFEFCE01DF91EB
:10370000CF9108951F93CF93DF93EC01162F0E9462
:103710003A1C20E030E0F901EE0FFF1FEE0FFF1F13
:10372000EA5AF84F808191818C179D07E9F02F5F4D
:103730003F4F2830310579F7E0E0F0E0DF01AA0FD4
:10374000BB1FAA0FBB1FAA5AB84F8D919C9111970E
:10375000892B71F41196DC93CE93EE0FFF1FEE0FC1
:10376000FF1FE85AF84F10830E94401C80E007C0FA
:103770003196E830F10511F70E94401C8FEFDF9180
:10378000CF911F91089580E090E026E0FC01EE0FBC
:10379000FF1FEE0FFF1FEA5AF84F11821082FC0143
:1037A000EE0FFF1FEE0FFF1FE85AF84F2083019620
:1037B0008830910559F780E090E026E0FC01EE0F9B
:1037C000FF1FEE0FFF1FE80FF91FEA5FF84F10828F
:1037D000118212821382248301968031910571F740
:1037E00010927F0710928007109281071092820733
:1037F0001092830710928407109285071092860713
:103800006091830770918407809185079091860766
:103810000E944C1884E690E060E070E00E94151C65
:103820008AE09AE10E946F1C08950F931F938B0109
:1038300010928807109287072AE0209381009C014C
:1038400083E0220F331F8A95E1F740E050E060E00B
:1038500074E284EF90E00E949E6A201B310B30934B
:1038600089002093880082E080936F00C9011F9136
:103870000F910895EFE6F0E080818D7F80830895B9
:10388000EFE6F0E080818260808308951F920F92BE
:103890000FB60F9211242F933F934F935F936F9323
:1038A0007F938F939F93AF93BF93EF93FF93E09199
:1038B0008707F0918807309709F00995FF91EF91FC
:1038C000BF91AF919F918F917F916F915F914F9138
:1038D0003F912F910F900FBE0F901F901895209140
:1038E0008707309188072817390711F480E0089579
:1038F000232B11F08FEF089590938807809387070B
:1039000080E00895FC0183E0EE0FFF1F8A95E1F748
:10391000E759FE4F0190F081E02D09950895FC01D3
:1039200093E0EE0FFF1F9A95E1F7E559FE4F0190E6
:10393000F081E02D862F09950895FC0133E0EE0F0C
:10394000FF1F3A95E1F7E759FE4F0680F781E02D1A
:10395000CB01BA01099508951F920F920FB60F92ED
:1039600011248F93EF93FF93E1ECF0E080818F7B44
:1039700080831092C601FF91EF918F910F900FBE3F
:103980000F901F9018951F920F920FB60F9211244F
:103990002F933F934F935F936F937F938F939F9357
:1039A000AF93BF93EF93FF938091CB079091CC0798
:1039B0000E948D3D892B49F08091CB079091CC07D7
:1039C0000E94FB3D8093C6000AC08091C1008064C4
:1039D0008093C1008091C1008F7D8093C100FF91D1
:1039E000EF91BF91AF919F918F917F916F915F9177
:1039F0004F913F912F910F900FBE0F901F901895F0
:103A00001F93182FF8948091C7019091C801A0913D
:103A1000C901B091CA010196A11DB11D8093C701D2
:103A20009093C801A093C901B093CA018091CB07BC
:103A30009091CC070E948D3D892B31F58091C60174
:103A4000813091F48091CB079091CC07612F0E9437
:103A5000A63D8091C1008F7B8093C1008091C10001
:103A600080628093C10022C01093C6008091C10083
:103A700080648093C1008091C1008F7D8093C100DC
:103A800081E08093C60112C0F8948091CB07909199
:103A9000CC070E948D3D809714F07894F5CF8091EB
:103AA000CB079091CC07612F0E94A63D78941F917F
:103AB00008951F920F920FB60F9211241F932F9308
:103AC0003F934F935F936F937F938F939F93AF93A6
:103AD000BF93EF93FF938091CB019091CC01A09184
:103AE000CD01B091CE010196A11DB11D8093CB01F6
:103AF0009093CC01A093CD01B093CE011091C6005C
:103B00008091C9079091CA070E948D3D80973CF42F
:103B10008091C9079091CA07612F0E94A63DFF912D
:103B2000EF91BF91AF919F918F917F916F915F9135
:103B30004F913F912F911F910F900FBE0F901F90AB
:103B400018950E94413D89E897E060E270E00E948C
:103B5000613D9093CA078093C90789EA97E060E2C4
:103B600070E00E94613D9093CC078093CB07109248
:103B7000C6011092C50080E18093C40088E980935B
:103B8000C1008EE08093C20008950F931F93CF93DE
:103B9000DF93EC018B012C9880E090E06AE70E94B3
:103BA0008F1C08C0F80161918F0180E090E00E94B5
:103BB0008F1C21972097B1F72C9ADF91CF911F91FD
:103BC0000F9108951F93142F2C986F71682B80E02C
:103BD00090E00E948F1C80E090E0612F0E948F1C7B
:103BE0002C9A1F9108951F93CF93DF93182FC82FFE
:103BF000D0E0C076D0708091D00790E0C817D90788
:103C000091F080EA6FE143E00E94E21D85E0D595E6
:103C1000C7958A95E1F780E86FE14C2F0E94E21D7D
:103C200010761093D007DF91CF911F9108950F93D5
:103C30001F93182F062F0E94F31D80E4612F402F41
:103C40000E94E21D1F910F9108950F931F938C0105
:103C500084EEF80160810E94171E85EEF8016181F3
:103C60000E94171E82EEF80162810E94171E83EEE9
:103C7000F80163810E94171E80EEF80164810E94A2
:103C8000171E81EEF80165810E94171E1F910F918A
:103C900008951F93162F2C986F71682B80E090E089
:103CA0000E948F1C80E090E060E00E948F1C17FF54
:103CB00005C080E090E060E00E948F1C2C9A1F916C
:103CC00008951F93182F0E94F31D80E0612F0E941A
:103CD000491E1F910895EF92FF920F931F938C013D
:103CE0007B0182E060E00E94171E83E064E10E9495
:103CF000171E86E0602F0E94171E980120503C4E30
:103D000087E0632F0E94171E8AE760E040E00E9470
:103D1000E21DC801B7010E94C51D80E86FE148E0BF
:103D20000E94E21D8FE10E94611E83FDFBCF1F9167
:103D30000F91FF90EF9008950F931F93982F162FD8
:103D4000072F84ED692F0E94171E86ED612F0E94B8
:103D5000171E87ED602F0E94171E8AEE0E94611EBB
:103D600080FDFBCF1F910F91089580E090E00E94AD
:103D7000821C249A2C9A8FEF60E04FEF0E94E21D84
:103D80008DE10E94611E80FFFBCF82E70E94611ED1
:103D90008093CF071092CE071092CD0788E060E0A5
:103DA0000E94171E89E060E00E94171E8CE060E010
:103DB0000E94171E8DE060E00E94171E8AE06EEFE1
:103DC0000E94171E8BE063E10E94171E84E060E0F2
:103DD0000E94171E85E064E10E94171E80EC6DE0D2
:103DE0000E94171E81EC60E00E94171E88EC63E0C1
:103DF0000E94171E80E862EC42E30E94E21D86ECFE
:103E000062E10E94171E87EC6CE00E94171E84EC92
:103E100062E10E94171E8AEC60E00E94171E8BEC84
:103E200062E00E94171E80E160E071E00E949C1E2B
:103E30008FE10E94F31D80E86BE140EC0E94E21DDF
:103E400080E86FE144E00E94E21D84E166E774E0EF
:103E50000E949C1E08950F931F93682F84ED0E946B
:103E6000171E82ED61E00E94171E8AEE0E94611EFD
:103E700080FDFBCF82ED60E00E94171E88ED0E945E
:103E8000611E082F10E089ED0E94611E382F20E08E
:103E9000202B312BC9011F910F91089581E00E94C1
:103EA0002B1F969587959695879580958170089597
:103EB00080EA6FE14CE00E94E21D80E00E942B1F2F
:103EC000BC017E7F80E00E949C1E82EC0E94611EED
:103ED000682F70E06E7F82EC0E94171E80E86FE111
:103EE00044E00E94E21D0895EF92FF920F931F930A
:103EF0007C018B012C9880E090E06AE30E948F1C8B
:103F000080E090E0B801A7010E949D1C2C9A1F91AF
:103F10000F91FF90EF900895A0E0B0E0E2E9FFE19B
:103F20000C94C16AEC017B018CE10E94611E86FD4C
:103F300006C089E30E94611E882309F448C080E01E
:103F40006091CD070E94171E6091CE0781E00E940C
:103F5000171E8AE360E00E94491E082F10E01093AC
:103F6000CE070093CD078AE360E00E94491E382FF8
:103F700020E0202B312B3093CE072093CD078AE30E
:103F800060E00E94491EA82EBB248AE360E00E94E4
:103F9000491E382F20E0A22AB32A8AE360E00E945B
:103FA000491E8AE360E00E94491ECA15DB0590F4B1
:103FB0008CE06091CD070E94171E6091CE078DE0C6
:103FC0000E94171E80E86EE140E40E94E21DAA24D0
:103FD000BB2442C0C501B7010E94741F89E00E9442
:103FE000611E182F00E088E00E94611EC82E8BE041
:103FF0000E94611EF82EEE248AE00E94611EC82FE6
:10400000D0E0CE29DF296091CD077091CE07CB019A
:104010000197DD240C291D298017910718F0C81776
:10402000D90738F48CE06C2F0E94171E8DE06D2F9D
:104030000CC061508CE00E94171E2091CD0730917A
:10404000CE07215030408DE0632F0E94171E80E87C
:104050006EE140E40E94E21DC501CDB7DEB7EAE0A3
:104060000C94DD6A8FB7F8941092D2071092D107A2
:104070001092D4071092D3071092D6071092D5074A
:104080001092D8071092D7078FBF0895E82F8FB7E7
:10409000F894F0E0EE0FFF1FEF52F84F718360834A
:1040A0008FBF80E090E00895E8E6F0E0908121E0A5
:1040B00030E002C0220F331F8A95E2F7922B9083E3
:1040C00080E090E00895382F2091680041E050E0B2
:1040D000CA01062E02C0880F991F0A94E2F7282B06
:1040E00020936800613091F0613028F06230C9F0AF
:1040F000633061F521C080916B0002C0440F551FF1
:104100003A95E2F7842B80936B0020C080916C007D
:1041100002C0440F551F3A95E2F7842B80936C0040
:1041200015C080916D0002C0440F551F3A95E2F70B
:10413000842B80936D000AC08091730002C0440FED
:10414000551F3A95E2F7842B8093730080E090E04E
:1041500008951F920F920FB60F9211242F933F9341
:104160004F935F936F937F938F939F93AF93BF937F
:10417000EF93FF93D89A8091D1079091D207892B22
:1041800029F0E091D107F091D2070995FF91EF91C5
:10419000BF91AF919F918F917F916F915F914F915F
:1041A0003F912F910F900FBE0F901F9018951F9267
:1041B0000F920FB60F9211242F933F934F935F935B
:1041C0006F937F938F939F93AF93BF93EF93FF93DF
:1041D000D99A8091D3079091D407892B29F0E09147
:1041E000D307F091D4070995FF91EF91BF91AF915B
:1041F0009F918F917F916F915F914F913F912F91FF
:104200000F900FBE0F901F9018951F920F920FB630
:104210000F9211242F933F934F935F936F937F934C
:104220008F939F93AF93BF93EF93FF93DA9A80910D
:10423000D5079091D607892B29F0E091D507F09109
:10424000D6070995FF91EF91BF91AF919F918F9103
:104250007F916F915F914F913F912F910F900FBE82
:104260000F901F9018951F920F920FB60F92112466
:104270002F933F934F935F936F937F938F939F936E
:10428000AF93BF93EF93FF93DB9A8091D707909101
:10429000D807892B29F0E091D707F091D807099525
:1042A000FF91EF91BF91AF919F918F917F916F910E
:1042B0005F914F913F912F910F900FBE0F901F90E4
:1042C00018952F9A84B1806A84B9269880E58CBDB0
:1042D00081E08DBD08958EBD0DB407FEFDCF8EB576
:1042E0000895DC018C918EBD81E090E009C0FD0154
:1042F000E80FF91FE0810DB407FEFDCFEEBD01967A
:1043000086179707A0F30DB407FEFDCF0895AC0103
:104310001EBC20E030E00BC00DB407FEFDCF1EBC7C
:104320008EB5FA01E20FF31F80832F5F3F4F2617F0
:10433000370790F30DB407FEFDCF08955D988AB15D
:1043400084628AB954980895282F90E080E0880FFD
:1043500027FF02C05A9A01C05A985D9A4C99816011
:104360005D989F5F983011F0220FF1CF089520E003
:1043700030E013C0FC01E20FF31FE08140E0E7FFF3
:1043800002C05A9A01C05A985D9A5D984F5F4830B2
:1043900011F0EE0FF4CF2F5F3F4F2617370750F382
:1043A0000895FC015A9880E090E030E00BC020E0D6
:1043B000330F5D9A1C9931605D982F5F2830C1F7EB
:1043C000319301968617970790F308951F920F92E5
:1043D0000FB60F9211242F933F934F935F936F93D8
:1043E0007F938F939F93AF93BF93EF93FF93E0914E
:1043F000D907F091DA07309709F00995FF91EF910D
:10440000BF91AF919F918F917F916F915F914F91EC
:104410003F912F910F900FBE0F901F901895A0E025
:10442000B0E0E5E1F2E20C94C16A6C017B01B62ECA
:10443000AF2C8B01025F1F4FFB018685682F70E058
:104440006F707070660F771F660F771F625F7F4F08
:10445000E701C60FD71F6E5070408881882309F48A
:1044600041C0883009F04AC0F80184859585A68549
:10447000B785808B918BA28BB38B809141019091FA
:104480004201A0914301B091440184879587A6879A
:10449000B78713861286C8010E94DD370E94D9377C
:1044A000F80193878287188219828A81883F18F0E1
:1044B0008B818F5F8B838A81885F8A832B2D3A2D36
:1044C000C901FC01ABE3B1E0868180838D918683D5
:1044D000319621E0A134B207B9F7C601B7010E94B5
:1044E0004D300CC08C819D818D519C4A39F4809156
:1044F0003901813019F482E080933901CDB7DEB7FC
:10450000EAE00C94DD6A8091DB07882311F01092B9
:10451000DB078091F107882311F01092F1070895CD
:104520009C01823091051CF02FEF3FEF0EC086E119
:1045300090E0289FF001299FF00D389FF00D112485
:10454000E552F84F8081282F30E0C90108959C0181
:10455000823091051CF02FEF3FEF0DC086E190E017
:10456000289FF001299FF00D389FF00D1124E5528E
:10457000F84F21893289C90108959C018230910543
:104580001CF02FEF3FEF11C086E190E0289FF00173
:10459000299FF00D389FF00D1124E552F84F128A33
:1045A000118A80E1808320E030E0C90108959C01F8
:1045B0008230910594F486E190E0289FF001299FD4
:1045C000F00D389FF00D1124E552F84F80818823BB
:1045D00021F0108220E030E002C02FEF3FEFC90150
:1045E0000895A0E0B0E0E7EFF2E20C94BB6AAC0102
:1045F0009EE0A92EB12CA40EB51EDA011E968C9158
:10460000C82FD0E0CF70D070CC0FDD1FCC0FDD1FD6
:104610002E96C40FD51F88809980C0904501D090F8
:104620004601E0904701F0904801ECEDF7E060E0D2
:1046300070E0068117810815190541F42481358140
:104640008A819B812817390709F459C0D5015096F2
:104650004D905D906D907C9053974C145D046E046A
:104660007F0441F4248135818A819B812817390791
:1046700009F445C0248135818A819B812817390737
:1046800009F03FC001151105E1F580819181A281FA
:10469000B3810097A105B105A1F586E190E0689F7F
:1046A000F001699FF00D789FF00D1124E552F84F4D
:1046B000D5011C960D911D912D913C911F97018361
:1046C0001283238334838881998190878783DA01D9
:1046D00016968C911697818717968C9117978287DB
:1046E00018968C911897838719968C9119978487BF
:1046F0001A968C911A9785871B968C918687FB0159
:1047000009C06F5F7F4F76966230710509F091CFD7
:10471000EFEFFFEFCF01CDB7DEB7E0E10C94D76A42
:104720000F931F93CF93DF939C01FA018230910581
:104730001CF02FEF3FEF2DC08685C82FD0E0CF7043
:10474000D070CC0FDD1FCC0FDD1F2E96CE0FDF1FDC
:1047500086E190E0289F8001299F100D389F100D61
:1047600011240552184FF801878190859B838A8315
:1047700085819681998388831F821E82CB0108964A
:104780000E94D9379D838C838EE1F801858B20E0D0
:1047900030E0C901DF91CF911F910F910895A0E002
:1047A000B0E0E5EDF3E20C94C26A6B01DB011E960A
:1047B000BC90CB010E94F1227C01BFEF8F3F9B0791
:1047C00009F467C086E190E0E89E8001E99E100D43
:1047D000F89E100D11240552184FF8018081803287
:1047E00009F457C0CB2DD0E0CF70D070CC0FDD1FB7
:1047F000CC0FDD1F2E96CC0DDD1D8C819D810E947E
:10480000D937089709F445C08C819D810E94D9371A
:10481000D8011F962D913C915097089782179307C6
:1048200038F48C819D810E94D9379C0128503040FA
:1048300086E190E0E89EF001E99EF00DF89EF00D13
:104840001124E552F84F328B218B80E280838EE178
:10485000858BD6011E968C91A82FB0E0AF70B070FA
:10486000AA0FBB1FAA0FBB1FA20FB31FAC0DBD1D0C
:10487000EF0163960AC021503040E881F981E20FD0
:10488000F31F56968C915697808311972115310509
:1048900091F7CDB7DEB7E9E00C94DE6AA0E0B0E0B6
:1048A000E4E5F4E20C94BB6A4C015B018A014DB66D
:1048B0005EB682E0881691041CF02FEF3FEF52C0E5
:1048C0000E9447307AE2672E712C6A0C7B1CEDB790
:1048D000FEB7E619F7090FB6F894FEBF0FBEEDBF9D
:1048E000CDB6DEB60894C11CD11C85E4F6018687DE
:1048F000ADB7BEB79B9620E030E007C0F801E20FED
:10490000F31F80818D932F5F3F4F2A153B05B0F336
:1049100086E190E0889E7001899EF00C989EF00CD4
:104920001124F701E552F84F6181728183819481EE
:104930009501285F3F4F41E186010E948B33C401FE
:10494000B501A6010E949023C7018C51984FB60172
:104950000E942630C301B6010E944D300E944130B2
:1049600020E030E0C9010FB6F8945EBE0FBE4DBE28
:104970002096E0E10C94D76AA0E0B0E0E2ECF4E22B
:104980000C94BB6A5B016C017A01390128018091AA
:10499000DB07882319F400E010E00AC08091F107DA
:1049A000882321F088248A94982C93C001E010E099
:1049B000480186E190E0089FE001099FD00D189F13
:1049C000D00D1124C552D84F80E18883C7010E94C1
:1049D000D93798878F8383E4E816F10419F484E4C7
:1049E00090E007C08FEBE81683E3F80639F48FEB0D
:1049F00093E30E94D9379E838D8304C0E094F094A2
:104A0000FE82ED8286E190E0089FE001099FD00DD3
:104A1000189FD00D1124FE01E552F84FA182B282F9
:104A2000C382D482128A118A708A6786548A438A22
:104A30008EE1858B8FEFA8168FEFB8068FEFC80633
:104A40008FEFD80659F12091490130914A014091E8
:104A50004B0150914C018091410190914201A091F4
:104A60004301B09144018A259B25AC25BD258223B5
:104A70009323A423B5230097A105B105E9F420955C
:104A8000309540955095D601C50182239323A423E8
:104A9000B52382179307A407B50741F48FEF8187E9
:104AA0008287838784878587868713C0AE014C51B0
:104AB000584FC601B5010BC060914D0170914E0178
:104AC00080914F0190915001AE014C51584F0E947E
:104AD000D031C401CDB7DEB7E0E10C94D76A1092B3
:104AE0003A01089581E080933A010895A0E0B0E092
:104AF000ECE7F5E20C94C16AFC018C01025F1F4FE8
:104B00008685C82FD0E0CF70D070CC0FDD1FCC0FC2
:104B1000DD1F2E96CE0FDF1F60E070E040EAA42E6E
:104B2000B12C30E5C32ED12C28E2E22EF12C6A9D67
:104B3000D0016B9DB00D7A9DB00D1124A75FB74FCA
:104B40008C918823B1F16C9DF0016D9DF00D7C9DE1
:104B5000F00D1124EE0FFF1FE55FF74F208131812B
:104B6000888199812817390721F56E9DF0016F9D85
:104B7000F00D7E9DF00D1124EE0FFF1FEE0FFF1FB5
:104B8000E35FF74F208131818A819B8128173907A4
:104B900081F416962D913D914D915C911997F801F4
:104BA00084859585A685B785281739074A075B0749
:104BB00041F06F5F7F4F6330710509F0B8CF6FEF41
:104BC0007FEFCB01CDB7DEB7EAE00C94DD6AAC0134
:104BD00020E030E0F901EE0FFF1FE751F64F808132
:104BE0009181892B29F45183408320E030E007C074
:104BF0002F5F3F4F2430310569F72FEF3FEFC90199
:104C000008959C018330910510F08FEF089580EA9C
:104C100090E0289FF001299FF00D389FF00D11249E
:104C2000E75FF74F80810895A0E0B0E0EAE1F6E2A7
:104C30000C94C16A7C01C0E0D0E018E2A12EB12C36
:104C4000B0EACB2ED12CCA9DF001CB9DF00DDA9DA0
:104C5000F00D1124EE0FFF1FEE0FFF1FE35FF74F64
:104C600000811181C7010E94D9370817190779F40B
:104C7000CC9DF001CD9DF00DDC9DF00D1124E75F82
:104C8000F74F80818F3019F480E1808306C0219630
:104C9000C330D105C1F6CFEFDFEFCE01CDB7DEB720
:104CA000EAE00C94DD6A9C0183309105A0F480EA6F
:104CB00090E0289FF001299FF00D389FF00D1124FE
:104CC000E75FF74F8081882331F0868D978D0E94B2
:104CD000443E9C0102C02FEF3FEFC90108959C01A3
:104CE00083309105A0F480EA90E0289FF001299F8D
:104CF000F00D389FF00D1124E75FF74F8081882376
:104D000031F0868D978D0E948D3D9C0102C02FEF62
:104D10003FEFC9010895AF92BF92CF92DF92FF9209
:104D20000F931F93CF93DF93EC015B016A01FA01AC
:104D3000068580EA90E0C89FF001C99FF00DD89FDA
:104D4000F00D1124E75FF74F868D978D0E94633E2B
:104D50008A159B0518F4CFEFDFEF3BC0E02FF0E0A2
:104D6000EF70F070EE0FFF1FEE0FFF1F3E96EC0D81
:104D7000FD1D8485F601068510E00F701070000F90
:104D8000111F000F111F90E0807F907095958795FF
:104D900095958795080F191F025F1F4F0E94473096
:104DA000FFB6789480EA90E0C89FF001C99FF00DAB
:104DB000D89FF00D1124E75FF74F868D978DE501A1
:104DC0000C0D1D1DB501A8010E947D3EFFBE0E9475
:104DD0004130CE01DF91CF911F910F91FF90DF9075
:104DE000CF90BF90AF900895A0E0B0E0EAEFF6E278
:104DF0000C94C36AEC01DC011E96EE8480910908D4
:104E0000882359F480911F0890912008892B29F458
:104E100060E070E0CC24DD2421C08091A9088823C3
:104E200061F48091BF089091C008892B31F461E052
:104E300070E091E0C92ED12C11C0809149098823DE
:104E400009F090C080915F0990916009892B09F069
:104E500089C062E070E082E0C82ED12CFF248FE090
:104E6000E822FF24EE0CFF1CEE0CFF1CEEE0F0E04D
:104E7000EE0EFF1EEC0EFD1EF7012081318180E554
:104E800090E0689FF001699FF00D789FF00D11246C
:104E9000EE0FFF1FE55FF74F31832083F70122817B
:104EA000338188E290E0689FF001699FF00D789F60
:104EB000F00D1124EE0FFF1FEE0FFF1FE35FF74F02
:104EC000318320831C962D913D914D915C911F97CC
:104ED00080EA90E0689F8001699F100D789F100D17
:104EE0001124075F174FF8012683378340875187C6
:104EF000F70164817581868197810E949E37609554
:104F0000709580959095F80162877387848795875F
:104F1000F70164817581868197810E949E37F8012F
:104F200066877787808B918B11828AE090E0978BE0
:104F3000868B868D978D0E94443EF70186859785E6
:104F4000F801938B828B158A148A8E81808F8F81D2
:104F5000818F8885828F8985838F8A85848F8B85D1
:104F6000858F03C0CC24CA94DC2CC601CDB7DEB734
:104F7000E8E00C94DF6A2F923F924F925F926F921B
:104F80007F928F929F92BF92CF92DF92EF92FF9289
:104F90000F931F93CF93DF932C01B62E3A01690133
:104FA0004801E801A2960A5E1F4F80EA90E0489E01
:104FB0007001499EF00C589EF00C112489E098E095
:104FC000E80EF91EF70186819781A085B185F4016D
:104FD000868B978BA08FB18F809141019091420178
:104FE000A0914301B0914401F80184839583A68385
:104FF000B783108686E0818740E2242E312C260C70
:10500000371CC1010E94D937F8019387828788E253
:1050100090E0489EF001499EF00D589EF00D11243D
:10502000EE0FFF1FEE0FFF1FE35FF74F80819181AF
:10503000F40193A382A380E590E0489EF001499E8D
:10504000F00D589EF00D1124EE0FFF1FE55FF74F96
:10505000808191819B838A83F70162857385848532
:1050600095850E949E376C837D838E839F83F70195
:1050700066857785808991890E949E3768877987C0
:105080008A879B8780E88C87BD86C6010E94D937B6
:105090009F878E87198A188A1B8A1A8AF70180814E
:1050A000813069F482E08C8B84E08D8B1E8A80E4F1
:1050B0008F8B188E198E1A8E1B8E1C8E10C01C8A18
:1050C00088E48D8B85E78E8B82E78F8B888F89E6CE
:1050D000898F83E68A8F81E68B8F8EE68C8F8CE2B8
:1050E00090E0680E791EC4014696B3010E94DD3738
:1050F0000E94D937998B888B80EA90E0489E700196
:10510000499EF00C589EF00C1124F701E75FF74F11
:10511000668177818085918546E0910184010E94B6
:105120008B33C7018F5D974FB4010E942630C301B6
:105130004696B4010E944D30DF91CF911F910F919F
:10514000FF90EF90DF90CF90BF909F908F907F90D7
:105150006F905F904F903F902F900895A2E4B0E041
:10516000E4EBF8E20C94C46A7C0183E0E816F104F5
:10517000C8F580EA90E0E89E8001E99E100DF89E57
:10518000100D1124075F174FF8018081882351F11A
:10519000868D978D0E948D3D892B21F10E9447308D
:1051A000F801868D978D0E94FB3DD82EF801868DE3
:1051B000978D0E948D3D892B91F4F801868D978DF6
:1051C0000E948D3D20E830E0281B390BC70160E1CB
:1051D00040E050E08E010F5F1F4F0E94BB270E94EE
:1051E000413001C0DD248D2DCE5BDF4FE7E00C9414
:1051F000E06AA2E8B0E0EFEFF8E20C94B96A2C01A3
:105200003B01180183E04816510408F001C180EA0F
:1052100090E0489EF001499EF00D589EF00D11243B
:10522000E75FF74F8081882309F4F2C0222369F0F9
:10523000213009F0EDC0FA01DE01AD5BBF4F9E01E8
:10524000260F371F2D5B3F4F13C0DA01FE01ED5BC8
:10525000FF4F9E01260F371F2D5B3F4F02C08D91E0
:105260008193E217F307D9F706C084918D933196A5
:10527000A217B307D1F70E94473080EA90E0489E1A
:105280007001499EF00C589EF00C1124E9E0F8E002
:10529000EE0EFF1EF701868D978D0E948D3D20E852
:1052A00030E0281B390BC20168E1A3018E010F5FBA
:1052B0001F4F0E94BB27F70182859385A485B58582
:1052C0005301CC24DD248A0D9B1DAC1DBD1D82879E
:1052D0009387A487B587758A648A0E9441300E94AB
:1052E0005D1B4C01FFEF8F3F9F0709F491C0121423
:1052F00013041CF06CE070E007C083E02816310452
:1053000034F4C40168EC70E041E00E94371B0E9455
:10531000473080EA90E0489E7001499EF00C589E0C
:10532000F00C1124E9E0F8E0EE0EFF1EF701828593
:105330009385A485B5858A199B09AC09BD09828727
:105340009387A487B587758A648A868D978D0E9416
:105350008D3D20E830E0281B390BC20160E140E0C0
:1053600050E08E010F5F1F4F0E94BB27F70182851F
:105370009385A485B5858A0D9B1DAC1DBD1D8287B7
:105380009387A487B587758A648A0E94413084E137
:1053900090E0E80EF91E87010E944730C4010E9488
:1053A0001B1B892B31F5C4010E94401880EA90E054
:1053B000489EF001499EF00D589EF00D1124E75FC4
:1053C000F74F82859385A485B5858A199B09AC0919
:1053D000BD0982879387A487B5870E944130809159
:1053E000CF019091D00101969093D0018093CF018D
:1053F0000FC0F80180819181892B39F4C4010E948A
:1054000040180E944130A30105C00E944130C4CF22
:105410004FEF5FEFCA01CE57DF4FE2E10C94D56A40
:10542000A2E4B0E0E6E1FAE20C94BD6A4C0183E04C
:105430008816910408F0B9C080EA90E0889E700157
:10544000899EF00C989EF00C1124E9E0F8E0EE0E35
:10545000FF1EF7018081882309F4A7C00E945D1B0D
:105460008C01FFEF8F3F9F0709F49FC068EC70E04D
:1054700041E00E94371B67010894C11CD11CF60152
:105480008081882369F5C8010E941B1B892B41F18B
:10549000C8010E9440180E944730F701868D978D01
:1054A0000E948D3D10E8C12ED12C9601281B390B8E
:1054B000C40161E140E050E03E010894611C711CB0
:1054C00083010E94BB2781E7F70180830E9441305E
:1054D0000E945D1B5C01FFEF8F3F9F07B1F465C029
:1054E000C8010E941B1B892B51F680EA90E0889E20
:1054F000F001899EF00D989EF00D1124E75FF74FA3
:10550000178A168A1082C8014EC068EC70E041E02C
:105510000E94371B0E944730F701868D978D0E94AD
:105520008D3DC81AD90AC40161E140E050E09601FE
:1055300083010E94BB270E94413080EA90E0889E50
:105540008001899E100D989E100D1124075F174F42
:105550000E944730F8018081882359F4C5010E94D8
:105560001B1B892B31F0C5010E9440180E9441305D
:105570001CC00E944130C5010E941B1B892B41F7B2
:105580000E94473080EA90E0889EF001899EF00DED
:10559000989EF00D1124E75FF74F178A168A108244
:1055A0000E944130C5010E944018CE5BDF4FEEE003
:1055B0000C94D96AA5E0B0E0E0EEFAE20C94B96A86
:1055C0005C012B015A834983322E8330910508F008
:1055D000A8C080EA90E0A89EF001A99EF00DB89EB8
:1055E000F00D1124E75FF74F8081882309F499C0FB
:1055F0004B0166E0969487946A95E1F76A01662408
:1056000077241D821C8236C0C70101979D838C833D
:10561000332029F091E0391609F083C00EC0C5018E
:1056200060E470E04B81522D20E00C811D810E94CE
:10563000F9288F5F9F4FB9F40DC0C50160E470E099
:105640004B81522D21E00C811D810E94F9288F5F32
:105650009F4F49F4FD82EC820894E11CF11C24E088
:10566000E216F10489F60894611C711C80E490E054
:10567000C80ED91E6814790434F4CB822D2C31E085
:10568000E32EF12CC1CFEC81FD81339709F443C0A7
:105690002FE3822E912C8420952081149104B9F15E
:1056A000630196E0CC0CDD1C9A95E1F789819A8123
:1056B000C80ED91E81E0E82EF12CF7013197FD8349
:1056C000EC83332021F0F1E03F1659F50CC0C50101
:1056D000B401A60120E00C811D810E94F9288F5F92
:1056E0009F4FA9F40BC0C501B401A60121E00C81B4
:1056F0001D810E94F9288F5F9F4F49F4FD82EC8243
:105700000894E11CF11CF4E0EF16F104B1F68C8171
:105710009D81039721F4C5010E94102A02C0B201A5
:1057200002C06FEF7FEFCB012596E2E10C94D56AC2
:10573000A2E4B0E0EEE9FBE20C94BC6A80913A018D
:10574000882309F46EC0CC24DD24F0EAAF2EB12CFE
:105750004E010894811C911CE0E86E2E712C71E7BB
:10576000572ECA9CF001CB9CF00DDA9CF00D112451
:10577000E75FF74F86899789892B29F08689978972
:105780000197978B868B0E944730CA9C7001CB9CF7
:10579000F00CDA9CF00C112489E098E0E80EF91E78
:1057A000F701868997890A97A1F48081882389F077
:1057B000868D978D0E948D3D9301281B390BC60164
:1057C00061E140E050E084010E94BB27F701508274
:1057D0001EC0CA9C7001CB9CF00CDA9CF00C11240A
:1057E00089E098E0E80EF91EF70186899789892BF0
:1057F00071F48081882359F0C60164E040E050E0F4
:1058000020E030E084010E94BB27F70110820E9453
:1058100041300894C11CD11CF3E0CF16D10409F02B
:10582000A0CFCE5BDF4FEFE00C94D86AA4E0B0E0ED
:10583000ECE1FCE20C94B96A1B018B01025F1F4F83
:10584000FB018685882E9924FFE08F229924880CFD
:10585000991C880C991C2EE030E0820E931E860E57
:10586000971ECB010E94762589839A832C01F4012F
:10587000858583718587FFEF4F16FFEF5F06C1F4C3
:10588000F401828193810E94D937AC0120E030E09D
:10589000F901EE0FFF1FE751F64F808191818417C8
:1058A000950731F02F5F3F4F2430310589F788C3CA
:1058B000F4018585823009F047C0C1010E94F426B9
:1058C000AC01FFEF8F3F9F0709F47AC380EA90E0B5
:1058D000489F7001499FF00C589FF00C112429E05B
:1058E00038E0E20EF31E81E0F7018083F401868543
:1058F0009785F701938B828B86859785A089B189DF
:105900000196A11DB11D86879787A08BB18BCA0117
:1059100062E140E050E020E830E081010E94BB27D6
:10592000F70182859385A485B5850196A11DB11DDA
:1059300082879387A487B58784E08083118282E081
:1059400090E0978B868B3CC3FFEF4F16FFEF5F060F
:1059500009F436C380EA90E0489E9001499E300DDC
:10596000589E300D1124275F374F3C832B838EE1E7
:1059700090E0F901978B868BF4018585823169F57A
:1059800060857185828593850E949E37EB81FC81BD
:105990006287738784879587F40164817581868126
:1059A00097810E949E37EB81FC8166877787808B89
:1059B000918B86859785A089B1890196A11DB11D1E
:1059C00086879787A08BB18BF40186859785EB81BD
:1059D000FC81938B828B80E1CDC2F801828193811F
:1059E0000E94D937F4014485F101268530E02F70FB
:1059F0003070220F331F220F331F50E0407F507052
:105A000055954795559547953C01621A730A641A56
:105A1000750A5301CC24DD24EB81FC81868D978DA2
:105A20000E94633EAA2797FDA095BA2F8A159B0571
:105A3000AC05BD0508F4C4C2A114B104C104D1046D
:105A400009F468C1EB81FC81E684F784008911893F
:105A5000F40164817581868197810E949E37E616E4
:105A6000F7060807190709F0B2C089819A81B301C6
:105A7000A1010E948B268F5F9F4F89F0F401648102
:105A80007581868197810E949E376A0D7B1D8C1DD2
:105A90009D1DEB81FC8166877787808B918B80EAE7
:105AA00090E0489E7001499EF00C589EF00C112425
:105AB00029E038E0E20EF31EF701868D978D0E94F3
:105AC0008D3D20E830E0281B390B89819A8160E107
:105AD00040E050E081010E94BB276090F309709084
